{
  "address": "0x815b5f00E0eE341e114064efCD9B04147f4E1317",
  "abi": [
    {
      "anonymous": false,
      "inputs": [
        {
          "indexed": true,
          "internalType": "address",
          "name": "owner",
          "type": "address"
        },
        {
          "indexed": true,
          "internalType": "address",
          "name": "spender",
          "type": "address"
        },
        {
          "indexed": false,
          "internalType": "uint256",
          "name": "value",
          "type": "uint256"
        }
      ],
      "name": "Approval",
      "type": "event"
    },
    {
      "anonymous": false,
      "inputs": [
        {
          "indexed": false,
          "internalType": "uint256",
          "name": "moduleIndex",
          "type": "uint256"
        },
        {
          "indexed": false,
          "internalType": "address",
          "name": "eligibilityAddr",
          "type": "address"
        }
      ],
      "name": "EligibilityDeployed",
      "type": "event"
    },
    {
      "anonymous": false,
      "inputs": [
        {
          "indexed": false,
          "internalType": "bool",
          "name": "enabled",
          "type": "bool"
        }
      ],
      "name": "EnableMintUpdated",
      "type": "event"
    },
    {
      "anonymous": false,
      "inputs": [
        {
          "indexed": false,
          "internalType": "bool",
          "name": "enabled",
          "type": "bool"
        }
      ],
      "name": "EnableRandomRedeemUpdated",
      "type": "event"
    },
    {
      "anonymous": false,
      "inputs": [
        {
          "indexed": false,
          "internalType": "bool",
          "name": "enabled",
          "type": "bool"
        }
      ],
      "name": "EnableRandomSwapUpdated",
      "type": "event"
    },
    {
      "anonymous": false,
      "inputs": [
        {
          "indexed": false,
          "internalType": "bool",
          "name": "enabled",
          "type": "bool"
        }
      ],
      "name": "EnableTargetRedeemUpdated",
      "type": "event"
    },
    {
      "anonymous": false,
      "inputs": [
        {
          "indexed": false,
          "internalType": "bool",
          "name": "enabled",
          "type": "bool"
        }
      ],
      "name": "EnableTargetSwapUpdated",
      "type": "event"
    },
    {
      "anonymous": false,
      "inputs": [
        {
          "indexed": false,
          "internalType": "address",
          "name": "manager",
          "type": "address"
        }
      ],
      "name": "ManagerSet",
      "type": "event"
    },
    {
      "anonymous": false,
      "inputs": [
        {
          "indexed": false,
          "internalType": "string",
          "name": "oldName",
          "type": "string"
        },
        {
          "indexed": false,
          "internalType": "string",
          "name": "oldSymbol",
          "type": "string"
        },
        {
          "indexed": false,
          "internalType": "string",
          "name": "newName",
          "type": "string"
        },
        {
          "indexed": false,
          "internalType": "string",
          "name": "newSymbol",
          "type": "string"
        }
      ],
      "name": "MetaDataChange",
      "type": "event"
    },
    {
      "anonymous": false,
      "inputs": [
        {
          "indexed": false,
          "internalType": "uint256[]",
          "name": "nftIds",
          "type": "uint256[]"
        },
        {
          "indexed": false,
          "internalType": "uint256[]",
          "name": "amounts",
          "type": "uint256[]"
        },
        {
          "indexed": false,
          "internalType": "address",
          "name": "to",
          "type": "address"
        }
      ],
      "name": "Minted",
      "type": "event"
    },
    {
      "anonymous": false,
      "inputs": [
        {
          "indexed": true,
          "internalType": "address",
          "name": "previousOwner",
          "type": "address"
        },
        {
          "indexed": true,
          "internalType": "address",
          "name": "newOwner",
          "type": "address"
        }
      ],
      "name": "OwnershipTransferred",
      "type": "event"
    },
    {
      "anonymous": false,
      "inputs": [
        {
          "indexed": false,
          "internalType": "uint256[]",
          "name": "nftIds",
          "type": "uint256[]"
        },
        {
          "indexed": false,
          "internalType": "uint256[]",
          "name": "specificIds",
          "type": "uint256[]"
        },
        {
          "indexed": false,
          "internalType": "address",
          "name": "to",
          "type": "address"
        }
      ],
      "name": "Redeemed",
      "type": "event"
    },
    {
      "anonymous": false,
      "inputs": [
        {
          "indexed": false,
          "internalType": "uint256[]",
          "name": "nftIds",
          "type": "uint256[]"
        },
        {
          "indexed": false,
          "internalType": "uint256[]",
          "name": "amounts",
          "type": "uint256[]"
        },
        {
          "indexed": false,
          "internalType": "uint256[]",
          "name": "specificIds",
          "type": "uint256[]"
        },
        {
          "indexed": false,
          "internalType": "uint256[]",
          "name": "redeemedIds",
          "type": "uint256[]"
        },
        {
          "indexed": false,
          "internalType": "address",
          "name": "to",
          "type": "address"
        }
      ],
      "name": "Swapped",
      "type": "event"
    },
    {
      "anonymous": false,
      "inputs": [
        {
          "indexed": true,
          "internalType": "address",
          "name": "from",
          "type": "address"
        },
        {
          "indexed": true,
          "internalType": "address",
          "name": "to",
          "type": "address"
        },
        {
          "indexed": false,
          "internalType": "uint256",
          "name": "value",
          "type": "uint256"
        }
      ],
      "name": "Transfer",
      "type": "event"
    },
    {
      "anonymous": false,
      "inputs": [
        {
          "indexed": true,
          "internalType": "uint256",
          "name": "vaultId",
          "type": "uint256"
        },
        {
          "indexed": false,
          "internalType": "address",
          "name": "assetAddress",
          "type": "address"
        },
        {
          "indexed": false,
          "internalType": "bool",
          "name": "is1155",
          "type": "bool"
        },
        {
          "indexed": false,
          "internalType": "bool",
          "name": "allowAllItems",
          "type": "bool"
        }
      ],
      "name": "VaultInit",
      "type": "event"
    },
    {
      "anonymous": false,
      "inputs": [
        {
          "indexed": false,
          "internalType": "address",
          "name": "assetAddress",
          "type": "address"
        },
        {
          "indexed": false,
          "internalType": "uint256",
          "name": "numItems",
          "type": "uint256"
        },
        {
          "indexed": false,
          "internalType": "address",
          "name": "recipient",
          "type": "address"
        }
      ],
      "name": "VaultShutdown",
      "type": "event"
    },
    {
      "inputs": [
        {
          "internalType": "string",
          "name": "_name",
          "type": "string"
        },
        {
          "internalType": "string",
          "name": "_symbol",
          "type": "string"
        },
        {
          "internalType": "address",
          "name": "_assetAddress",
          "type": "address"
        },
        {
          "internalType": "bool",
          "name": "_is1155",
          "type": "bool"
        },
        {
          "internalType": "bool",
          "name": "_allowAllItems",
          "type": "bool"
        }
      ],
      "name": "__NFTXVault_init",
      "outputs": [],
      "stateMutability": "nonpayable",
      "type": "function"
    },
    {
      "inputs": [],
      "name": "allHoldings",
      "outputs": [
        {
          "internalType": "uint256[]",
          "name": "",
          "type": "uint256[]"
        }
      ],
      "stateMutability": "view",
      "type": "function"
    },
    {
      "inputs": [
        {
          "internalType": "uint256[]",
          "name": "tokenIds",
          "type": "uint256[]"
        }
      ],
      "name": "allValidNFTs",
      "outputs": [
        {
          "internalType": "bool",
          "name": "",
          "type": "bool"
        }
      ],
      "stateMutability": "view",
      "type": "function"
    },
    {
      "inputs": [],
      "name": "allowAllItems",
      "outputs": [
        {
          "internalType": "bool",
          "name": "",
          "type": "bool"
        }
      ],
      "stateMutability": "view",
      "type": "function"
    },
    {
      "inputs": [
        {
          "internalType": "address",
          "name": "owner",
          "type": "address"
        },
        {
          "internalType": "address",
          "name": "spender",
          "type": "address"
        }
      ],
      "name": "allowance",
      "outputs": [
        {
          "internalType": "uint256",
          "name": "",
          "type": "uint256"
        }
      ],
      "stateMutability": "view",
      "type": "function"
    },
    {
      "inputs": [
        {
          "internalType": "address",
          "name": "spender",
          "type": "address"
        },
        {
          "internalType": "uint256",
          "name": "amount",
          "type": "uint256"
        }
      ],
      "name": "approve",
      "outputs": [
        {
          "internalType": "bool",
          "name": "",
          "type": "bool"
        }
      ],
      "stateMutability": "nonpayable",
      "type": "function"
    },
    {
      "inputs": [],
      "name": "assetAddress",
      "outputs": [
        {
          "internalType": "address",
          "name": "",
          "type": "address"
        }
      ],
      "stateMutability": "view",
      "type": "function"
    },
    {
      "inputs": [
        {
          "internalType": "address",
          "name": "account",
          "type": "address"
        }
      ],
      "name": "balanceOf",
      "outputs": [
        {
          "internalType": "uint256",
          "name": "",
          "type": "uint256"
        }
      ],
      "stateMutability": "view",
      "type": "function"
    },
    {
      "inputs": [],
      "name": "decimals",
      "outputs": [
        {
          "internalType": "uint8",
          "name": "",
          "type": "uint8"
        }
      ],
      "stateMutability": "view",
      "type": "function"
    },
    {
      "inputs": [
        {
          "internalType": "address",
          "name": "spender",
          "type": "address"
        },
        {
          "internalType": "uint256",
          "name": "subtractedValue",
          "type": "uint256"
        }
      ],
      "name": "decreaseAllowance",
      "outputs": [
        {
          "internalType": "bool",
          "name": "",
          "type": "bool"
        }
      ],
      "stateMutability": "nonpayable",
      "type": "function"
    },
    {
      "inputs": [
        {
          "internalType": "uint256",
          "name": "moduleIndex",
          "type": "uint256"
        },
        {
          "internalType": "bytes",
          "name": "initData",
          "type": "bytes"
        }
      ],
      "name": "deployEligibilityStorage",
      "outputs": [
        {
          "internalType": "address",
          "name": "",
          "type": "address"
        }
      ],
      "stateMutability": "nonpayable",
      "type": "function"
    },
    {
      "inputs": [],
      "name": "disableVaultFees",
      "outputs": [],
      "stateMutability": "nonpayable",
      "type": "function"
    },
    {
      "inputs": [],
      "name": "eligibilityStorage",
      "outputs": [
        {
          "internalType": "contract INFTXEligibility",
          "name": "",
          "type": "address"
        }
      ],
      "stateMutability": "view",
      "type": "function"
    },
    {
      "inputs": [],
      "name": "enableMint",
      "outputs": [
        {
          "internalType": "bool",
          "name": "",
          "type": "bool"
        }
      ],
      "stateMutability": "view",
      "type": "function"
    },
    {
      "inputs": [],
      "name": "enableRandomRedeem",
      "outputs": [
        {
          "internalType": "bool",
          "name": "",
          "type": "bool"
        }
      ],
      "stateMutability": "view",
      "type": "function"
    },
    {
      "inputs": [],
      "name": "enableRandomSwap",
      "outputs": [
        {
          "internalType": "bool",
          "name": "",
          "type": "bool"
        }
      ],
      "stateMutability": "view",
      "type": "function"
    },
    {
      "inputs": [],
      "name": "enableTargetRedeem",
      "outputs": [
        {
          "internalType": "bool",
          "name": "",
          "type": "bool"
        }
      ],
      "stateMutability": "view",
      "type": "function"
    },
    {
      "inputs": [],
      "name": "enableTargetSwap",
      "outputs": [
        {
          "internalType": "bool",
          "name": "",
          "type": "bool"
        }
      ],
      "stateMutability": "view",
      "type": "function"
    },
    {
      "inputs": [
        {
          "internalType": "address",
          "name": "target",
          "type": "address"
        },
        {
          "internalType": "bytes",
          "name": "data",
          "type": "bytes"
        }
      ],
      "name": "executeOnBehalfOfVault",
      "outputs": [],
      "stateMutability": "payable",
      "type": "function"
    },
    {
      "inputs": [],
      "name": "finalizeVault",
      "outputs": [],
      "stateMutability": "nonpayable",
      "type": "function"
    },
    {
      "inputs": [
        {
          "internalType": "address",
          "name": "token",
          "type": "address"
        },
        {
          "internalType": "uint256",
          "name": "amount",
          "type": "uint256"
        }
      ],
      "name": "flashFee",
      "outputs": [
        {
          "internalType": "uint256",
          "name": "",
          "type": "uint256"
        }
      ],
      "stateMutability": "view",
      "type": "function"
    },
    {
      "inputs": [
        {
          "internalType": "contract IERC3156FlashBorrowerUpgradeable",
          "name": "receiver",
          "type": "address"
        },
        {
          "internalType": "address",
          "name": "token",
          "type": "address"
        },
        {
          "internalType": "uint256",
          "name": "amount",
          "type": "uint256"
        },
        {
          "internalType": "bytes",
          "name": "data",
          "type": "bytes"
        }
      ],
      "name": "flashLoan",
      "outputs": [
        {
          "internalType": "bool",
          "name": "",
          "type": "bool"
        }
      ],
      "stateMutability": "nonpayable",
      "type": "function"
    },
    {
      "inputs": [
        {
          "internalType": "address",
          "name": "spender",
          "type": "address"
        },
        {
          "internalType": "uint256",
          "name": "addedValue",
          "type": "uint256"
        }
      ],
      "name": "increaseAllowance",
      "outputs": [
        {
          "internalType": "bool",
          "name": "",
          "type": "bool"
        }
      ],
      "stateMutability": "nonpayable",
      "type": "function"
    },
    {
      "inputs": [],
      "name": "is1155",
      "outputs": [
        {
          "internalType": "bool",
          "name": "",
          "type": "bool"
        }
      ],
      "stateMutability": "view",
      "type": "function"
    },
    {
      "inputs": [
        {
          "internalType": "bytes32",
          "name": "hash",
          "type": "bytes32"
        },
        {
          "internalType": "bytes",
          "name": "signature",
          "type": "bytes"
        }
      ],
      "name": "isValidSignature",
      "outputs": [
        {
          "internalType": "bytes4",
          "name": "magicValue",
          "type": "bytes4"
        }
      ],
      "stateMutability": "view",
      "type": "function"
    },
    {
      "inputs": [],
      "name": "manager",
      "outputs": [
        {
          "internalType": "address",
          "name": "",
          "type": "address"
        }
      ],
      "stateMutability": "view",
      "type": "function"
    },
    {
      "inputs": [
        {
          "internalType": "address",
          "name": "token",
          "type": "address"
        }
      ],
      "name": "maxFlashLoan",
      "outputs": [
        {
          "internalType": "uint256",
          "name": "",
          "type": "uint256"
        }
      ],
      "stateMutability": "view",
      "type": "function"
    },
    {
      "inputs": [
        {
          "internalType": "uint256[]",
          "name": "tokenIds",
          "type": "uint256[]"
        },
        {
          "internalType": "uint256[]",
          "name": "amounts",
          "type": "uint256[]"
        }
      ],
      "name": "mint",
      "outputs": [
        {
          "internalType": "uint256",
          "name": "",
          "type": "uint256"
        }
      ],
      "stateMutability": "nonpayable",
      "type": "function"
    },
    {
      "inputs": [],
      "name": "mintFee",
      "outputs": [
        {
          "internalType": "uint256",
          "name": "",
          "type": "uint256"
        }
      ],
      "stateMutability": "view",
      "type": "function"
    },
    {
      "inputs": [
        {
          "internalType": "uint256[]",
          "name": "tokenIds",
          "type": "uint256[]"
        },
        {
          "internalType": "uint256[]",
          "name": "amounts",
          "type": "uint256[]"
        },
        {
          "internalType": "address",
          "name": "to",
          "type": "address"
        }
      ],
      "name": "mintTo",
      "outputs": [
        {
          "internalType": "uint256",
          "name": "",
          "type": "uint256"
        }
      ],
      "stateMutability": "nonpayable",
      "type": "function"
    },
    {
      "inputs": [],
      "name": "name",
      "outputs": [
        {
          "internalType": "string",
          "name": "",
          "type": "string"
        }
      ],
      "stateMutability": "view",
      "type": "function"
    },
    {
      "inputs": [
        {
          "internalType": "uint256",
          "name": "holdingsIndex",
          "type": "uint256"
        }
      ],
      "name": "nftIdAt",
      "outputs": [
        {
          "internalType": "uint256",
          "name": "",
          "type": "uint256"
        }
      ],
      "stateMutability": "view",
      "type": "function"
    },
    {
      "inputs": [
        {
          "internalType": "address",
          "name": "operator",
          "type": "address"
        },
        {
          "internalType": "address",
          "name": "",
          "type": "address"
        },
        {
          "internalType": "uint256[]",
          "name": "",
          "type": "uint256[]"
        },
        {
          "internalType": "uint256[]",
          "name": "",
          "type": "uint256[]"
        },
        {
          "internalType": "bytes",
          "name": "",
          "type": "bytes"
        }
      ],
      "name": "onERC1155BatchReceived",
      "outputs": [
        {
          "internalType": "bytes4",
          "name": "",
          "type": "bytes4"
        }
      ],
      "stateMutability": "nonpayable",
      "type": "function"
    },
    {
      "inputs": [
        {
          "internalType": "address",
          "name": "operator",
          "type": "address"
        },
        {
          "internalType": "address",
          "name": "",
          "type": "address"
        },
        {
          "internalType": "uint256",
          "name": "",
          "type": "uint256"
        },
        {
          "internalType": "uint256",
          "name": "",
          "type": "uint256"
        },
        {
          "internalType": "bytes",
          "name": "",
          "type": "bytes"
        }
      ],
      "name": "onERC1155Received",
      "outputs": [
        {
          "internalType": "bytes4",
          "name": "",
          "type": "bytes4"
        }
      ],
      "stateMutability": "nonpayable",
      "type": "function"
    },
    {
      "inputs": [
        {
          "internalType": "address",
          "name": "operator",
          "type": "address"
        },
        {
          "internalType": "address",
          "name": "",
          "type": "address"
        },
        {
          "internalType": "uint256",
          "name": "",
          "type": "uint256"
        },
        {
          "internalType": "bytes",
          "name": "",
          "type": "bytes"
        }
      ],
      "name": "onERC721Received",
      "outputs": [
        {
          "internalType": "bytes4",
          "name": "",
          "type": "bytes4"
        }
      ],
      "stateMutability": "nonpayable",
      "type": "function"
    },
    {
      "inputs": [],
      "name": "owner",
      "outputs": [
        {
          "internalType": "address",
          "name": "",
          "type": "address"
        }
      ],
      "stateMutability": "view",
      "type": "function"
    },
    {
      "inputs": [],
      "name": "randomRedeemFee",
      "outputs": [
        {
          "internalType": "uint256",
          "name": "",
          "type": "uint256"
        }
      ],
      "stateMutability": "view",
      "type": "function"
    },
    {
      "inputs": [],
      "name": "randomSwapFee",
      "outputs": [
        {
          "internalType": "uint256",
          "name": "",
          "type": "uint256"
        }
      ],
      "stateMutability": "view",
      "type": "function"
    },
    {
      "inputs": [
        {
          "internalType": "uint256",
          "name": "amount",
          "type": "uint256"
        },
        {
          "internalType": "uint256[]",
          "name": "specificIds",
          "type": "uint256[]"
        }
      ],
      "name": "redeem",
      "outputs": [
        {
          "internalType": "uint256[]",
          "name": "",
          "type": "uint256[]"
        }
      ],
      "stateMutability": "nonpayable",
      "type": "function"
    },
    {
      "inputs": [
        {
          "internalType": "uint256",
          "name": "amount",
          "type": "uint256"
        },
        {
          "internalType": "uint256[]",
          "name": "specificIds",
          "type": "uint256[]"
        },
        {
          "internalType": "address",
          "name": "to",
          "type": "address"
        }
      ],
      "name": "redeemTo",
      "outputs": [
        {
          "internalType": "uint256[]",
          "name": "",
          "type": "uint256[]"
        }
      ],
      "stateMutability": "nonpayable",
      "type": "function"
    },
    {
      "inputs": [],
      "name": "renounceOwnership",
      "outputs": [],
      "stateMutability": "nonpayable",
      "type": "function"
    },
    {
      "inputs": [
        {
          "internalType": "uint256",
          "name": "amount",
          "type": "uint256"
        },
        {
          "internalType": "address",
          "name": "from",
          "type": "address"
        },
        {
          "internalType": "address",
          "name": "to",
          "type": "address"
        }
      ],
      "name": "retrieveTokens",
      "outputs": [],
      "stateMutability": "nonpayable",
      "type": "function"
    },
    {
      "inputs": [
        {
          "internalType": "uint256",
          "name": "_mintFee",
          "type": "uint256"
        },
        {
          "internalType": "uint256",
          "name": "_randomRedeemFee",
          "type": "uint256"
        },
        {
          "internalType": "uint256",
          "name": "_targetRedeemFee",
          "type": "uint256"
        },
        {
          "internalType": "uint256",
          "name": "_randomSwapFee",
          "type": "uint256"
        },
        {
          "internalType": "uint256",
          "name": "_targetSwapFee",
          "type": "uint256"
        }
      ],
      "name": "setFees",
      "outputs": [],
      "stateMutability": "nonpayable",
      "type": "function"
    },
    {
      "inputs": [
        {
          "internalType": "address",
          "name": "_manager",
          "type": "address"
        }
      ],
      "name": "setManager",
      "outputs": [],
      "stateMutability": "nonpayable",
      "type": "function"
    },
    {
      "inputs": [
        {
          "internalType": "bool",
          "name": "_enableMint",
          "type": "bool"
        },
        {
          "internalType": "bool",
          "name": "_enableRandomRedeem",
          "type": "bool"
        },
        {
          "internalType": "bool",
          "name": "_enableTargetRedeem",
          "type": "bool"
        },
        {
          "internalType": "bool",
          "name": "_enableRandomSwap",
          "type": "bool"
        },
        {
          "internalType": "bool",
          "name": "_enableTargetSwap",
          "type": "bool"
        }
      ],
      "name": "setVaultFeatures",
      "outputs": [],
      "stateMutability": "nonpayable",
      "type": "function"
    },
    {
      "inputs": [
        {
          "internalType": "string",
          "name": "name_",
          "type": "string"
        },
        {
          "internalType": "string",
          "name": "symbol_",
          "type": "string"
        }
      ],
      "name": "setVaultMetadata",
      "outputs": [],
      "stateMutability": "nonpayable",
      "type": "function"
    },
    {
      "inputs": [
        {
          "internalType": "address",
          "name": "recipient",
          "type": "address"
        }
      ],
      "name": "shutdown",
      "outputs": [],
      "stateMutability": "nonpayable",
      "type": "function"
    },
    {
      "inputs": [
        {
          "internalType": "bytes4",
          "name": "interfaceId",
          "type": "bytes4"
        }
      ],
      "name": "supportsInterface",
      "outputs": [
        {
          "internalType": "bool",
          "name": "",
          "type": "bool"
        }
      ],
      "stateMutability": "view",
      "type": "function"
    },
    {
      "inputs": [
        {
          "internalType": "uint256[]",
          "name": "tokenIds",
          "type": "uint256[]"
        },
        {
          "internalType": "uint256[]",
          "name": "amounts",
          "type": "uint256[]"
        },
        {
          "internalType": "uint256[]",
          "name": "specificIds",
          "type": "uint256[]"
        }
      ],
      "name": "swap",
      "outputs": [
        {
          "internalType": "uint256[]",
          "name": "",
          "type": "uint256[]"
        }
      ],
      "stateMutability": "nonpayable",
      "type": "function"
    },
    {
      "inputs": [
        {
          "internalType": "uint256[]",
          "name": "tokenIds",
          "type": "uint256[]"
        },
        {
          "internalType": "uint256[]",
          "name": "amounts",
          "type": "uint256[]"
        },
        {
          "internalType": "uint256[]",
          "name": "specificIds",
          "type": "uint256[]"
        },
        {
          "internalType": "address",
          "name": "to",
          "type": "address"
        }
      ],
      "name": "swapTo",
      "outputs": [
        {
          "internalType": "uint256[]",
          "name": "",
          "type": "uint256[]"
        }
      ],
      "stateMutability": "nonpayable",
      "type": "function"
    },
    {
      "inputs": [],
      "name": "symbol",
      "outputs": [
        {
          "internalType": "string",
          "name": "",
          "type": "string"
        }
      ],
      "stateMutability": "view",
      "type": "function"
    },
    {
      "inputs": [],
      "name": "targetRedeemFee",
      "outputs": [
        {
          "internalType": "uint256",
          "name": "",
          "type": "uint256"
        }
      ],
      "stateMutability": "view",
      "type": "function"
    },
    {
      "inputs": [],
      "name": "targetSwapFee",
      "outputs": [
        {
          "internalType": "uint256",
          "name": "",
          "type": "uint256"
        }
      ],
      "stateMutability": "view",
      "type": "function"
    },
    {
      "inputs": [],
      "name": "totalHoldings",
      "outputs": [
        {
          "internalType": "uint256",
          "name": "",
          "type": "uint256"
        }
      ],
      "stateMutability": "view",
      "type": "function"
    },
    {
      "inputs": [],
      "name": "totalSupply",
      "outputs": [
        {
          "internalType": "uint256",
          "name": "",
          "type": "uint256"
        }
      ],
      "stateMutability": "view",
      "type": "function"
    },
    {
      "inputs": [
        {
          "internalType": "address",
          "name": "recipient",
          "type": "address"
        },
        {
          "internalType": "uint256",
          "name": "amount",
          "type": "uint256"
        }
      ],
      "name": "transfer",
      "outputs": [
        {
          "internalType": "bool",
          "name": "",
          "type": "bool"
        }
      ],
      "stateMutability": "nonpayable",
      "type": "function"
    },
    {
      "inputs": [
        {
          "internalType": "address",
          "name": "sender",
          "type": "address"
        },
        {
          "internalType": "address",
          "name": "recipient",
          "type": "address"
        },
        {
          "internalType": "uint256",
          "name": "amount",
          "type": "uint256"
        }
      ],
      "name": "transferFrom",
      "outputs": [
        {
          "internalType": "bool",
          "name": "",
          "type": "bool"
        }
      ],
      "stateMutability": "nonpayable",
      "type": "function"
    },
    {
      "inputs": [
        {
          "internalType": "address",
          "name": "newOwner",
          "type": "address"
        }
      ],
      "name": "transferOwnership",
      "outputs": [],
      "stateMutability": "nonpayable",
      "type": "function"
    },
    {
      "inputs": [],
      "name": "vaultFactory",
      "outputs": [
        {
          "internalType": "contract INFTXVaultFactory",
          "name": "",
          "type": "address"
        }
      ],
      "stateMutability": "view",
      "type": "function"
    },
    {
      "inputs": [],
      "name": "vaultFees",
      "outputs": [
        {
          "internalType": "uint256",
          "name": "",
          "type": "uint256"
        },
        {
          "internalType": "uint256",
          "name": "",
          "type": "uint256"
        },
        {
          "internalType": "uint256",
          "name": "",
          "type": "uint256"
        },
        {
          "internalType": "uint256",
          "name": "",
          "type": "uint256"
        },
        {
          "internalType": "uint256",
          "name": "",
          "type": "uint256"
        }
      ],
      "stateMutability": "view",
      "type": "function"
    },
    {
      "inputs": [],
      "name": "vaultId",
      "outputs": [
        {
          "internalType": "uint256",
          "name": "",
          "type": "uint256"
        }
      ],
      "stateMutability": "view",
      "type": "function"
    },
    {
      "inputs": [],
      "name": "version",
      "outputs": [
        {
          "internalType": "string",
          "name": "",
          "type": "string"
        }
      ],
      "stateMutability": "pure",
      "type": "function"
    }
  ],
  "transactionHash": "0x20379167e5a074ebf84a392864e412db0714129a8d46eadef5697958d9bcc25d",
  "args": [],
  "numDeployments": 2,
  "solcInputHash": "db5c3e47b2fbd1f2d5cab733609e3039",
  "bytecode": "0x608060405234801561001057600080fd5b506159c080620000216000396000f3fe6080604052600436106103ac5760003560e01c806379309658116101e7578063d0ebdbe71161010d578063e78458c4116100a0578063f2fde38b1161006f578063f2fde38b14610ba9578063f7fce33414610bc9578063fcc0e38114610bde578063feb8eba514610c0057600080fd5b8063e78458c414610b0f578063e9ec2e9914610b2f578063f1d20dd414610b44578063f23a6e6114610b6457600080fd5b8063d9d98ce4116100dc578063d9d98ce414610a69578063dd62ed3e14610a89578063e0a8b97a14610acf578063e0b4a79a14610aef57600080fd5b8063d0ebdbe7146109f4578063d53f621714610a14578063d6ee4a9314610a29578063d8a06f7314610a4957600080fd5b8063a9059cbb11610185578063c3cb8c1411610154578063c3cb8c141461097f578063c4a0db9614610994578063c4ff5247146109b4578063cce2f3fb146109d457600080fd5b8063a9059cbb146108e7578063b10402ea14610907578063b7cac50814610927578063bc197c811461093a57600080fd5b80638f878a43116101c15780638f878a431461087257806395d89b41146108925780639d54def6146108a7578063a457c2d7146108c757600080fd5b8063793096581461081a5780638c8508141461083d5780638da5cb5b1461085d57600080fd5b806333194c0a116102d757806354fd4d501161026a5780636b948a35116102395780636b948a351461077257806370a0823114610792578063715018a6146107c857806372188e3f146107dd57600080fd5b806354fd4d50146106cc5780635877aee6146107125780635cffe9de14610732578063613255ab1461075257600080fd5b806344b28d59116102a657806344b28d591461065057806345a0b65214610671578063481c6a75146106915780635035434a146106b157600080fd5b806333194c0a146105e557806335dca76c146105fb57806339509351146106105780633d5d190c1461063057600080fd5b806313966db51161034f5780631ba46cfd1161031e5780631ba46cfd1461054f57806323b872dd1461058757806325705d8d146105a7578063313ce567146105c957600080fd5b806313966db51461049a578063150b7a02146104bd5780631626ba7e1461051a57806318160ddd1461053a57600080fd5b806306f26dc21161038b57806306f26dc21461041d57806306fdde0314610438578063095ea7b31461045a5780630d636a091461047a57600080fd5b8062518161146103b157806301ffc9a7146103c857806304a66b48146103fd575b600080fd5b3480156103bd57600080fd5b506103c6610c15565b005b3480156103d457600080fd5b506103e86103e33660046152f0565b610c9f565b60405190151581526020015b60405180910390f35b34801561040957600080fd5b506103c66104183660046154db565b610d08565b34801561042957600080fd5b50610104546103e89060ff1681565b34801561044457600080fd5b5061044d610db5565b6040516103f49190615773565b34801561046657600080fd5b506103e8610475366004614f9e565b610e47565b34801561048657600080fd5b506103c6610495366004615223565b610e5d565b3480156104a657600080fd5b506104af610fd1565b6040519081526020016103f4565b3480156104c957600080fd5b506105016104d8366004614e7a565b7f150b7a0200000000000000000000000000000000000000000000000000000000949350505050565b6040516001600160e01b031990911681526020016103f4565b34801561052657600080fd5b506105016105353660046152ab565b611066565b34801561054657600080fd5b506067546104af565b34801561055b57600080fd5b5060fd5461056f906001600160a01b031681565b6040516001600160a01b0390911681526020016103f4565b34801561059357600080fd5b506103e86105a2366004614e3a565b61111f565b3480156105b357600080fd5b506105bc6111ec565b6040516103f4919061569f565b3480156105d557600080fd5b50604051601281526020016103f4565b3480156105f157600080fd5b506104af60fb5481565b34801561060757600080fd5b506104af6112ab565b34801561061c57600080fd5b506103e861062b366004614f9e565b61133f565b34801561063c57600080fd5b506104af61064b366004614fc9565b611376565b34801561065c57600080fd5b50610104546103e89062010000900460ff1681565b34801561067d57600080fd5b506104af61068c3660046153e2565b6113f0565b34801561069d57600080fd5b5060fc5461056f906001600160a01b031681565b3480156106bd57600080fd5b50610108546103e89060ff1681565b3480156106d857600080fd5b5060408051808201909152600681527f76312e302e360000000000000000000000000000000000000000000000000000602082015261044d565b34801561071e57600080fd5b5061056f61072d3660046154aa565b6113fe565b34801561073e57600080fd5b506103e861074d366004614e7a565b611613565b34801561075e57600080fd5b506104af61076d366004614d20565b61162b565b34801561077e57600080fd5b50610104546103e890610100900460ff1681565b34801561079e57600080fd5b506104af6107ad366004614d20565b6001600160a01b031660009081526065602052604090205490565b3480156107d457600080fd5b506103c6611653565b3480156107e957600080fd5b506107f26116fc565b604080519586526020860194909452928401919091526060830152608082015260a0016103f4565b34801561082657600080fd5b50610104546103e890640100000000900460ff1681565b34801561084957600080fd5b506105bc610858366004615170565b611796565b34801561086957600080fd5b5061056f611a3b565b34801561087e57600080fd5b5060ff5461056f906001600160a01b031681565b34801561089e57600080fd5b5061044d611ad6565b3480156108b357600080fd5b506105bc6108c236600461546d565b611ae5565b3480156108d357600080fd5b506103e86108e2366004614f9e565b611cf7565b3480156108f357600080fd5b506103e8610902366004614f9e565b611daa565b34801561091357600080fd5b506104af6109223660046150fb565b611db7565b6103c6610935366004614f4b565b611f10565b34801561094657600080fd5b50610501610955366004614d90565b7fbc197c810000000000000000000000000000000000000000000000000000000095945050505050565b34801561098b57600080fd5b506103c661205a565b3480156109a057600080fd5b506105bc6109af366004615430565b612066565b3480156109c057600080fd5b50610108546103e890610100900460ff1681565b3480156109e057600080fd5b506103c66109ef366004614d20565b6120a7565b348015610a0057600080fd5b506103c6610a0f366004614d20565b6121f3565b348015610a2057600080fd5b506104af61224f565b348015610a3557600080fd5b506105bc610a44366004615032565b6122e3565b348015610a5557600080fd5b5060fe5461056f906001600160a01b031681565b348015610a7557600080fd5b506104af610a84366004614f9e565b612390565b348015610a9557600080fd5b506104af610aa4366004614d58565b6001600160a01b03918216600090815260666020908152604080832093909416825291909152205490565b348015610adb57600080fd5b506103c6610aea366004615318565b6123f3565b348015610afb57600080fd5b506103c6610b0a3660046153fa565b6124bd565b348015610b1b57600080fd5b506103c6610b2a366004615375565b612535565b348015610b3b57600080fd5b506104af61278a565b348015610b5057600080fd5b506103e8610b5f3660046150c8565b612797565b348015610b7057600080fd5b50610501610b7f366004614ee4565b7ff23a6e610000000000000000000000000000000000000000000000000000000095945050505050565b348015610bb557600080fd5b506103c6610bc4366004614d20565b612862565b348015610bd557600080fd5b506104af612999565b348015610bea57600080fd5b50610104546103e8906301000000900460ff1681565b348015610c0c57600080fd5b506104af612a2e565b610c1d612ac3565b60fe5460fb546040517fc182f2b20000000000000000000000000000000000000000000000000000000081526001600160a01b039092169163c182f2b291610c6b9160040190815260200190565b600060405180830381600087803b158015610c8557600080fd5b505af1158015610c99573d6000803e3d6000fd5b50505050565b60006001600160e01b031982167f4e2312e0000000000000000000000000000000000000000000000000000000001480610d0257507f01ffc9a7000000000000000000000000000000000000000000000000000000006001600160e01b03198316145b92915050565b610d10612ac3565b60fe5460fb546040517f219962d200000000000000000000000000000000000000000000000000000000815260048101919091526024810187905260448101869052606481018590526084810184905260a481018390526001600160a01b039091169063219962d29060c401600060405180830381600087803b158015610d9657600080fd5b505af1158015610daa573d6000803e3d6000fd5b505050505050505050565b606060688054610dc4906158bb565b80601f0160208091040260200160405190810160405280929190818152602001828054610df0906158bb565b8015610e3d5780601f10610e1257610100808354040283529160200191610e3d565b820191906000526020600020905b815481529060010190602001808311610e2057829003601f168201915b5050505050905090565b6000610e54338484612b95565b50600192915050565b610e65612ac3565b610104805463ffff000019166201000087151590810263ff0000001916919091176301000000871515021764ff0000000019166401000000008615150217909155610108805461ffff191684151561ff00191617610100841515021790556040519081527fc604be2f834727754dc1ec1225c14d1ecde48e7d12fa7b745dfb137a3db998bd9060200160405180910390a160405184151581527f835d9397f97f5df575f718046bb3e918f911d39d7edfa79aa8d40ddc7d5ce2a59060200160405180910390a160405183151581527f64b60f32742df47d4ccb5b31ca12fee1bc20695467bfe8fa058b00ec446c15639060200160405180910390a160405182151581527f7e8b58aeb3d1d3a1777185c996f374a5d3c46ef3cd25a07ec6eb2569488d50589060200160405180910390a160405181151581527fbfb092a6cb2d49526b6982acab35d64782cf1c05f8c8f0dd88008b288bfa5af59060200160405180910390a15050505050565b60fe5460fb54604051632206137960e01b815260009283926001600160a01b039091169163220613799161100b9160040190815260200190565b60a06040518083038186803b15801561102357600080fd5b505afa158015611037573d6000803e3d6000fd5b505050506040513d601f19601f8201168201806040525081019061105b9190615515565b509295945050505050565b6000806110f960fe60009054906101000a90046001600160a01b03166001600160a01b031663c1d26ea46040518163ffffffff1660e01b815260040160206040518083038186803b1580156110ba57600080fd5b505afa1580156110ce573d6000803e3d6000fd5b505050506040513d601f19601f820116820180604052508101906110f29190614d3c565b8585612cee565b90508061110e576001600160e01b0319611117565b630b135d3f60e11b5b949350505050565b600061112c848484612d6d565b6001600160a01b0384166000908152606660209081526040808320338452909152902054828110156111cb5760405162461bcd60e51b815260206004820152602860248201527f45524332303a207472616e7366657220616d6f756e742065786365656473206160448201527f6c6c6f77616e636500000000000000000000000000000000000000000000000060648201526084015b60405180910390fd5b6111df85336111da8685615878565b612b95565b60019150505b9392505050565b606060006111fb610105612f8e565b905060008167ffffffffffffffff81111561122657634e487b7160e01b600052604160045260246000fd5b60405190808252806020026020018201604052801561124f578160200160208202803683370190505b50905060005b828110156112a45761126961010582612f98565b82828151811061128957634e487b7160e01b600052603260045260246000fd5b602090810291909101015261129d816158f6565b9050611255565b5092915050565b60fe5460fb54604051632206137960e01b815260009283926001600160a01b03909116916322061379916112e59160040190815260200190565b60a06040518083038186803b1580156112fd57600080fd5b505afa158015611311573d6000803e3d6000fd5b505050506040513d601f19601f820116820180604052508101906113359190615515565b9695505050505050565b3360008181526066602090815260408083206001600160a01b03871684529091528120549091610e549185906111da90869061582d565b60006113e785858080602002602001604051908101604052809392919081815260200183836020028082843760009201919091525050604080516020808902828101820190935288825290935088925087918291850190849080828437600092019190915250339250611db7915050565b95945050505050565b6000610d0261010583612f98565b6000611408612ac3565b60ff546001600160a01b0316156114875760405162461bcd60e51b815260206004820152602260248201527f4e4654585661756c743a20656c69676962696c69747920616c7265616479207360448201527f657400000000000000000000000000000000000000000000000000000000000060648201526084016111c2565b60fe54604080517f14c77faa00000000000000000000000000000000000000000000000000000000815290516000926001600160a01b0316916314c77faa916004808301926020929190829003018186803b1580156114e557600080fd5b505afa1580156114f9573d6000803e3d6000fd5b505050506040513d601f19601f8201168201806040525081019061151d9190614d3c565b90506000816001600160a01b031663576ff9088787876040518463ffffffff1660e01b8152600401611551939291906157e2565b602060405180830381600087803b15801561156b57600080fd5b505af115801561157f573d6000803e3d6000fd5b505050506040513d601f19601f820116820180604052508101906115a39190614d3c565b60ff80546001600160a01b0319166001600160a01b038316908117909155610104805461ff00191690556040805189815260208101929092529192507fe14c63b3d4272158635bee1d1b95b51bb8de042ee95a15cbfaf2865b4d0af811910160405180910390a195945050505050565b600061161f6004612fa4565b6113e7858585856130ac565b60006001600160a01b0382163014611644576000610d02565b606754610d0290600019615878565b3361165c611a3b565b6001600160a01b0316146116b25760405162461bcd60e51b815260206004820181905260248201527f4f776e61626c653a2063616c6c6572206973206e6f7420746865206f776e657260448201526064016111c2565b6033546040516000916001600160a01b0316907f8be0079c531659141344cd1fd0a4f28419497f9722a3daafe3b4186f6b6457e0908390a3603380546001600160a01b0319169055565b60fe5460fb54604051632206137960e01b8152600481019190915260009182918291829182916001600160a01b03169063220613799060240160a06040518083038186803b15801561174d57600080fd5b505afa158015611761573d6000803e3d6000fd5b505050506040513d601f19601f820116820180604052508101906117859190615515565b945094509450945094509091929394565b6060600260c95414156117eb5760405162461bcd60e51b815260206004820152601f60248201527f5265656e7472616e637947756172643a207265656e7472616e742063616c6c0060448201526064016111c2565b600260c9556117fa6003612fa4565b611803336132d0565b6101045460009060ff16156118bf5760005b86518110156118b957600086828151811061184057634e487b7160e01b600052603260045260246000fd5b60200260200101519050806000141561189b5760405162461bcd60e51b815260206004820152601b60248201527f4e4654585661756c743a207472616e7366657272696e67203c2031000000000060448201526064016111c2565b6118a5818461582d565b925050806118b2906158f6565b9050611815565b506118c3565b5084515b83518114806118d557506101085460ff165b6119215760405162461bcd60e51b815260206004820152601f60248201527f4e4654585661756c743a2052616e646f6d20737761702064697361626c65640060448201526064016111c2565b83511580611937575061010854610100900460ff165b6119835760405162461bcd60e51b815260206004820152601f60248201527f4e4654585661756c743a2054617267657420737761702064697361626c65640060448201526064016111c2565b60008061198e6116fc565b9450945050505060008651846119a49190615878565b6119ae9084615859565b87516119ba9084615859565b6119c4919061582d565b90506119d0338261333d565b60006119dd8589896134e0565b90506119e98a8a6136ee565b507f66982ed4a058811a8004bdcec9adcb3671f2b4f1a788667a3a74959d7c09af3c8a8a8a848b604051611a219594939291906156f1565b60405180910390a1600160c9559998505050505050505050565b60fe54604080517f8da5cb5b00000000000000000000000000000000000000000000000000000000815290516000926001600160a01b031691638da5cb5b916004808301926020929190829003018186803b158015611a9957600080fd5b505afa158015611aad573d6000803e3d6000fd5b505050506040513d601f19601f82011682018060405250810190611ad19190614d3c565b905090565b606060698054610dc4906158bb565b6060600260c9541415611b3a5760405162461bcd60e51b815260206004820152601f60248201527f5265656e7472616e637947756172643a207265656e7472616e742063616c6c0060448201526064016111c2565b600260c9819055611b4a90612fa4565b611b53336132d0565b8251841480611b6c5750610104546301000000900460ff165b611bc45760405162461bcd60e51b8152602060048201526024808201527f4e4654585661756c743a2052616e646f6d2072656465656d206e6f7420656e61604482015263189b195960e21b60648201526084016111c2565b82511580611bdd575061010454640100000000900460ff165b611c355760405162461bcd60e51b8152602060048201526024808201527f4e4654585661756c743a205461726765742072656465656d206e6f7420656e61604482015263189b195960e21b60648201526084016111c2565b611c5033611c4b86670de0b6b3a7640000615859565b613970565b600080611c5b6116fc565b505092509250506000855187611c719190615878565b611c7b9084615859565b8651611c879084615859565b611c91919061582d565b9050611c9d338261333d565b6000611caa8888886134e0565b90507f63b13f6307f284441e029836b0c22eb91eb62a7ad555670061157930ce884f4e818888604051611cdf939291906156b2565b60405180910390a1600160c955979650505050505050565b3360009081526066602090815260408083206001600160a01b038616845290915281205482811015611d915760405162461bcd60e51b815260206004820152602560248201527f45524332303a2064656372656173656420616c6c6f77616e63652062656c6f7760448201527f207a65726f00000000000000000000000000000000000000000000000000000060648201526084016111c2565b611da033856111da8685615878565b5060019392505050565b6000610e54338484612d6d565b6000600260c9541415611e0c5760405162461bcd60e51b815260206004820152601f60248201527f5265656e7472616e637947756172643a207265656e7472616e742063616c6c0060448201526064016111c2565b600260c955611e1b6001612fa4565b611e24336132d0565b6101045462010000900460ff16611e7d5760405162461bcd60e51b815260206004820152601360248201527f4d696e74696e67206e6f7420656e61626c65640000000000000000000000000060448201526064016111c2565b6000611e8985856136ee565b9050611ea683611ea183670de0b6b3a7640000615859565b613af6565b600081611eb1610fd1565b611ebb9190615859565b9050611ec7848261333d565b7f1f72ad2a14447fa756b6f5aca53504645af79813493aca2d906b69e4aaeb9492868686604051611efa939291906156b2565b60405180910390a150600160c955949350505050565b33611f19611a3b565b6001600160a01b031614611f6f5760405162461bcd60e51b815260206004820181905260248201527f4f776e61626c653a2063616c6c6572206973206e6f7420746865206f776e657260448201526064016111c2565b60fd546001600160a01b0384811691161415611fcd5760405162461bcd60e51b815260206004820152600d60248201527f216173736574416464726573730000000000000000000000000000000000000060448201526064016111c2565b600080846001600160a01b0316348585604051611feb9291906155e3565b60006040518083038185875af1925050503d8060008114612028576040519150601f19603f3d011682016040523d82523d6000602084013e61202d565b606091505b50915091508181906120525760405162461bcd60e51b81526004016111c29190615773565b505050505050565b61206460006121f3565b565b606061111784848480806020026020016040519081016040528093929190818152602001838360200280828437600092019190915250339250611ae5915050565b336120b0611a3b565b6001600160a01b0316146121065760405162461bcd60e51b815260206004820181905260248201527f4f776e61626c653a2063616c6c6572206973206e6f7420746865206f776e657260448201526064016111c2565b6000670de0b6b3a764000061211a60675490565b6121249190615845565b9050600481106121765760405162461bcd60e51b815260206004820152600e60248201527f746f6f206d616e79206974656d7300000000000000000000000000000000000060448201526064016111c2565b6040805160008152602081019091526121908282856134e0565b5060fd54604080516001600160a01b0392831681526020810185905291851682820152517f1f6d756c685d4969a551099165b59f836b4d2cc7e036e623f0248c28bff91db59181900360600190a1505060fd80546001600160a01b031916905550565b6121fb612ac3565b60fc80546001600160a01b0319166001600160a01b0383169081179091556040519081527f60a0f5b9f9e81e98216071b85826681c796256fe3d1354ecb675580fba64fa699060200160405180910390a150565b60fe5460fb54604051632206137960e01b815260009283926001600160a01b03909116916322061379916122899160040190815260200190565b60a06040518083038186803b1580156122a157600080fd5b505afa1580156122b5573d6000803e3d6000fd5b505050506040513d601f19601f820116820180604052508101906122d99190615515565b5095945050505050565b606061238587878080602002602001604051908101604052809392919081815260200183836020028082843760009201919091525050604080516020808b0282810182019093528a82529093508a92508991829185019084908082843760009201919091525050604080516020808a02828101820190935289825290935089925088918291850190849080828437600092019190915250339250611796915050565b979650505050505050565b60006001600160a01b03831630146123ea5760405162461bcd60e51b815260206004820152601b60248201527f4552433230466c6173684d696e743a2077726f6e6720746f6b656e000000000060448201526064016111c2565b50600092915050565b6123fb612ac3565b7f1b92808356942344452465ae2648676199ae4c2fe413605353e51ff008e6f2ce612424610db5565b61242c611ad6565b8686868660405161244296959493929190615786565b60405180910390a1610c9984848080601f01602080910402602001604051908101604052809392919081815260200183838082843760009201919091525050604080516020601f88018190048102820181019092528681529250869150859081908401838280828437600092019190915250613bd592505050565b336124c6611a3b565b6001600160a01b03161461251c5760405162461bcd60e51b815260206004820181905260248201527f4f776e61626c653a2063616c6c6572206973206e6f7420746865206f776e657260448201526064016111c2565b6125268284613970565b6125308184613af6565b505050565b600054610100900460ff168061254e575060005460ff16155b6125b15760405162461bcd60e51b815260206004820152602e60248201527f496e697469616c697a61626c653a20636f6e747261637420697320616c72656160448201526d191e481a5b9a5d1a585b1a5e995960921b60648201526084016111c2565b600054610100900460ff161580156125d3576000805461ffff19166101011790555b6125db613bfc565b6125e58686613cbe565b6001600160a01b03841661263b5760405162461bcd60e51b815260206004820152601360248201527f417373657420213d20616464726573732830290000000000000000000000000060448201526064016111c2565b60fd80546001600160a01b03199081166001600160a01b0387161790915560fe805433921682179055604080517f264a6208000000000000000000000000000000000000000000000000000000008152905163264a620891600480820192602092909190829003018186803b1580156126b357600080fd5b505afa1580156126c7573d6000803e3d6000fd5b505050506040513d601f19601f820116820180604052508101906126eb9190615293565b60fb8190556101048054841515610100810261ff001988151590811661ffff199094169390931717909255604080516001600160a01b038916815260208101929092528101919091527f18ecce5c418b882a3d89e5b6cc8100dc3383309b8e78525266fe1283a7f934d69060600160405180910390a26127716001806001806001610e5d565b8015612052576000805461ff0019169055505050505050565b6000611ad1610105612f8e565b61010454600090610100900460ff16156127b357506001919050565b60ff546001600160a01b0316806127cd5750600092915050565b6040517f84ca9f850000000000000000000000000000000000000000000000000000000081526001600160a01b038216906384ca9f859061281290869060040161569f565b60206040518083038186803b15801561282a57600080fd5b505afa15801561283e573d6000803e3d6000fd5b505050506040513d601f19601f820116820180604052508101906111e59190615207565b3361286b611a3b565b6001600160a01b0316146128c15760405162461bcd60e51b815260206004820181905260248201527f4f776e61626c653a2063616c6c6572206973206e6f7420746865206f776e657260448201526064016111c2565b6001600160a01b03811661293d5760405162461bcd60e51b815260206004820152602660248201527f4f776e61626c653a206e6577206f776e657220697320746865207a65726f206160448201527f646472657373000000000000000000000000000000000000000000000000000060648201526084016111c2565b6033546040516001600160a01b038084169216907f8be0079c531659141344cd1fd0a4f28419497f9722a3daafe3b4186f6b6457e090600090a3603380546001600160a01b0319166001600160a01b0392909216919091179055565b60fe5460fb54604051632206137960e01b815260009283926001600160a01b03909116916322061379916129d39160040190815260200190565b60a06040518083038186803b1580156129eb57600080fd5b505afa1580156129ff573d6000803e3d6000fd5b505050506040513d601f19601f82011682018060405250810190612a239190615515565b509195945050505050565b60fe5460fb54604051632206137960e01b815260009283926001600160a01b0390911691632206137991612a689160040190815260200190565b60a06040518083038186803b158015612a8057600080fd5b505afa158015612a94573d6000803e3d6000fd5b505050506040513d601f19601f82011682018060405250810190612ab89190615515565b509095945050505050565b60fc546001600160a01b0316612b3b57612adb611a3b565b6001600160a01b0316336001600160a01b0316146120645760405162461bcd60e51b815260206004820152600960248201527f4e6f74206f776e6572000000000000000000000000000000000000000000000060448201526064016111c2565b60fc546001600160a01b031633146120645760405162461bcd60e51b815260206004820152600b60248201527f4e6f74206d616e6167657200000000000000000000000000000000000000000060448201526064016111c2565b6001600160a01b038316612c105760405162461bcd60e51b8152602060048201526024808201527f45524332303a20617070726f76652066726f6d20746865207a65726f2061646460448201527f726573730000000000000000000000000000000000000000000000000000000060648201526084016111c2565b6001600160a01b038216612c8c5760405162461bcd60e51b815260206004820152602260248201527f45524332303a20617070726f766520746f20746865207a65726f20616464726560448201527f737300000000000000000000000000000000000000000000000000000000000060648201526084016111c2565b6001600160a01b0383811660008181526066602090815260408083209487168084529482529182902085905590518481527f8c5be1e5ebec7d5bd14f71427d1e84f3dd0314c0f7b2291e5b200ac8c7c3b92591015b60405180910390a3505050565b60006001600160a01b0384163b612d5b57600080612d0c8585613d84565b5090925090506000816003811115612d3457634e487b7160e01b600052602160045260246000fd5b148015612d525750856001600160a01b0316826001600160a01b0316145b925050506111e5565b612d66848484613dd2565b90506111e5565b6001600160a01b038316612de95760405162461bcd60e51b815260206004820152602560248201527f45524332303a207472616e736665722066726f6d20746865207a65726f20616460448201527f647265737300000000000000000000000000000000000000000000000000000060648201526084016111c2565b6001600160a01b038216612e655760405162461bcd60e51b815260206004820152602360248201527f45524332303a207472616e7366657220746f20746865207a65726f206164647260448201527f657373000000000000000000000000000000000000000000000000000000000060648201526084016111c2565b6001600160a01b03831660009081526065602052604090205481811015612ef45760405162461bcd60e51b815260206004820152602660248201527f45524332303a207472616e7366657220616d6f756e742065786365656473206260448201527f616c616e6365000000000000000000000000000000000000000000000000000060648201526084016111c2565b612efe8282615878565b6001600160a01b038086166000908152606560205260408082209390935590851681529081208054849290612f3490849061582d565b92505081905550826001600160a01b0316846001600160a01b03167fddf252ad1be2c89b69c2b068fc378daa952ba7f163c4a11628f55a4df523b3ef84604051612f8091815260200190565b60405180910390a350505050565b6000610d02825490565b60006111e58383613ebe565b60fe546040517ff6aacfb1000000000000000000000000000000000000000000000000000000008152600481018390526001600160a01b039091169063f6aacfb19060240160206040518083038186803b15801561300157600080fd5b505afa158015613015573d6000803e3d6000fd5b505050506040513d601f19601f820116820180604052508101906130399190615207565b158061305d5750613048611a3b565b6001600160a01b0316336001600160a01b0316145b6130a95760405162461bcd60e51b815260206004820152600660248201527f506175736564000000000000000000000000000000000000000000000000000060448201526064016111c2565b50565b6000806130b98585612390565b90506130c58685613af6565b6040517f23e30c8b0000000000000000000000000000000000000000000000000000000081527f439148f0bbc682ca079e46d6e2c2f0c1e3b820f1a291b069d8882abf8cf18dd9906001600160a01b038816906323e30c8b906131349033908a908a9088908b90600401615667565b602060405180830381600087803b15801561314e57600080fd5b505af1158015613162573d6000803e3d6000fd5b505050506040513d601f19601f820116820180604052508101906131869190615293565b146131f85760405162461bcd60e51b8152602060048201526024808201527f4552433230466c6173684d696e743a20696e76616c69642072657475726e207660448201527f616c75650000000000000000000000000000000000000000000000000000000060648201526084016111c2565b6001600160a01b0386166000908152606660209081526040808320308452909152902054613226828661582d565b81101561329b5760405162461bcd60e51b815260206004820152602f60248201527f4552433230466c6173684d696e743a20616c6c6f77616e636520646f6573206e60448201527f6f7420616c6c6f7720726566756e64000000000000000000000000000000000060648201526084016111c2565b6132b58730846132ab8986615878565b6111da9190615878565b6132c387611c4b848861582d565b5060019695505050505050565b73bbc53022af15bb973ad906577c84784c47c143716001600160a01b03821614156130a95760405162461bcd60e51b815260206004820152601160248201527f43616c6c657220697320626c6f636b656400000000000000000000000000000060448201526064016111c2565b60fe546040517fdbe66ca00000000000000000000000000000000000000000000000000000000081523360048201526001600160a01b0390911690819063dbe66ca09060240160206040518083038186803b15801561339b57600080fd5b505afa1580156133af573d6000803e3d6000fd5b505050506040513d601f19601f820116820180604052508101906133d39190615207565b156133dd57505050565b8115612530576000816001600160a01b0316630d43e8ad6040518163ffffffff1660e01b815260040160206040518083038186803b15801561341e57600080fd5b505afa158015613432573d6000803e3d6000fd5b505050506040513d601f19601f820116820180604052508101906134569190614d3c565b9050613463848285612d6d565b60fb546040517f91c05b0b00000000000000000000000000000000000000000000000000000000815260048101919091526001600160a01b038216906391c05b0b90602401600060405180830381600087803b1580156134c257600080fd5b505af11580156134d6573d6000803e3d6000fd5b5050505050505050565b6101045460fd5460609160ff16906001600160a01b031660008667ffffffffffffffff81111561352057634e487b7160e01b600052604160045260246000fd5b604051908082528060200260200182016040528015613549578160200160208202803683370190505b50865190915060005b888110156136d95760008282106135705761356b613ef6565b613599565b88828151811061359057634e487b7160e01b600052603260045260246000fd5b60200260200101515b9050808483815181106135bc57634e487b7160e01b600052603260045260246000fd5b60200260200101818152505085156136b0576000818152610107602052604081208054600192906135ee908490615878565b9091555050600081815261010760205260409020546136155761361361010582613f94565b505b6040517ff242432a0000000000000000000000000000000000000000000000000000000081523060048201526001600160a01b038981166024830152604482018390526001606483015260a06084830152600060a483015286169063f242432a9060c401600060405180830381600087803b15801561369357600080fd5b505af11580156136a7573d6000803e3d6000fd5b505050506136c8565b6136bc61010582613f94565b506136c8858983613fa0565b506136d2816158f6565b9050613552565b506136e382614194565b509695505050505050565b60006136f983612797565b6137455760405162461bcd60e51b815260206004820152601760248201527f4e4654585661756c743a206e6f7420656c696769626c6500000000000000000060448201526064016111c2565b82516101045460ff16156138f95760fd546040517f2eb2c2d60000000000000000000000000000000000000000000000000000000081526001600160a01b0390911690632eb2c2d6906137a290339030908990899060040161560f565b600060405180830381600087803b1580156137bc57600080fd5b505af11580156137d0573d6000803e3d6000fd5b505050506000805b828110156138ef57600086828151811061380257634e487b7160e01b600052603260045260246000fd5b60200260200101519050600086838151811061382e57634e487b7160e01b600052603260045260246000fd5b6020026020010151905080600014156138895760405162461bcd60e51b815260206004820152601b60248201527f4e4654585661756c743a207472616e7366657272696e67203c2031000000000060448201526064016111c2565b600082815261010760205260409020546138ab576138a96101058361421c565b505b60008281526101076020526040812080548392906138ca90849061582d565b909155506138da9050818561582d565b93505050806138e8906158f6565b90506137d8565b509150610d029050565b60fd546001600160a01b031660005b8281101561396557600086828151811061393257634e487b7160e01b600052603260045260246000fd5b602002602001015190506139468382614228565b6139526101058261421c565b50508061395e906158f6565b9050613908565b508192505050610d02565b6001600160a01b0382166139ec5760405162461bcd60e51b815260206004820152602160248201527f45524332303a206275726e2066726f6d20746865207a65726f2061646472657360448201527f730000000000000000000000000000000000000000000000000000000000000060648201526084016111c2565b6001600160a01b03821660009081526065602052604090205481811015613a7b5760405162461bcd60e51b815260206004820152602260248201527f45524332303a206275726e20616d6f756e7420657863656564732062616c616e60448201527f636500000000000000000000000000000000000000000000000000000000000060648201526084016111c2565b613a858282615878565b6001600160a01b03841660009081526065602052604081209190915560678054849290613ab3908490615878565b90915550506040518281526000906001600160a01b038516907fddf252ad1be2c89b69c2b068fc378daa952ba7f163c4a11628f55a4df523b3ef90602001612ce1565b6001600160a01b038216613b4c5760405162461bcd60e51b815260206004820152601f60248201527f45524332303a206d696e7420746f20746865207a65726f20616464726573730060448201526064016111c2565b8060676000828254613b5e919061582d565b90915550506001600160a01b03821660009081526065602052604081208054839290613b8b90849061582d565b90915550506040518181526001600160a01b038316906000907fddf252ad1be2c89b69c2b068fc378daa952ba7f163c4a11628f55a4df523b3ef9060200160405180910390a35050565b8151613be8906068906020850190614b0f565b508051612530906069906020840190614b0f565b600054610100900460ff1680613c15575060005460ff16155b613c785760405162461bcd60e51b815260206004820152602e60248201527f496e697469616c697a61626c653a20636f6e747261637420697320616c72656160448201526d191e481a5b9a5d1a585b1a5e995960921b60648201526084016111c2565b600054610100900460ff16158015613c9a576000805461ffff19166101011790555b613ca2614652565b613caa614703565b80156130a9576000805461ff001916905550565b600054610100900460ff1680613cd7575060005460ff16155b613d3a5760405162461bcd60e51b815260206004820152602e60248201527f496e697469616c697a61626c653a20636f6e747261637420697320616c72656160448201526d191e481a5b9a5d1a585b1a5e995960921b60648201526084016111c2565b600054610100900460ff16158015613d5c576000805461ffff19166101011790555b613d64614652565b613d6e83836147f8565b8015612530576000805461ff0019169055505050565b6000806000835160411415613dbf5760208401516040850151606086015160001a613db1888285856148d4565b955095509550505050613dcb565b50508151600091506002905b9250925092565b6000806000856001600160a01b0316631626ba7e60e01b8686604051602401613dfc92919061575a565b60408051601f198184030181529181526020820180516001600160e01b03166001600160e01b0319909416939093179092529051613e3a91906155f3565b600060405180830381855afa9150503d8060008114613e75576040519150601f19603f3d011682016040523d82523d6000602084013e613e7a565b606091505b5091509150818015613e8e57506020815110155b801561133557508051630b135d3f60e11b90613eb39083016020908101908401615293565b149695505050505050565b6000826000018281548110613ee357634e487b7160e01b600052603260045260246000fd5b9060005260206000200154905092915050565b600080613f04610105612f8e565b613f0f600143615878565b61010054604080519240602084015282015241606090811b6bffffffffffffffffffffffff19169082015244607482015242609482015260b4016040516020818303038152906040528051906020012060001c613f6c9190615911565b905061010060008154613f7e906158f6565b90915550613f8e61010582612f98565b91505090565b60006111e583836149a3565b7306012c8cf97bead5deae237070f9587f8e7a266d73b47e3cd837ddf8e4c57f05d70ab865de6e193bbb60606001600160a01b038616831415614043576040516001600160a01b03861660248201526044810185905260640160408051601f198184030181529190526020810180516001600160e01b03167fa9059cbb000000000000000000000000000000000000000000000000000000001790529050614112565b816001600160a01b0316866001600160a01b031614156140c3576040516001600160a01b03861660248201526044810185905260640160408051601f198184030181529190526020810180516001600160e01b03167f8b72a2ec000000000000000000000000000000000000000000000000000000001790529050614112565b6040513060248201526001600160a01b03861660448201526064810185905260840160408051601f198184030181529190526020810180516001600160e01b0316632142170760e11b17905290505b600080876001600160a01b03168360405161412d91906155f3565b6000604051808303816000865af19150503d806000811461416a576040519150601f19603f3d011682016040523d82523d6000602084013e61416f565b606091505b5091509150818190610daa5760405162461bcd60e51b81526004016111c29190615773565b60ff546001600160a01b0316806141a9575050565b6040517f5e2f9b520000000000000000000000000000000000000000000000000000000081526001600160a01b03821690635e2f9b52906141ee90859060040161569f565b600060405180830381600087803b15801561420857600080fd5b505af1158015612052573d6000803e3d6000fd5b60006111e58383614ac0565b7306012c8cf97bead5deae237070f9587f8e7a266d73b47e3cd837ddf8e4c57f05d70ab865de6e193bbb60606001600160a01b0385168314156142c8576040513360248201523060448201526064810185905260840160408051601f198184030181529190526020810180516001600160e01b03167f23b872dd0000000000000000000000000000000000000000000000000000000017905290506145d0565b816001600160a01b0316856001600160a01b03161415614473576000846040516024016142f791815260200190565b60408051601f198184030181529181526020820180516001600160e01b03167f58178168000000000000000000000000000000000000000000000000000000001790525190915060009081906001600160a01b038916906143599085906155f3565b600060405180830381855afa9150503d8060008114614394576040519150601f19603f3d011682016040523d82523d6000602084013e614399565b606091505b50915091506000818060200190518101906143b49190614d3c565b90508280156143cb57506001600160a01b03811633145b6144175760405162461bcd60e51b815260206004820152601160248201527f4e6f7420746865204e4654206f776e657200000000000000000000000000000060448201526064016111c2565b6040516024810189905260440160408051601f198184030181529190526020810180516001600160e01b03167f8264fe980000000000000000000000000000000000000000000000000000000017905294506145d09350505050565b60fd546040517f6352211e0000000000000000000000000000000000000000000000000000000081526004810186905230916001600160a01b031690636352211e9060240160206040518083038186803b1580156144d057600080fd5b505afa1580156144e4573d6000803e3d6000fd5b505050506040513d601f19601f820116820180604052508101906145089190614d3c565b6001600160a01b0316141561458a5761453661010585600081815260018301602052604081205415156111e5565b156145835760405162461bcd60e51b815260206004820152601a60248201527f547279696e6720746f2075736520616e206f776e6564204e465400000000000060448201526064016111c2565b5050505050565b6040513360248201523060448201526064810185905260840160408051601f198184030181529190526020810180516001600160e01b0316632142170760e11b17905290505b600080866001600160a01b0316836040516145eb91906155f3565b6000604051808303816000865af19150503d8060008114614628576040519150601f19603f3d011682016040523d82523d6000602084013e61462d565b606091505b50915091508181906134d65760405162461bcd60e51b81526004016111c29190615773565b600054610100900460ff168061466b575060005460ff16155b6146ce5760405162461bcd60e51b815260206004820152602e60248201527f496e697469616c697a61626c653a20636f6e747261637420697320616c72656160448201526d191e481a5b9a5d1a585b1a5e995960921b60648201526084016111c2565b600054610100900460ff16158015613caa576000805461ffff191661010117905580156130a9576000805461ff001916905550565b600054610100900460ff168061471c575060005460ff16155b61477f5760405162461bcd60e51b815260206004820152602e60248201527f496e697469616c697a61626c653a20636f6e747261637420697320616c72656160448201526d191e481a5b9a5d1a585b1a5e995960921b60648201526084016111c2565b600054610100900460ff161580156147a1576000805461ffff19166101011790555b603380546001600160a01b0319163390811790915560405181906000907f8be0079c531659141344cd1fd0a4f28419497f9722a3daafe3b4186f6b6457e0908290a35080156130a9576000805461ff001916905550565b600054610100900460ff1680614811575060005460ff16155b6148745760405162461bcd60e51b815260206004820152602e60248201527f496e697469616c697a61626c653a20636f6e747261637420697320616c72656160448201526d191e481a5b9a5d1a585b1a5e995960921b60648201526084016111c2565b600054610100900460ff16158015614896576000805461ffff19166101011790555b82516148a9906068906020860190614b0f565b5081516148bd906069906020850190614b0f565b508015612530576000805461ff0019169055505050565b600080807f7fffffffffffffffffffffffffffffff5d576e7357a4501ddfe92f46681b20a084111561490f5750600091506003905082614999565b604080516000808252602082018084528a905260ff891692820192909252606081018790526080810186905260019060a0016020604051602081039080840390855afa158015614963573d6000803e3d6000fd5b5050604051601f1901519150506001600160a01b03811661498f57506000925060019150829050614999565b9250600091508190505b9450945094915050565b60008181526001830160205260408120548015614ab65760006149c7600183615878565b85549091506000906149db90600190615878565b9050818114614a5c576000866000018281548110614a0957634e487b7160e01b600052603260045260246000fd5b9060005260206000200154905080876000018481548110614a3a57634e487b7160e01b600052603260045260246000fd5b6000918252602080832090910192909255918252600188019052604090208390555b8554869080614a7b57634e487b7160e01b600052603160045260246000fd5b600190038181906000526020600020016000905590558560010160008681526020019081526020016000206000905560019350505050610d02565b6000915050610d02565b6000818152600183016020526040812054614b0757508154600181810184556000848152602080822090930184905584548482528286019093526040902091909155610d02565b506000610d02565b828054614b1b906158bb565b90600052602060002090601f016020900481019282614b3d5760008555614b83565b82601f10614b5657805160ff1916838001178555614b83565b82800160010185558215614b83579182015b82811115614b83578251825591602001919060010190614b68565b50614b8f929150614b93565b5090565b5b80821115614b8f5760008155600101614b94565b60008083601f840112614bb9578182fd5b50813567ffffffffffffffff811115614bd0578182fd5b6020830191508360208260051b8501011115614beb57600080fd5b9250929050565b600082601f830112614c02578081fd5b8135602067ffffffffffffffff821115614c1e57614c1e615951565b8160051b614c2d8282016157fc565b838152828101908684018388018501891015614c47578687fd5b8693505b85841015614c69578035835260019390930192918401918401614c4b565b50979650505050505050565b60008083601f840112614c86578182fd5b50813567ffffffffffffffff811115614c9d578182fd5b602083019150836020828501011115614beb57600080fd5b600082601f830112614cc5578081fd5b813567ffffffffffffffff811115614cdf57614cdf615951565b614cf2601f8201601f19166020016157fc565b818152846020838601011115614d06578283fd5b816020850160208301379081016020019190915292915050565b600060208284031215614d31578081fd5b81356111e581615967565b600060208284031215614d4d578081fd5b81516111e581615967565b60008060408385031215614d6a578081fd5b8235614d7581615967565b91506020830135614d8581615967565b809150509250929050565b600080600080600060a08688031215614da7578081fd5b8535614db281615967565b94506020860135614dc281615967565b9350604086013567ffffffffffffffff80821115614dde578283fd5b614dea89838a01614bf2565b94506060880135915080821115614dff578283fd5b614e0b89838a01614bf2565b93506080880135915080821115614e20578283fd5b50614e2d88828901614cb5565b9150509295509295909350565b600080600060608486031215614e4e578283fd5b8335614e5981615967565b92506020840135614e6981615967565b929592945050506040919091013590565b60008060008060808587031215614e8f578182fd5b8435614e9a81615967565b93506020850135614eaa81615967565b925060408501359150606085013567ffffffffffffffff811115614ecc578182fd5b614ed887828801614cb5565b91505092959194509250565b600080600080600060a08688031215614efb578283fd5b8535614f0681615967565b94506020860135614f1681615967565b93506040860135925060608601359150608086013567ffffffffffffffff811115614f3f578182fd5b614e2d88828901614cb5565b600080600060408486031215614f5f578081fd5b8335614f6a81615967565b9250602084013567ffffffffffffffff811115614f85578182fd5b614f9186828701614c75565b9497909650939450505050565b60008060408385031215614fb0578182fd5b8235614fbb81615967565b946020939093013593505050565b60008060008060408587031215614fde578182fd5b843567ffffffffffffffff80821115614ff5578384fd5b61500188838901614ba8565b90965094506020870135915080821115615019578384fd5b5061502687828801614ba8565b95989497509550505050565b6000806000806000806060878903121561504a578384fd5b863567ffffffffffffffff80821115615061578586fd5b61506d8a838b01614ba8565b90985096506020890135915080821115615085578586fd5b6150918a838b01614ba8565b909650945060408901359150808211156150a9578283fd5b506150b689828a01614ba8565b979a9699509497509295939492505050565b6000602082840312156150d9578081fd5b813567ffffffffffffffff8111156150ef578182fd5b61111784828501614bf2565b60008060006060848603121561510f578081fd5b833567ffffffffffffffff80821115615126578283fd5b61513287838801614bf2565b94506020860135915080821115615147578283fd5b5061515486828701614bf2565b925050604084013561516581615967565b809150509250925092565b60008060008060808587031215615185578182fd5b843567ffffffffffffffff8082111561519c578384fd5b6151a888838901614bf2565b955060208701359150808211156151bd578384fd5b6151c988838901614bf2565b945060408701359150808211156151de578384fd5b506151eb87828801614bf2565b92505060608501356151fc81615967565b939692955090935050565b600060208284031215615218578081fd5b81516111e58161597c565b600080600080600060a0868803121561523a578283fd5b85356152458161597c565b945060208601356152558161597c565b935060408601356152658161597c565b925060608601356152758161597c565b915060808601356152858161597c565b809150509295509295909350565b6000602082840312156152a4578081fd5b5051919050565b600080604083850312156152bd578182fd5b82359150602083013567ffffffffffffffff8111156152da578182fd5b6152e685828601614cb5565b9150509250929050565b600060208284031215615301578081fd5b81356001600160e01b0319811681146111e5578182fd5b6000806000806040858703121561532d578182fd5b843567ffffffffffffffff80821115615344578384fd5b61535088838901614c75565b90965094506020870135915080821115615368578384fd5b5061502687828801614c75565b600080600080600060a0868803121561538c578283fd5b853567ffffffffffffffff808211156153a3578485fd5b6153af89838a01614cb5565b965060208801359150808211156153c4578485fd5b506153d188828901614cb5565b945050604086013561526581615967565b6000602082840312156153f3578081fd5b5035919050565b60008060006060848603121561540e578081fd5b83359250602084013561542081615967565b9150604084013561516581615967565b600080600060408486031215615444578081fd5b83359250602084013567ffffffffffffffff811115615461578182fd5b614f9186828701614ba8565b600080600060608486031215615481578081fd5b83359250602084013567ffffffffffffffff81111561549e578182fd5b61515486828701614bf2565b6000806000604084860312156154be578081fd5b83359250602084013567ffffffffffffffff811115614f85578182fd5b600080600080600060a086880312156154f2578283fd5b505083359560208501359550604085013594606081013594506080013592509050565b600080600080600060a0868803121561552c578283fd5b5050835160208501516040860151606087015160809097015192989197509594509092509050565b6000815180845260208085019450808401835b8381101561558357815187529582019590820190600101615567565b509495945050505050565b81835281816020850137506000828201602090810191909152601f909101601f19169091010190565b600081518084526155cf81602086016020860161588f565b601f01601f19169290920160200192915050565b8183823760009101908152919050565b6000825161560581846020870161588f565b9190910192915050565b60006001600160a01b03808716835280861660208401525060a0604083015261563b60a0830185615554565b828103606084015261564d8185615554565b838103608090940193909352508152602001949350505050565b60006001600160a01b03808816835280871660208401525084604083015283606083015260a0608083015261238560a08301846155b7565b6020815260006111e56020830184615554565b6060815260006156c56060830186615554565b82810360208401526156d78186615554565b9150506001600160a01b0383166040830152949350505050565b60a08152600061570460a0830188615554565b82810360208401526157168188615554565b9050828103604084015261572a8187615554565b9050828103606084015261573e8186615554565b9150506001600160a01b03831660808301529695505050505050565b82815260406020820152600061111760408301846155b7565b6020815260006111e560208301846155b7565b60808152600061579960808301896155b7565b82810360208401526157ab81896155b7565b905082810360408401526157c081878961558e565b905082810360608401526157d581858761558e565b9998505050505050505050565b8381526040602082015260006113e760408301848661558e565b604051601f8201601f1916810167ffffffffffffffff8111828210171561582557615825615951565b604052919050565b6000821982111561584057615840615925565b500190565b6000826158545761585461593b565b500490565b600081600019048311821515161561587357615873615925565b500290565b60008282101561588a5761588a615925565b500390565b60005b838110156158aa578181015183820152602001615892565b83811115610c995750506000910152565b600181811c908216806158cf57607f821691505b602082108114156158f057634e487b7160e01b600052602260045260246000fd5b50919050565b600060001982141561590a5761590a615925565b5060010190565b6000826159205761592061593b565b500690565b634e487b7160e01b600052601160045260246000fd5b634e487b7160e01b600052601260045260246000fd5b634e487b7160e01b600052604160045260246000fd5b6001600160a01b03811681146130a957600080fd5b80151581146130a957600080fdfea26469706673582212206c705bbb40ace4d821db1729e286979dbcc34a2a2f564b07100f9dd9c007a3ca64736f6c63430008040033",
  "devdoc": {
    "kind": "dev",
    "methods": {
      "allowance(address,address)": {
        "details": "See {IERC20-allowance}."
      },
      "approve(address,uint256)": {
        "details": "See {IERC20-approve}. Requirements: - `spender` cannot be the zero address."
      },
      "balanceOf(address)": {
        "details": "See {IERC20-balanceOf}."
      },
      "decimals()": {
        "details": "Returns the number of decimals used to get its user representation. For example, if `decimals` equals `2`, a balance of `505` tokens should be displayed to a user as `5,05` (`505 / 10 ** 2`). Tokens usually opt for a value of 18, imitating the relationship between Ether and Wei. This is the value {ERC20} uses, unless this function is overridden; NOTE: This information is only used for _display_ purposes: it in no way affects any of the arithmetic of the contract, including {IERC20-balanceOf} and {IERC20-transfer}."
      },
      "decreaseAllowance(address,uint256)": {
        "details": "Atomically decreases the allowance granted to `spender` by the caller. This is an alternative to {approve} that can be used as a mitigation for problems described in {IERC20-approve}. Emits an {Approval} event indicating the updated allowance. Requirements: - `spender` cannot be the zero address. - `spender` must have allowance for the caller of at least `subtractedValue`."
      },
      "flashFee(address,uint256)": {
        "details": "Returns the fee applied when doing flash loans. By default this implementation has 0 fees. This function can be overloaded to make the flash loan mechanism deflationary.",
        "params": {
          "amount": "The amount of tokens to be loaned.",
          "token": "The token to be flash loaned."
        },
        "returns": {
          "_0": "The fees applied to the corresponding flash loan."
        }
      },
      "flashLoan(address,address,uint256,bytes)": {
        "details": "Performs a flash loan. New tokens are minted and sent to the `receiver`, who is required to implement the {IERC3156FlashBorrower} interface. By the end of the flash loan, the receiver is expected to own amount + fee tokens and have them approved back to the token contract itself so they can be burned.",
        "params": {
          "amount": "The amount of tokens to be loaned.",
          "data": "An arbitrary datafield that is passed to the receiver.",
          "receiver": "The receiver of the flash loan. Should implement the {IERC3156FlashBorrower.onFlashLoan} interface.",
          "token": "The token to be flash loaned. Only `address(this)` is supported."
        },
        "returns": {
          "_0": "`true` is the flash loan was successfull."
        }
      },
      "increaseAllowance(address,uint256)": {
        "details": "Atomically increases the allowance granted to `spender` by the caller. This is an alternative to {approve} that can be used as a mitigation for problems described in {IERC20-approve}. Emits an {Approval} event indicating the updated allowance. Requirements: - `spender` cannot be the zero address."
      },
      "isValidSignature(bytes32,bytes)": {
        "details": "Should return whether the signature provided is valid for the provided data",
        "params": {
          "hash": "Hash of the data to be signed",
          "signature": "Signature byte array associated with _data"
        }
      },
      "maxFlashLoan(address)": {
        "details": "Returns the maximum amount of tokens available for loan.",
        "params": {
          "token": "The address of the token that is requested."
        },
        "returns": {
          "_0": "The amont of token that can be loaned."
        }
      },
      "name()": {
        "details": "Returns the name of the token."
      },
      "onERC721Received(address,address,uint256,bytes)": {
        "details": "See {IERC721Receiver-onERC721Received}. Always returns `IERC721Receiver.onERC721Received.selector`."
      },
      "owner()": {
        "details": "Returns the address of the current owner."
      },
      "renounceOwnership()": {
        "details": "Leaves the contract without owner. It will not be possible to call `onlyOwner` functions anymore. Can only be called by the current owner. NOTE: Renouncing ownership will leave the contract without an owner, thereby removing any functionality that is only available to the owner."
      },
      "supportsInterface(bytes4)": {
        "details": "See {IERC165-supportsInterface}."
      },
      "symbol()": {
        "details": "Returns the symbol of the token, usually a shorter version of the name."
      },
      "totalSupply()": {
        "details": "See {IERC20-totalSupply}."
      },
      "transfer(address,uint256)": {
        "details": "See {IERC20-transfer}. Requirements: - `recipient` cannot be the zero address. - the caller must have a balance of at least `amount`."
      },
      "transferFrom(address,address,uint256)": {
        "details": "See {IERC20-transferFrom}. Emits an {Approval} event indicating the updated allowance. This is not required by the EIP. See the note at the beginning of {ERC20}. Requirements: - `sender` and `recipient` cannot be the zero address. - `sender` must have a balance of at least `amount`. - the caller must have allowance for ``sender``'s tokens of at least `amount`."
      },
      "transferOwnership(address)": {
        "details": "Transfers ownership of the contract to a new account (`newOwner`). Can only be called by the current owner."
      }
    },
    "version": 1
  },
  "userdoc": {
    "kind": "user",
    "methods": {
      "executeOnBehalfOfVault(address,bytes)": {
        "notice": "NOTE: Extreme caution when calling this function! Allows the DAO to call arbitrary contract. Use case: to claim airdrops on behalf of the vault."
      }
    },
    "version": 1
  },
  "storageLayout": {
    "storage": [
      {
        "astId": 15583,
        "contract": "contracts/solidity/NFTXVaultUpgradeable.sol:NFTXVaultUpgradeable",
        "label": "_initialized",
        "offset": 0,
        "slot": "0",
        "type": "t_bool"
      },
      {
        "astId": 15586,
        "contract": "contracts/solidity/NFTXVaultUpgradeable.sol:NFTXVaultUpgradeable",
        "label": "_initializing",
        "offset": 1,
        "slot": "0",
        "type": "t_bool"
      },
      {
        "astId": 18745,
        "contract": "contracts/solidity/NFTXVaultUpgradeable.sol:NFTXVaultUpgradeable",
        "label": "__gap",
        "offset": 0,
        "slot": "1",
        "type": "t_array(t_uint256)50_storage"
      },
      {
        "astId": 19859,
        "contract": "contracts/solidity/NFTXVaultUpgradeable.sol:NFTXVaultUpgradeable",
        "label": "_owner",
        "offset": 0,
        "slot": "51",
        "type": "t_address"
      },
      {
        "astId": 19978,
        "contract": "contracts/solidity/NFTXVaultUpgradeable.sol:NFTXVaultUpgradeable",
        "label": "__gap",
        "offset": 0,
        "slot": "52",
        "type": "t_array(t_uint256)49_storage"
      },
      {
        "astId": 16573,
        "contract": "contracts/solidity/NFTXVaultUpgradeable.sol:NFTXVaultUpgradeable",
        "label": "_balances",
        "offset": 0,
        "slot": "101",
        "type": "t_mapping(t_address,t_uint256)"
      },
      {
        "astId": 16579,
        "contract": "contracts/solidity/NFTXVaultUpgradeable.sol:NFTXVaultUpgradeable",
        "label": "_allowances",
        "offset": 0,
        "slot": "102",
        "type": "t_mapping(t_address,t_mapping(t_address,t_uint256))"
      },
      {
        "astId": 16581,
        "contract": "contracts/solidity/NFTXVaultUpgradeable.sol:NFTXVaultUpgradeable",
        "label": "_totalSupply",
        "offset": 0,
        "slot": "103",
        "type": "t_uint256"
      },
      {
        "astId": 16583,
        "contract": "contracts/solidity/NFTXVaultUpgradeable.sol:NFTXVaultUpgradeable",
        "label": "_name",
        "offset": 0,
        "slot": "104",
        "type": "t_string_storage"
      },
      {
        "astId": 16585,
        "contract": "contracts/solidity/NFTXVaultUpgradeable.sol:NFTXVaultUpgradeable",
        "label": "_symbol",
        "offset": 0,
        "slot": "105",
        "type": "t_string_storage"
      },
      {
        "astId": 17103,
        "contract": "contracts/solidity/NFTXVaultUpgradeable.sol:NFTXVaultUpgradeable",
        "label": "__gap",
        "offset": 0,
        "slot": "106",
        "type": "t_array(t_uint256)45_storage"
      },
      {
        "astId": 16553,
        "contract": "contracts/solidity/NFTXVaultUpgradeable.sol:NFTXVaultUpgradeable",
        "label": "__gap",
        "offset": 0,
        "slot": "151",
        "type": "t_array(t_uint256)50_storage"
      },
      {
        "astId": 20152,
        "contract": "contracts/solidity/NFTXVaultUpgradeable.sol:NFTXVaultUpgradeable",
        "label": "_status",
        "offset": 0,
        "slot": "201",
        "type": "t_uint256"
      },
      {
        "astId": 20195,
        "contract": "contracts/solidity/NFTXVaultUpgradeable.sol:NFTXVaultUpgradeable",
        "label": "__gap",
        "offset": 0,
        "slot": "202",
        "type": "t_array(t_uint256)49_storage"
      },
      {
        "astId": 10558,
        "contract": "contracts/solidity/NFTXVaultUpgradeable.sol:NFTXVaultUpgradeable",
        "label": "vaultId",
        "offset": 0,
        "slot": "251",
        "type": "t_uint256"
      },
      {
        "astId": 10561,
        "contract": "contracts/solidity/NFTXVaultUpgradeable.sol:NFTXVaultUpgradeable",
        "label": "manager",
        "offset": 0,
        "slot": "252",
        "type": "t_address"
      },
      {
        "astId": 10564,
        "contract": "contracts/solidity/NFTXVaultUpgradeable.sol:NFTXVaultUpgradeable",
        "label": "assetAddress",
        "offset": 0,
        "slot": "253",
        "type": "t_address"
      },
      {
        "astId": 10568,
        "contract": "contracts/solidity/NFTXVaultUpgradeable.sol:NFTXVaultUpgradeable",
        "label": "vaultFactory",
        "offset": 0,
        "slot": "254",
        "type": "t_contract(INFTXVaultFactory)14859"
      },
      {
        "astId": 10572,
        "contract": "contracts/solidity/NFTXVaultUpgradeable.sol:NFTXVaultUpgradeable",
        "label": "eligibilityStorage",
        "offset": 0,
        "slot": "255",
        "type": "t_contract(INFTXEligibility)13713"
      },
      {
        "astId": 10574,
        "contract": "contracts/solidity/NFTXVaultUpgradeable.sol:NFTXVaultUpgradeable",
        "label": "randNonce",
        "offset": 0,
        "slot": "256",
        "type": "t_uint256"
      },
      {
        "astId": 10576,
        "contract": "contracts/solidity/NFTXVaultUpgradeable.sol:NFTXVaultUpgradeable",
        "label": "UNUSED_FEE1",
        "offset": 0,
        "slot": "257",
        "type": "t_uint256"
      },
      {
        "astId": 10578,
        "contract": "contracts/solidity/NFTXVaultUpgradeable.sol:NFTXVaultUpgradeable",
        "label": "UNUSED_FEE2",
        "offset": 0,
        "slot": "258",
        "type": "t_uint256"
      },
      {
        "astId": 10580,
        "contract": "contracts/solidity/NFTXVaultUpgradeable.sol:NFTXVaultUpgradeable",
        "label": "UNUSED_FEE3",
        "offset": 0,
        "slot": "259",
        "type": "t_uint256"
      },
      {
        "astId": 10583,
        "contract": "contracts/solidity/NFTXVaultUpgradeable.sol:NFTXVaultUpgradeable",
        "label": "is1155",
        "offset": 0,
        "slot": "260",
        "type": "t_bool"
      },
      {
        "astId": 10586,
        "contract": "contracts/solidity/NFTXVaultUpgradeable.sol:NFTXVaultUpgradeable",
        "label": "allowAllItems",
        "offset": 1,
        "slot": "260",
        "type": "t_bool"
      },
      {
        "astId": 10589,
        "contract": "contracts/solidity/NFTXVaultUpgradeable.sol:NFTXVaultUpgradeable",
        "label": "enableMint",
        "offset": 2,
        "slot": "260",
        "type": "t_bool"
      },
      {
        "astId": 10592,
        "contract": "contracts/solidity/NFTXVaultUpgradeable.sol:NFTXVaultUpgradeable",
        "label": "enableRandomRedeem",
        "offset": 3,
        "slot": "260",
        "type": "t_bool"
      },
      {
        "astId": 10595,
        "contract": "contracts/solidity/NFTXVaultUpgradeable.sol:NFTXVaultUpgradeable",
        "label": "enableTargetRedeem",
        "offset": 4,
        "slot": "260",
        "type": "t_bool"
      },
      {
        "astId": 10598,
        "contract": "contracts/solidity/NFTXVaultUpgradeable.sol:NFTXVaultUpgradeable",
        "label": "holdings",
        "offset": 0,
        "slot": "261",
        "type": "t_struct(UintSet)19638_storage"
      },
      {
        "astId": 10602,
        "contract": "contracts/solidity/NFTXVaultUpgradeable.sol:NFTXVaultUpgradeable",
        "label": "quantity1155",
        "offset": 0,
        "slot": "263",
        "type": "t_mapping(t_uint256,t_uint256)"
      },
      {
        "astId": 10605,
        "contract": "contracts/solidity/NFTXVaultUpgradeable.sol:NFTXVaultUpgradeable",
        "label": "enableRandomSwap",
        "offset": 0,
        "slot": "264",
        "type": "t_bool"
      },
      {
        "astId": 10608,
        "contract": "contracts/solidity/NFTXVaultUpgradeable.sol:NFTXVaultUpgradeable",
        "label": "enableTargetSwap",
        "offset": 1,
        "slot": "264",
        "type": "t_bool"
      }
    ],
    "types": {
      "t_address": {
        "encoding": "inplace",
        "label": "address",
        "numberOfBytes": "20"
      },
      "t_array(t_bytes32)dyn_storage": {
        "base": "t_bytes32",
        "encoding": "dynamic_array",
        "label": "bytes32[]",
        "numberOfBytes": "32"
      },
      "t_array(t_uint256)45_storage": {
        "base": "t_uint256",
        "encoding": "inplace",
        "label": "uint256[45]",
        "numberOfBytes": "1440"
      },
      "t_array(t_uint256)49_storage": {
        "base": "t_uint256",
        "encoding": "inplace",
        "label": "uint256[49]",
        "numberOfBytes": "1568"
      },
      "t_array(t_uint256)50_storage": {
        "base": "t_uint256",
        "encoding": "inplace",
        "label": "uint256[50]",
        "numberOfBytes": "1600"
      },
      "t_bool": {
        "encoding": "inplace",
        "label": "bool",
        "numberOfBytes": "1"
      },
      "t_bytes32": {
        "encoding": "inplace",
        "label": "bytes32",
        "numberOfBytes": "32"
      },
      "t_contract(INFTXEligibility)13713": {
        "encoding": "inplace",
        "label": "contract INFTXEligibility",
        "numberOfBytes": "20"
      },
      "t_contract(INFTXVaultFactory)14859": {
        "encoding": "inplace",
        "label": "contract INFTXVaultFactory",
        "numberOfBytes": "20"
      },
      "t_mapping(t_address,t_mapping(t_address,t_uint256))": {
        "encoding": "mapping",
        "key": "t_address",
        "label": "mapping(address => mapping(address => uint256))",
        "numberOfBytes": "32",
        "value": "t_mapping(t_address,t_uint256)"
      },
      "t_mapping(t_address,t_uint256)": {
        "encoding": "mapping",
        "key": "t_address",
        "label": "mapping(address => uint256)",
        "numberOfBytes": "32",
        "value": "t_uint256"
      },
      "t_mapping(t_bytes32,t_uint256)": {
        "encoding": "mapping",
        "key": "t_bytes32",
        "label": "mapping(bytes32 => uint256)",
        "numberOfBytes": "32",
        "value": "t_uint256"
      },
      "t_mapping(t_uint256,t_uint256)": {
        "encoding": "mapping",
        "key": "t_uint256",
        "label": "mapping(uint256 => uint256)",
        "numberOfBytes": "32",
        "value": "t_uint256"
      },
      "t_string_storage": {
        "encoding": "bytes",
        "label": "string",
        "numberOfBytes": "32"
      },
      "t_struct(Set)19240_storage": {
        "encoding": "inplace",
        "label": "struct EnumerableSetUpgradeable.Set",
        "members": [
          {
            "astId": 19235,
            "contract": "contracts/solidity/NFTXVaultUpgradeable.sol:NFTXVaultUpgradeable",
            "label": "_values",
            "offset": 0,
            "slot": "0",
            "type": "t_array(t_bytes32)dyn_storage"
          },
          {
            "astId": 19239,
            "contract": "contracts/solidity/NFTXVaultUpgradeable.sol:NFTXVaultUpgradeable",
            "label": "_indexes",
            "offset": 0,
            "slot": "1",
            "type": "t_mapping(t_bytes32,t_uint256)"
          }
        ],
        "numberOfBytes": "64"
      },
      "t_struct(UintSet)19638_storage": {
        "encoding": "inplace",
        "label": "struct EnumerableSetUpgradeable.UintSet",
        "members": [
          {
            "astId": 19637,
            "contract": "contracts/solidity/NFTXVaultUpgradeable.sol:NFTXVaultUpgradeable",
            "label": "_inner",
            "offset": 0,
            "slot": "0",
            "type": "t_struct(Set)19240_storage"
          }
        ],
        "numberOfBytes": "64"
      },
      "t_uint256": {
        "encoding": "inplace",
        "label": "uint256",
        "numberOfBytes": "32"
      }
    }
  }
}