{
  "address": "0x0001DbEC3Bd59fE1d8f6722E70D28bACB828c51d",
  "abi": [
    {
      "inputs": [
        {
          "internalType": "address",
          "name": "_nftxFactory",
          "type": "address"
        },
        {
          "internalType": "address",
          "name": "_sushiRouter",
          "type": "address"
        }
      ],
      "stateMutability": "nonpayable",
      "type": "constructor"
    },
    {
      "anonymous": false,
      "inputs": [
        {
          "indexed": true,
          "internalType": "address",
          "name": "previousOwner",
          "type": "address"
        },
        {
          "indexed": true,
          "internalType": "address",
          "name": "newOwner",
          "type": "address"
        }
      ],
      "name": "OwnershipTransferred",
      "type": "event"
    },
    {
      "anonymous": false,
      "inputs": [
        {
          "indexed": false,
          "internalType": "uint256",
          "name": "vaultId",
          "type": "uint256"
        },
        {
          "indexed": false,
          "internalType": "uint256",
          "name": "count",
          "type": "uint256"
        },
        {
          "indexed": false,
          "internalType": "uint256",
          "name": "lpBalance",
          "type": "uint256"
        },
        {
          "indexed": false,
          "internalType": "uint256",
          "name": "timelockUntil",
          "type": "uint256"
        },
        {
          "indexed": false,
          "internalType": "address",
          "name": "sender",
          "type": "address"
        }
      ],
      "name": "UserStaked",
      "type": "event"
    },
    {
      "inputs": [],
      "name": "WETH",
      "outputs": [
        {
          "internalType": "contract IWETH",
          "name": "",
          "type": "address"
        }
      ],
      "stateMutability": "view",
      "type": "function"
    },
    {
      "inputs": [
        {
          "internalType": "uint256",
          "name": "vaultId",
          "type": "uint256"
        },
        {
          "internalType": "uint256[]",
          "name": "ids",
          "type": "uint256[]"
        },
        {
          "internalType": "uint256[]",
          "name": "amounts",
          "type": "uint256[]"
        },
        {
          "internalType": "uint256",
          "name": "minWethIn",
          "type": "uint256"
        },
        {
          "internalType": "uint256",
          "name": "wethIn",
          "type": "uint256"
        }
      ],
      "name": "addLiquidity1155",
      "outputs": [
        {
          "internalType": "uint256",
          "name": "",
          "type": "uint256"
        }
      ],
      "stateMutability": "nonpayable",
      "type": "function"
    },
    {
      "inputs": [
        {
          "internalType": "uint256",
          "name": "vaultId",
          "type": "uint256"
        },
        {
          "internalType": "uint256[]",
          "name": "ids",
          "type": "uint256[]"
        },
        {
          "internalType": "uint256[]",
          "name": "amounts",
          "type": "uint256[]"
        },
        {
          "internalType": "uint256",
          "name": "minEthIn",
          "type": "uint256"
        }
      ],
      "name": "addLiquidity1155ETH",
      "outputs": [
        {
          "internalType": "uint256",
          "name": "",
          "type": "uint256"
        }
      ],
      "stateMutability": "payable",
      "type": "function"
    },
    {
      "inputs": [
        {
          "internalType": "uint256",
          "name": "vaultId",
          "type": "uint256"
        },
        {
          "internalType": "uint256[]",
          "name": "ids",
          "type": "uint256[]"
        },
        {
          "internalType": "uint256[]",
          "name": "amounts",
          "type": "uint256[]"
        },
        {
          "internalType": "uint256",
          "name": "minEthIn",
          "type": "uint256"
        },
        {
          "internalType": "address",
          "name": "to",
          "type": "address"
        }
      ],
      "name": "addLiquidity1155ETHTo",
      "outputs": [
        {
          "internalType": "uint256",
          "name": "",
          "type": "uint256"
        }
      ],
      "stateMutability": "payable",
      "type": "function"
    },
    {
      "inputs": [
        {
          "internalType": "uint256",
          "name": "vaultId",
          "type": "uint256"
        },
        {
          "internalType": "uint256[]",
          "name": "ids",
          "type": "uint256[]"
        },
        {
          "internalType": "uint256[]",
          "name": "amounts",
          "type": "uint256[]"
        },
        {
          "internalType": "uint256",
          "name": "minWethIn",
          "type": "uint256"
        },
        {
          "internalType": "uint256",
          "name": "wethIn",
          "type": "uint256"
        },
        {
          "internalType": "address",
          "name": "to",
          "type": "address"
        }
      ],
      "name": "addLiquidity1155To",
      "outputs": [
        {
          "internalType": "uint256",
          "name": "",
          "type": "uint256"
        }
      ],
      "stateMutability": "nonpayable",
      "type": "function"
    },
    {
      "inputs": [
        {
          "internalType": "uint256",
          "name": "vaultId",
          "type": "uint256"
        },
        {
          "internalType": "uint256[]",
          "name": "ids",
          "type": "uint256[]"
        },
        {
          "internalType": "uint256",
          "name": "minWethIn",
          "type": "uint256"
        },
        {
          "internalType": "uint256",
          "name": "wethIn",
          "type": "uint256"
        }
      ],
      "name": "addLiquidity721",
      "outputs": [
        {
          "internalType": "uint256",
          "name": "",
          "type": "uint256"
        }
      ],
      "stateMutability": "nonpayable",
      "type": "function"
    },
    {
      "inputs": [
        {
          "internalType": "uint256",
          "name": "vaultId",
          "type": "uint256"
        },
        {
          "internalType": "uint256[]",
          "name": "ids",
          "type": "uint256[]"
        },
        {
          "internalType": "uint256",
          "name": "minWethIn",
          "type": "uint256"
        }
      ],
      "name": "addLiquidity721ETH",
      "outputs": [
        {
          "internalType": "uint256",
          "name": "",
          "type": "uint256"
        }
      ],
      "stateMutability": "payable",
      "type": "function"
    },
    {
      "inputs": [
        {
          "internalType": "uint256",
          "name": "vaultId",
          "type": "uint256"
        },
        {
          "internalType": "uint256[]",
          "name": "ids",
          "type": "uint256[]"
        },
        {
          "internalType": "uint256",
          "name": "minWethIn",
          "type": "uint256"
        },
        {
          "internalType": "address",
          "name": "to",
          "type": "address"
        }
      ],
      "name": "addLiquidity721ETHTo",
      "outputs": [
        {
          "internalType": "uint256",
          "name": "",
          "type": "uint256"
        }
      ],
      "stateMutability": "payable",
      "type": "function"
    },
    {
      "inputs": [
        {
          "internalType": "uint256",
          "name": "vaultId",
          "type": "uint256"
        },
        {
          "internalType": "uint256[]",
          "name": "ids",
          "type": "uint256[]"
        },
        {
          "internalType": "uint256",
          "name": "minWethIn",
          "type": "uint256"
        },
        {
          "internalType": "uint256",
          "name": "wethIn",
          "type": "uint256"
        },
        {
          "internalType": "address",
          "name": "to",
          "type": "address"
        }
      ],
      "name": "addLiquidity721To",
      "outputs": [
        {
          "internalType": "uint256",
          "name": "",
          "type": "uint256"
        }
      ],
      "stateMutability": "nonpayable",
      "type": "function"
    },
    {
      "inputs": [],
      "name": "assignStakingContracts",
      "outputs": [],
      "stateMutability": "nonpayable",
      "type": "function"
    },
    {
      "inputs": [],
      "name": "inventoryLockTime",
      "outputs": [
        {
          "internalType": "uint256",
          "name": "",
          "type": "uint256"
        }
      ],
      "stateMutability": "view",
      "type": "function"
    },
    {
      "inputs": [],
      "name": "inventoryStaking",
      "outputs": [
        {
          "internalType": "contract INFTXInventoryStaking",
          "name": "",
          "type": "address"
        }
      ],
      "stateMutability": "view",
      "type": "function"
    },
    {
      "inputs": [
        {
          "internalType": "address",
          "name": "addr",
          "type": "address"
        },
        {
          "internalType": "uint256",
          "name": "vaultId",
          "type": "uint256"
        }
      ],
      "name": "isAddressTimelockExcluded",
      "outputs": [
        {
          "internalType": "bool",
          "name": "",
          "type": "bool"
        }
      ],
      "stateMutability": "view",
      "type": "function"
    },
    {
      "inputs": [],
      "name": "lpLockTime",
      "outputs": [
        {
          "internalType": "uint256",
          "name": "",
          "type": "uint256"
        }
      ],
      "stateMutability": "view",
      "type": "function"
    },
    {
      "inputs": [],
      "name": "lpStaking",
      "outputs": [
        {
          "internalType": "contract INFTXLPStaking",
          "name": "",
          "type": "address"
        }
      ],
      "stateMutability": "view",
      "type": "function"
    },
    {
      "inputs": [],
      "name": "nftxFactory",
      "outputs": [
        {
          "internalType": "contract INFTXVaultFactory",
          "name": "",
          "type": "address"
        }
      ],
      "stateMutability": "view",
      "type": "function"
    },
    {
      "inputs": [
        {
          "internalType": "address",
          "name": "",
          "type": "address"
        },
        {
          "internalType": "address",
          "name": "",
          "type": "address"
        },
        {
          "internalType": "uint256[]",
          "name": "",
          "type": "uint256[]"
        },
        {
          "internalType": "uint256[]",
          "name": "",
          "type": "uint256[]"
        },
        {
          "internalType": "bytes",
          "name": "",
          "type": "bytes"
        }
      ],
      "name": "onERC1155BatchReceived",
      "outputs": [
        {
          "internalType": "bytes4",
          "name": "",
          "type": "bytes4"
        }
      ],
      "stateMutability": "nonpayable",
      "type": "function"
    },
    {
      "inputs": [
        {
          "internalType": "address",
          "name": "",
          "type": "address"
        },
        {
          "internalType": "address",
          "name": "",
          "type": "address"
        },
        {
          "internalType": "uint256",
          "name": "",
          "type": "uint256"
        },
        {
          "internalType": "uint256",
          "name": "",
          "type": "uint256"
        },
        {
          "internalType": "bytes",
          "name": "",
          "type": "bytes"
        }
      ],
      "name": "onERC1155Received",
      "outputs": [
        {
          "internalType": "bytes4",
          "name": "",
          "type": "bytes4"
        }
      ],
      "stateMutability": "nonpayable",
      "type": "function"
    },
    {
      "inputs": [
        {
          "internalType": "address",
          "name": "",
          "type": "address"
        },
        {
          "internalType": "address",
          "name": "",
          "type": "address"
        },
        {
          "internalType": "uint256",
          "name": "",
          "type": "uint256"
        },
        {
          "internalType": "bytes",
          "name": "",
          "type": "bytes"
        }
      ],
      "name": "onERC721Received",
      "outputs": [
        {
          "internalType": "bytes4",
          "name": "",
          "type": "bytes4"
        }
      ],
      "stateMutability": "nonpayable",
      "type": "function"
    },
    {
      "inputs": [],
      "name": "owner",
      "outputs": [
        {
          "internalType": "address",
          "name": "",
          "type": "address"
        }
      ],
      "stateMutability": "view",
      "type": "function"
    },
    {
      "inputs": [
        {
          "internalType": "uint256",
          "name": "vaultId",
          "type": "uint256"
        },
        {
          "internalType": "uint256[]",
          "name": "tokenIds",
          "type": "uint256[]"
        },
        {
          "internalType": "uint256[]",
          "name": "amounts",
          "type": "uint256[]"
        }
      ],
      "name": "provideInventory1155",
      "outputs": [],
      "stateMutability": "nonpayable",
      "type": "function"
    },
    {
      "inputs": [
        {
          "internalType": "uint256",
          "name": "vaultId",
          "type": "uint256"
        },
        {
          "internalType": "uint256[]",
          "name": "tokenIds",
          "type": "uint256[]"
        }
      ],
      "name": "provideInventory721",
      "outputs": [],
      "stateMutability": "nonpayable",
      "type": "function"
    },
    {
      "inputs": [],
      "name": "renounceOwnership",
      "outputs": [],
      "stateMutability": "nonpayable",
      "type": "function"
    },
    {
      "inputs": [
        {
          "internalType": "address",
          "name": "token",
          "type": "address"
        }
      ],
      "name": "rescue",
      "outputs": [],
      "stateMutability": "nonpayable",
      "type": "function"
    },
    {
      "inputs": [
        {
          "internalType": "uint256",
          "name": "newInventoryLockTime",
          "type": "uint256"
        }
      ],
      "name": "setInventoryLockTime",
      "outputs": [],
      "stateMutability": "nonpayable",
      "type": "function"
    },
    {
      "inputs": [
        {
          "internalType": "uint256",
          "name": "newLPLockTime",
          "type": "uint256"
        }
      ],
      "name": "setLPLockTime",
      "outputs": [],
      "stateMutability": "nonpayable",
      "type": "function"
    },
    {
      "inputs": [
        {
          "internalType": "address",
          "name": "addr",
          "type": "address"
        }
      ],
      "name": "setTimelockExcludeList",
      "outputs": [],
      "stateMutability": "nonpayable",
      "type": "function"
    },
    {
      "inputs": [
        {
          "internalType": "bytes4",
          "name": "interfaceId",
          "type": "bytes4"
        }
      ],
      "name": "supportsInterface",
      "outputs": [
        {
          "internalType": "bool",
          "name": "",
          "type": "bool"
        }
      ],
      "stateMutability": "view",
      "type": "function"
    },
    {
      "inputs": [],
      "name": "sushiRouter",
      "outputs": [
        {
          "internalType": "contract IUniswapV2Router01",
          "name": "",
          "type": "address"
        }
      ],
      "stateMutability": "view",
      "type": "function"
    },
    {
      "inputs": [],
      "name": "timelockExcludeList",
      "outputs": [
        {
          "internalType": "contract ITimelockExcludeList",
          "name": "",
          "type": "address"
        }
      ],
      "stateMutability": "view",
      "type": "function"
    },
    {
      "inputs": [
        {
          "internalType": "address",
          "name": "newOwner",
          "type": "address"
        }
      ],
      "name": "transferOwnership",
      "outputs": [],
      "stateMutability": "nonpayable",
      "type": "function"
    },
    {
      "stateMutability": "payable",
      "type": "receive"
    }
  ],
  "transactionHash": "0xc4f76cb76de00daea3235d82a45af08ef90e2886e56722dfe560232341ec05d4",
  "args": [
    "0x7B6768a235E3906D53d0cBd8e8A73201f5857992",
    "0x01a93b7153Ee160F3176af0B0F31121DF9f0FFA5"
  ],
  "numDeployments": 1,
  "solcInputHash": "2d454ec0cd5e2ba69d4608440183e71e",
  "bytecode": "0x60e06040526202a30060055562093a806006553480156200001f57600080fd5b5060405162004c8b38038062004c8b8339810160408190526200004291620005fd565b6200004d33620001a6565b600180556001600160601b0319606083811b821660a05282901b1660c052604080516315ab88c960e31b815290516001600160a01b0383169163ad5c4648916004808301926020929190829003018186803b158015620000ac57600080fd5b505afa158015620000c1573d6000803e3d6000fd5b505050506040513d601f19601f82011682018060405250810190620000e79190620005e0565b6001600160a01b03166080816001600160a01b031660601b815250506200019e81600019836001600160a01b031663ad5c46486040518163ffffffff1660e01b815260040160206040518083038186803b1580156200014557600080fd5b505afa1580156200015a573d6000803e3d6000fd5b505050506040513d601f19601f82011682018060405250810190620001809190620005e0565b6001600160a01b0316620001f660201b620024ab179092919060201c565b5050620006f5565b600080546001600160a01b038381166001600160a01b0319831681178455604051919092169283917f8be0079c531659141344cd1fd0a4f28419497f9722a3daafe3b4186f6b6457e09190a35050565b801580620002845750604051636eb1769f60e11b81523060048201526001600160a01b03838116602483015284169063dd62ed3e9060440160206040518083038186803b1580156200024757600080fd5b505afa1580156200025c573d6000803e3d6000fd5b505050506040513d601f19601f8201168201806040525081019062000282919062000656565b155b620002fc5760405162461bcd60e51b815260206004820152603660248201527f5361666545524332303a20617070726f76652066726f6d206e6f6e2d7a65726f60448201527f20746f206e6f6e2d7a65726f20616c6c6f77616e63650000000000000000000060648201526084015b60405180910390fd5b604080516001600160a01b038416602482015260448082018490528251808303909101815260649091019091526020810180516001600160e01b0390811663095ea7b360e01b17909152620003549185916200035916565b505050565b6000620003b5826040518060400160405280602081526020017f5361666545524332303a206c6f772d6c6576656c2063616c6c206661696c6564815250856001600160a01b03166200043760201b62002640179092919060201c565b805190915015620003545780806020019051810190620003d6919062000634565b620003545760405162461bcd60e51b815260206004820152602a60248201527f5361666545524332303a204552433230206f7065726174696f6e20646964206e6044820152691bdd081cdd58d8d9595960b21b6064820152608401620002f3565b606062000448848460008562000452565b90505b9392505050565b606082471015620004b55760405162461bcd60e51b815260206004820152602660248201527f416464726573733a20696e73756666696369656e742062616c616e636520666f6044820152651c8818d85b1b60d21b6064820152608401620002f3565b843b620005055760405162461bcd60e51b815260206004820152601d60248201527f416464726573733a2063616c6c20746f206e6f6e2d636f6e74726163740000006044820152606401620002f3565b600080866001600160a01b031685876040516200052391906200066f565b60006040518083038185875af1925050503d806000811462000562576040519150601f19603f3d011682016040523d82523d6000602084013e62000567565b606091505b5090925090506200057a82828662000585565b979650505050505050565b60608315620005965750816200044b565b825115620005a75782518084602001fd5b8160405162461bcd60e51b8152600401620002f391906200068d565b80516001600160a01b0381168114620005db57600080fd5b919050565b600060208284031215620005f2578081fd5b6200044b82620005c3565b6000806040838503121562000610578081fd5b6200061b83620005c3565b91506200062b60208401620005c3565b90509250929050565b60006020828403121562000646578081fd5b815180151581146200044b578182fd5b60006020828403121562000668578081fd5b5051919050565b6000825162000683818460208701620006c2565b9190910192915050565b6020815260008251806020840152620006ae816040850160208701620006c2565b601f01601f19169190910160400192915050565b60005b83811015620006df578181015183820152602001620006c5565b83811115620006ef576000848401525b50505050565b60805160601c60a05160601c60c05160601c6144c3620007c860003960008181610429015281816133a60152818161345a01526136e30152600081816103f5015281816110780152818161119f0152818161141f01528181611e96015281816126b90152818161275501528181612a110152612aad0152600081816101ec015281816105ce015281816107dd0152818161085701528181610a2101528181610a9a01528181611a2301528181611ad701528181611c8a01528181611d3d0152818161340301526134f801526144c36000f3fe6080604052600436106101dc5760003560e01c806384d5a23211610102578063ad402dfc11610095578063c46c4e8a11610064578063c46c4e8a14610648578063cd9d37b71461065e578063f23a6e611461067e578063f2fde38b146106c357600080fd5b8063ad402dfc146105a9578063ad5c4648146105bc578063bc197c81146105f0578063bdd8172b1461063557600080fd5b806392054f8b116100d157806392054f8b146105335780639bf1401c146105535780639d2cbed014610573578063a7b128461461059357600080fd5b806384d5a232146104c0578063881b2f2d146104e05780638da5cb5b146105005780639199fc9c1461051e57600080fd5b80634a5ff0611161017a578063715018a611610149578063715018a61461044b578063739697751461046057806374a1b0b014610480578063839006f2146104a057600080fd5b80634a5ff061146103b057806353b573bf146103d05780635ee50f88146103e35780636d13582c1461041757600080fd5b806311ad9d38116101b657806311ad9d38146102e8578063150b7a02146103205780631809d2c21461037d5780631a6907cd1461039d57600080fd5b806301ffc9a714610265578063021001551461029a57806310cde786146102c857600080fd5b3661026057336001600160a01b037f0000000000000000000000000000000000000000000000000000000000000000161461025e5760405162461bcd60e51b815260206004820152600960248201527f4f6e6c792057455448000000000000000000000000000000000000000000000060448201526064015b60405180910390fd5b005b600080fd5b34801561027157600080fd5b50610285610280366004613c8b565b6106e3565b60405190151581526020015b60405180910390f35b3480156102a657600080fd5b506102ba6102b5366004613fd5565b61074c565b604051908152602001610291565b3480156102d457600080fd5b506102ba6102e3366004613f59565b6108e6565b3480156102f457600080fd5b50600454610308906001600160a01b031681565b6040516001600160a01b039091168152602001610291565b34801561032c57600080fd5b5061036461033b366004613b6f565b7f150b7a0200000000000000000000000000000000000000000000000000000000949350505050565b6040516001600160e01b03199091168152602001610291565b34801561038957600080fd5b506102ba610398366004613e74565b610900565b6102ba6103ab366004613e23565b610944565b3480156103bc57600080fd5b506102ba6103cb3660046140c7565b610990565b6102ba6103de366004613da4565b610b28565b3480156103ef57600080fd5b506103087f000000000000000000000000000000000000000000000000000000000000000081565b34801561042357600080fd5b506103087f000000000000000000000000000000000000000000000000000000000000000081565b34801561045757600080fd5b5061025e610ba7565b34801561046c57600080fd5b5061025e61047b366004613cb3565b610c1c565b34801561048c57600080fd5b50600354610308906001600160a01b031681565b3480156104ac57600080fd5b5061025e6104bb366004613a8d565b610ccd565b3480156104cc57600080fd5b5061025e6104db366004613cb3565b610e97565b3480156104ec57600080fd5b506102856104fb366004613c40565b610f48565b34801561050c57600080fd5b506000546001600160a01b0316610308565b34801561052a57600080fd5b5061025e611009565b34801561053f57600080fd5b5061025e61054e366004613a8d565b6112cd565b34801561055f57600080fd5b50600254610308906001600160a01b031681565b34801561057f57600080fd5b5061025e61058e366004613d2d565b611365565b34801561059f57600080fd5b506102ba60055481565b6102ba6105b7366004613ed0565b61199d565b3480156105c857600080fd5b506103087f000000000000000000000000000000000000000000000000000000000000000081565b3480156105fc57600080fd5b5061036461060b366004613ac5565b7fbc197c810000000000000000000000000000000000000000000000000000000095945050505050565b6102ba610643366004614066565b611c04565b34801561065457600080fd5b506102ba60065481565b34801561066a57600080fd5b5061025e610679366004613ce3565b611e7b565b34801561068a57600080fd5b50610364610699366004613bd9565b7ff23a6e610000000000000000000000000000000000000000000000000000000095945050505050565b3480156106cf57600080fd5b5061025e6106de366004613a8d565b6123bd565b60006001600160e01b031982167f4e2312e000000000000000000000000000000000000000000000000000000000148061074657507f01ffc9a7000000000000000000000000000000000000000000000000000000006001600160e01b03198316145b92915050565b6000600260015414156107a15760405162461bcd60e51b815260206004820152601f60248201527f5265656e7472616e637947756172643a207265656e7472616e742063616c6c006044820152606401610255565b60026001556001600160a01b038216158015906107c757506001600160a01b0382163014155b6107d057600080fd5b6108056001600160a01b037f000000000000000000000000000000000000000000000000000000000000000016333086612657565b600080610816898989898989612695565b92509250506000828661082991906143ee565b905080156108d55760405163a9059cbb60e01b81526001600160a01b038681166004830152602482018390527f0000000000000000000000000000000000000000000000000000000000000000169063a9059cbb90604401602060405180830381600087803b15801561089b57600080fd5b505af11580156108af573d6000803e3d6000fd5b505050506040513d601f19601f820116820180604052508101906108d39190613c6b565b505b506001805598975050505050505050565b60006108f686868686863361074c565b9695505050505050565b60006108f686868680806020026020016040519081016040528093929190818152602001838360200280828437600092019190915250889250879150339050610990565b600061098785858580806020026020016040519081016040528093929190818152602001838360200280828437600092019190915250879250339150611c049050565b95945050505050565b6000600260015414156109e55760405162461bcd60e51b815260206004820152601f60248201527f5265656e7472616e637947756172643a207265656e7472616e742063616c6c006044820152606401610255565b60026001556001600160a01b03821615801590610a0b57506001600160a01b0382163014155b610a1457600080fd5b610a496001600160a01b037f000000000000000000000000000000000000000000000000000000000000000016333086612657565b600080610a5988888888886129ed565b925092505060008286610a6c91906143ee565b90508015610b185760405163a9059cbb60e01b81526001600160a01b038681166004830152602482018390527f0000000000000000000000000000000000000000000000000000000000000000169063a9059cbb90604401602060405180830381600087803b158015610ade57600080fd5b505af1158015610af2573d6000803e3d6000fd5b505050506040513d601f19601f82011682018060405250810190610b169190613c6b565b505b5060018055979650505050505050565b6000610b9c8787878080602002602001604051908101604052809392919081815260200183836020028082843760009201919091525050604080516020808b0282810182019093528a82529093508a92508991829185019084908082843760009201919091525088925033915061199d9050565b979650505050505050565b33610bba6000546001600160a01b031690565b6001600160a01b031614610c105760405162461bcd60e51b815260206004820181905260248201527f4f776e61626c653a2063616c6c6572206973206e6f7420746865206f776e65726044820152606401610255565b610c1a6000612ce9565b565b33610c2f6000546001600160a01b031690565b6001600160a01b031614610c855760405162461bcd60e51b815260206004820181905260248201527f4f776e61626c653a2063616c6c6572206973206e6f7420746865206f776e65726044820152606401610255565b62127500811115610cc85760405162461bcd60e51b815260206004820152600d60248201526c4c6f636b20746f6f206c6f6e6760981b6044820152606401610255565b600655565b33610ce06000546001600160a01b031690565b6001600160a01b031614610d365760405162461bcd60e51b815260206004820181905260248201527f4f776e61626c653a2063616c6c6572206973206e6f7420746865206f776e65726044820152606401610255565b6001600160a01b038116610e0657604051600090339047908381818185875af1925050503d8060008114610d86576040519150601f19603f3d011682016040523d82523d6000602084013e610d8b565b606091505b5050905080610e025760405162461bcd60e51b815260206004820152603a60248201527f416464726573733a20756e61626c6520746f2073656e642076616c75652c207260448201527f6563697069656e74206d617920686176652072657665727465640000000000006064820152608401610255565b5050565b6040516370a0823160e01b8152306004820152610e949033906001600160a01b038416906370a082319060240160206040518083038186803b158015610e4b57600080fd5b505afa158015610e5f573d6000803e3d6000fd5b505050506040513d601f19601f82011682018060405250810190610e839190613ccb565b6001600160a01b0384169190612d46565b50565b33610eaa6000546001600160a01b031690565b6001600160a01b031614610f005760405162461bcd60e51b815260206004820181905260248201527f4f776e61626c653a2063616c6c6572206973206e6f7420746865206f776e65726044820152606401610255565b62093a80811115610f435760405162461bcd60e51b815260206004820152600d60248201526c4c6f636b20746f6f206c6f6e6760981b6044820152606401610255565b600555565b6004546000906001600160a01b0316610f6357506000610746565b600480546040517f81e97b660000000000000000000000000000000000000000000000000000000081526001600160a01b0386811693820193909352602481018590529116906381e97b669060440160206040518083038186803b158015610fca57600080fd5b505afa158015610fde573d6000803e3d6000fd5b505050506040513d601f19601f820116820180604052508101906110029190613c6b565b9392505050565b6002546001600160a01b0316158061102a57506003546001600160a01b0316155b6110765760405162461bcd60e51b815260206004820152600860248201527f6e6f74207a65726f0000000000000000000000000000000000000000000000006044820152606401610255565b7f00000000000000000000000000000000000000000000000000000000000000006001600160a01b0316630d43e8ad6040518163ffffffff1660e01b815260040160206040518083038186803b1580156110cf57600080fd5b505afa1580156110e3573d6000803e3d6000fd5b505050506040513d601f19601f820116820180604052508101906111079190613aa9565b6001600160a01b0316639bf1401c6040518163ffffffff1660e01b815260040160206040518083038186803b15801561113f57600080fd5b505afa158015611153573d6000803e3d6000fd5b505050506040513d601f19601f820116820180604052508101906111779190613aa9565b600260006101000a8154816001600160a01b0302191690836001600160a01b031602179055507f00000000000000000000000000000000000000000000000000000000000000006001600160a01b0316630d43e8ad6040518163ffffffff1660e01b815260040160206040518083038186803b1580156111f657600080fd5b505afa15801561120a573d6000803e3d6000fd5b505050506040513d601f19601f8201168201806040525081019061122e9190613aa9565b6001600160a01b03166374a1b0b06040518163ffffffff1660e01b815260040160206040518083038186803b15801561126657600080fd5b505afa15801561127a573d6000803e3d6000fd5b505050506040513d601f19601f8201168201806040525081019061129e9190613aa9565b6003805473ffffffffffffffffffffffffffffffffffffffff19166001600160a01b0392909216919091179055565b336112e06000546001600160a01b031690565b6001600160a01b0316146113365760405162461bcd60e51b815260206004820181905260248201527f4f776e61626c653a2063616c6c6572206973206e6f7420746865206f776e65726044820152606401610255565b6004805473ffffffffffffffffffffffffffffffffffffffff19166001600160a01b0392909216919091179055565b828181146113b55760405162461bcd60e51b815260206004820152601060248201527f4e6f7420657175616c206c656e677468000000000000000000000000000000006044820152606401610255565b6000805b82811015611405578484828181106113e157634e487b7160e01b600052603260045260246000fd5b90506020020135826113f391906143b7565b91506113fe81614431565b90506113b9565b506040516340d1b7db60e11b8152600481018890526000907f00000000000000000000000000000000000000000000000000000000000000006001600160a01b0316906381a36fb69060240160206040518083038186803b15801561146957600080fd5b505afa15801561147d573d6000803e3d6000fd5b505050506040513d601f19601f820116820180604052508101906114a19190613aa9565b905060006114af338a610f48565b6114bb576006546114be565b60005b6003549091506001600160a01b0316632699f55a8a6114e5670de0b6b3a7640000876143cf565b6040516001600160e01b031960e085901b1681526004810192909252602482015233604482015260648101849052608401602060405180830381600087803b15801561153057600080fd5b505af1158015611544573d6000803e3d6000fd5b505050506040513d601f19601f820116820180604052508101906115689190613ccb565b5060035460405162d3f20f60e21b8152600481018b90526000916001600160a01b03169063034fc83c9060240160206040518083038186803b1580156115ad57600080fd5b505afa1580156115c1573d6000803e3d6000fd5b505050506040513d601f19601f820116820180604052508101906115e59190613aa9565b6040516370a0823160e01b81526001600160a01b0380831660048301529192506000918516906370a082319060240160206040518083038186803b15801561162c57600080fd5b505afa158015611640573d6000803e3d6000fd5b505050506040513d601f19601f820116820180604052508101906116649190613ccb565b90506000846001600160a01b0316631ba46cfd6040518163ffffffff1660e01b815260040160206040518083038186803b1580156116a157600080fd5b505afa1580156116b5573d6000803e3d6000fd5b505050506040513d601f19601f820116820180604052508101906116d99190613aa9565b9050806001600160a01b0316632eb2c2d633308e8e8e8e6040518763ffffffff1660e01b8152600401611711969594939291906141f6565b600060405180830381600087803b15801561172b57600080fd5b505af115801561173f573d6000803e3d6000fd5b505060405163a22cb46560e01b81526001600160a01b038881166004830152600160248301528416925063a22cb4659150604401600060405180830381600087803b15801561178d57600080fd5b505af11580156117a1573d6000803e3d6000fd5b5050604051635882017560e11b81526001600160a01b038816925063b10402ea91506117d9908e908e908e908e908a906004016142aa565b602060405180830381600087803b1580156117f357600080fd5b505af1158015611807573d6000803e3d6000fd5b505050506040513d601f19601f8201168201806040525081019061182b9190613ccb565b506040516370a0823160e01b81526001600160a01b038481166004830152600091908716906370a082319060240160206040518083038186803b15801561187157600080fd5b505afa158015611885573d6000803e3d6000fd5b505050506040513d601f19601f820116820180604052508101906118a99190613ccb565b90506118bd670de0b6b3a7640000886143cf565b6118c790846143b7565b81146119155760405162461bcd60e51b815260206004820152601860248201527f496e636f72726563742076746f6b656e73206d696e74656400000000000000006044820152606401610255565b600061192186426143b7565b90507f9f69538b20901013ea360bae2dce4079d45308fcfed02b3f0768c9f70f4ba9c08e8e8e9050600084336040516119859594939291909485526020850193909352604084019190915260608301526001600160a01b0316608082015260a00190565b60405180910390a15050505050505050505050505050565b6000600260015414156119f25760405162461bcd60e51b815260206004820152601f60248201527f5265656e7472616e637947756172643a207265656e7472616e742063616c6c006044820152606401610255565b60026001556001600160a01b03821615801590611a1857506001600160a01b0382163014155b611a2157600080fd5b7f00000000000000000000000000000000000000000000000000000000000000006001600160a01b031663d0e30db0346040518263ffffffff1660e01b81526004016000604051808303818588803b158015611a7c57600080fd5b505af1158015611a90573d6000803e3d6000fd5b5050505050600080611aa6888888883489612695565b925092505060008234611ab991906143ee565b90508015610b1857604051632e1a7d4d60e01b8152600481018290527f00000000000000000000000000000000000000000000000000000000000000006001600160a01b031690632e1a7d4d90602401600060405180830381600087803b158015611b2357600080fd5b505af1158015611b37573d6000803e3d6000fd5b505050506000856001600160a01b03168260405160006040518083038185875af1925050503d8060008114611b88576040519150601f19603f3d011682016040523d82523d6000602084013e611b8d565b606091505b5050905080610b165760405162461bcd60e51b815260206004820152603a60248201527f416464726573733a20756e61626c6520746f2073656e642076616c75652c207260448201527f6563697069656e74206d617920686176652072657665727465640000000000006064820152608401610255565b600060026001541415611c595760405162461bcd60e51b815260206004820152601f60248201527f5265656e7472616e637947756172643a207265656e7472616e742063616c6c006044820152606401610255565b60026001556001600160a01b03821615801590611c7f57506001600160a01b0382163014155b611c8857600080fd5b7f00000000000000000000000000000000000000000000000000000000000000006001600160a01b031663d0e30db0346040518263ffffffff1660e01b81526004016000604051808303818588803b158015611ce357600080fd5b505af1158015611cf7573d6000803e3d6000fd5b5050505050600080611d0c87878734886129ed565b925092505060008234611d1f91906143ee565b90508015611e6c57604051632e1a7d4d60e01b8152600481018290527f00000000000000000000000000000000000000000000000000000000000000006001600160a01b031690632e1a7d4d90602401600060405180830381600087803b158015611d8957600080fd5b505af1158015611d9d573d6000803e3d6000fd5b505050506000856001600160a01b03168260405160006040518083038185875af1925050503d8060008114611dee576040519150601f19603f3d011682016040523d82523d6000602084013e611df3565b606091505b5050905080611e6a5760405162461bcd60e51b815260206004820152603a60248201527f416464726573733a20756e61626c6520746f2073656e642076616c75652c207260448201527f6563697069656e74206d617920686176652072657665727465640000000000006064820152608401610255565b505b50600180559695505050505050565b6040516340d1b7db60e11b81526004810184905281906000907f00000000000000000000000000000000000000000000000000000000000000006001600160a01b0316906381a36fb69060240160206040518083038186803b158015611ee057600080fd5b505afa158015611ef4573d6000803e3d6000fd5b505050506040513d601f19601f82011682018060405250810190611f189190613aa9565b90506000611f263387610f48565b611f3257600654611f35565b60005b6003549091506001600160a01b0316632699f55a87611f5c670de0b6b3a7640000876143cf565b6040516001600160e01b031960e085901b1681526004810192909252602482015233604482015260648101849052608401602060405180830381600087803b158015611fa757600080fd5b505af1158015611fbb573d6000803e3d6000fd5b505050506040513d601f19601f82011682018060405250810190611fdf9190613ccb565b5060035460405162d3f20f60e21b8152600481018890526000916001600160a01b03169063034fc83c9060240160206040518083038186803b15801561202457600080fd5b505afa158015612038573d6000803e3d6000fd5b505050506040513d601f19601f8201168201806040525081019061205c9190613aa9565b6040516370a0823160e01b81526001600160a01b0380831660048301529192506000918516906370a082319060240160206040518083038186803b1580156120a357600080fd5b505afa1580156120b7573d6000803e3d6000fd5b505050506040513d601f19601f820116820180604052508101906120db9190613ccb565b60408051600080825260208201909252919250506000856001600160a01b0316631ba46cfd6040518163ffffffff1660e01b815260040160206040518083038186803b15801561212a57600080fd5b505afa15801561213e573d6000803e3d6000fd5b505050506040513d601f19601f820116820180604052508101906121629190613aa9565b90508760005b818110156121e2576121a1838c8c8481811061219457634e487b7160e01b600052603260045260246000fd5b905060200201358a612d76565b6121d283898d8d858181106121c657634e487b7160e01b600052603260045260246000fd5b905060200201356130a6565b6121db81614431565b9050612168565b50604051635882017560e11b81526001600160a01b0388169063b10402ea90612215908d908d9088908b906004016142ed565b602060405180830381600087803b15801561222f57600080fd5b505af1158015612243573d6000803e3d6000fd5b505050506040513d601f19601f820116820180604052508101906122679190613ccb565b506040516370a0823160e01b81526001600160a01b038681166004830152600091908916906370a082319060240160206040518083038186803b1580156122ad57600080fd5b505afa1580156122c1573d6000803e3d6000fd5b505050506040513d601f19601f820116820180604052508101906122e59190613ccb565b90506122f9670de0b6b3a76400008a6143cf565b61230390866143b7565b81146123515760405162461bcd60e51b815260206004820152601860248201527f496e636f72726563742076746f6b656e73206d696e74656400000000000000006044820152606401610255565b600061235d88426143b7565b604080518f8152602081018e90526000818301526060810183905233608082015290519192507f9f69538b20901013ea360bae2dce4079d45308fcfed02b3f0768c9f70f4ba9c0919081900360a00190a150505050505050505050505050565b336123d06000546001600160a01b031690565b6001600160a01b0316146124265760405162461bcd60e51b815260206004820181905260248201527f4f776e61626c653a2063616c6c6572206973206e6f7420746865206f776e65726044820152606401610255565b6001600160a01b0381166124a25760405162461bcd60e51b815260206004820152602660248201527f4f776e61626c653a206e6577206f776e657220697320746865207a65726f206160448201527f64647265737300000000000000000000000000000000000000000000000000006064820152608401610255565b610e9481612ce9565b80158061254d57506040517fdd62ed3e0000000000000000000000000000000000000000000000000000000081523060048201526001600160a01b03838116602483015284169063dd62ed3e9060440160206040518083038186803b15801561251357600080fd5b505afa158015612527573d6000803e3d6000fd5b505050506040513d601f19601f8201168201806040525081019061254b9190613ccb565b155b6125bf5760405162461bcd60e51b815260206004820152603660248201527f5361666545524332303a20617070726f76652066726f6d206e6f6e2d7a65726f60448201527f20746f206e6f6e2d7a65726f20616c6c6f77616e6365000000000000000000006064820152608401610255565b6040516001600160a01b03831660248201526044810182905261263b9084907f095ea7b300000000000000000000000000000000000000000000000000000000906064015b60408051601f198184030181529190526020810180516001600160e01b03166001600160e01b03199093169290921790915261317a565b505050565b606061264f848460008561325f565b949350505050565b6040516001600160a01b038085166024830152831660448201526064810182905261268f9085906323b872dd60e01b90608401612604565b50505050565b6040516306df336560e51b8152306004820152600090819081906001600160a01b037f0000000000000000000000000000000000000000000000000000000000000000169063dbe66ca09060240160206040518083038186803b1580156126fb57600080fd5b505afa15801561270f573d6000803e3d6000fd5b505050506040513d601f19601f820116820180604052508101906127339190613c6b565b61273c57600080fd5b6040516340d1b7db60e11b8152600481018a90526000907f00000000000000000000000000000000000000000000000000000000000000006001600160a01b0316906381a36fb69060240160206040518083038186803b15801561279f57600080fd5b505afa1580156127b3573d6000803e3d6000fd5b505050506040513d601f19601f820116820180604052508101906127d79190613aa9565b90506000816001600160a01b0316631ba46cfd6040518163ffffffff1660e01b815260040160206040518083038186803b15801561281457600080fd5b505afa158015612828573d6000803e3d6000fd5b505050506040513d601f19601f8201168201806040525081019061284c9190613aa9565b6040517f2eb2c2d60000000000000000000000000000000000000000000000000000000081529091506001600160a01b03821690632eb2c2d69061289a90339030908f908f90600401614252565b600060405180830381600087803b1580156128b457600080fd5b505af11580156128c8573d6000803e3d6000fd5b505060405163a22cb46560e01b81526001600160a01b038581166004830152600160248301528416925063a22cb4659150604401600060405180830381600087803b15801561291657600080fd5b505af115801561292a573d6000803e3d6000fd5b5050604051630f57464360e21b8152600092506001600160a01b0385169150633d5d190c9061295f908e908e9060040161432e565b602060405180830381600087803b15801561297957600080fd5b505af115801561298d573d6000803e3d6000fd5b505050506040513d601f19601f820116820180604052508101906129b19190613ccb565b905060006129c7670de0b6b3a7640000836143cf565b90506129d78d85838d8d8d613393565b9650965096505050505096509650969350505050565b6040516306df336560e51b8152306004820152600090819081906001600160a01b037f0000000000000000000000000000000000000000000000000000000000000000169063dbe66ca09060240160206040518083038186803b158015612a5357600080fd5b505afa158015612a67573d6000803e3d6000fd5b505050506040513d601f19601f82011682018060405250810190612a8b9190613c6b565b612a9457600080fd5b6040516340d1b7db60e11b8152600481018990526000907f00000000000000000000000000000000000000000000000000000000000000006001600160a01b0316906381a36fb69060240160206040518083038186803b158015612af757600080fd5b505afa158015612b0b573d6000803e3d6000fd5b505050506040513d601f19601f82011682018060405250810190612b2f9190613aa9565b90506000816001600160a01b0316631ba46cfd6040518163ffffffff1660e01b815260040160206040518083038186803b158015612b6c57600080fd5b505afa158015612b80573d6000803e3d6000fd5b505050506040513d601f19601f82011682018060405250810190612ba49190613aa9565b895190915060005b81811015612c2a57612be6838c8381518110612bd857634e487b7160e01b600052603260045260246000fd5b602002602001015186612d76565b612c1883858d8481518110612c0b57634e487b7160e01b600052603260045260246000fd5b60200260200101516130a6565b80612c2281614431565b915050612bac565b50604051630f57464360e21b81526060906001600160a01b03851690633d5d190c90612c5c908e90859060040161432e565b602060405180830381600087803b158015612c7657600080fd5b505af1158015612c8a573d6000803e3d6000fd5b505050506040513d601f19601f82011682018060405250810190612cae9190613ccb565b506000612cc3670de0b6b3a7640000846143cf565b9050612cd38d86838e8e8e613393565b9750975097505050505050955095509592505050565b600080546001600160a01b0383811673ffffffffffffffffffffffffffffffffffffffff19831681178455604051919092169283917f8be0079c531659141344cd1fd0a4f28419497f9722a3daafe3b4186f6b6457e09190a35050565b6040516001600160a01b03831660248201526044810182905261263b90849063a9059cbb60e01b90606401612604565b7306012c8cf97bead5deae237070f9587f8e7a266d73b47e3cd837ddf8e4c57f05d70ab865de6e193bbb60606001600160a01b038616831415612e06576040513360248201526001600160a01b03851660448201526064810186905260840160408051601f198184030181529190526020810180516001600160e01b03166323b872dd60e01b1790529050613019565b816001600160a01b0316866001600160a01b03161415612fb157600085604051602401612e3591815260200190565b60408051601f198184030181529181526020820180516001600160e01b03167f58178168000000000000000000000000000000000000000000000000000000001790525190915060009081906001600160a01b038a1690612e979085906141da565b600060405180830381855afa9150503d8060008114612ed2576040519150601f19603f3d011682016040523d82523d6000602084013e612ed7565b606091505b5091509150600081806020019051810190612ef29190613aa9565b9050828015612f0957506001600160a01b03811633145b612f555760405162461bcd60e51b815260206004820152601160248201527f4e6f7420746865204e4654206f776e65720000000000000000000000000000006044820152606401610255565b604051602481018a905260440160408051601f198184030181529190526020810180516001600160e01b03167f8264fe980000000000000000000000000000000000000000000000000000000017905294506130199350505050565b6040513360248201526001600160a01b03851660448201526064810186905260840160408051601f198184030181529190526020810180516001600160e01b03167f42842e0e0000000000000000000000000000000000000000000000000000000017905290505b600080876001600160a01b03168360405161303491906141da565b6000604051808303816000865af19150503d8060008114613071576040519150601f19603f3d011682016040523d82523d6000602084013e613076565b606091505b509150915081819061309b5760405162461bcd60e51b81526004016102559190614353565b505050505050505050565b7306012c8cf97bead5deae237070f9587f8e7a266d73b47e3cd837ddf8e4c57f05d70ab865de6e193bbb60606001600160a01b0386168314156130eb57505050505050565b816001600160a01b0316866001600160a01b031614156131725760405160248101859052600060448201526001600160a01b038616606482015260840160408051601f198184030181529190526020810180516001600160e01b03167fbf31196f000000000000000000000000000000000000000000000000000000001790529050613019565b505050505050565b60006131cf826040518060400160405280602081526020017f5361666545524332303a206c6f772d6c6576656c2063616c6c206661696c6564815250856001600160a01b03166126409092919063ffffffff16565b80519091501561263b57808060200190518101906131ed9190613c6b565b61263b5760405162461bcd60e51b815260206004820152602a60248201527f5361666545524332303a204552433230206f7065726174696f6e20646964206e60448201527f6f742073756363656564000000000000000000000000000000000000000000006064820152608401610255565b6060824710156132d75760405162461bcd60e51b815260206004820152602660248201527f416464726573733a20696e73756666696369656e742062616c616e636520666f60448201527f722063616c6c00000000000000000000000000000000000000000000000000006064820152608401610255565b843b6133255760405162461bcd60e51b815260206004820152601d60248201527f416464726573733a2063616c6c20746f206e6f6e2d636f6e74726163740000006044820152606401610255565b600080866001600160a01b0316858760405161334191906141da565b60006040518083038185875af1925050503d806000811461337e576040519150601f19603f3d011682016040523d82523d6000602084013e613383565b606091505b5091509150610b9c828286613695565b600080806133cb6001600160a01b0389167f0000000000000000000000000000000000000000000000000000000000000000896124ab565b6040517fe8e337000000000000000000000000000000000000000000000000000000000081526001600160a01b0389811660048301527f00000000000000000000000000000000000000000000000000000000000000008116602483015260448201899052606482018790526084820189905260a482018890523060c48301524260e4830152600091829182917f00000000000000000000000000000000000000000000000000000000000000009091169063e8e337009061010401606060405180830381600087803b1580156134a157600080fd5b505af11580156134b5573d6000803e3d6000fd5b505050506040513d601f19601f820116820180604052508101906134d99190614126565b600254929550909350915061352c906001600160a01b03168261351c8e7f00000000000000000000000000000000000000000000000000000000000000006136ce565b6001600160a01b031691906124ab565b6000613538338e610f48565b61354457600554613547565b60005b9050600260009054906101000a90046001600160a01b03166001600160a01b0316636c9b95888e8a85856040518563ffffffff1660e01b81526004016135af94939291909384526001600160a01b039290921660208401526040830152606082015260800190565b600060405180830381600087803b1580156135c957600080fd5b505af11580156135dd573d6000803e3d6000fd5b505050506000848c6135ef91906143ee565b9050801561360b5761360b6001600160a01b038e168a83612d46565b600061361783426143b7565b90507f9f69538b20901013ea360bae2dce4079d45308fcfed02b3f0768c9f70f4ba9c08f8e86848e6040516136779594939291909485526020850193909352604084019190915260608301526001600160a01b0316608082015260a00190565b60405180910390a150939d929c50909a509098505050505050505050565b606083156136a4575081611002565b8251156136b45782518084602001fd5b8160405162461bcd60e51b81526004016102559190614353565b60008060006136dd858561384c565b915091507f00000000000000000000000000000000000000000000000000000000000000006001600160a01b031663c45a01556040518163ffffffff1660e01b815260040160206040518083038186803b15801561373a57600080fd5b505afa15801561374e573d6000803e3d6000fd5b505050506040513d601f19601f820116820180604052508101906137729190613aa9565b6040516bffffffffffffffffffffffff19606085811b8216602084015284901b1660348201526048016040516020818303038152906040528051906020012060405160200161382b9291907fff00000000000000000000000000000000000000000000000000000000000000815260609290921b6bffffffffffffffffffffffff1916600183015260158201527fe18a34eb0e04b04f7a0ac29a6e80748dca96319b42c54d679cb821dca90c6303603582015260550190565b60408051601f19818403018152919052805160209091012095945050505050565b600080826001600160a01b0316846001600160a01b031614156138d75760405162461bcd60e51b815260206004820152602560248201527f556e697377617056324c6962726172793a204944454e544943414c5f4144445260448201527f45535345530000000000000000000000000000000000000000000000000000006064820152608401610255565b826001600160a01b0316846001600160a01b0316106138f75782846138fa565b83835b90925090506001600160a01b0382166139555760405162461bcd60e51b815260206004820152601e60248201527f556e697377617056324c6962726172793a205a45524f5f4144445245535300006044820152606401610255565b9250929050565b60008083601f84011261396d578182fd5b50813567ffffffffffffffff811115613984578182fd5b6020830191508360208260051b850101111561395557600080fd5b600082601f8301126139af578081fd5b8135602067ffffffffffffffff8211156139cb576139cb614462565b8160051b6139da828201614386565b8381528281019086840183880185018910156139f4578687fd5b8693505b85841015613a165780358352600193909301929184019184016139f8565b50979650505050505050565b600082601f830112613a32578081fd5b813567ffffffffffffffff811115613a4c57613a4c614462565b613a5f601f8201601f1916602001614386565b818152846020838601011115613a73578283fd5b816020850160208301379081016020019190915292915050565b600060208284031215613a9e578081fd5b813561100281614478565b600060208284031215613aba578081fd5b815161100281614478565b600080600080600060a08688031215613adc578081fd5b8535613ae781614478565b94506020860135613af781614478565b9350604086013567ffffffffffffffff80821115613b13578283fd5b613b1f89838a0161399f565b94506060880135915080821115613b34578283fd5b613b4089838a0161399f565b93506080880135915080821115613b55578283fd5b50613b6288828901613a22565b9150509295509295909350565b60008060008060808587031215613b84578384fd5b8435613b8f81614478565b93506020850135613b9f81614478565b925060408501359150606085013567ffffffffffffffff811115613bc1578182fd5b613bcd87828801613a22565b91505092959194509250565b600080600080600060a08688031215613bf0578081fd5b8535613bfb81614478565b94506020860135613c0b81614478565b93506040860135925060608601359150608086013567ffffffffffffffff811115613c34578182fd5b613b6288828901613a22565b60008060408385031215613c52578182fd5b8235613c5d81614478565b946020939093013593505050565b600060208284031215613c7c578081fd5b81518015158114611002578182fd5b600060208284031215613c9c578081fd5b81356001600160e01b031981168114611002578182fd5b600060208284031215613cc4578081fd5b5035919050565b600060208284031215613cdc578081fd5b5051919050565b600080600060408486031215613cf7578081fd5b83359250602084013567ffffffffffffffff811115613d14578182fd5b613d208682870161395c565b9497909650939450505050565b600080600080600060608688031215613d44578283fd5b85359450602086013567ffffffffffffffff80821115613d62578485fd5b613d6e89838a0161395c565b90965094506040880135915080821115613d86578283fd5b50613d938882890161395c565b969995985093965092949392505050565b60008060008060008060808789031215613dbc578384fd5b86359550602087013567ffffffffffffffff80821115613dda578586fd5b613de68a838b0161395c565b90975095506040890135915080821115613dfe578283fd5b50613e0b89828a0161395c565b979a9699509497949695606090950135949350505050565b60008060008060608587031215613e38578182fd5b84359350602085013567ffffffffffffffff811115613e55578283fd5b613e618782880161395c565b9598909750949560400135949350505050565b600080600080600060808688031215613e8b578283fd5b85359450602086013567ffffffffffffffff811115613ea8578384fd5b613eb48882890161395c565b9699909850959660408101359660609091013595509350505050565b600080600080600060a08688031215613ee7578283fd5b85359450602086013567ffffffffffffffff80821115613f05578485fd5b613f1189838a0161399f565b95506040880135915080821115613f26578485fd5b50613f338882890161399f565b935050606086013591506080860135613f4b81614478565b809150509295509295909350565b600080600080600060a08688031215613f70578283fd5b85359450602086013567ffffffffffffffff80821115613f8e578485fd5b613f9a89838a0161399f565b95506040880135915080821115613faf578485fd5b50613fbc8882890161399f565b9598949750949560608101359550608001359392505050565b60008060008060008060c08789031215613fed578384fd5b86359550602087013567ffffffffffffffff8082111561400b578586fd5b6140178a838b0161399f565b9650604089013591508082111561402c578586fd5b5061403989828a0161399f565b945050606087013592506080870135915060a087013561405881614478565b809150509295509295509295565b6000806000806080858703121561407b578182fd5b84359350602085013567ffffffffffffffff811115614098578283fd5b6140a48782880161399f565b9350506040850135915060608501356140bc81614478565b939692955090935050565b600080600080600060a086880312156140de578283fd5b85359450602086013567ffffffffffffffff8111156140fb578384fd5b6141078882890161399f565b94505060408601359250606086013591506080860135613f4b81614478565b60008060006060848603121561413a578081fd5b8351925060208401519150604084015190509250925092565b81835260007f07ffffffffffffffffffffffffffffffffffffffffffffffffffffffffffffff831115614184578081fd5b8260051b80836020870137939093016020019283525090919050565b6000815180845260208085019450808401835b838110156141cf578151875295820195908201906001016141b3565b509495945050505050565b600082516141ec818460208701614405565b9190910192915050565b60006001600160a01b03808916835280881660208401525060a0604083015261422360a083018688614153565b8281036060840152614236818587614153565b8381036080909401939093525081526020019695505050505050565b60006001600160a01b03808716835280861660208401525060a0604083015261427e60a08301856141a0565b828103606084015261429081856141a0565b838103608090940193909352508152602001949350505050565b6060815260006142be606083018789614153565b82810360208401526142d1818688614153565b9150506001600160a01b03831660408301529695505050505050565b606081526000614301606083018688614153565b828103602084015261431381866141a0565b9150506001600160a01b038316604083015295945050505050565b60408152600061434160408301856141a0565b828103602084015261098781856141a0565b6020815260008251806020840152614372816040850160208701614405565b601f01601f19169190910160400192915050565b604051601f8201601f1916810167ffffffffffffffff811182821017156143af576143af614462565b604052919050565b600082198211156143ca576143ca61444c565b500190565b60008160001904831182151516156143e9576143e961444c565b500290565b6000828210156144005761440061444c565b500390565b60005b83811015614420578181015183820152602001614408565b8381111561268f5750506000910152565b60006000198214156144455761444561444c565b5060010190565b634e487b7160e01b600052601160045260246000fd5b634e487b7160e01b600052604160045260246000fd5b6001600160a01b0381168114610e9457600080fdfea2646970667358221220e707b4c08376887d0b8025e542902aa6a17c75c65774f599a5b4af9dbfe7d55464736f6c63430008040033",
  "devdoc": {
    "kind": "dev",
    "methods": {
      "onERC721Received(address,address,uint256,bytes)": {
        "details": "See {IERC721Receiver-onERC721Received}. Always returns `IERC721Receiver.onERC721Received.selector`."
      },
      "owner()": {
        "details": "Returns the address of the current owner."
      },
      "renounceOwnership()": {
        "details": "Leaves the contract without owner. It will not be possible to call `onlyOwner` functions anymore. Can only be called by the current owner. NOTE: Renouncing ownership will leave the contract without an owner, thereby removing any functionality that is only available to the owner."
      },
      "supportsInterface(bytes4)": {
        "details": "See {IERC165-supportsInterface}."
      },
      "transferOwnership(address)": {
        "details": "Transfers ownership of the contract to a new account (`newOwner`). Can only be called by the current owner."
      }
    },
    "version": 1
  },
  "userdoc": {
    "kind": "user",
    "methods": {},
    "version": 1
  },
  "storageLayout": {
    "storage": [
      {
        "astId": 7239,
        "contract": "contracts/solidity/NFTXStakingZap.sol:NFTXStakingZap",
        "label": "_owner",
        "offset": 0,
        "slot": "0",
        "type": "t_address"
      },
      {
        "astId": 7207,
        "contract": "contracts/solidity/NFTXStakingZap.sol:NFTXStakingZap",
        "label": "_status",
        "offset": 0,
        "slot": "1",
        "type": "t_uint256"
      },
      {
        "astId": 7353,
        "contract": "contracts/solidity/NFTXStakingZap.sol:NFTXStakingZap",
        "label": "lpStaking",
        "offset": 0,
        "slot": "2",
        "type": "t_contract(INFTXLPStaking)13878"
      },
      {
        "astId": 7356,
        "contract": "contracts/solidity/NFTXStakingZap.sol:NFTXStakingZap",
        "label": "inventoryStaking",
        "offset": 0,
        "slot": "3",
        "type": "t_contract(INFTXInventoryStaking)13727"
      },
      {
        "astId": 7365,
        "contract": "contracts/solidity/NFTXStakingZap.sol:NFTXStakingZap",
        "label": "timelockExcludeList",
        "offset": 0,
        "slot": "4",
        "type": "t_contract(ITimelockExcludeList)14671"
      },
      {
        "astId": 7368,
        "contract": "contracts/solidity/NFTXStakingZap.sol:NFTXStakingZap",
        "label": "lpLockTime",
        "offset": 0,
        "slot": "5",
        "type": "t_uint256"
      },
      {
        "astId": 7371,
        "contract": "contracts/solidity/NFTXStakingZap.sol:NFTXStakingZap",
        "label": "inventoryLockTime",
        "offset": 0,
        "slot": "6",
        "type": "t_uint256"
      }
    ],
    "types": {
      "t_address": {
        "encoding": "inplace",
        "label": "address",
        "numberOfBytes": "20"
      },
      "t_contract(INFTXInventoryStaking)13727": {
        "encoding": "inplace",
        "label": "contract INFTXInventoryStaking",
        "numberOfBytes": "20"
      },
      "t_contract(INFTXLPStaking)13878": {
        "encoding": "inplace",
        "label": "contract INFTXLPStaking",
        "numberOfBytes": "20"
      },
      "t_contract(ITimelockExcludeList)14671": {
        "encoding": "inplace",
        "label": "contract ITimelockExcludeList",
        "numberOfBytes": "20"
      },
      "t_uint256": {
        "encoding": "inplace",
        "label": "uint256",
        "numberOfBytes": "32"
      }
    }
  }
}