{
  "address": "0x12dB7df759871061bC62D9Fe023DCE7C98717B82",
  "abi": [
    {
      "inputs": [
        {
          "internalType": "address",
          "name": "sushiRouterFactory",
          "type": "address"
        },
        {
          "internalType": "address",
          "name": "tokenA",
          "type": "address"
        },
        {
          "internalType": "address",
          "name": "tokenB",
          "type": "address"
        }
      ],
      "name": "pairFor",
      "outputs": [
        {
          "internalType": "address",
          "name": "pair",
          "type": "address"
        }
      ],
      "stateMutability": "view",
      "type": "function"
    }
  ],
  "transactionHash": "0x919c5d4cde2c9a38f5a7f98d5f7ae56dc648f473db3bad8eeb6b6f20cdfff42b",
  "args": [],
  "solcInputHash": "20bf2baab5fa7d60bda2e2bae17aaab6",
  "bytecode": "0x608060405234801561001057600080fd5b506102f9806100206000396000f3fe608060405234801561001057600080fd5b506004361061002b5760003560e01c80636d91c0e214610030575b600080fd5b61004361003e366004610281565b61005f565b6040516001600160a01b03909116815260200160405180910390f35b600080600061006e8585610150565b6040516bffffffffffffffffffffffff19606084811b8216602084015283901b166034820152919350915086906048016040516020818303038152906040528051906020012060405160200161012e9291907fff00000000000000000000000000000000000000000000000000000000000000815260609290921b6bffffffffffffffffffffffff1916600183015260158201527fe18a34eb0e04b04f7a0ac29a6e80748dca96319b42c54d679cb821dca90c6303603582015260550190565b60408051601f1981840301815291905280516020909101209695505050505050565b600080826001600160a01b0316846001600160a01b031614156101e05760405162461bcd60e51b815260206004820152602560248201527f556e697377617056324c6962726172793a204944454e544943414c5f4144445260448201527f455353455300000000000000000000000000000000000000000000000000000060648201526084015b60405180910390fd5b826001600160a01b0316846001600160a01b031610610200578284610203565b83835b90925090506001600160a01b03821661025e5760405162461bcd60e51b815260206004820152601e60248201527f556e697377617056324c6962726172793a205a45524f5f41444452455353000060448201526064016101d7565b9250929050565b80356001600160a01b038116811461027c57600080fd5b919050565b600080600060608486031215610295578283fd5b61029e84610265565b92506102ac60208501610265565b91506102ba60408501610265565b9050925092509256fea2646970667358221220c2afb53ce6d2a2c1b316128577982392acfa9420799eca6c7464bbde18da6cab64736f6c63430008040033",
  "devdoc": {
    "kind": "dev",
    "methods": {
      "pairFor(address,address,address)": {
        "returns": {
          "pair": "Address of our token pair"
        }
      }
    },
    "version": 1
  },
  "userdoc": {
    "kind": "user",
    "methods": {
      "pairFor(address,address,address)": {
        "notice": "Calculates the CREATE2 address for a sushi pair without making any external calls. "
      }
    },
    "version": 1
  },
  "storageLayout": {
    "storage": [],
    "types": null
  }
}