{
  "address": "0xB25Ea886FcE4bfDC8750Cb2D4464FE3F7A67bc07",
  "abi": [
    {
      "anonymous": false,
      "inputs": [
        {
          "indexed": false,
          "internalType": "uint256",
          "name": "vaultId",
          "type": "uint256"
        },
        {
          "indexed": false,
          "internalType": "uint256",
          "name": "xTokensUnstaked",
          "type": "uint256"
        },
        {
          "indexed": false,
          "internalType": "uint256",
          "name": "numNftsRedeemed",
          "type": "uint256"
        },
        {
          "indexed": false,
          "internalType": "address",
          "name": "unstaker",
          "type": "address"
        }
      ],
      "name": "InventoryUnstaked",
      "type": "event"
    },
    {
      "anonymous": false,
      "inputs": [
        {
          "indexed": true,
          "internalType": "address",
          "name": "previousOwner",
          "type": "address"
        },
        {
          "indexed": true,
          "internalType": "address",
          "name": "newOwner",
          "type": "address"
        }
      ],
      "name": "OwnershipTransferred",
      "type": "event"
    },
    {
      "inputs": [],
      "name": "inventoryStaking",
      "outputs": [
        {
          "internalType": "contract NFTXInventoryStaking",
          "name": "",
          "type": "address"
        }
      ],
      "stateMutability": "view",
      "type": "function"
    },
    {
      "inputs": [
        {
          "internalType": "uint256",
          "name": "vaultId",
          "type": "uint256"
        },
        {
          "internalType": "address",
          "name": "staker",
          "type": "address"
        },
        {
          "internalType": "address",
          "name": "slpToken",
          "type": "address"
        }
      ],
      "name": "maxNftsUsingXToken",
      "outputs": [
        {
          "internalType": "uint256",
          "name": "numNfts",
          "type": "uint256"
        },
        {
          "internalType": "bool",
          "name": "shortByTinyAmount",
          "type": "bool"
        }
      ],
      "stateMutability": "view",
      "type": "function"
    },
    {
      "inputs": [],
      "name": "owner",
      "outputs": [
        {
          "internalType": "address",
          "name": "",
          "type": "address"
        }
      ],
      "stateMutability": "view",
      "type": "function"
    },
    {
      "inputs": [],
      "name": "renounceOwnership",
      "outputs": [],
      "stateMutability": "nonpayable",
      "type": "function"
    },
    {
      "inputs": [
        {
          "internalType": "address",
          "name": "token",
          "type": "address"
        }
      ],
      "name": "rescue",
      "outputs": [],
      "stateMutability": "nonpayable",
      "type": "function"
    },
    {
      "inputs": [
        {
          "internalType": "address",
          "name": "addr",
          "type": "address"
        }
      ],
      "name": "setInventoryStaking",
      "outputs": [],
      "stateMutability": "nonpayable",
      "type": "function"
    },
    {
      "inputs": [
        {
          "internalType": "address",
          "name": "sushiRouterAddr",
          "type": "address"
        }
      ],
      "name": "setSushiRouterAndWeth",
      "outputs": [],
      "stateMutability": "nonpayable",
      "type": "function"
    },
    {
      "inputs": [
        {
          "internalType": "address",
          "name": "addr",
          "type": "address"
        }
      ],
      "name": "setVaultFactory",
      "outputs": [],
      "stateMutability": "nonpayable",
      "type": "function"
    },
    {
      "inputs": [],
      "name": "sushiRouter",
      "outputs": [
        {
          "internalType": "contract IUniswapV2Router01",
          "name": "",
          "type": "address"
        }
      ],
      "stateMutability": "view",
      "type": "function"
    },
    {
      "inputs": [
        {
          "internalType": "address",
          "name": "newOwner",
          "type": "address"
        }
      ],
      "name": "transferOwnership",
      "outputs": [],
      "stateMutability": "nonpayable",
      "type": "function"
    },
    {
      "inputs": [
        {
          "internalType": "uint256",
          "name": "vaultId",
          "type": "uint256"
        },
        {
          "internalType": "uint256",
          "name": "numNfts",
          "type": "uint256"
        },
        {
          "internalType": "uint256",
          "name": "remainingPortionToUnstake",
          "type": "uint256"
        }
      ],
      "name": "unstakeInventory",
      "outputs": [],
      "stateMutability": "payable",
      "type": "function"
    },
    {
      "inputs": [],
      "name": "vaultFactory",
      "outputs": [
        {
          "internalType": "contract INFTXVaultFactory",
          "name": "",
          "type": "address"
        }
      ],
      "stateMutability": "view",
      "type": "function"
    },
    {
      "inputs": [],
      "name": "weth",
      "outputs": [
        {
          "internalType": "contract IWETH",
          "name": "",
          "type": "address"
        }
      ],
      "stateMutability": "view",
      "type": "function"
    },
    {
      "stateMutability": "payable",
      "type": "receive"
    }
  ],
  "transactionHash": "0x87a4dc6a92f83953895580d77f6012e71df5694dbb4bea706c0e0f5da133284a",
  "args": [],
  "numDeployments": 1,
  "solcInputHash": "4ed07831cf1b45df322bf066ca733d09",
  "bytecode": "0x608060405234801561001057600080fd5b50600080546001600160a01b031916339081178255604051909182917f8be0079c531659141344cd1fd0a4f28419497f9722a3daafe3b4186f6b6457e0908290a35060018055611ff0806100656000396000f3fe6080604052600436106100d65760003560e01c806378caec371161007f578063c0c65a4e11610059578063c0c65a4e14610229578063d8a06f7314610249578063f2fde38b14610269578063fa8afbd91461028957600080fd5b806378caec37146101cb578063839006f2146101eb5780638da5cb5b1461020b57600080fd5b80636d13582c116100b05780636d13582c14610176578063715018a61461019657806374a1b0b0146101ab57600080fd5b80630eb188ae146100e25780633ea7fbdb1461011c5780633fc8cef31461013e57600080fd5b366100dd57005b600080fd5b3480156100ee57600080fd5b506101026100fd366004611d5c565b61029c565b604080519283529015156020830152015b60405180910390f35b34801561012857600080fd5b5061013c610137366004611c2c565b61083f565b005b34801561014a57600080fd5b5060055461015e906001600160a01b031681565b6040516001600160a01b039091168152602001610113565b34801561018257600080fd5b5060045461015e906001600160a01b031681565b3480156101a257600080fd5b5061013c6108c0565b3480156101b757600080fd5b5060035461015e906001600160a01b031681565b3480156101d757600080fd5b5061013c6101e6366004611c2c565b610964565b3480156101f757600080fd5b5061013c610206366004611c2c565b610a83565b34801561021757600080fd5b506000546001600160a01b031661015e565b34801561023557600080fd5b5061013c610244366004611c2c565b610c3e565b34801561025557600080fd5b5060025461015e906001600160a01b031681565b34801561027557600080fd5b5061013c610284366004611c2c565b610cba565b61013c610297366004611d9d565b610deb565b6003546040517fc23c6da0000000000000000000000000000000000000000000000000000000008152600481018590526001600160a01b038481166024830152600092839242929091169063c23c6da09060440160206040518083038186803b15801561030857600080fd5b505afa15801561031c573d6000803e3d6000fd5b505050506040513d601f19601f820116820180604052508101906103409190611d44565b111561035157506000905080610837565b6002546040516340d1b7db60e11b8152600481018790526000916001600160a01b0316906381a36fb69060240160206040518083038186803b15801561039657600080fd5b505afa1580156103aa573d6000803e3d6000fd5b505050506040513d601f19601f820116820180604052508101906103ce9190611c48565b60035460405163cda13d6760e01b81526001600160a01b0380841660048301529293506000929091169063cda13d679060240160206040518083038186803b15801561041957600080fd5b505afa15801561042d573d6000803e3d6000fd5b505050506040513d601f19601f820116820180604052508101906104519190611c48565b6040516370a0823160e01b81526001600160a01b038881166004830152919250839183918891600091908416906370a082319060240160206040518083038186803b15801561049f57600080fd5b505afa1580156104b3573d6000803e3d6000fd5b505050506040513d601f19601f820116820180604052508101906104d79190611d44565b6003546040516321b1fe6960e11b8152600481018e90529192506000916001600160a01b0390911690634363fcd29060240160206040518083038186803b15801561052157600080fd5b505afa158015610535573d6000803e3d6000fd5b505050506040513d601f19601f820116820180604052508101906105599190611d44565b90506000670de0b6b3a76400006105708385611f17565b61057a9190611ef7565b90506000670de0b6b3a76400006105918486611f17565b61059b9190611ef7565b6105a6906063611edf565b905060006105bc670de0b6b3a764000084611ef7565b905060006105d2670de0b6b3a764000084611ef7565b905081811115610821576040516370a0823160e01b81523360048201526063906001600160a01b038b16906370a082319060240160206040518083038186803b15801561061e57600080fd5b505afa158015610632573d6000803e3d6000fd5b505050506040513d601f19601f820116820180604052508101906106569190611d44565b101580156106e25750604051636eb1769f60e11b81523360048201523060248201526063906001600160a01b038b169063dd62ed3e9060440160206040518083038186803b1580156106a757600080fd5b505afa1580156106bb573d6000803e3d6000fd5b505050506040513d601f19601f820116820180604052508101906106df9190611d44565b10155b156106fd579b5060019a506108379950505050505050505050565b612710876001600160a01b03166318160ddd6040518163ffffffff1660e01b815260040160206040518083038186803b15801561073957600080fd5b505afa15801561074d573d6000803e3d6000fd5b505050506040513d601f19601f820116820180604052508101906107719190611d44565b1061078c579b5060019a506108379950505050505050505050565b6040516370a0823160e01b81523060048201526063906001600160a01b038b16906370a082319060240160206040518083038186803b1580156107ce57600080fd5b505afa1580156107e2573d6000803e3d6000fd5b505050506040513d601f19601f820116820180604052508101906108069190611d44565b10610821579b5060019a506108379950505050505050505050565b509a506000995061083798505050505050505050565b935093915050565b6000546001600160a01b0316331461089e5760405162461bcd60e51b815260206004820181905260248201527f4f776e61626c653a2063616c6c6572206973206e6f7420746865206f776e657260448201526064015b60405180910390fd5b600280546001600160a01b0319166001600160a01b0392909216919091179055565b6000546001600160a01b0316331461091a5760405162461bcd60e51b815260206004820181905260248201527f4f776e61626c653a2063616c6c6572206973206e6f7420746865206f776e65726044820152606401610895565b600080546040516001600160a01b03909116907f8be0079c531659141344cd1fd0a4f28419497f9722a3daafe3b4186f6b6457e0908390a3600080546001600160a01b0319169055565b6000546001600160a01b031633146109be5760405162461bcd60e51b815260206004820181905260248201527f4f776e61626c653a2063616c6c6572206973206e6f7420746865206f776e65726044820152606401610895565b600480546001600160a01b0319166001600160a01b0383169081178255604080517fad5c46480000000000000000000000000000000000000000000000000000000081529051919263ad5c4648928282019260209290829003018186803b158015610a2857600080fd5b505afa158015610a3c573d6000803e3d6000fd5b505050506040513d601f19601f82011682018060405250810190610a609190611c48565b600580546001600160a01b0319166001600160a01b039290921691909117905550565b6000546001600160a01b03163314610add5760405162461bcd60e51b815260206004820181905260248201527f4f776e61626c653a2063616c6c6572206973206e6f7420746865206f776e65726044820152606401610895565b6001600160a01b038116610bad57604051600090339047908381818185875af1925050503d8060008114610b2d576040519150601f19603f3d011682016040523d82523d6000602084013e610b32565b606091505b5050905080610ba95760405162461bcd60e51b815260206004820152603a60248201527f416464726573733a20756e61626c6520746f2073656e642076616c75652c207260448201527f6563697069656e74206d617920686176652072657665727465640000000000006064820152608401610895565b5050565b6040516370a0823160e01b8152306004820152610c3b9033906001600160a01b038416906370a082319060240160206040518083038186803b158015610bf257600080fd5b505afa158015610c06573d6000803e3d6000fd5b505050506040513d601f19601f82011682018060405250810190610c2a9190611d44565b6001600160a01b03841691906118b1565b50565b6000546001600160a01b03163314610c985760405162461bcd60e51b815260206004820181905260248201527f4f776e61626c653a2063616c6c6572206973206e6f7420746865206f776e65726044820152606401610895565b600380546001600160a01b0319166001600160a01b0392909216919091179055565b6000546001600160a01b03163314610d145760405162461bcd60e51b815260206004820181905260248201527f4f776e61626c653a2063616c6c6572206973206e6f7420746865206f776e65726044820152606401610895565b6001600160a01b038116610d905760405162461bcd60e51b815260206004820152602660248201527f4f776e61626c653a206e6577206f776e657220697320746865207a65726f206160448201527f64647265737300000000000000000000000000000000000000000000000000006064820152608401610895565b600080546040516001600160a01b03808516939216917f8be0079c531659141344cd1fd0a4f28419497f9722a3daafe3b4186f6b6457e091a3600080546001600160a01b0319166001600160a01b0392909216919091179055565b670de0b6b3a7640000811115610e0057600080fd5b6002546040516340d1b7db60e11b8152600481018590526000916001600160a01b0316906381a36fb69060240160206040518083038186803b158015610e4557600080fd5b505afa158015610e59573d6000803e3d6000fd5b505050506040513d601f19601f82011682018060405250810190610e7d9190611c48565b60035460405163cda13d6760e01b81526001600160a01b0380841660048301529293506000929091169063cda13d679060240160206040518083038186803b158015610ec857600080fd5b505afa158015610edc573d6000803e3d6000fd5b505050506040513d601f19601f82011682018060405250810190610f009190611c48565b90506000610f1685670de0b6b3a7640000611f17565b6040516370a0823160e01b815233600482015290915060009081906001600160a01b038516906370a082319060240160206040518083038186803b158015610f5d57600080fd5b505afa158015610f71573d6000803e3d6000fd5b505050506040513d601f19601f82011682018060405250810190610f959190611d44565b905085670de0b6b3a76400001415610faf57809150611154565b6003546040516321b1fe6960e11b8152600481018a90526000916001600160a01b031690634363fcd29060240160206040518083038186803b158015610ff457600080fd5b505afa158015611008573d6000803e3d6000fd5b505050506040513d601f19601f8201168201806040525081019061102c9190611d44565b905060008161104386670de0b6b3a7640000611f17565b61104d9190611ef7565b905084670de0b6b3a76400006110638484611f17565b61106d9190611ef7565b10156110815761107e600182611edf565b90505b8083101561109157829350611151565b8761109e57809350611151565b6040516370a0823160e01b815233600482015260009082906001600160a01b038916906370a082319060240160206040518083038186803b1580156110e257600080fd5b505afa1580156110f6573d6000803e3d6000fd5b505050506040513d601f19601f8201168201806040525081019061111a9190611d44565b6111249190611f36565b9050670de0b6b3a76400006111398a83611f17565b6111439190611ef7565b61114d9083611edf565b9450505b50505b6111696001600160a01b03851633308561195f565b600354604051636eb1769f60e11b81523060048201526001600160a01b039182166024820152839186169063dd62ed3e9060440160206040518083038186803b1580156111b557600080fd5b505afa1580156111c9573d6000803e3d6000fd5b505050506040513d601f19601f820116820180604052508101906111ed9190611d44565b1015611295576003546040517f095ea7b30000000000000000000000000000000000000000000000000000000081526001600160a01b03918216600482015260001960248201529085169063095ea7b390604401602060405180830381600087803b15801561125b57600080fd5b505af115801561126f573d6000803e3d6000fd5b505050506040513d601f19601f820116820180604052508101906112939190611d24565b505b6040516370a0823160e01b81523060048201526000906001600160a01b038716906370a082319060240160206040518083038186803b1580156112d757600080fd5b505afa1580156112eb573d6000803e3d6000fd5b505050506040513d601f19601f8201168201806040525081019061130f9190611d44565b6003546040517f441a3e70000000000000000000000000000000000000000000000000000000008152600481018c9052602481018690529192506001600160a01b03169063441a3e7090604401600060405180830381600087803b15801561137657600080fd5b505af115801561138a573d6000803e3d6000fd5b50506040516370a0823160e01b8152306004820152600092508391506001600160a01b038916906370a082319060240160206040518083038186803b1580156113d257600080fd5b505afa1580156113e6573d6000803e3d6000fd5b505050506040513d601f19601f8201168201806040525081019061140a9190611d44565b6114149190611f36565b905060008582101561142d5761142a8287611f36565b90505b6064811061147d5760405162461bcd60e51b815260206004820152601260248201527f6e6f7420656e6f7567682076546f6b656e7300000000000000000000000000006044820152606401610895565b6000838211156116f9576040516370a0823160e01b815233600482015282906001600160a01b038b16906370a082319060240160206040518083038186803b1580156114c857600080fd5b505afa1580156114dc573d6000803e3d6000fd5b505050506040513d601f19601f820116820180604052508101906115009190611d44565b1015801561158b5750604051636eb1769f60e11b815233600482015230602482015282906001600160a01b038b169063dd62ed3e9060440160206040518083038186803b15801561155057600080fd5b505afa158015611564573d6000803e3d6000fd5b505050506040513d601f19601f820116820180604052508101906115889190611d44565b10155b156115aa576115a56001600160a01b038a1633308561195f565b6116fc565b604080516002808252606082018352600092602083019080368337505060055482519293506001600160a01b0316918391506000906115f957634e487b7160e01b600052603260045260246000fd5b60200260200101906001600160a01b031690816001600160a01b031681525050898160018151811061163b57634e487b7160e01b600052603260045260246000fd5b6001600160a01b039283166020918202929092010152600480546040517ffb3bdb4100000000000000000000000000000000000000000000000000000000815292169163fb3bdb4191633b9aca009161169c91889187913091429101611e17565b6000604051808303818588803b1580156116b557600080fd5b505af11580156116c9573d6000803e3d6000fd5b50505050506040513d6000823e601f3d908101601f191682016040526116f29190810190611c64565b50506116fc565b50805b8a156117af57604080516000815260208101918290527f9d54def6000000000000000000000000000000000000000000000000000000009091526001600160a01b038a1690639d54def690611757908e903360248201611e80565b600060405180830381600087803b15801561177157600080fd5b505af1158015611785573d6000803e3d6000fd5b505050506040513d6000823e601f3d908101601f191682016040526117ad9190810190611c64565b505b60006117bb8286611f36565b6040516370a0823160e01b81523060048201526001600160a01b038c16906370a082319060240160206040518083038186803b1580156117fa57600080fd5b505afa15801561180e573d6000803e3d6000fd5b505050506040513d601f19601f820116820180604052508101906118329190611d44565b61183c9190611f36565b9050606481111561185b5761185b6001600160a01b038b1633836118b1565b604080518e8152602081018990529081018d90523360608201527f2d80d681127a38ca715ea60cfd400ccbe674c857d140e3437d0da5dde6152fa39060800160405180910390a150505050505050505050505050565b6040516001600160a01b03831660248201526044810182905261195a9084907fa9059cbb00000000000000000000000000000000000000000000000000000000906064015b60408051601f198184030181529190526020810180517bffffffffffffffffffffffffffffffffffffffffffffffffffffffff167fffffffff00000000000000000000000000000000000000000000000000000000909316929092179091526119b6565b505050565b6040516001600160a01b03808516602483015283166044820152606481018290526119b09085907f23b872dd00000000000000000000000000000000000000000000000000000000906084016118f6565b50505050565b6000611a0b826040518060400160405280602081526020017f5361666545524332303a206c6f772d6c6576656c2063616c6c206661696c6564815250856001600160a01b0316611a9b9092919063ffffffff16565b80519091501561195a5780806020019051810190611a299190611d24565b61195a5760405162461bcd60e51b815260206004820152602a60248201527f5361666545524332303a204552433230206f7065726174696f6e20646964206e60448201527f6f742073756363656564000000000000000000000000000000000000000000006064820152608401610895565b6060611aaa8484600085611ab4565b90505b9392505050565b606082471015611b2c5760405162461bcd60e51b815260206004820152602660248201527f416464726573733a20696e73756666696369656e742062616c616e636520666f60448201527f722063616c6c00000000000000000000000000000000000000000000000000006064820152608401610895565b843b611b7a5760405162461bcd60e51b815260206004820152601d60248201527f416464726573733a2063616c6c20746f206e6f6e2d636f6e74726163740000006044820152606401610895565b600080866001600160a01b03168587604051611b969190611dc8565b60006040518083038185875af1925050503d8060008114611bd3576040519150601f19603f3d011682016040523d82523d6000602084013e611bd8565b606091505b5091509150611be8828286611bf3565b979650505050505050565b60608315611c02575081611aad565b825115611c125782518084602001fd5b8160405162461bcd60e51b81526004016108959190611de4565b600060208284031215611c3d578081fd5b8135611aad81611fa5565b600060208284031215611c59578081fd5b8151611aad81611fa5565b60006020808385031215611c76578182fd5b825167ffffffffffffffff80821115611c8d578384fd5b818501915085601f830112611ca0578384fd5b815181811115611cb257611cb2611f8f565b8060051b604051601f19603f83011681018181108582111715611cd757611cd7611f8f565b604052828152858101935084860182860187018a1015611cf5578788fd5b8795505b83861015611d17578051855260019590950194938601938601611cf9565b5098975050505050505050565b600060208284031215611d35578081fd5b81518015158114611aad578182fd5b600060208284031215611d55578081fd5b5051919050565b600080600060608486031215611d70578182fd5b833592506020840135611d8281611fa5565b91506040840135611d9281611fa5565b809150509250925092565b600080600060608486031215611db1578283fd5b505081359360208301359350604090920135919050565b60008251611dda818460208701611f4d565b9190910192915050565b6020815260008251806020840152611e03816040850160208701611f4d565b601f01601f19169190910160400192915050565b600060808201868352602060808185015281875180845260a0860191508289019350845b81811015611e605784516001600160a01b031683529383019391830191600101611e3b565b50506001600160a01b039690961660408501525050506060015292915050565b60006060820185835260206060818501528186518084526080860191508288019350845b81811015611ec057845183529383019391830191600101611ea4565b50508093505050506001600160a01b0383166040830152949350505050565b60008219821115611ef257611ef2611f79565b500190565b600082611f1257634e487b7160e01b81526012600452602481fd5b500490565b6000816000190483118215151615611f3157611f31611f79565b500290565b600082821015611f4857611f48611f79565b500390565b60005b83811015611f68578181015183820152602001611f50565b838111156119b05750506000910152565b634e487b7160e01b600052601160045260246000fd5b634e487b7160e01b600052604160045260246000fd5b6001600160a01b0381168114610c3b57600080fdfea26469706673582212209c26d2d4ade512a6c82e6720e8049833e5baa1771cd64aa2d401d2fabe08d86564736f6c63430008040033",
  "devdoc": {
    "kind": "dev",
    "methods": {
      "owner()": {
        "details": "Returns the address of the current owner."
      },
      "renounceOwnership()": {
        "details": "Leaves the contract without owner. It will not be possible to call `onlyOwner` functions anymore. Can only be called by the current owner. NOTE: Renouncing ownership will leave the contract without an owner, thereby removing any functionality that is only available to the owner."
      },
      "transferOwnership(address)": {
        "details": "Transfers ownership of the contract to a new account (`newOwner`). Can only be called by the current owner."
      },
      "unstakeInventory(uint256,uint256,uint256)": {
        "params": {
          "remainingPortionToUnstake": "Represents the ratio (in 1e18) of the remaining xTokens (left after claiming `numNfts`) balance of user to unstake if remainingPortionToUnstake = 1e18 => unstake entire user's balance if remainingPortionToUnstake = 0 => only unstake required xToken balance to claim `numNfts`, nothing extra"
        }
      }
    },
    "version": 1
  },
  "userdoc": {
    "kind": "user",
    "methods": {},
    "version": 1
  },
  "storageLayout": {
    "storage": [
      {
        "astId": 4333,
        "contract": "contracts/solidity/NFTXUnstakingInventoryZap.sol:NFTXUnstakingInventoryZap",
        "label": "_owner",
        "offset": 0,
        "slot": "0",
        "type": "t_address"
      },
      {
        "astId": 4696,
        "contract": "contracts/solidity/NFTXUnstakingInventoryZap.sol:NFTXUnstakingInventoryZap",
        "label": "_status",
        "offset": 0,
        "slot": "1",
        "type": "t_uint256"
      },
      {
        "astId": 796,
        "contract": "contracts/solidity/NFTXUnstakingInventoryZap.sol:NFTXUnstakingInventoryZap",
        "label": "vaultFactory",
        "offset": 0,
        "slot": "2",
        "type": "t_contract(INFTXVaultFactory)2248"
      },
      {
        "astId": 799,
        "contract": "contracts/solidity/NFTXUnstakingInventoryZap.sol:NFTXUnstakingInventoryZap",
        "label": "inventoryStaking",
        "offset": 0,
        "slot": "3",
        "type": "t_contract(NFTXInventoryStaking)775"
      },
      {
        "astId": 802,
        "contract": "contracts/solidity/NFTXUnstakingInventoryZap.sol:NFTXUnstakingInventoryZap",
        "label": "sushiRouter",
        "offset": 0,
        "slot": "4",
        "type": "t_contract(IUniswapV2Router01)2568"
      },
      {
        "astId": 805,
        "contract": "contracts/solidity/NFTXUnstakingInventoryZap.sol:NFTXUnstakingInventoryZap",
        "label": "weth",
        "offset": 0,
        "slot": "5",
        "type": "t_contract(IWETH)3578"
      }
    ],
    "types": {
      "t_address": {
        "encoding": "inplace",
        "label": "address",
        "numberOfBytes": "20"
      },
      "t_contract(INFTXVaultFactory)2248": {
        "encoding": "inplace",
        "label": "contract INFTXVaultFactory",
        "numberOfBytes": "20"
      },
      "t_contract(IUniswapV2Router01)2568": {
        "encoding": "inplace",
        "label": "contract IUniswapV2Router01",
        "numberOfBytes": "20"
      },
      "t_contract(IWETH)3578": {
        "encoding": "inplace",
        "label": "contract IWETH",
        "numberOfBytes": "20"
      },
      "t_contract(NFTXInventoryStaking)775": {
        "encoding": "inplace",
        "label": "contract NFTXInventoryStaking",
        "numberOfBytes": "20"
      },
      "t_uint256": {
        "encoding": "inplace",
        "label": "uint256",
        "numberOfBytes": "32"
      }
    }
  }
}