{
  "address": "0xA50D1dba51bAc0dCc7a56fF186f366757c6fD806",
  "abi": [
    {
      "inputs": [
        {
          "internalType": "address",
          "name": "_nftxFactory",
          "type": "address"
        },
        {
          "internalType": "address",
          "name": "_WETH",
          "type": "address"
        },
        {
          "internalType": "address payable",
          "name": "_swapTarget",
          "type": "address"
        }
      ],
      "stateMutability": "nonpayable",
      "type": "constructor"
    },
    {
      "anonymous": false,
      "inputs": [
        {
          "indexed": false,
          "internalType": "uint256",
          "name": "count",
          "type": "uint256"
        },
        {
          "indexed": false,
          "internalType": "uint256",
          "name": "ethSpent",
          "type": "uint256"
        },
        {
          "indexed": false,
          "internalType": "address",
          "name": "to",
          "type": "address"
        }
      ],
      "name": "Buy",
      "type": "event"
    },
    {
      "anonymous": false,
      "inputs": [
        {
          "indexed": false,
          "internalType": "uint256",
          "name": "ethAmount",
          "type": "uint256"
        },
        {
          "indexed": false,
          "internalType": "uint256",
          "name": "vTokenAmount",
          "type": "uint256"
        },
        {
          "indexed": false,
          "internalType": "address",
          "name": "to",
          "type": "address"
        }
      ],
      "name": "DustReturned",
      "type": "event"
    },
    {
      "anonymous": false,
      "inputs": [
        {
          "indexed": true,
          "internalType": "address",
          "name": "previousOwner",
          "type": "address"
        },
        {
          "indexed": true,
          "internalType": "address",
          "name": "newOwner",
          "type": "address"
        }
      ],
      "name": "OwnershipTransferred",
      "type": "event"
    },
    {
      "anonymous": false,
      "inputs": [
        {
          "indexed": false,
          "internalType": "uint256",
          "name": "count",
          "type": "uint256"
        },
        {
          "indexed": false,
          "internalType": "uint256",
          "name": "ethReceived",
          "type": "uint256"
        },
        {
          "indexed": false,
          "internalType": "address",
          "name": "to",
          "type": "address"
        }
      ],
      "name": "Sell",
      "type": "event"
    },
    {
      "anonymous": false,
      "inputs": [
        {
          "indexed": false,
          "internalType": "uint256",
          "name": "count",
          "type": "uint256"
        },
        {
          "indexed": false,
          "internalType": "uint256",
          "name": "ethSpent",
          "type": "uint256"
        },
        {
          "indexed": false,
          "internalType": "address",
          "name": "to",
          "type": "address"
        }
      ],
      "name": "Swap",
      "type": "event"
    },
    {
      "inputs": [],
      "name": "WETH",
      "outputs": [
        {
          "internalType": "contract IWETH",
          "name": "",
          "type": "address"
        }
      ],
      "stateMutability": "view",
      "type": "function"
    },
    {
      "inputs": [
        {
          "internalType": "uint256",
          "name": "vaultId",
          "type": "uint256"
        },
        {
          "internalType": "uint256",
          "name": "amount",
          "type": "uint256"
        },
        {
          "internalType": "uint256[]",
          "name": "specificIds",
          "type": "uint256[]"
        },
        {
          "internalType": "bytes",
          "name": "swapCallData",
          "type": "bytes"
        },
        {
          "internalType": "address payable",
          "name": "to",
          "type": "address"
        }
      ],
      "name": "buyAndRedeem",
      "outputs": [],
      "stateMutability": "payable",
      "type": "function"
    },
    {
      "inputs": [
        {
          "internalType": "uint256",
          "name": "vaultId",
          "type": "uint256"
        },
        {
          "internalType": "uint256[]",
          "name": "idsIn",
          "type": "uint256[]"
        },
        {
          "internalType": "uint256[]",
          "name": "amounts",
          "type": "uint256[]"
        },
        {
          "internalType": "uint256[]",
          "name": "specificIds",
          "type": "uint256[]"
        },
        {
          "internalType": "bytes",
          "name": "swapCallData",
          "type": "bytes"
        },
        {
          "internalType": "address payable",
          "name": "to",
          "type": "address"
        }
      ],
      "name": "buyAndSwap1155",
      "outputs": [],
      "stateMutability": "payable",
      "type": "function"
    },
    {
      "inputs": [
        {
          "internalType": "uint256",
          "name": "vaultId",
          "type": "uint256"
        },
        {
          "internalType": "uint256[]",
          "name": "idsIn",
          "type": "uint256[]"
        },
        {
          "internalType": "uint256[]",
          "name": "specificIds",
          "type": "uint256[]"
        },
        {
          "internalType": "bytes",
          "name": "swapCallData",
          "type": "bytes"
        },
        {
          "internalType": "address payable",
          "name": "to",
          "type": "address"
        }
      ],
      "name": "buyAndSwap721",
      "outputs": [],
      "stateMutability": "payable",
      "type": "function"
    },
    {
      "inputs": [],
      "name": "feeDistributor",
      "outputs": [
        {
          "internalType": "address",
          "name": "",
          "type": "address"
        }
      ],
      "stateMutability": "view",
      "type": "function"
    },
    {
      "inputs": [
        {
          "internalType": "uint256",
          "name": "vaultId",
          "type": "uint256"
        },
        {
          "internalType": "uint256[]",
          "name": "ids",
          "type": "uint256[]"
        },
        {
          "internalType": "uint256[]",
          "name": "amounts",
          "type": "uint256[]"
        },
        {
          "internalType": "bytes",
          "name": "swapCallData",
          "type": "bytes"
        },
        {
          "internalType": "address payable",
          "name": "to",
          "type": "address"
        }
      ],
      "name": "mintAndSell1155",
      "outputs": [],
      "stateMutability": "nonpayable",
      "type": "function"
    },
    {
      "inputs": [
        {
          "internalType": "uint256",
          "name": "vaultId",
          "type": "uint256"
        },
        {
          "internalType": "uint256[]",
          "name": "ids",
          "type": "uint256[]"
        },
        {
          "internalType": "bytes",
          "name": "swapCallData",
          "type": "bytes"
        },
        {
          "internalType": "address payable",
          "name": "to",
          "type": "address"
        }
      ],
      "name": "mintAndSell721",
      "outputs": [],
      "stateMutability": "nonpayable",
      "type": "function"
    },
    {
      "inputs": [],
      "name": "nftxFactory",
      "outputs": [
        {
          "internalType": "contract INFTXVaultFactory",
          "name": "",
          "type": "address"
        }
      ],
      "stateMutability": "view",
      "type": "function"
    },
    {
      "inputs": [
        {
          "internalType": "uint256",
          "name": "",
          "type": "uint256"
        }
      ],
      "name": "nftxVaultAddresses",
      "outputs": [
        {
          "internalType": "address",
          "name": "",
          "type": "address"
        }
      ],
      "stateMutability": "view",
      "type": "function"
    },
    {
      "inputs": [
        {
          "internalType": "address",
          "name": "",
          "type": "address"
        },
        {
          "internalType": "address",
          "name": "",
          "type": "address"
        },
        {
          "internalType": "uint256[]",
          "name": "",
          "type": "uint256[]"
        },
        {
          "internalType": "uint256[]",
          "name": "",
          "type": "uint256[]"
        },
        {
          "internalType": "bytes",
          "name": "",
          "type": "bytes"
        }
      ],
      "name": "onERC1155BatchReceived",
      "outputs": [
        {
          "internalType": "bytes4",
          "name": "",
          "type": "bytes4"
        }
      ],
      "stateMutability": "nonpayable",
      "type": "function"
    },
    {
      "inputs": [
        {
          "internalType": "address",
          "name": "",
          "type": "address"
        },
        {
          "internalType": "address",
          "name": "",
          "type": "address"
        },
        {
          "internalType": "uint256",
          "name": "",
          "type": "uint256"
        },
        {
          "internalType": "uint256",
          "name": "",
          "type": "uint256"
        },
        {
          "internalType": "bytes",
          "name": "",
          "type": "bytes"
        }
      ],
      "name": "onERC1155Received",
      "outputs": [
        {
          "internalType": "bytes4",
          "name": "",
          "type": "bytes4"
        }
      ],
      "stateMutability": "nonpayable",
      "type": "function"
    },
    {
      "inputs": [
        {
          "internalType": "address",
          "name": "",
          "type": "address"
        },
        {
          "internalType": "address",
          "name": "",
          "type": "address"
        },
        {
          "internalType": "uint256",
          "name": "",
          "type": "uint256"
        },
        {
          "internalType": "bytes",
          "name": "",
          "type": "bytes"
        }
      ],
      "name": "onERC721Received",
      "outputs": [
        {
          "internalType": "bytes4",
          "name": "",
          "type": "bytes4"
        }
      ],
      "stateMutability": "nonpayable",
      "type": "function"
    },
    {
      "inputs": [],
      "name": "owner",
      "outputs": [
        {
          "internalType": "address",
          "name": "",
          "type": "address"
        }
      ],
      "stateMutability": "view",
      "type": "function"
    },
    {
      "inputs": [
        {
          "internalType": "bool",
          "name": "_paused",
          "type": "bool"
        }
      ],
      "name": "pause",
      "outputs": [],
      "stateMutability": "nonpayable",
      "type": "function"
    },
    {
      "inputs": [],
      "name": "paused",
      "outputs": [
        {
          "internalType": "bool",
          "name": "",
          "type": "bool"
        }
      ],
      "stateMutability": "view",
      "type": "function"
    },
    {
      "inputs": [],
      "name": "renounceOwnership",
      "outputs": [],
      "stateMutability": "nonpayable",
      "type": "function"
    },
    {
      "inputs": [
        {
          "internalType": "address",
          "name": "token",
          "type": "address"
        }
      ],
      "name": "rescue",
      "outputs": [],
      "stateMutability": "nonpayable",
      "type": "function"
    },
    {
      "inputs": [
        {
          "internalType": "bytes4",
          "name": "interfaceId",
          "type": "bytes4"
        }
      ],
      "name": "supportsInterface",
      "outputs": [
        {
          "internalType": "bool",
          "name": "",
          "type": "bool"
        }
      ],
      "stateMutability": "view",
      "type": "function"
    },
    {
      "inputs": [
        {
          "internalType": "address",
          "name": "newOwner",
          "type": "address"
        }
      ],
      "name": "transferOwnership",
      "outputs": [],
      "stateMutability": "nonpayable",
      "type": "function"
    },
    {
      "stateMutability": "payable",
      "type": "receive"
    }
  ],
  "transactionHash": "0x96d629563efa3075e1fd317271975f02842de298355ba4575fb90637e87f4250",
  "args": [
    "0x1478bEB5D18B23d2bA90FcEe91d66460AC585e6b",
    "0xB4FBF271143F4FBf7B91A5ded31805e42b2208d6",
    "0xF91bB752490473B8342a3E964E855b9f9a2A668e"
  ],
  "numDeployments": 2,
  "solcInputHash": "cdac9771e564f53c5b7f0268fdf87f5f",
  "bytecode": "0x6101006040526002805460ff191690553480156200001c57600080fd5b50604051620039c6380380620039c68339810160408190526200003f9162000162565b600080546001600160a01b031916339081178255604051909182917f8be0079c531659141344cd1fd0a4f28419497f9722a3daafe3b4186f6b6457e0908290a350600180556001600160601b0319606084811b821660c05283811b821660a05282901b1660805260408051630d43e8ad60e01b815290516001600160a01b03851691630d43e8ad916004808301926020929190829003018186803b158015620000e757600080fd5b505afa158015620000fc573d6000803e3d6000fd5b505050506040513d601f19601f820116820180604052508101906200012291906200013c565b60601b6001600160601b03191660e05250620001ce915050565b6000602082840312156200014e578081fd5b81516200015b81620001b5565b9392505050565b60008060006060848603121562000177578182fd5b83516200018481620001b5565b60208501519093506200019781620001b5565b6040850151909250620001aa81620001b5565b809150509250925092565b6001600160a01b0381168114620001cb57600080fd5b50565b60805160601c60a05160601c60c05160601c60e05160601c6137576200026f600039600081816101bd0152611c700152600081816102c9015261170d015260008181610370015281816106c00152818161074601528181610c5401528181610e81015281816111c60152818161124c0152818161153f015281816115c5015281816120d901526121920152600081816118f501526119d501526137576000f3fe6080604052600436106101485760003560e01c8063839006f2116100c0578063bc197c8111610074578063f2fde38b11610059578063f2fde38b1461043c578063f733dd7e1461045c578063fa4573601461046f57600080fd5b8063bc197c81146103b2578063f23a6e61146103f757600080fd5b80638da5cb5b116100a55780638da5cb5b14610340578063ad5c46481461035e578063bb23db721461039257600080fd5b8063839006f2146103005780638be3a0fb1461032057600080fd5b806336fa8b65116101175780635c975abb116100fc5780635c975abb1461029d5780635ee50f88146102b7578063715018a6146102eb57600080fd5b806336fa8b65146102545780634d3f078a1461028a57600080fd5b806301ffc9a71461015457806302329a29146101895780630d43e8ad146101ab578063150b7a02146101f757600080fd5b3661014f57005b600080fd5b34801561016057600080fd5b5061017461016f366004613171565b610482565b60405190151581526020015b60405180910390f35b34801561019557600080fd5b506101a96101a4366004613139565b6104eb565b005b3480156101b757600080fd5b506101df7f000000000000000000000000000000000000000000000000000000000000000081565b6040516001600160a01b039091168152602001610180565b34801561020357600080fd5b5061023b610212366004612fd5565b7f150b7a0200000000000000000000000000000000000000000000000000000000949350505050565b6040516001600160e01b03199091168152602001610180565b34801561026057600080fd5b506101df61026f366004613199565b6003602052600090815260409020546001600160a01b031681565b6101a96102983660046133de565b61055d565b3480156102a957600080fd5b506002546101749060ff1681565b3480156102c357600080fd5b506101df7f000000000000000000000000000000000000000000000000000000000000000081565b3480156102f757600080fd5b506101a9610872565b34801561030c57600080fd5b506101a961031b366004612ef3565b610923565b34801561032c57600080fd5b506101a961033b3660046132a2565b610ab8565b34801561034c57600080fd5b506000546001600160a01b03166101df565b34801561036a57600080fd5b506101df7f000000000000000000000000000000000000000000000000000000000000000081565b34801561039e57600080fd5b506101a96103ad366004613355565b610cea565b3480156103be57600080fd5b5061023b6103cd366004612f2b565b7fbc197c810000000000000000000000000000000000000000000000000000000095945050505050565b34801561040357600080fd5b5061023b61041236600461303f565b7ff23a6e610000000000000000000000000000000000000000000000000000000095945050505050565b34801561044857600080fd5b506101a9610457366004612ef3565b610f14565b6101a961046a3660046131c9565b611052565b6101a961047d3660046132a2565b61139f565b60006001600160e01b031982167f4e2312e00000000000000000000000000000000000000000000000000000000014806104e557507f01ffc9a7000000000000000000000000000000000000000000000000000000006001600160e01b03198316145b92915050565b6000546001600160a01b0316331461054a5760405162461bcd60e51b815260206004820181905260248201527f4f776e61626c653a2063616c6c6572206973206e6f7420746865206f776e657260448201526064015b60405180910390fd5b6002805460ff1916911515919091179055565b600260015414156105b05760405162461bcd60e51b815260206004820152601f60248201527f5265656e7472616e637947756172643a207265656e7472616e742063616c6c006044820152606401610541565b600260018190555460ff1615806105d157506000546001600160a01b031633145b61060d5760405162461bcd60e51b815260206004820152600d60248201526c16985c081a5cc81c185d5cd959609a1b6044820152606401610541565b6001600160a01b0381161580159061062e57506001600160a01b0381163014155b61066e5760405162461bcd60e51b8152602060048201526011602482015270125b9d985b1a59081c9958da5c1a595b9d607a1b6044820152606401610541565b600086116106be5760405162461bcd60e51b815260206004820152601060248201527f4d7573742073656e6420616d6f756e74000000000000000000000000000000006044820152606401610541565b7f00000000000000000000000000000000000000000000000000000000000000006001600160a01b031663d0e30db0346040518263ffffffff1660e01b81526004016000604051808303818588803b15801561071957600080fd5b505af115801561072d573d6000803e3d6000fd5b5050505050600061073d886116c2565b9050600061076d7f0000000000000000000000000000000000000000000000000000000000000000838787611849565b905061078188670de0b6b3a764000061366c565b8110156107d05760405162461bcd60e51b815260206004820152601960248201527f496e73756666696369656e74207661756c7420746f6b656e73000000000000006044820152606401610541565b6108108989898980806020026020016040519081016040528093929190818152602001838360200280828437600092019190915250899250611b2e915050565b60408051898152602081018390526001600160a01b0385168183015290517ff7735c8cb2a65788ca663fc8415b7c6a66cd6847d58346d8334e8d52a599d3df9181900360600190a1610863826001611bc3565b50506001805550505050505050565b6000546001600160a01b031633146108cc5760405162461bcd60e51b815260206004820181905260248201527f4f776e61626c653a2063616c6c6572206973206e6f7420746865206f776e65726044820152606401610541565b600080546040516001600160a01b03909116907f8be0079c531659141344cd1fd0a4f28419497f9722a3daafe3b4186f6b6457e0908390a36000805473ffffffffffffffffffffffffffffffffffffffff19169055565b6000546001600160a01b0316331461097d5760405162461bcd60e51b815260206004820181905260248201527f4f776e61626c653a2063616c6c6572206973206e6f7420746865206f776e65726044820152606401610541565b6001600160a01b038116610a2757604051600090339047908381818185875af1925050503d80600081146109cd576040519150601f19603f3d011682016040523d82523d6000602084013e6109d2565b606091505b5050905080610a235760405162461bcd60e51b815260206004820152601d60248201527f416464726573733a20756e61626c6520746f2073656e642076616c75650000006044820152606401610541565b5050565b6040516370a0823160e01b8152306004820152610ab59033906001600160a01b038416906370a082319060240160206040518083038186803b158015610a6c57600080fd5b505afa158015610a80573d6000803e3d6000fd5b505050506040513d601f19601f82011682018060405250810190610aa491906131b1565b6001600160a01b0384169190611d42565b50565b60026001541415610b0b5760405162461bcd60e51b815260206004820152601f60248201527f5265656e7472616e637947756172643a207265656e7472616e742063616c6c006044820152606401610541565b600260018190555460ff161580610b2c57506000546001600160a01b031633145b610b685760405162461bcd60e51b815260206004820152600d60248201526c16985c081a5cc81c185d5cd959609a1b6044820152606401610541565b6001600160a01b03811615801590610b8957506001600160a01b0381163014155b610bc95760405162461bcd60e51b8152602060048201526011602482015270125b9d985b1a59081c9958da5c1a595b9d607a1b6044820152606401610541565b6000610bd788888888611d99565b9150506000610c4a8a8a8a8080602002602001604051908101604052809392919081815260200183836020028082843760009201919091525050604080516020808e0282810182019093528d82529093508d92508c918291850190849080828437600092019190915250611eea92505050565b90506000610c7a827f00000000000000000000000000000000000000000000000000000000000000008888611849565b9050610c85846120c1565b5060408051848152602081018390526001600160a01b0386168183015290517f1cdb5ee3c47e1a706ac452b89698e5e3f2ff4f835ca72dde8936d0f4fcf37d819181900360600190a1610cd9826000611bc3565b505060018055505050505050505050565b60026001541415610d3d5760405162461bcd60e51b815260206004820152601f60248201527f5265656e7472616e637947756172643a207265656e7472616e742063616c6c006044820152606401610541565b600260018190555460ff161580610d5e57506000546001600160a01b031633145b610d9a5760405162461bcd60e51b815260206004820152600d60248201526c16985c081a5cc81c185d5cd959609a1b6044820152606401610541565b6001600160a01b03811615801590610dbb57506001600160a01b0381163014155b610dfb5760405162461bcd60e51b8152602060048201526011602482015270125b9d985b1a59081c9958da5c1a595b9d607a1b6044820152606401610541565b83610e385760405162461bcd60e51b815260206004820152600d60248201526c4d7573742073656e642049447360981b6044820152606401610541565b6000610e77878787808060200260200160405190810160405280939291908181526020018383602002808284376000920191909152506122a092505050565b90506000610ea7827f00000000000000000000000000000000000000000000000000000000000000008787611849565b9050610eb2836120c1565b5060408051878152602081018390526001600160a01b0385168183015290517f1cdb5ee3c47e1a706ac452b89698e5e3f2ff4f835ca72dde8936d0f4fcf37d819181900360600190a1610f06826000611bc3565b505060018055505050505050565b6000546001600160a01b03163314610f6e5760405162461bcd60e51b815260206004820181905260248201527f4f776e61626c653a2063616c6c6572206973206e6f7420746865206f776e65726044820152606401610541565b6001600160a01b038116610fea5760405162461bcd60e51b815260206004820152602660248201527f4f776e61626c653a206e6577206f776e657220697320746865207a65726f206160448201527f64647265737300000000000000000000000000000000000000000000000000006064820152608401610541565b600080546040516001600160a01b03808516939216917f8be0079c531659141344cd1fd0a4f28419497f9722a3daafe3b4186f6b6457e091a36000805473ffffffffffffffffffffffffffffffffffffffff19166001600160a01b0392909216919091179055565b600260015414156110a55760405162461bcd60e51b815260206004820152601f60248201527f5265656e7472616e637947756172643a207265656e7472616e742063616c6c006044820152606401610541565b600260018190555460ff1615806110c657506000546001600160a01b031633145b6111025760405162461bcd60e51b815260206004820152600d60248201526c16985c081a5cc81c185d5cd959609a1b6044820152606401610541565b6001600160a01b0381161580159061112357506001600160a01b0381163014155b6111635760405162461bcd60e51b8152602060048201526011602482015270125b9d985b1a59081c9958da5c1a595b9d607a1b6044820152606401610541565b600034116111b35760405162461bcd60e51b815260206004820152600e60248201527f496e76616c696420616d6f756e740000000000000000000000000000000000006044820152606401610541565b60006111c18a8a8a8a611d99565b9150507f00000000000000000000000000000000000000000000000000000000000000006001600160a01b031663d0e30db0346040518263ffffffff1660e01b81526004016000604051808303818588803b15801561121f57600080fd5b505af1158015611233573d6000803e3d6000fd5b505050505060006112438c6116c2565b905060006112737f0000000000000000000000000000000000000000000000000000000000000000838888611849565b90506113388d8d8d80806020026020016040519081016040528093929190818152602001838360200280828437600081840152601f19601f820116905080830192505050505050508c8c80806020026020016040519081016040528093929190818152602001838360200280828437600081840152601f19601f820116905080830192505050505050508b8b808060200260200160405190810160405280939291908181526020018383602002808284376000920191909152508b9250612452915050565b5060408051848152602081018390526001600160a01b0386168183015290517f7af2bc3f8ec800c569b6555feaf16589d96a9d04a49d1645fd456d75fa0b372b9181900360600190a161138c826001611bc3565b5050600180555050505050505050505050565b600260015414156113f25760405162461bcd60e51b815260206004820152601f60248201527f5265656e7472616e637947756172643a207265656e7472616e742063616c6c006044820152606401610541565b600260018190555460ff16158061141357506000546001600160a01b031633145b61144f5760405162461bcd60e51b815260206004820152600d60248201526c16985c081a5cc81c185d5cd959609a1b6044820152606401610541565b6001600160a01b0381161580159061147057506001600160a01b0381163014155b6114b05760405162461bcd60e51b8152602060048201526011602482015270125b9d985b1a59081c9958da5c1a595b9d607a1b6044820152606401610541565b856114ed5760405162461bcd60e51b815260206004820152600d60248201526c4d7573742073656e642049447360981b6044820152606401610541565b6000341161153d5760405162461bcd60e51b815260206004820152600e60248201527f496e76616c696420616d6f756e740000000000000000000000000000000000006044820152606401610541565b7f00000000000000000000000000000000000000000000000000000000000000006001600160a01b031663d0e30db0346040518263ffffffff1660e01b81526004016000604051808303818588803b15801561159857600080fd5b505af11580156115ac573d6000803e3d6000fd5b505050505060006115bc896116c2565b905060006115ec7f0000000000000000000000000000000000000000000000000000000000000000838787611849565b905061165e8a8a8a8080602002602001604051908101604052809392919081815260200183836020028082843760009201919091525050604080516020808e0282810182019093528d82529093508d92508c918291850190849080828437600092019190915250899250612631915050565b5060408051898152602081018390526001600160a01b0385168183015290517f7af2bc3f8ec800c569b6555feaf16589d96a9d04a49d1645fd456d75fa0b372b9181900360600190a16116b2826001611bc3565b5050600180555050505050505050565b6000818152600360205260408120546001600160a01b03166117c9576040517f81a36fb6000000000000000000000000000000000000000000000000000000008152600481018390527f00000000000000000000000000000000000000000000000000000000000000006001600160a01b0316906381a36fb69060240160206040518083038186803b15801561175757600080fd5b505afa15801561176b573d6000803e3d6000fd5b505050506040513d601f19601f8201168201806040525081019061178f9190612f0f565b6000838152600360205260409020805473ffffffffffffffffffffffffffffffffffffffff19166001600160a01b03929092169190911790555b6000828152600360205260409020546001600160a01b031661182d5760405162461bcd60e51b815260206004820152601460248201527f5661756c7420646f6573206e6f742065786973740000000000000000000000006044820152606401610541565b506000908152600360205260409020546001600160a01b031690565b6040516370a0823160e01b815230600482015260009081906001600160a01b038616906370a082319060240160206040518083038186803b15801561188d57600080fd5b505afa1580156118a1573d6000803e3d6000fd5b505050506040513d601f19601f820116820180604052508101906118c591906131b1565b6040517f095ea7b30000000000000000000000000000000000000000000000000000000081526001600160a01b037f00000000000000000000000000000000000000000000000000000000000000008116600483015260001960248301529192509087169063095ea7b390604401602060405180830381600087803b15801561194d57600080fd5b505af1158015611961573d6000803e3d6000fd5b505050506040513d601f19601f820116820180604052508101906119859190613155565b6119d15760405162461bcd60e51b815260206004820152601a60248201527f556e61626c6520746f20617070726f766520636f6e74726163740000000000006044820152606401610541565b60007f00000000000000000000000000000000000000000000000000000000000000006001600160a01b03168585604051611a0d9291906134ac565b6000604051808303816000865af19150503d8060008114611a4a576040519150601f19603f3d011682016040523d82523d6000602084013e611a4f565b606091505b5050905080611aa05760405162461bcd60e51b815260206004820152601060248201527f535741505f43414c4c5f4641494c4544000000000000000000000000000000006044820152606401610541565b6040516370a0823160e01b815230600482015282906001600160a01b038816906370a082319060240160206040518083038186803b158015611ae157600080fd5b505afa158015611af5573d6000803e3d6000fd5b505050506040513d601f19601f82011682018060405250810190611b1991906131b1565b611b23919061368b565b979650505050505050565b611b37846116c2565b6001600160a01b0316639d54def68484846040518463ffffffff1660e01b8152600401611b66939291906135e5565b600060405180830381600087803b158015611b8057600080fd5b505af1158015611b94573d6000803e3d6000fd5b505050506040513d6000823e601f3d908101601f19168201604052611bbc91908101906130a6565b5050505050565b60008115611bd757611bd4336120c1565b90505b6040516370a0823160e01b81523060048201526000906001600160a01b038516906370a082319060240160206040518083038186803b158015611c1957600080fd5b505afa158015611c2d573d6000803e3d6000fd5b505050506040513d601f19601f82011682018060405250810190611c5191906131b1565b90508015611cfd5760405163a9059cbb60e01b81526001600160a01b037f0000000000000000000000000000000000000000000000000000000000000000811660048301526024820183905285169063a9059cbb90604401602060405180830381600087803b158015611cc357600080fd5b505af1158015611cd7573d6000803e3d6000fd5b505050506040513d601f19601f82011682018060405250810190611cfb9190613155565b505b6040805183815260208101839052338183015290517fd9b066a634638844b3b4701f7bfb9d8791265979e46666f7d7bc04cf4c06c9709181900360600190a150505050565b604080516001600160a01b038416602482015260448082018490528251808303909101815260649091019091526020810180516001600160e01b031663a9059cbb60e01b179052611d949084906127d1565b505050565b82600081611dd95760405162461bcd60e51b815260206004820152600d60248201526c4d7573742073656e642049447360981b6044820152606401610541565b82821115611e295760405162461bcd60e51b815260206004820152601f60248201527f4d75737420646566696e6520616d6f756e747320616761696e737420494473006044820152606401610541565b60005b82811015611ee0576000858583818110611e5657634e487b7160e01b600052603260045260246000fd5b9050602002013511611eaa5760405162461bcd60e51b815260206004820152601360248201527f496e76616c6964203131353520616d6f756e74000000000000000000000000006044820152606401610541565b848482818110611eca57634e487b7160e01b600052603260045260246000fd5b9050602002013582019150806001019050611e2c565b5094509492505050565b600080611ef6856116c2565b90506000816001600160a01b0316631ba46cfd6040518163ffffffff1660e01b815260040160206040518083038186803b158015611f3357600080fd5b505afa158015611f47573d6000803e3d6000fd5b505050506040513d601f19601f82011682018060405250810190611f6b9190612f0f565b604051631759616b60e11b81529091506001600160a01b03821690632eb2c2d690611fa090339030908a908a906004016134d8565b600060405180830381600087803b158015611fba57600080fd5b505af1158015611fce573d6000803e3d6000fd5b505060405163a22cb46560e01b81526001600160a01b038581166004830152600160248301528416925063a22cb4659150604401600060405180830381600087803b15801561201c57600080fd5b505af1158015612030573d6000803e3d6000fd5b5050604051630f57464360e21b81526001600160a01b0385169250633d5d190c91506120629088908890600401613530565b602060405180830381600087803b15801561207c57600080fd5b505af1158015612090573d6000803e3d6000fd5b505050506040513d601f19601f820116820180604052508101906120b491906131b1565b50909150505b9392505050565b6040516370a0823160e01b81523060048201526000907f00000000000000000000000000000000000000000000000000000000000000006001600160a01b0316906370a082319060240160206040518083038186803b15801561212357600080fd5b505afa158015612137573d6000803e3d6000fd5b505050506040513d601f19601f8201168201806040525081019061215b91906131b1565b9050801561229b576040517f2e1a7d4d000000000000000000000000000000000000000000000000000000008152600481018290527f00000000000000000000000000000000000000000000000000000000000000006001600160a01b031690632e1a7d4d90602401600060405180830381600087803b1580156121de57600080fd5b505af11580156121f2573d6000803e3d6000fd5b505050506000826001600160a01b03168260405160006040518083038185875af1925050503d8060008114612243576040519150601f19603f3d011682016040523d82523d6000602084013e612248565b606091505b50509050806122995760405162461bcd60e51b815260206004820152601d60248201527f556e61626c6520746f2073656e6420756e7772617070656420574554480000006044820152606401610541565b505b919050565b6000806122ac846116c2565b90506000816001600160a01b0316631ba46cfd6040518163ffffffff1660e01b815260040160206040518083038186803b1580156122e957600080fd5b505afa1580156122fd573d6000803e3d6000fd5b505050506040513d601f19601f820116820180604052508101906123219190612f0f565b845190915060005b818110156123c2576123638387838151811061235557634e487b7160e01b600052603260045260246000fd5b6020026020010151866128b6565b6001600160a01b03831673b47e3cd837ddf8e4c57f05d70ab865de6e193bbb14156123ba576123ba838783815181106123ac57634e487b7160e01b600052603260045260246000fd5b602002602001015186612b61565b600101612329565b50604051630f57464360e21b81526060906001600160a01b03851690633d5d190c906123f49089908590600401613530565b602060405180830381600087803b15801561240e57600080fd5b505af1158015612422573d6000803e3d6000fd5b505050506040513d601f19601f8201168201806040525081019061244691906131b1565b50929695505050505050565b60008061245e876116c2565b90506000816001600160a01b0316631ba46cfd6040518163ffffffff1660e01b815260040160206040518083038186803b15801561249b57600080fd5b505afa1580156124af573d6000803e3d6000fd5b505050506040513d601f19601f820116820180604052508101906124d39190612f0f565b604051631759616b60e11b81529091506001600160a01b03821690632eb2c2d69061250890339030908c908c906004016134d8565b600060405180830381600087803b15801561252257600080fd5b505af1158015612536573d6000803e3d6000fd5b505060405163a22cb46560e01b81526001600160a01b038581166004830152600160248301528416925063a22cb4659150604401600060405180830381600087803b15801561258457600080fd5b505af1158015612598573d6000803e3d6000fd5b5050604051632321420560e21b81526001600160a01b0385169250638c85081491506125ce908a908a908a908a9060040161355e565b600060405180830381600087803b1580156125e857600080fd5b505af11580156125fc573d6000803e3d6000fd5b505050506040513d6000823e601f3d908101601f1916820160405261262491908101906130a6565b5090979650505050505050565b60008061263d866116c2565b90506000816001600160a01b0316631ba46cfd6040518163ffffffff1660e01b815260040160206040518083038186803b15801561267a57600080fd5b505afa15801561268e573d6000803e3d6000fd5b505050506040513d601f19601f820116820180604052508101906126b29190612f0f565b865190915060005b81811015612737576126e68389838151811061235557634e487b7160e01b600052603260045260246000fd5b6001600160a01b03831673b47e3cd837ddf8e4c57f05d70ab865de6e193bbb141561272f5761272f838983815181106123ac57634e487b7160e01b600052603260045260246000fd5b6001016126ba565b50604051632321420560e21b81526060906001600160a01b03851690638c8508149061276d908b9085908c908c9060040161355e565b600060405180830381600087803b15801561278757600080fd5b505af115801561279b573d6000803e3d6000fd5b505050506040513d6000823e601f3d908101601f191682016040526127c391908101906130a6565b509298975050505050505050565b6000612826826040518060400160405280602081526020017f5361666545524332303a206c6f772d6c6576656c2063616c6c206661696c6564815250856001600160a01b0316612c129092919063ffffffff16565b805190915015611d9457808060200190518101906128449190613155565b611d945760405162461bcd60e51b815260206004820152602a60248201527f5361666545524332303a204552433230206f7065726174696f6e20646964206e60448201527f6f742073756363656564000000000000000000000000000000000000000000006064820152608401610541565b60606001600160a01b03841673b47e3cd837ddf8e4c57f05d70ab865de6e193bbb1415612a6e576000836040516024016128f291815260200190565b60408051601f198184030181529181526020820180516001600160e01b03167f58178168000000000000000000000000000000000000000000000000000000001790525190915060009081906001600160a01b038816906129549085906134bc565b600060405180830381855afa9150503d806000811461298f576040519150601f19603f3d011682016040523d82523d6000602084013e612994565b606091505b50915091506000818060200190518101906129af9190612f0f565b90508280156129c657506001600160a01b03811633145b612a125760405162461bcd60e51b815260206004820152601160248201527f4e6f7420746865204e4654206f776e65720000000000000000000000000000006044820152606401610541565b6040516024810188905260440160408051601f198184030181529190526020810180516001600160e01b03167f8264fe98000000000000000000000000000000000000000000000000000000001790529450612ad69350505050565b6040513360248201526001600160a01b03831660448201526064810184905260840160408051601f198184030181529190526020810180516001600160e01b03167f42842e0e0000000000000000000000000000000000000000000000000000000017905290505b600080856001600160a01b031683604051612af191906134bc565b6000604051808303816000865af19150503d8060008114612b2e576040519150601f19603f3d011682016040523d82523d6000602084013e612b33565b606091505b5091509150818190612b585760405162461bcd60e51b815260040161054191906135b2565b50505050505050565b6001600160a01b03831673b47e3cd837ddf8e4c57f05d70ab865de6e193bbb14612b8a57505050565b604051602481018390526000604482018190526001600160a01b03831660648301529060840160408051601f198184030181529181526020820180516001600160e01b03167fbf31196f000000000000000000000000000000000000000000000000000000001790525190915060009081906001600160a01b03871690612af19085906134bc565b6060612c218484600085612c29565b949350505050565b606082471015612ca15760405162461bcd60e51b815260206004820152602660248201527f416464726573733a20696e73756666696369656e742062616c616e636520666f60448201527f722063616c6c00000000000000000000000000000000000000000000000000006064820152608401610541565b843b612cef5760405162461bcd60e51b815260206004820152601d60248201527f416464726573733a2063616c6c20746f206e6f6e2d636f6e74726163740000006044820152606401610541565b600080866001600160a01b03168587604051612d0b91906134bc565b60006040518083038185875af1925050503d8060008114612d48576040519150601f19603f3d011682016040523d82523d6000602084013e612d4d565b606091505b5091509150611b2382828660608315612d675750816120ba565b825115612d775782518084602001fd5b8160405162461bcd60e51b815260040161054191906135b2565b803561229b816136fe565b60008083601f840112612dad578182fd5b50813567ffffffffffffffff811115612dc4578182fd5b6020830191508360208260051b8501011115612ddf57600080fd5b9250929050565b600082601f830112612df6578081fd5b81356020612e0b612e0683613648565b613617565b80838252828201915082860187848660051b8901011115612e2a578586fd5b855b8581101561262457813584529284019290840190600101612e2c565b60008083601f840112612e59578182fd5b50813567ffffffffffffffff811115612e70578182fd5b602083019150836020828501011115612ddf57600080fd5b600082601f830112612e98578081fd5b813567ffffffffffffffff811115612eb257612eb26136e8565b612ec5601f8201601f1916602001613617565b818152846020838601011115612ed9578283fd5b816020850160208301379081016020019190915292915050565b600060208284031215612f04578081fd5b81356120ba816136fe565b600060208284031215612f20578081fd5b81516120ba816136fe565b600080600080600060a08688031215612f42578081fd5b8535612f4d816136fe565b94506020860135612f5d816136fe565b9350604086013567ffffffffffffffff80821115612f79578283fd5b612f8589838a01612de6565b94506060880135915080821115612f9a578283fd5b612fa689838a01612de6565b93506080880135915080821115612fbb578283fd5b50612fc888828901612e88565b9150509295509295909350565b60008060008060808587031215612fea578384fd5b8435612ff5816136fe565b93506020850135613005816136fe565b925060408501359150606085013567ffffffffffffffff811115613027578182fd5b61303387828801612e88565b91505092959194509250565b600080600080600060a08688031215613056578081fd5b8535613061816136fe565b94506020860135613071816136fe565b93506040860135925060608601359150608086013567ffffffffffffffff81111561309a578182fd5b612fc888828901612e88565b600060208083850312156130b8578182fd5b825167ffffffffffffffff8111156130ce578283fd5b8301601f810185136130de578283fd5b80516130ec612e0682613648565b80828252848201915084840188868560051b870101111561310b578687fd5b8694505b8385101561312d57805183526001949094019391850191850161310f565b50979650505050505050565b60006020828403121561314a578081fd5b81356120ba81613713565b600060208284031215613166578081fd5b81516120ba81613713565b600060208284031215613182578081fd5b81356001600160e01b0319811681146120ba578182fd5b6000602082840312156131aa578081fd5b5035919050565b6000602082840312156131c2578081fd5b5051919050565b60008060008060008060008060008060c08b8d0312156131e7578788fd5b8a35995060208b013567ffffffffffffffff8082111561320557898afd5b6132118e838f01612d9c565b909b50995060408d0135915080821115613229578687fd5b6132358e838f01612d9c565b909950975060608d013591508082111561324d578687fd5b6132598e838f01612d9c565b909750955060808d0135915080821115613271578485fd5b5061327e8d828e01612e48565b9094509250613291905060a08c01612d91565b90509295989b9194979a5092959850565b60008060008060008060008060a0898b0312156132bd578182fd5b88359750602089013567ffffffffffffffff808211156132db578384fd5b6132e78c838d01612d9c565b909950975060408b01359150808211156132ff578384fd5b61330b8c838d01612d9c565b909750955060608b0135915080821115613323578384fd5b506133308b828c01612e48565b9094509250506080890135613344816136fe565b809150509295985092959890939650565b6000806000806000806080878903121561336d578384fd5b86359550602087013567ffffffffffffffff8082111561338b578586fd5b6133978a838b01612d9c565b909750955060408901359150808211156133af578384fd5b506133bc89828a01612e48565b90945092505060608701356133d0816136fe565b809150509295509295509295565b600080600080600080600060a0888a0312156133f8578081fd5b8735965060208801359550604088013567ffffffffffffffff8082111561341d578283fd5b6134298b838c01612d9c565b909750955060608a0135915080821115613441578283fd5b5061344e8a828b01612e48565b9094509250506080880135613462816136fe565b8091505092959891949750929550565b6000815180845260208085019450808401835b838110156134a157815187529582019590820190600101613485565b509495945050505050565b8183823760009101908152919050565b600082516134ce8184602087016136a2565b9190910192915050565b60006001600160a01b03808716835280861660208401525060a0604083015261350460a0830185613472565b82810360608401526135168185613472565b838103608090940193909352508152602001949350505050565b6040815260006135436040830185613472565b82810360208401526135558185613472565b95945050505050565b6080815260006135716080830187613472565b82810360208401526135838187613472565b905082810360408401526135978186613472565b9150506001600160a01b038316606083015295945050505050565b60208152600082518060208401526135d18160408501602087016136a2565b601f01601f19169190910160400192915050565b8381526060602082015260006135fe6060830185613472565b90506001600160a01b0383166040830152949350505050565b604051601f8201601f1916810167ffffffffffffffff81118282101715613640576136406136e8565b604052919050565b600067ffffffffffffffff821115613662576136626136e8565b5060051b60200190565b6000816000190483118215151615613686576136866136d2565b500290565b60008282101561369d5761369d6136d2565b500390565b60005b838110156136bd5781810151838201526020016136a5565b838111156136cc576000848401525b50505050565b634e487b7160e01b600052601160045260246000fd5b634e487b7160e01b600052604160045260246000fd5b6001600160a01b0381168114610ab557600080fd5b8015158114610ab557600080fdfea26469706673582212203b79ae78e1c7bd95a2c68a75d928b0525eddd473282869477eeb64391b367d7064736f6c63430008040033",
  "devdoc": {
    "author": "Twade",
    "events": {
      "Buy(uint256,uint256,address)": {
        "params": {
          "count": "The number of tokens affected by the event",
          "ethSpent": "The amount of ETH spent in the buy",
          "to": "The user affected by the event"
        }
      },
      "DustReturned(uint256,uint256,address)": {
        "params": {
          "ethAmount": "Amount of ETH returned to user",
          "to": "The user affected by the event",
          "vTokenAmount": "Amount of vToken returned to user"
        }
      },
      "Sell(uint256,uint256,address)": {
        "params": {
          "count": "The number of tokens affected by the event",
          "ethReceived": "The amount of ETH received in the sell",
          "to": "The user affected by the event"
        }
      },
      "Swap(uint256,uint256,address)": {
        "params": {
          "count": "The number of tokens affected by the event",
          "ethSpent": "The amount of ETH spent in the swap",
          "to": "The user affected by the event"
        }
      }
    },
    "kind": "dev",
    "methods": {
      "buyAndRedeem(uint256,uint256,uint256[],bytes,address)": {
        "params": {
          "amount": "The number of tokens to buy",
          "specificIds": "An array of any specific token IDs to be minted",
          "swapCallData": "The `data` field from the API response",
          "to": "The recipient of the token IDs from the tx",
          "vaultId": "The ID of the NFTX vault"
        }
      },
      "buyAndSwap1155(uint256,uint256[],uint256[],uint256[],bytes,address)": {
        "params": {
          "idsIn": "An array of random token IDs to be minted",
          "specificIds": "An array of any specific token IDs to be minted",
          "swapCallData": "The `data` field from the API response",
          "to": "The recipient of token IDs from the tx",
          "vaultId": "The ID of the NFTX vault"
        }
      },
      "buyAndSwap721(uint256,uint256[],uint256[],bytes,address)": {
        "params": {
          "idsIn": "An array of random token IDs to be minted",
          "specificIds": "An array of any specific token IDs to be minted",
          "swapCallData": "The `data` field from the API response",
          "to": "The recipient of the token IDs from the tx",
          "vaultId": "The ID of the NFTX vault"
        }
      },
      "constructor": {
        "params": {
          "_WETH": "WETH contract address",
          "_nftxFactory": "NFTX Vault Factory contract address",
          "_swapTarget": "The swap target specified by the 0x protocol"
        }
      },
      "mintAndSell1155(uint256,uint256[],uint256[],bytes,address)": {
        "params": {
          "amounts": "The number of the corresponding ID to be minted",
          "ids": "An array of token IDs to be minted",
          "swapCallData": "The `data` field from the API response",
          "to": "The recipient of ETH from the tx",
          "vaultId": "The ID of the NFTX vault"
        }
      },
      "mintAndSell721(uint256,uint256[],bytes,address)": {
        "params": {
          "ids": "An array of token IDs to be minted",
          "swapCallData": "The `data` field from the API response",
          "to": "The recipient of ETH from the tx",
          "vaultId": "The ID of the NFTX vault"
        }
      },
      "onERC721Received(address,address,uint256,bytes)": {
        "details": "See {IERC721Receiver-onERC721Received}. Always returns `IERC721Receiver.onERC721Received.selector`."
      },
      "owner()": {
        "details": "Returns the address of the current owner."
      },
      "pause(bool)": {
        "params": {
          "_paused": "New pause state"
        }
      },
      "renounceOwnership()": {
        "details": "Leaves the contract without owner. It will not be possible to call `onlyOwner` functions anymore. Can only be called by the current owner. NOTE: Renouncing ownership will leave the contract without an owner, thereby removing any functionality that is only available to the owner."
      },
      "rescue(address)": {
        "params": {
          "token": "The address of the token to be rescued"
        }
      },
      "supportsInterface(bytes4)": {
        "details": "See {IERC165-supportsInterface}."
      },
      "transferOwnership(address)": {
        "details": "Transfers ownership of the contract to a new account (`newOwner`). Can only be called by the current owner."
      }
    },
    "version": 1
  },
  "userdoc": {
    "events": {
      "Buy(uint256,uint256,address)": {
        "notice": "Emitted by the `buyAndRedeem` function."
      },
      "DustReturned(uint256,uint256,address)": {
        "notice": "Emitted when dust is returned after a transaction."
      },
      "Sell(uint256,uint256,address)": {
        "notice": "Emitted by the `mintAndSell` functions."
      },
      "Swap(uint256,uint256,address)": {
        "notice": "Emitted by the `buyAndSwap` functions."
      }
    },
    "kind": "user",
    "methods": {
      "WETH()": {
        "notice": "An interface for the WETH contract"
      },
      "buyAndRedeem(uint256,uint256,uint256[],bytes,address)": {
        "notice": "Purchases vault tokens from 0x with WETH and then redeems the tokens for either random or specific token IDs from the vault. The specified recipient will receive the ERC721 tokens, as well as any WETH dust that is left over from the tx. "
      },
      "buyAndSwap1155(uint256,uint256[],uint256[],uint256[],bytes,address)": {
        "notice": "Purchases vault tokens from 0x with WETH and then swaps the tokens for either random or specific token IDs from the vault. The specified recipient will receive the ERC1155 tokens, as well as any WETH dust that is left over from the tx. "
      },
      "buyAndSwap721(uint256,uint256[],uint256[],bytes,address)": {
        "notice": "Purchases vault tokens from 0x with WETH and then swaps the tokens for either random or specific token IDs from the vault. The specified recipient will receive the ERC721 tokens, as well as any WETH dust that is left over from the tx. "
      },
      "constructor": {
        "notice": "Initialises our zap by setting contract addresses onto their respective interfaces. "
      },
      "mintAndSell1155(uint256,uint256[],uint256[],bytes,address)": {
        "notice": "Mints tokens from our NFTX vault and sells them on 0x. "
      },
      "mintAndSell721(uint256,uint256[],bytes,address)": {
        "notice": "Mints tokens from our NFTX vault and sells them on 0x. "
      },
      "nftxFactory()": {
        "notice": "An interface for the NFTX Vault Factory contract"
      },
      "nftxVaultAddresses(uint256)": {
        "notice": "A mapping of NFTX Vault IDs to their address corresponding vault contract address"
      },
      "pause(bool)": {
        "notice": "Allows our zap to be paused to prevent any processing. "
      },
      "paused()": {
        "notice": "Allows zap to be paused"
      },
      "rescue(address)": {
        "notice": "Allows our owner to withdraw and tokens in the contract. "
      }
    },
    "notice": "Sets up a marketplace zap to interact with the 0x protocol. The 0x contract that is hit later on handles the token conversion based on parameters that are sent from the frontend. ",
    "version": 1
  },
  "storageLayout": {
    "storage": [
      {
        "astId": 2983,
        "contract": "contracts/solidity/NFTXMarketplace0xZap.sol:NFTXMarketplace0xZap",
        "label": "_owner",
        "offset": 0,
        "slot": "0",
        "type": "t_address"
      },
      {
        "astId": 3095,
        "contract": "contracts/solidity/NFTXMarketplace0xZap.sol:NFTXMarketplace0xZap",
        "label": "_status",
        "offset": 0,
        "slot": "1",
        "type": "t_uint256"
      },
      {
        "astId": 52,
        "contract": "contracts/solidity/NFTXMarketplace0xZap.sol:NFTXMarketplace0xZap",
        "label": "paused",
        "offset": 0,
        "slot": "2",
        "type": "t_bool"
      },
      {
        "astId": 70,
        "contract": "contracts/solidity/NFTXMarketplace0xZap.sol:NFTXMarketplace0xZap",
        "label": "nftxVaultAddresses",
        "offset": 0,
        "slot": "3",
        "type": "t_mapping(t_uint256,t_address)"
      }
    ],
    "types": {
      "t_address": {
        "encoding": "inplace",
        "label": "address",
        "numberOfBytes": "20"
      },
      "t_bool": {
        "encoding": "inplace",
        "label": "bool",
        "numberOfBytes": "1"
      },
      "t_mapping(t_uint256,t_address)": {
        "encoding": "mapping",
        "key": "t_uint256",
        "label": "mapping(uint256 => address)",
        "numberOfBytes": "32",
        "value": "t_address"
      },
      "t_uint256": {
        "encoding": "inplace",
        "label": "uint256",
        "numberOfBytes": "32"
      }
    }
  }
}