{
  "address": "0x1316944C487842e508d01D4ad97f9B91fd7aFFCb",
  "abi": [
    {
      "anonymous": false,
      "inputs": [
        {
          "indexed": false,
          "internalType": "uint256",
          "name": "vaultId",
          "type": "uint256"
        },
        {
          "indexed": false,
          "internalType": "uint256",
          "name": "baseTokenAmount",
          "type": "uint256"
        },
        {
          "indexed": false,
          "internalType": "uint256",
          "name": "xTokenAmount",
          "type": "uint256"
        },
        {
          "indexed": false,
          "internalType": "uint256",
          "name": "timelockUntil",
          "type": "uint256"
        },
        {
          "indexed": false,
          "internalType": "address",
          "name": "sender",
          "type": "address"
        }
      ],
      "name": "Deposit",
      "type": "event"
    },
    {
      "anonymous": false,
      "inputs": [
        {
          "indexed": false,
          "internalType": "uint256",
          "name": "vaultId",
          "type": "uint256"
        },
        {
          "indexed": false,
          "internalType": "uint256",
          "name": "amount",
          "type": "uint256"
        }
      ],
      "name": "FeesReceived",
      "type": "event"
    },
    {
      "anonymous": false,
      "inputs": [
        {
          "indexed": true,
          "internalType": "address",
          "name": "previousOwner",
          "type": "address"
        },
        {
          "indexed": true,
          "internalType": "address",
          "name": "newOwner",
          "type": "address"
        }
      ],
      "name": "OwnershipTransferred",
      "type": "event"
    },
    {
      "anonymous": false,
      "inputs": [
        {
          "indexed": false,
          "internalType": "address",
          "name": "addr",
          "type": "address"
        },
        {
          "indexed": false,
          "internalType": "bool",
          "name": "isGuardian",
          "type": "bool"
        }
      ],
      "name": "SetIsGuardian",
      "type": "event"
    },
    {
      "anonymous": false,
      "inputs": [
        {
          "indexed": false,
          "internalType": "uint256",
          "name": "lockId",
          "type": "uint256"
        },
        {
          "indexed": false,
          "internalType": "bool",
          "name": "paused",
          "type": "bool"
        }
      ],
      "name": "SetPaused",
      "type": "event"
    },
    {
      "anonymous": false,
      "inputs": [
        {
          "indexed": true,
          "internalType": "address",
          "name": "childImplementation",
          "type": "address"
        }
      ],
      "name": "Upgraded",
      "type": "event"
    },
    {
      "anonymous": false,
      "inputs": [
        {
          "indexed": false,
          "internalType": "uint256",
          "name": "vaultId",
          "type": "uint256"
        },
        {
          "indexed": false,
          "internalType": "uint256",
          "name": "baseTokenAmount",
          "type": "uint256"
        },
        {
          "indexed": false,
          "internalType": "uint256",
          "name": "xTokenAmount",
          "type": "uint256"
        },
        {
          "indexed": false,
          "internalType": "address",
          "name": "sender",
          "type": "address"
        }
      ],
      "name": "Withdraw",
      "type": "event"
    },
    {
      "anonymous": false,
      "inputs": [
        {
          "indexed": false,
          "internalType": "uint256",
          "name": "vaultId",
          "type": "uint256"
        },
        {
          "indexed": false,
          "internalType": "address",
          "name": "baseToken",
          "type": "address"
        },
        {
          "indexed": false,
          "internalType": "address",
          "name": "xToken",
          "type": "address"
        }
      ],
      "name": "XTokenCreated",
      "type": "event"
    },
    {
      "inputs": [
        {
          "internalType": "address",
          "name": "_nftxVaultFactory",
          "type": "address"
        }
      ],
      "name": "__NFTXInventoryStaking_init",
      "outputs": [],
      "stateMutability": "nonpayable",
      "type": "function"
    },
    {
      "inputs": [
        {
          "internalType": "address",
          "name": "childImplementation_",
          "type": "address"
        }
      ],
      "name": "__UpgradeableBeacon__init",
      "outputs": [],
      "stateMutability": "nonpayable",
      "type": "function"
    },
    {
      "inputs": [
        {
          "internalType": "uint256",
          "name": "vaultId",
          "type": "uint256"
        },
        {
          "internalType": "address",
          "name": "who",
          "type": "address"
        }
      ],
      "name": "balanceOf",
      "outputs": [
        {
          "internalType": "uint256",
          "name": "",
          "type": "uint256"
        }
      ],
      "stateMutability": "view",
      "type": "function"
    },
    {
      "inputs": [],
      "name": "childImplementation",
      "outputs": [
        {
          "internalType": "address",
          "name": "",
          "type": "address"
        }
      ],
      "stateMutability": "view",
      "type": "function"
    },
    {
      "inputs": [
        {
          "internalType": "uint256",
          "name": "vaultId",
          "type": "uint256"
        }
      ],
      "name": "deployXTokenForVault",
      "outputs": [],
      "stateMutability": "nonpayable",
      "type": "function"
    },
    {
      "inputs": [
        {
          "internalType": "uint256",
          "name": "vaultId",
          "type": "uint256"
        },
        {
          "internalType": "uint256",
          "name": "_amount",
          "type": "uint256"
        }
      ],
      "name": "deposit",
      "outputs": [],
      "stateMutability": "nonpayable",
      "type": "function"
    },
    {
      "inputs": [],
      "name": "inventoryLockTimeErc20",
      "outputs": [
        {
          "internalType": "uint256",
          "name": "",
          "type": "uint256"
        }
      ],
      "stateMutability": "view",
      "type": "function"
    },
    {
      "inputs": [
        {
          "internalType": "address",
          "name": "addr",
          "type": "address"
        },
        {
          "internalType": "uint256",
          "name": "vaultId",
          "type": "uint256"
        }
      ],
      "name": "isAddressTimelockExcluded",
      "outputs": [
        {
          "internalType": "bool",
          "name": "",
          "type": "bool"
        }
      ],
      "stateMutability": "view",
      "type": "function"
    },
    {
      "inputs": [
        {
          "internalType": "address",
          "name": "",
          "type": "address"
        }
      ],
      "name": "isGuardian",
      "outputs": [
        {
          "internalType": "bool",
          "name": "",
          "type": "bool"
        }
      ],
      "stateMutability": "view",
      "type": "function"
    },
    {
      "inputs": [
        {
          "internalType": "uint256",
          "name": "",
          "type": "uint256"
        }
      ],
      "name": "isPaused",
      "outputs": [
        {
          "internalType": "bool",
          "name": "",
          "type": "bool"
        }
      ],
      "stateMutability": "view",
      "type": "function"
    },
    {
      "inputs": [],
      "name": "nftxVaultFactory",
      "outputs": [
        {
          "internalType": "contract INFTXVaultFactory",
          "name": "",
          "type": "address"
        }
      ],
      "stateMutability": "view",
      "type": "function"
    },
    {
      "inputs": [
        {
          "internalType": "uint256",
          "name": "lockId",
          "type": "uint256"
        }
      ],
      "name": "onlyOwnerIfPaused",
      "outputs": [],
      "stateMutability": "view",
      "type": "function"
    },
    {
      "inputs": [],
      "name": "owner",
      "outputs": [
        {
          "internalType": "address",
          "name": "",
          "type": "address"
        }
      ],
      "stateMutability": "view",
      "type": "function"
    },
    {
      "inputs": [
        {
          "internalType": "uint256",
          "name": "lockId",
          "type": "uint256"
        }
      ],
      "name": "pause",
      "outputs": [],
      "stateMutability": "nonpayable",
      "type": "function"
    },
    {
      "inputs": [
        {
          "internalType": "uint256",
          "name": "vaultId",
          "type": "uint256"
        },
        {
          "internalType": "uint256",
          "name": "amount",
          "type": "uint256"
        }
      ],
      "name": "receiveRewards",
      "outputs": [
        {
          "internalType": "bool",
          "name": "",
          "type": "bool"
        }
      ],
      "stateMutability": "nonpayable",
      "type": "function"
    },
    {
      "inputs": [],
      "name": "renounceOwnership",
      "outputs": [],
      "stateMutability": "nonpayable",
      "type": "function"
    },
    {
      "inputs": [
        {
          "internalType": "uint256",
          "name": "time",
          "type": "uint256"
        }
      ],
      "name": "setInventoryLockTimeErc20",
      "outputs": [],
      "stateMutability": "nonpayable",
      "type": "function"
    },
    {
      "inputs": [
        {
          "internalType": "address",
          "name": "addr",
          "type": "address"
        },
        {
          "internalType": "bool",
          "name": "_isGuardian",
          "type": "bool"
        }
      ],
      "name": "setIsGuardian",
      "outputs": [],
      "stateMutability": "nonpayable",
      "type": "function"
    },
    {
      "inputs": [
        {
          "internalType": "address",
          "name": "addr",
          "type": "address"
        }
      ],
      "name": "setTimelockExcludeList",
      "outputs": [],
      "stateMutability": "nonpayable",
      "type": "function"
    },
    {
      "inputs": [],
      "name": "timelockExcludeList",
      "outputs": [
        {
          "internalType": "contract ITimelockExcludeList",
          "name": "",
          "type": "address"
        }
      ],
      "stateMutability": "view",
      "type": "function"
    },
    {
      "inputs": [
        {
          "internalType": "uint256",
          "name": "vaultId",
          "type": "uint256"
        },
        {
          "internalType": "uint256",
          "name": "amount",
          "type": "uint256"
        },
        {
          "internalType": "address",
          "name": "to",
          "type": "address"
        },
        {
          "internalType": "uint256",
          "name": "timelockLength",
          "type": "uint256"
        }
      ],
      "name": "timelockMintFor",
      "outputs": [
        {
          "internalType": "uint256",
          "name": "",
          "type": "uint256"
        }
      ],
      "stateMutability": "nonpayable",
      "type": "function"
    },
    {
      "inputs": [
        {
          "internalType": "uint256",
          "name": "vaultId",
          "type": "uint256"
        },
        {
          "internalType": "address",
          "name": "who",
          "type": "address"
        }
      ],
      "name": "timelockUntil",
      "outputs": [
        {
          "internalType": "uint256",
          "name": "",
          "type": "uint256"
        }
      ],
      "stateMutability": "view",
      "type": "function"
    },
    {
      "inputs": [
        {
          "internalType": "address",
          "name": "newOwner",
          "type": "address"
        }
      ],
      "name": "transferOwnership",
      "outputs": [],
      "stateMutability": "nonpayable",
      "type": "function"
    },
    {
      "inputs": [
        {
          "internalType": "uint256",
          "name": "lockId",
          "type": "uint256"
        }
      ],
      "name": "unpause",
      "outputs": [],
      "stateMutability": "nonpayable",
      "type": "function"
    },
    {
      "inputs": [
        {
          "internalType": "address",
          "name": "newChildImplementation",
          "type": "address"
        }
      ],
      "name": "upgradeChildTo",
      "outputs": [],
      "stateMutability": "nonpayable",
      "type": "function"
    },
    {
      "inputs": [
        {
          "internalType": "uint256",
          "name": "vaultId",
          "type": "uint256"
        }
      ],
      "name": "vaultXToken",
      "outputs": [
        {
          "internalType": "address",
          "name": "",
          "type": "address"
        }
      ],
      "stateMutability": "view",
      "type": "function"
    },
    {
      "inputs": [
        {
          "internalType": "uint256",
          "name": "vaultId",
          "type": "uint256"
        },
        {
          "internalType": "uint256",
          "name": "_share",
          "type": "uint256"
        }
      ],
      "name": "withdraw",
      "outputs": [],
      "stateMutability": "nonpayable",
      "type": "function"
    },
    {
      "inputs": [
        {
          "internalType": "address",
          "name": "baseToken",
          "type": "address"
        }
      ],
      "name": "xTokenAddr",
      "outputs": [
        {
          "internalType": "address",
          "name": "",
          "type": "address"
        }
      ],
      "stateMutability": "view",
      "type": "function"
    },
    {
      "inputs": [
        {
          "internalType": "uint256",
          "name": "vaultId",
          "type": "uint256"
        }
      ],
      "name": "xTokenShareValue",
      "outputs": [
        {
          "internalType": "uint256",
          "name": "",
          "type": "uint256"
        }
      ],
      "stateMutability": "view",
      "type": "function"
    }
  ],
  "transactionHash": "0x46fc95c490e35d38ca66380b865ba11a5d5d7a01b4abaef8edc87f0784e02e3f",
  "args": [],
  "numDeployments": 1,
  "solcInputHash": "a24ae59cd553d494e1b38c3e6cff554e",
  "bytecode": "0x608060405234801561001057600080fd5b50614f07806100206000396000f3fe60806040523480156200001157600080fd5b5060043610620001f55760003560e01c80637c77b6161162000119578063cda13d6711620000af578063f0f2a4d7116200007a578063f0f2a4d7146200046c578063f2fde38b1462000483578063f36d52da146200049a578063fabc1cbc14620004b157600080fd5b8063cda13d671462000415578063da525716146200042c578063e2bbb158146200043e578063e5956027146200045557600080fd5b806392054f8b11620000f057806392054f8b14620003aa578063a2700d7814620003c1578063bdf2a43c14620003d8578063c23c6da014620003fe57600080fd5b80637c77b616146200036a578063881b2f2d14620003815780638da5cb5b146200039857600080fd5b80633656eec2116200018f5780633a2950af11620001665780633a2950af146200031b5780634363fcd21462000332578063441a3e701462000349578063715018a6146200036057600080fd5b80633656eec214620002e657806337ce42bf14620002fd5780633801daf1146200030757600080fd5b8063136439dd11620001d0578063136439dd14620002795780631f1713fc146200029257806323845fb514620002a95780632699f55a14620002c057600080fd5b8063034fc83c14620001fa5780630c68ba21146200022e57806311ad9d381462000265575b600080fd5b620002116200020b36600462002673565b620004c8565b6040516001600160a01b0390911681526020015b60405180910390f35b620002546200023f36600462002501565b60656020526000908152604090205460ff1681565b604051901515815260200162000225565b606a5462000211906001600160a01b031681565b620002906200028a36600462002673565b620005b9565b005b62000290620002a336600462002501565b62000672565b62000290620002ba3660046200253f565b620006dc565b620002d7620002d1366004620026ee565b6200079b565b60405190815260200162000225565b620002d7620002f7366004620026a5565b620009ef565b620002d760695481565b60685462000211906001600160a01b031681565b620002906200032c36600462002673565b62000a89565b620002d76200034336600462002673565b62000b3f565b620002906200035a366004620026cc565b62000dd1565b6200029062000f55565b620002906200037b36600462002673565b62000ffb565b62000254620003923660046200257c565b62001072565b6033546001600160a01b031662000211565b62000290620003bb36600462002501565b62001138565b62000290620003d236600462002501565b620011b6565b62000254620003e936600462002673565b60666020526000908152604090205460ff1681565b620002d76200040f366004620026a5565b620012d1565b620002116200042636600462002501565b6200132b565b6067546001600160a01b031662000211565b620002906200044f366004620026cc565b620013a9565b620002906200046636600462002501565b6200145d565b620002906200047d36600462002673565b62001520565b620002906200049436600462002501565b6200161f565b62000254620004ab366004620026cc565b62001755565b62000290620004c236600462002673565b620019f2565b6068546040516340d1b7db60e11b81526004810183905260009182916001600160a01b03909116906381a36fb69060240160206040518083038186803b1580156200051257600080fd5b505afa15801562000527573d6000803e3d6000fd5b505050506040513d601f19601f820116820180604052508101906200054d919062002520565b905060006200055c826200132b565b9050803b620005b25760405162461bcd60e51b815260206004820152601360248201527f58546f6b656e206e6f74206465706c6f7965640000000000000000000000000060448201526064015b60405180910390fd5b9392505050565b3360009081526065602052604090205460ff166200061a5760405162461bcd60e51b815260206004820152600b60248201527f43616e27742070617573650000000000000000000000000000000000000000006044820152606401620005a9565b600081815260666020908152604091829020805460ff191660019081179091558251848152918201527f77f1fcfcce67dc392d64f842056d2ec06c80986c47c910f7e79c5b23a2738d7491015b60405180910390a150565b6033546001600160a01b03163314620006ce5760405162461bcd60e51b815260206004820181905260248201527f4f776e61626c653a2063616c6c6572206973206e6f7420746865206f776e65726044820152606401620005a9565b620006d98162001a9c565b50565b6033546001600160a01b03163314620007385760405162461bcd60e51b815260206004820181905260248201527f4f776e61626c653a2063616c6c6572206973206e6f7420746865206f776e65726044820152606401620005a9565b6001600160a01b038216600081815260656020908152604091829020805460ff19168515159081179091558251938452908301527fd0b6b573d5442f7c29fd50d9735ae341581c25c6ed07748d50eda519f1ffa88a910160405180910390a15050565b6000620007a9600a62000ffb565b606860009054906101000a90046001600160a01b03166001600160a01b0316632549dad96040518163ffffffff1660e01b815260040160206040518083038186803b158015620007f857600080fd5b505afa1580156200080d573d6000803e3d6000fd5b505050506040513d601f19601f8201168201806040525081019062000833919062002520565b6001600160a01b0316336001600160a01b031614620008955760405162461bcd60e51b815260206004820152600f60248201527f4e6f74207374616b696e67207a617000000000000000000000000000000000006044820152606401620005a9565b6068546040517fdbe66ca00000000000000000000000000000000000000000000000000000000081523360048201526001600160a01b039091169063dbe66ca09060240160206040518083038186803b158015620008f257600080fd5b505afa15801562000907573d6000803e3d6000fd5b505050506040513d601f19601f820116820180604052508101906200092d9190620025aa565b6200097b5760405162461bcd60e51b815260206004820152601060248201527f4e6f7420666565206578636c75646564000000000000000000000000000000006044820152606401620005a9565b60006200098b8685878662001b5c565b604080518a8152602081018a9052808201839052606081018890526001600160a01b038916608082015290519194507ff6d712df0bc2e9953a525976e57448a1dcb9b85f49402ab6cce0cea20fc5249c935081900360a0019150a195945050505050565b600080620009fd84620004c8565b6040516370a0823160e01b81526001600160a01b038581166004830152919250908216906370a08231906024015b60206040518083038186803b15801562000a4457600080fd5b505afa15801562000a59573d6000803e3d6000fd5b505050506040513d601f19601f8201168201806040525081019062000a7f91906200268c565b9150505b92915050565b6033546001600160a01b0316331462000ae55760405162461bcd60e51b815260206004820181905260248201527f4f776e61626c653a2063616c6c6572206973206e6f7420746865206f776e65726044820152606401620005a9565b6212750081111562000b3a5760405162461bcd60e51b815260206004820152600d60248201527f4c6f636b20746f6f206c6f6e67000000000000000000000000000000000000006044820152606401620005a9565b606955565b6068546040516340d1b7db60e11b81526004810183905260009182916001600160a01b03909116906381a36fb69060240160206040518083038186803b15801562000b8957600080fd5b505afa15801562000b9e573d6000803e3d6000fd5b505050506040513d601f19601f8201168201806040525081019062000bc4919062002520565b9050600062000bd3826200132b565b90506001600160a01b03811662000c2d5760405162461bcd60e51b815260206004820152601360248201527f58546f6b656e206e6f74206465706c6f796564000000000000000000000000006044820152606401620005a9565b6000670de0b6b3a764000090506000826001600160a01b03166318160ddd6040518163ffffffff1660e01b815260040160206040518083038186803b15801562000c7657600080fd5b505afa15801562000c8b573d6000803e3d6000fd5b505050506040513d601f19601f8201168201806040525081019062000cb191906200268c565b1162000cbe578062000dc8565b816001600160a01b03166318160ddd6040518163ffffffff1660e01b815260040160206040518083038186803b15801562000cf857600080fd5b505afa15801562000d0d573d6000803e3d6000fd5b505050506040513d601f19601f8201168201806040525081019062000d3391906200268c565b6040516370a0823160e01b81526001600160a01b0384811660048301528516906370a082319060240160206040518083038186803b15801562000d7557600080fd5b505afa15801562000d8a573d6000803e3d6000fd5b505050506040513d601f19601f8201168201806040525081019062000db091906200268c565b62000dbc90836200283a565b62000dc8919062002819565b95945050505050565b6068546040516340d1b7db60e11b8152600481018490526000916001600160a01b0316906381a36fb69060240160206040518083038186803b15801562000e1757600080fd5b505afa15801562000e2c573d6000803e3d6000fd5b505050506040513d601f19601f8201168201806040525081019062000e52919062002520565b9050600062000e61826200132b565b6040517f19e616a3000000000000000000000000000000000000000000000000000000008152336004820152602481018590529091506000906001600160a01b038316906319e616a390604401602060405180830381600087803b15801562000ec957600080fd5b505af115801562000ede573d6000803e3d6000fd5b505050506040513d601f19601f8201168201806040525081019062000f0491906200268c565b60408051878152602081018390529081018690523360608201529091507f3049105fcf2a17b0c1862f64c05a6b2df2176ea17686f7cbf2689887594dd2f89060800160405180910390a15050505050565b6033546001600160a01b0316331462000fb15760405162461bcd60e51b815260206004820181905260248201527f4f776e61626c653a2063616c6c6572206973206e6f7420746865206f776e65726044820152606401620005a9565b6033546040516000916001600160a01b0316907f8be0079c531659141344cd1fd0a4f28419497f9722a3daafe3b4186f6b6457e0908390a3603380546001600160a01b0319169055565b60008181526066602052604090205460ff1615806200102457506033546001600160a01b031633145b620006d95760405162461bcd60e51b815260206004820152600660248201527f50617573656400000000000000000000000000000000000000000000000000006044820152606401620005a9565b606a546000906001600160a01b03166200108f5750600062000a83565b606a546040517f81e97b660000000000000000000000000000000000000000000000000000000081526001600160a01b03858116600483015260248201859052909116906381e97b669060440160206040518083038186803b158015620010f557600080fd5b505afa1580156200110a573d6000803e3d6000fd5b505050506040513d601f19601f82011682018060405250810190620011309190620025aa565b905062000a83565b6033546001600160a01b03163314620011945760405162461bcd60e51b815260206004820181905260248201527f4f776e61626c653a2063616c6c6572206973206e6f7420746865206f776e65726044820152606401620005a9565b606a80546001600160a01b0319166001600160a01b0392909216919091179055565b600054610100900460ff1680620011d0575060005460ff16155b620012355760405162461bcd60e51b815260206004820152602e60248201527f496e697469616c697a61626c653a20636f6e747261637420697320616c72656160448201526d191e481a5b9a5d1a585b1a5e995960921b6064820152608401620005a9565b600054610100900460ff1615801562001258576000805461ffff19166101011790555b6200126262001cb9565b606880546001600160a01b0319166001600160a01b0384161790556040516000906200128e90620024e5565b604051809103906000f080158015620012ab573d6000803e3d6000fd5b509050620012b9816200145d565b508015620012cd576000805461ff00191690555b5050565b600080620012df84620004c8565b6040517fc19ea0530000000000000000000000000000000000000000000000000000000081526001600160a01b0385811660048301529192509082169063c19ea0539060240162000a2b565b6040516bffffffffffffffffffffffff19606083901b16602082015260009081906034016040516020818303038152906040528051906020012090506000620013a182604051806020016200138090620024f3565b6020820181038252601f19601f820116604052508051906020012062001d84565b949350505050565b620013b5600a62000ffb565b6000620013c3338462001072565b620013d157606954620013d4565b60005b90506000806000620013e98633878762001b5c565b91945092509050620014076001600160a01b03841633848862001df9565b6040805187815260208101879052908101829052606081018590523360808201527ff6d712df0bc2e9953a525976e57448a1dcb9b85f49402ab6cce0cea20fc5249c9060a00160405180910390a1505050505050565b600054610100900460ff168062001477575060005460ff16155b620014dc5760405162461bcd60e51b815260206004820152602e60248201527f496e697469616c697a61626c653a20636f6e747261637420697320616c72656160448201526d191e481a5b9a5d1a585b1a5e995960921b6064820152608401620005a9565b600054610100900460ff16158015620014ff576000805461ffff19166101011790555b6200150a8262001a9c565b8015620012cd576000805461ff00191690555050565b6068546040516340d1b7db60e11b8152600481018390526000916001600160a01b0316906381a36fb69060240160206040518083038186803b1580156200156657600080fd5b505afa1580156200157b573d6000803e3d6000fd5b505050506040513d601f19601f82011682018060405250810190620015a1919062002520565b90506000620015b0826200132b565b9050803b15620015bf57505050565b6000620015cc8362001e89565b604080518681526001600160a01b03868116602083015283168183015290519192507fb3f4e35b757d28b36d957b4485e408df4f1b3a43f1fe56a7a74eb66f9904d734919081900360600190a150505050565b6033546001600160a01b031633146200167b5760405162461bcd60e51b815260206004820181905260248201527f4f776e61626c653a2063616c6c6572206973206e6f7420746865206f776e65726044820152606401620005a9565b6001600160a01b038116620016f95760405162461bcd60e51b815260206004820152602660248201527f4f776e61626c653a206e6577206f776e657220697320746865207a65726f206160448201527f64647265737300000000000000000000000000000000000000000000000000006064820152608401620005a9565b6033546040516001600160a01b038084169216907f8be0079c531659141344cd1fd0a4f28419497f9722a3daafe3b4186f6b6457e090600090a3603380546001600160a01b0319166001600160a01b0392909216919091179055565b60006200176a6033546001600160a01b031690565b6001600160a01b0316336001600160a01b03161480620018245750606860009054906101000a90046001600160a01b03166001600160a01b0316630d43e8ad6040518163ffffffff1660e01b815260040160206040518083038186803b158015620017d457600080fd5b505afa158015620017e9573d6000803e3d6000fd5b505050506040513d601f19601f820116820180604052508101906200180f919062002520565b6001600160a01b0316336001600160a01b0316145b620018725760405162461bcd60e51b815260206004820152601960248201527f4c505374616b696e673a204e6f7420617574686f72697a6564000000000000006044820152606401620005a9565b6068546040516340d1b7db60e11b8152600481018590526000916001600160a01b0316906381a36fb69060240160206040518083038186803b158015620018b857600080fd5b505afa158015620018cd573d6000803e3d6000fd5b505050506040513d601f19601f82011682018060405250810190620018f3919062002520565b9050600062001902826200132b565b9050803b1580620019855750806001600160a01b03166318160ddd6040518163ffffffff1660e01b815260040160206040518083038186803b1580156200194857600080fd5b505afa1580156200195d573d6000803e3d6000fd5b505050506040513d601f19601f820116820180604052508101906200198391906200268c565b155b15620019975760009250505062000a83565b620019ae6001600160a01b03831633838762001df9565b60408051868152602081018690527f0299314386021feac38b734d748626da8e75d6abb4e6a897c0f9c8f23ff42715910160405180910390a1506001949350505050565b6033546001600160a01b0316331462001a4e5760405162461bcd60e51b815260206004820181905260248201527f4f776e61626c653a2063616c6c6572206973206e6f7420746865206f776e65726044820152606401620005a9565b6000818152606660209081526040808320805460ff191690558051848152918201929092527f77f1fcfcce67dc392d64f842056d2ec06c80986c47c910f7e79c5b23a2738d74910162000667565b803b62001b125760405162461bcd60e51b815260206004820152603960248201527f5570677261646561626c65426561636f6e3a206368696c6420696d706c656d6560448201527f6e746174696f6e206973206e6f74206120636f6e7472616374000000000000006064820152608401620005a9565b606780546001600160a01b0319166001600160a01b0383169081179091556040517fbc7cd75a20ee27fd9adebab32041f755214dbc6bffa90cc0225b39da2e5c2d3b90600090a250565b600080600062001b6c8762001520565b6068546040516340d1b7db60e11b8152600481018990526000916001600160a01b0316906381a36fb69060240160206040518083038186803b15801562001bb257600080fd5b505afa15801562001bc7573d6000803e3d6000fd5b505050506040513d601f19601f8201168201806040525081019062001bed919062002520565b9050600062001bfc826200132b565b6040517f7efe41b10000000000000000000000000000000000000000000000000000000081526001600160a01b038a81166004830152602482018a905260448201899052919250600091831690637efe41b190606401602060405180830381600087803b15801562001c6d57600080fd5b505af115801562001c82573d6000803e3d6000fd5b505050506040513d601f19601f8201168201806040525081019062001ca891906200268c565b929a91995091975095505050505050565b600054610100900460ff168062001cd3575060005460ff16155b62001d385760405162461bcd60e51b815260206004820152602e60248201527f496e697469616c697a61626c653a20636f6e747261637420697320616c72656160448201526d191e481a5b9a5d1a585b1a5e995960921b6064820152608401620005a9565b600054610100900460ff1615801562001d5b576000805461ffff19166101011790555b62001d6562002023565b62001d6f620020d9565b8015620006d9576000805461ff001916905550565b604080517fff000000000000000000000000000000000000000000000000000000000000006020808301919091526bffffffffffffffffffffffff193060601b1660218301526035820185905260558083018590528351808403909101815260759092019092528051910120600090620005b2565b604080516001600160a01b0385811660248301528416604482015260648082018490528251808303909101815260849091019091526020810180517bffffffffffffffffffffffffffffffffffffffffffffffffffffffff167f23b872dd0000000000000000000000000000000000000000000000000000000017905262001e83908590620021d3565b50505050565b600080826001600160a01b03166395d89b416040518163ffffffff1660e01b815260040160006040518083038186803b15801562001ec657600080fd5b505afa15801562001edb573d6000803e3d6000fd5b505050506040513d6000823e601f3d908101601f1916820160405262001f059190810190620025c9565b90508060405160200162001f1a91906200277b565b60408051601f19818403018152908290526bffffffffffffffffffffffff19606086901b1660208301529150600090603401604051602081830303815290604052805190602001209050600062001f986000836040518060200162001f7f90620024f3565b601f1982820381018352601f90910116604052620022c4565b6040517f30fe73fd0000000000000000000000000000000000000000000000000000000081529091506001600160a01b038216906330fe73fd9062001fe690889087908190600401620027c2565b600060405180830381600087803b1580156200200157600080fd5b505af115801562002016573d6000803e3d6000fd5b5092979650505050505050565b600054610100900460ff16806200203d575060005460ff16155b620020a25760405162461bcd60e51b815260206004820152602e60248201527f496e697469616c697a61626c653a20636f6e747261637420697320616c72656160448201526d191e481a5b9a5d1a585b1a5e995960921b6064820152608401620005a9565b600054610100900460ff1615801562001d6f576000805461ffff19166101011790558015620006d9576000805461ff001916905550565b600054610100900460ff1680620020f3575060005460ff16155b620021585760405162461bcd60e51b815260206004820152602e60248201527f496e697469616c697a61626c653a20636f6e747261637420697320616c72656160448201526d191e481a5b9a5d1a585b1a5e995960921b6064820152608401620005a9565b600054610100900460ff161580156200217b576000805461ffff19166101011790555b603380546001600160a01b0319163390811790915560405181906000907f8be0079c531659141344cd1fd0a4f28419497f9722a3daafe3b4186f6b6457e0908290a3508015620006d9576000805461ff001916905550565b60006200222a826040518060400160405280602081526020017f5361666545524332303a206c6f772d6c6576656c2063616c6c206661696c6564815250856001600160a01b0316620023cc9092919063ffffffff16565b805190915015620022bf57808060200190518101906200224b9190620025aa565b620022bf5760405162461bcd60e51b815260206004820152602a60248201527f5361666545524332303a204552433230206f7065726174696f6e20646964206e60448201527f6f742073756363656564000000000000000000000000000000000000000000006064820152608401620005a9565b505050565b60008084471015620023195760405162461bcd60e51b815260206004820152601d60248201527f437265617465323a20696e73756666696369656e742062616c616e63650000006044820152606401620005a9565b8251620023695760405162461bcd60e51b815260206004820181905260248201527f437265617465323a2062797465636f6465206c656e677468206973207a65726f6044820152606401620005a9565b8383516020850187f590506001600160a01b038116620013a15760405162461bcd60e51b815260206004820152601960248201527f437265617465323a204661696c6564206f6e206465706c6f79000000000000006044820152606401620005a9565b6060620013a1848460008585843b620024285760405162461bcd60e51b815260206004820152601d60248201527f416464726573733a2063616c6c20746f206e6f6e2d636f6e74726163740000006044820152606401620005a9565b600080866001600160a01b031685876040516200244691906200275d565b60006040518083038185875af1925050503d806000811462002485576040519150601f19603f3d011682016040523d82523d6000602084013e6200248a565b606091505b50915091506200249c828286620024a7565b979650505050505050565b60608315620024b8575081620005b2565b825115620024c95782518084602001fd5b8160405162461bcd60e51b8152600401620005a9919062002804565b611df180620028d183390190565b61081080620046c283390190565b60006020828403121562002513578081fd5b8135620005b281620028ab565b60006020828403121562002532578081fd5b8151620005b281620028ab565b6000806040838503121562002552578081fd5b82356200255f81620028ab565b915060208301356200257181620028c1565b809150509250929050565b600080604083850312156200258f578182fd5b82356200259c81620028ab565b946020939093013593505050565b600060208284031215620025bc578081fd5b8151620005b281620028c1565b600060208284031215620025db578081fd5b815167ffffffffffffffff80821115620025f3578283fd5b818401915084601f83011262002607578283fd5b8151818111156200261c576200261c62002895565b604051601f8201601f19908116603f0116810190838211818310171562002647576200264762002895565b8160405282815287602084870101111562002660578586fd5b6200249c83602083016020880162002866565b60006020828403121562002685578081fd5b5035919050565b6000602082840312156200269e578081fd5b5051919050565b60008060408385031215620026b8578182fd5b8235915060208301356200257181620028ab565b60008060408385031215620026df578182fd5b50508035926020909101359150565b6000806000806080858703121562002704578182fd5b843593506020850135925060408501356200271f81620028ab565b9396929550929360600135925050565b600081518084526200274981602086016020860162002866565b601f01601f19169290920160200192915050565b600082516200277181846020870162002866565b9190910192915050565b7f7800000000000000000000000000000000000000000000000000000000000000815260008251620027b581600185016020870162002866565b9190910160010192915050565b6001600160a01b0384168152606060208201526000620027e660608301856200272f565b8281036040840152620027fa81856200272f565b9695505050505050565b602081526000620005b260208301846200272f565b6000826200283557634e487b7160e01b81526012600452602481fd5b500490565b60008160001904831182151516156200286157634e487b7160e01b81526011600452602481fd5b500290565b60005b838110156200288357818101518382015260200162002869565b8381111562001e835750506000910152565b634e487b7160e01b600052604160045260246000fd5b6001600160a01b0381168114620006d957600080fd5b8015158114620006d957600080fdfe608060405234801561001057600080fd5b50611dd1806100206000396000f3fe608060405234801561001057600080fd5b506004361061016c5760003560e01c80637efe41b1116100cd578063b068498d11610081578063c55dae6311610066578063c55dae63146102f4578063dd62ed3e14610307578063f2fde38b1461034057600080fd5b8063b068498d146102b8578063c19ea053146102cb57600080fd5b806395d89b41116100b257806395d89b411461028a578063a457c2d714610292578063a9059cbb146102a557600080fd5b80637efe41b1146102525780638da5cb5b1461026557600080fd5b806330fe73fd116101245780633950935111610109578063395093511461020e57806370a0823114610221578063715018a61461024a57600080fd5b806330fe73fd146101ea578063313ce567146101ff57600080fd5b806318160ddd1161015557806318160ddd146101b257806319e616a3146101c457806323b872dd146101d757600080fd5b806306fdde0314610171578063095ea7b31461018f575b600080fd5b610179610353565b6040516101869190611c67565b60405180910390f35b6101a261019d366004611bb8565b6103e5565b6040519015158152602001610186565b6067545b604051908152602001610186565b6101b66101d2366004611bb8565b6103fb565b6101a26101e5366004611b0c565b610528565b6101fd6101f8366004611b47565b6105f0565b005b60405160128152602001610186565b6101a261021c366004611bb8565b6106e0565b6101b661022f366004611ac0565b6001600160a01b031660009081526065602052604090205490565b6101fd610717565b6101b6610260366004611be1565b6107c8565b6033546001600160a01b03165b6040516001600160a01b039091168152602001610186565b610179610903565b6101a26102a0366004611bb8565b610912565b6101a26102b3366004611bb8565b6109c5565b6101fd6102c6366004611bb8565b6109d2565b6101b66102d9366004611ac0565b6001600160a01b031660009081526098602052604090205490565b609754610272906001600160a01b031681565b6101b6610315366004611ada565b6001600160a01b03918216600090815260666020908152604080832093909416825291909152205490565b6101fd61034e366004611ac0565b610b07565b60606068805461036290611d34565b80601f016020809104026020016040519081016040528092919081815260200182805461038e90611d34565b80156103db5780601f106103b0576101008083540402835291602001916103db565b820191906000526020600020905b8154815290600101906020018083116103be57829003601f168201915b5050505050905090565b60006103f2338484610c46565b50600192915050565b6033546000906001600160a01b0316331461045d5760405162461bcd60e51b815260206004820181905260248201527f4f776e61626c653a2063616c6c6572206973206e6f7420746865206f776e657260448201526064015b60405180910390fd5b600061046860675490565b6097546040516370a0823160e01b815230600482015291925060009183916001600160a01b0316906370a082319060240160206040518083038186803b1580156104b157600080fd5b505afa1580156104c5573d6000803e3d6000fd5b505050506040513d601f19601f820116820180604052508101906104e99190611c33565b6104f39086611cd2565b6104fd9190611cb2565b90506105098585610d9f565b609754610520906001600160a01b03168683610e02565b949350505050565b6000610535848484610e82565b6001600160a01b0384166000908152606660209081526040808320338452909152902054828110156105cf5760405162461bcd60e51b815260206004820152602860248201527f45524332303a207472616e7366657220616d6f756e742065786365656473206160448201527f6c6c6f77616e63650000000000000000000000000000000000000000000000006064820152608401610454565b6105e385336105de8685611cf1565b610c46565b60019150505b9392505050565b600054610100900460ff1680610609575060005460ff16155b61066c5760405162461bcd60e51b815260206004820152602e60248201527f496e697469616c697a61626c653a20636f6e747261637420697320616c72656160448201526d191e481a5b9a5d1a585b1a5e995960921b6064820152608401610454565b600054610100900460ff1615801561068e576000805461ffff19166101011790555b610696610ee2565b6106a08383610fa5565b6097805473ffffffffffffffffffffffffffffffffffffffff19166001600160a01b03861617905580156106da576000805461ff00191690555b50505050565b3360008181526066602090815260408083206001600160a01b038716845290915281205490916103f29185906105de908690611c9a565b6033546001600160a01b031633146107715760405162461bcd60e51b815260206004820181905260248201527f4f776e61626c653a2063616c6c6572206973206e6f7420746865206f776e65726044820152606401610454565b6033546040516000916001600160a01b0316907f8be0079c531659141344cd1fd0a4f28419497f9722a3daafe3b4186f6b6457e0908390a36033805473ffffffffffffffffffffffffffffffffffffffff19169055565b6033546000906001600160a01b031633146108255760405162461bcd60e51b815260206004820181905260248201527f4f776e61626c653a2063616c6c6572206973206e6f7420746865206f776e65726044820152606401610454565b6097546040516370a0823160e01b81523060048201526000916001600160a01b0316906370a082319060240160206040518083038186803b15801561086957600080fd5b505afa15801561087d573d6000803e3d6000fd5b505050506040513d601f19601f820116820180604052508101906108a19190611c33565b905060006108ae60675490565b90508015806108bb575081155b156108d5576108cb86868661106b565b84925050506105e9565b6000826108e28388611cd2565b6108ec9190611cb2565b90506108f987828761106b565b92506105e9915050565b60606069805461036290611d34565b3360009081526066602090815260408083206001600160a01b0386168452909152812054828110156109ac5760405162461bcd60e51b815260206004820152602560248201527f45524332303a2064656372656173656420616c6c6f77616e63652062656c6f7760448201527f207a65726f0000000000000000000000000000000000000000000000000000006064820152608401610454565b6109bb33856105de8685611cf1565b5060019392505050565b60006103f2338484610e82565b6033546001600160a01b03163314610a2c5760405162461bcd60e51b815260206004820181905260248201527f4f776e61626c653a2063616c6c6572206973206e6f7420746865206f776e65726044820152606401610454565b62278d008110610a7e5760405162461bcd60e51b815260206004820152600d60248201527f546f6f206c6f6e67206c6f636b000000000000000000000000000000000000006044820152606401610454565b6000610a8a8242611c9a565b6001600160a01b038416600090815260986020526040902054909150811115610b02576001600160a01b038316600081815260986020908152604091829020849055815192835282018390527f38f63775093182d55eb9f15cb41c506fd976eadb1b4544ba0aeaed494ee70cde910160405180910390a15b505050565b6033546001600160a01b03163314610b615760405162461bcd60e51b815260206004820181905260248201527f4f776e61626c653a2063616c6c6572206973206e6f7420746865206f776e65726044820152606401610454565b6001600160a01b038116610bdd5760405162461bcd60e51b815260206004820152602660248201527f4f776e61626c653a206e6577206f776e657220697320746865207a65726f206160448201527f64647265737300000000000000000000000000000000000000000000000000006064820152608401610454565b6033546040516001600160a01b038084169216907f8be0079c531659141344cd1fd0a4f28419497f9722a3daafe3b4186f6b6457e090600090a36033805473ffffffffffffffffffffffffffffffffffffffff19166001600160a01b0392909216919091179055565b6001600160a01b038316610cc15760405162461bcd60e51b8152602060048201526024808201527f45524332303a20617070726f76652066726f6d20746865207a65726f2061646460448201527f72657373000000000000000000000000000000000000000000000000000000006064820152608401610454565b6001600160a01b038216610d3d5760405162461bcd60e51b815260206004820152602260248201527f45524332303a20617070726f766520746f20746865207a65726f20616464726560448201527f73730000000000000000000000000000000000000000000000000000000000006064820152608401610454565b6001600160a01b0383811660008181526066602090815260408083209487168084529482529182902085905590518481527f8c5be1e5ebec7d5bd14f71427d1e84f3dd0314c0f7b2291e5b200ac8c7c3b92591015b60405180910390a3505050565b6001600160a01b0382166000908152609860205260409020544211610df45760405162461bcd60e51b815260206004820152600b60248201526a155cd95c881b1bd8dad95960aa1b6044820152606401610454565b610dfe828261107f565b5050565b604080516001600160a01b038416602482015260448082018490528251808303909101815260649091019091526020810180517bffffffffffffffffffffffffffffffffffffffffffffffffffffffff167fa9059cbb00000000000000000000000000000000000000000000000000000000179052610b02908490611205565b6001600160a01b0383166000908152609860205260409020544211610ed75760405162461bcd60e51b815260206004820152600b60248201526a155cd95c881b1bd8dad95960aa1b6044820152606401610454565b610b028383836112ea565b600054610100900460ff1680610efb575060005460ff16155b610f5e5760405162461bcd60e51b815260206004820152602e60248201527f496e697469616c697a61626c653a20636f6e747261637420697320616c72656160448201526d191e481a5b9a5d1a585b1a5e995960921b6064820152608401610454565b600054610100900460ff16158015610f80576000805461ffff19166101011790555b610f8861150b565b610f906115bc565b8015610fa2576000805461ff00191690555b50565b600054610100900460ff1680610fbe575060005460ff16155b6110215760405162461bcd60e51b815260206004820152602e60248201527f496e697469616c697a61626c653a20636f6e747261637420697320616c72656160448201526d191e481a5b9a5d1a585b1a5e995960921b6064820152608401610454565b600054610100900460ff16158015611043576000805461ffff19166101011790555b61104b61150b565b61105583836116be565b8015610b02576000805461ff0019169055505050565b61107583826109d2565b610b02838361179a565b6001600160a01b0382166110fb5760405162461bcd60e51b815260206004820152602160248201527f45524332303a206275726e2066726f6d20746865207a65726f2061646472657360448201527f73000000000000000000000000000000000000000000000000000000000000006064820152608401610454565b6001600160a01b0382166000908152606560205260409020548181101561118a5760405162461bcd60e51b815260206004820152602260248201527f45524332303a206275726e20616d6f756e7420657863656564732062616c616e60448201527f63650000000000000000000000000000000000000000000000000000000000006064820152608401610454565b6111948282611cf1565b6001600160a01b038416600090815260656020526040812091909155606780548492906111c2908490611cf1565b90915550506040518281526000906001600160a01b038516907fddf252ad1be2c89b69c2b068fc378daa952ba7f163c4a11628f55a4df523b3ef90602001610d92565b600061125a826040518060400160405280602081526020017f5361666545524332303a206c6f772d6c6576656c2063616c6c206661696c6564815250856001600160a01b03166118799092919063ffffffff16565b805190915015610b0257808060200190518101906112789190611c13565b610b025760405162461bcd60e51b815260206004820152602a60248201527f5361666545524332303a204552433230206f7065726174696f6e20646964206e60448201527f6f742073756363656564000000000000000000000000000000000000000000006064820152608401610454565b6001600160a01b0383166113665760405162461bcd60e51b815260206004820152602560248201527f45524332303a207472616e736665722066726f6d20746865207a65726f20616460448201527f64726573730000000000000000000000000000000000000000000000000000006064820152608401610454565b6001600160a01b0382166113e25760405162461bcd60e51b815260206004820152602360248201527f45524332303a207472616e7366657220746f20746865207a65726f206164647260448201527f65737300000000000000000000000000000000000000000000000000000000006064820152608401610454565b6001600160a01b038316600090815260656020526040902054818110156114715760405162461bcd60e51b815260206004820152602660248201527f45524332303a207472616e7366657220616d6f756e742065786365656473206260448201527f616c616e636500000000000000000000000000000000000000000000000000006064820152608401610454565b61147b8282611cf1565b6001600160a01b0380861660009081526065602052604080822093909355908516815290812080548492906114b1908490611c9a565b92505081905550826001600160a01b0316846001600160a01b03167fddf252ad1be2c89b69c2b068fc378daa952ba7f163c4a11628f55a4df523b3ef846040516114fd91815260200190565b60405180910390a350505050565b600054610100900460ff1680611524575060005460ff16155b6115875760405162461bcd60e51b815260206004820152602e60248201527f496e697469616c697a61626c653a20636f6e747261637420697320616c72656160448201526d191e481a5b9a5d1a585b1a5e995960921b6064820152608401610454565b600054610100900460ff16158015610f90576000805461ffff19166101011790558015610fa2576000805461ff001916905550565b600054610100900460ff16806115d5575060005460ff16155b6116385760405162461bcd60e51b815260206004820152602e60248201527f496e697469616c697a61626c653a20636f6e747261637420697320616c72656160448201526d191e481a5b9a5d1a585b1a5e995960921b6064820152608401610454565b600054610100900460ff1615801561165a576000805461ffff19166101011790555b6033805473ffffffffffffffffffffffffffffffffffffffff19163390811790915560405181906000907f8be0079c531659141344cd1fd0a4f28419497f9722a3daafe3b4186f6b6457e0908290a3508015610fa2576000805461ff001916905550565b600054610100900460ff16806116d7575060005460ff16155b61173a5760405162461bcd60e51b815260206004820152602e60248201527f496e697469616c697a61626c653a20636f6e747261637420697320616c72656160448201526d191e481a5b9a5d1a585b1a5e995960921b6064820152608401610454565b600054610100900460ff1615801561175c576000805461ffff19166101011790555b825161176f906068906020860190611984565b508151611783906069906020850190611984565b508015610b02576000805461ff0019169055505050565b6001600160a01b0382166117f05760405162461bcd60e51b815260206004820152601f60248201527f45524332303a206d696e7420746f20746865207a65726f2061646472657373006044820152606401610454565b80606760008282546118029190611c9a565b90915550506001600160a01b0382166000908152606560205260408120805483929061182f908490611c9a565b90915550506040518181526001600160a01b038316906000907fddf252ad1be2c89b69c2b068fc378daa952ba7f163c4a11628f55a4df523b3ef9060200160405180910390a35050565b6060610520848460008585843b6118d25760405162461bcd60e51b815260206004820152601d60248201527f416464726573733a2063616c6c20746f206e6f6e2d636f6e74726163740000006044820152606401610454565b600080866001600160a01b031685876040516118ee9190611c4b565b60006040518083038185875af1925050503d806000811461192b576040519150601f19603f3d011682016040523d82523d6000602084013e611930565b606091505b509150915061194082828661194b565b979650505050505050565b6060831561195a5750816105e9565b82511561196a5782518084602001fd5b8160405162461bcd60e51b81526004016104549190611c67565b82805461199090611d34565b90600052602060002090601f0160209004810192826119b257600085556119f8565b82601f106119cb57805160ff19168380011785556119f8565b828001600101855582156119f8579182015b828111156119f85782518255916020019190600101906119dd565b50611a04929150611a08565b5090565b5b80821115611a045760008155600101611a09565b80356001600160a01b0381168114611a3457600080fd5b919050565b600082601f830112611a49578081fd5b813567ffffffffffffffff80821115611a6457611a64611d85565b604051601f8301601f19908116603f01168101908282118183101715611a8c57611a8c611d85565b81604052838152866020858801011115611aa4578485fd5b8360208701602083013792830160200193909352509392505050565b600060208284031215611ad1578081fd5b6105e982611a1d565b60008060408385031215611aec578081fd5b611af583611a1d565b9150611b0360208401611a1d565b90509250929050565b600080600060608486031215611b20578081fd5b611b2984611a1d565b9250611b3760208501611a1d565b9150604084013590509250925092565b600080600060608486031215611b5b578283fd5b611b6484611a1d565b9250602084013567ffffffffffffffff80821115611b80578384fd5b611b8c87838801611a39565b93506040860135915080821115611ba1578283fd5b50611bae86828701611a39565b9150509250925092565b60008060408385031215611bca578182fd5b611bd383611a1d565b946020939093013593505050565b600080600060608486031215611bf5578283fd5b611bfe84611a1d565b95602085013595506040909401359392505050565b600060208284031215611c24578081fd5b815180151581146105e9578182fd5b600060208284031215611c44578081fd5b5051919050565b60008251611c5d818460208701611d08565b9190910192915050565b6020815260008251806020840152611c86816040850160208701611d08565b601f01601f19169190910160400192915050565b60008219821115611cad57611cad611d6f565b500190565b600082611ccd57634e487b7160e01b81526012600452602481fd5b500490565b6000816000190483118215151615611cec57611cec611d6f565b500290565b600082821015611d0357611d03611d6f565b500390565b60005b83811015611d23578181015183820152602001611d0b565b838111156106da5750506000910152565b600181811c90821680611d4857607f821691505b60208210811415611d6957634e487b7160e01b600052602260045260246000fd5b50919050565b634e487b7160e01b600052601160045260246000fd5b634e487b7160e01b600052604160045260246000fdfea264697066735822122063063acdd6925a304044a775786197375e3dd34ad90a07e424c8fcee00e484cd64736f6c63430008040033608060405261002f60017fa3f0ad74e5423aebfd80d3ef4346578335a9a72aeaee59ff6cb3582b35133d51610451565b6000805160206107cf8339815191521461005957634e487b7160e01b600052600160045260246000fd5b610078336040518060200160405280600081525061007d60201b60201c565b6104a0565b6100908261023860201b6100291760201c565b6100ef5760405162461bcd60e51b815260206004820152602560248201527f426561636f6e50726f78793a20626561636f6e206973206e6f74206120636f6e6044820152641d1c9858dd60da1b60648201526084015b60405180910390fd5b610172826001600160a01b031663da5257166040518163ffffffff1660e01b815260040160206040518083038186803b15801561012b57600080fd5b505afa15801561013f573d6000803e3d6000fd5b505050506040513d601f19601f8201168201806040525081019061016391906103db565b61023860201b6100291760201c565b6101e45760405162461bcd60e51b815260206004820152603460248201527f426561636f6e50726f78793a20626561636f6e20696d706c656d656e7461746960448201527f6f6e206973206e6f74206120636f6e747261637400000000000000000000000060648201526084016100e6565b6000805160206107cf8339815191528281558151156102335761023161020861023e565b836040518060600160405280602181526020016107ef602191396102cb60201b61002f1760201c565b505b505050565b3b151590565b60006102566000805160206107cf8339815191525490565b6001600160a01b031663da5257166040518163ffffffff1660e01b815260040160206040518083038186803b15801561028e57600080fd5b505afa1580156102a2573d6000803e3d6000fd5b505050506040513d601f19601f820116820180604052508101906102c691906103db565b905090565b6060833b61032a5760405162461bcd60e51b815260206004820152602660248201527f416464726573733a2064656c65676174652063616c6c20746f206e6f6e2d636f6044820152651b9d1c9858dd60d21b60648201526084016100e6565b600080856001600160a01b0316856040516103459190610402565b600060405180830381855af49150503d8060008114610380576040519150601f19603f3d011682016040523d82523d6000602084013e610385565b606091505b5090925090506103968282866103a2565b925050505b9392505050565b606083156103b157508161039b565b8251156103c15782518084602001fd5b8160405162461bcd60e51b81526004016100e6919061041e565b6000602082840312156103ec578081fd5b81516001600160a01b038116811461039b578182fd5b60008251610414818460208701610474565b9190910192915050565b602081526000825180602084015261043d816040850160208701610474565b601f01601f19169190910160400192915050565b60008282101561046f57634e487b7160e01b81526011600452602481fd5b500390565b60005b8381101561048f578181015183820152602001610477565b838111156102315750506000910152565b610320806104af6000396000f3fe60806040523661001357610011610017565b005b6100115b61002761002261012e565b6101da565b565b3b151590565b6060833b6100aa5760405162461bcd60e51b815260206004820152602660248201527f416464726573733a2064656c65676174652063616c6c20746f206e6f6e2d636f60448201527f6e7472616374000000000000000000000000000000000000000000000000000060648201526084015b60405180910390fd5b6000808573ffffffffffffffffffffffffffffffffffffffff16856040516100d2919061026b565b600060405180830381855af49150503d806000811461010d576040519150601f19603f3d011682016040523d82523d6000602084013e610112565b606091505b50915091506101228282866101fe565b925050505b9392505050565b60006101587fa3f0ad74e5423aebfd80d3ef4346578335a9a72aeaee59ff6cb3582b35133d505490565b73ffffffffffffffffffffffffffffffffffffffff1663da5257166040518163ffffffff1660e01b815260040160206040518083038186803b15801561019d57600080fd5b505afa1580156101b1573d6000803e3d6000fd5b505050506040513d601f19601f820116820180604052508101906101d59190610237565b905090565b3660008037600080366000845af43d6000803e8080156101f9573d6000f35b3d6000fd5b6060831561020d575081610127565b82511561021d5782518084602001fd5b8160405162461bcd60e51b81526004016100a19190610287565b600060208284031215610248578081fd5b815173ffffffffffffffffffffffffffffffffffffffff81168114610127578182fd5b6000825161027d8184602087016102ba565b9190910192915050565b60208152600082518060208401526102a68160408501602087016102ba565b601f01601f19169190910160400192915050565b60005b838110156102d55781810151838201526020016102bd565b838111156102e4576000848401525b5050505056fea26469706673582212207fa982cc2707bb3e77c4aa1e243fbbca2a5b4869b87391cdd12e6a56d1e36e9164736f6c63430008040033a3f0ad74e5423aebfd80d3ef4346578335a9a72aeaee59ff6cb3582b35133d50426561636f6e50726f78793a2066756e6374696f6e2063616c6c206661696c6564a26469706673582212204ececc04252dbaab2aa08139946ccbcc61cef5ccf5cdd02c5d9aa3bc988e4be964736f6c63430008040033",
  "devdoc": {
    "kind": "dev",
    "methods": {
      "__UpgradeableBeacon__init(address)": {
        "details": "Sets the address of the initial implementation, and the deployer account as the owner who can upgrade the beacon."
      },
      "childImplementation()": {
        "details": "Returns the current child implementation address."
      },
      "owner()": {
        "details": "Returns the address of the current owner."
      },
      "renounceOwnership()": {
        "details": "Leaves the contract without owner. It will not be possible to call `onlyOwner` functions anymore. Can only be called by the current owner. NOTE: Renouncing ownership will leave the contract without an owner, thereby removing any functionality that is only available to the owner."
      },
      "transferOwnership(address)": {
        "details": "Transfers ownership of the contract to a new account (`newOwner`). Can only be called by the current owner."
      },
      "upgradeChildTo(address)": {
        "details": "Upgrades the beacon to a new implementation. Emits an {Upgraded} event. Requirements: - msg.sender must be the owner of the contract. - `newChildImplementation` must be a contract."
      }
    },
    "version": 1
  },
  "userdoc": {
    "kind": "user",
    "methods": {},
    "version": 1
  },
  "storageLayout": {
    "storage": [
      {
        "astId": 2839,
        "contract": "contracts/solidity/NFTXInventoryStaking.sol:NFTXInventoryStaking",
        "label": "_initialized",
        "offset": 0,
        "slot": "0",
        "type": "t_bool"
      },
      {
        "astId": 2842,
        "contract": "contracts/solidity/NFTXInventoryStaking.sol:NFTXInventoryStaking",
        "label": "_initializing",
        "offset": 1,
        "slot": "0",
        "type": "t_bool"
      },
      {
        "astId": 4347,
        "contract": "contracts/solidity/NFTXInventoryStaking.sol:NFTXInventoryStaking",
        "label": "__gap",
        "offset": 0,
        "slot": "1",
        "type": "t_array(t_uint256)50_storage"
      },
      {
        "astId": 4580,
        "contract": "contracts/solidity/NFTXInventoryStaking.sol:NFTXInventoryStaking",
        "label": "_owner",
        "offset": 0,
        "slot": "51",
        "type": "t_address"
      },
      {
        "astId": 4699,
        "contract": "contracts/solidity/NFTXInventoryStaking.sol:NFTXInventoryStaking",
        "label": "__gap",
        "offset": 0,
        "slot": "52",
        "type": "t_array(t_uint256)49_storage"
      },
      {
        "astId": 4730,
        "contract": "contracts/solidity/NFTXInventoryStaking.sol:NFTXInventoryStaking",
        "label": "isGuardian",
        "offset": 0,
        "slot": "101",
        "type": "t_mapping(t_address,t_bool)"
      },
      {
        "astId": 4734,
        "contract": "contracts/solidity/NFTXInventoryStaking.sol:NFTXInventoryStaking",
        "label": "isPaused",
        "offset": 0,
        "slot": "102",
        "type": "t_mapping(t_uint256,t_bool)"
      },
      {
        "astId": 2943,
        "contract": "contracts/solidity/NFTXInventoryStaking.sol:NFTXInventoryStaking",
        "label": "_childImplementation",
        "offset": 0,
        "slot": "103",
        "type": "t_address"
      },
      {
        "astId": 33,
        "contract": "contracts/solidity/NFTXInventoryStaking.sol:NFTXInventoryStaking",
        "label": "nftxVaultFactory",
        "offset": 0,
        "slot": "104",
        "type": "t_contract(INFTXVaultFactory)2258"
      },
      {
        "astId": 35,
        "contract": "contracts/solidity/NFTXInventoryStaking.sol:NFTXInventoryStaking",
        "label": "inventoryLockTimeErc20",
        "offset": 0,
        "slot": "105",
        "type": "t_uint256"
      },
      {
        "astId": 38,
        "contract": "contracts/solidity/NFTXInventoryStaking.sol:NFTXInventoryStaking",
        "label": "timelockExcludeList",
        "offset": 0,
        "slot": "106",
        "type": "t_contract(ITimelockExcludeList)2270"
      }
    ],
    "types": {
      "t_address": {
        "encoding": "inplace",
        "label": "address",
        "numberOfBytes": "20"
      },
      "t_array(t_uint256)49_storage": {
        "base": "t_uint256",
        "encoding": "inplace",
        "label": "uint256[49]",
        "numberOfBytes": "1568"
      },
      "t_array(t_uint256)50_storage": {
        "base": "t_uint256",
        "encoding": "inplace",
        "label": "uint256[50]",
        "numberOfBytes": "1600"
      },
      "t_bool": {
        "encoding": "inplace",
        "label": "bool",
        "numberOfBytes": "1"
      },
      "t_contract(INFTXVaultFactory)2258": {
        "encoding": "inplace",
        "label": "contract INFTXVaultFactory",
        "numberOfBytes": "20"
      },
      "t_contract(ITimelockExcludeList)2270": {
        "encoding": "inplace",
        "label": "contract ITimelockExcludeList",
        "numberOfBytes": "20"
      },
      "t_mapping(t_address,t_bool)": {
        "encoding": "mapping",
        "key": "t_address",
        "label": "mapping(address => bool)",
        "numberOfBytes": "32",
        "value": "t_bool"
      },
      "t_mapping(t_uint256,t_bool)": {
        "encoding": "mapping",
        "key": "t_uint256",
        "label": "mapping(uint256 => bool)",
        "numberOfBytes": "32",
        "value": "t_bool"
      },
      "t_uint256": {
        "encoding": "inplace",
        "label": "uint256",
        "numberOfBytes": "32"
      }
    }
  }
}