{
  "address": "0xbDD98859A0E8F558247905946ed3794EE1C83A03",
  "abi": [
    {
      "inputs": [
        {
          "internalType": "address",
          "name": "_nftxFactory",
          "type": "address"
        },
        {
          "internalType": "address",
          "name": "_inventoryStaking",
          "type": "address"
        },
        {
          "internalType": "address",
          "name": "_lpStaking",
          "type": "address"
        },
        {
          "internalType": "address",
          "name": "_sushiRouter",
          "type": "address"
        },
        {
          "internalType": "address",
          "name": "_weth",
          "type": "address"
        },
        {
          "internalType": "address payable",
          "name": "_swapTarget",
          "type": "address"
        }
      ],
      "stateMutability": "nonpayable",
      "type": "constructor"
    },
    {
      "anonymous": false,
      "inputs": [
        {
          "indexed": true,
          "internalType": "address",
          "name": "previousOwner",
          "type": "address"
        },
        {
          "indexed": true,
          "internalType": "address",
          "name": "newOwner",
          "type": "address"
        }
      ],
      "name": "OwnershipTransferred",
      "type": "event"
    },
    {
      "inputs": [],
      "name": "WETH",
      "outputs": [
        {
          "internalType": "contract IWETH",
          "name": "",
          "type": "address"
        }
      ],
      "stateMutability": "view",
      "type": "function"
    },
    {
      "inputs": [
        {
          "internalType": "uint256",
          "name": "vaultId",
          "type": "uint256"
        },
        {
          "internalType": "bytes",
          "name": "swapCallData",
          "type": "bytes"
        }
      ],
      "name": "buyAndStakeInventory",
      "outputs": [],
      "stateMutability": "payable",
      "type": "function"
    },
    {
      "inputs": [
        {
          "internalType": "uint256",
          "name": "vaultId",
          "type": "uint256"
        },
        {
          "internalType": "bytes",
          "name": "swapCallData",
          "type": "bytes"
        },
        {
          "internalType": "uint256",
          "name": "minTokenIn",
          "type": "uint256"
        },
        {
          "internalType": "uint256",
          "name": "minWethIn",
          "type": "uint256"
        },
        {
          "internalType": "uint256",
          "name": "wethIn",
          "type": "uint256"
        }
      ],
      "name": "buyAndStakeLiquidity",
      "outputs": [],
      "stateMutability": "payable",
      "type": "function"
    },
    {
      "inputs": [],
      "name": "inventoryStaking",
      "outputs": [
        {
          "internalType": "contract INFTXInventoryStaking",
          "name": "",
          "type": "address"
        }
      ],
      "stateMutability": "view",
      "type": "function"
    },
    {
      "inputs": [],
      "name": "lpStaking",
      "outputs": [
        {
          "internalType": "contract INFTXLPStaking",
          "name": "",
          "type": "address"
        }
      ],
      "stateMutability": "view",
      "type": "function"
    },
    {
      "inputs": [],
      "name": "nftxFactory",
      "outputs": [
        {
          "internalType": "contract INFTXVaultFactory",
          "name": "",
          "type": "address"
        }
      ],
      "stateMutability": "view",
      "type": "function"
    },
    {
      "inputs": [
        {
          "internalType": "uint256",
          "name": "",
          "type": "uint256"
        }
      ],
      "name": "nftxVaultAddresses",
      "outputs": [
        {
          "internalType": "address",
          "name": "",
          "type": "address"
        }
      ],
      "stateMutability": "view",
      "type": "function"
    },
    {
      "inputs": [],
      "name": "owner",
      "outputs": [
        {
          "internalType": "address",
          "name": "",
          "type": "address"
        }
      ],
      "stateMutability": "view",
      "type": "function"
    },
    {
      "inputs": [
        {
          "internalType": "bool",
          "name": "_paused",
          "type": "bool"
        }
      ],
      "name": "pause",
      "outputs": [],
      "stateMutability": "nonpayable",
      "type": "function"
    },
    {
      "inputs": [],
      "name": "paused",
      "outputs": [
        {
          "internalType": "bool",
          "name": "",
          "type": "bool"
        }
      ],
      "stateMutability": "view",
      "type": "function"
    },
    {
      "inputs": [],
      "name": "renounceOwnership",
      "outputs": [],
      "stateMutability": "nonpayable",
      "type": "function"
    },
    {
      "inputs": [
        {
          "internalType": "address",
          "name": "token",
          "type": "address"
        }
      ],
      "name": "rescue",
      "outputs": [],
      "stateMutability": "nonpayable",
      "type": "function"
    },
    {
      "inputs": [],
      "name": "sushiRouter",
      "outputs": [
        {
          "internalType": "contract IUniswapV2Router01",
          "name": "",
          "type": "address"
        }
      ],
      "stateMutability": "view",
      "type": "function"
    },
    {
      "inputs": [
        {
          "internalType": "address",
          "name": "newOwner",
          "type": "address"
        }
      ],
      "name": "transferOwnership",
      "outputs": [],
      "stateMutability": "nonpayable",
      "type": "function"
    },
    {
      "stateMutability": "payable",
      "type": "receive"
    }
  ],
  "transactionHash": "0x58e31944b0b568b58ca14d8df15f4dd44820ca09e455183c09d849f7c5091285",
  "args": [
    "0x1478bEB5D18B23d2bA90FcEe91d66460AC585e6b",
    "0x6e91A3f27cE6753f47C66B76B03E6A7bFdDB605B",
    "0xAfC303423580239653aFB6fb06d37D666ea0f5cA",
    "0x1b02dA8Cb0d097eB8D57A175b88c7D8b47997506",
    "0xB4FBF271143F4FBf7B91A5ded31805e42b2208d6",
    "0xF91bB752490473B8342a3E964E855b9f9a2A668e"
  ],
  "numDeployments": 1,
  "solcInputHash": "fd5de7ae3c04dbfc1278b9b56b87daf9",
  "bytecode": "0x6101406040526002805460ff191690553480156200001c57600080fd5b50604051620027d9380380620027d98339810160408190526200003f91620001e4565b600080546001600160a01b031916339081178255604051909182917f8be0079c531659141344cd1fd0a4f28419497f9722a3daafe3b4186f6b6457e0908290a350600180556001600160601b0319606086811b821660e05285811b82166101005287811b82166101205284811b821660a05283901b1660c05260405163095ea7b360e01b81526001600160a01b038085166004830152600019602483015283169063095ea7b390604401602060405180830381600087803b1580156200010457600080fd5b505af115801562000119573d6000803e3d6000fd5b505050506040513d601f19601f820116820180604052508101906200013f919062000277565b5060405163095ea7b360e01b81526001600160a01b038281166004830152600019602483015283169063095ea7b390604401602060405180830381600087803b1580156200018c57600080fd5b505af1158015620001a1573d6000803e3d6000fd5b505050506040513d601f19601f82011682018060405250810190620001c7919062000277565b5060601b6001600160601b03191660805250620002b99350505050565b60008060008060008060c08789031215620001fd578182fd5b86516200020a81620002a0565b60208801519096506200021d81620002a0565b60408801519095506200023081620002a0565b60608801519094506200024381620002a0565b60808801519093506200025681620002a0565b60a08801519092506200026981620002a0565b809150509295509295509295565b60006020828403121562000289578081fd5b8151801515811462000299578182fd5b9392505050565b6001600160a01b0381168114620002b657600080fd5b50565b60805160601c60a05160601c60c05160601c60e05160601c6101005160601c6101205160601c612433620003a66000396000818161022c015261174801526000818161031b015281816109d60152610a480152600081816102a9015281816111f3015261136b01526000818160f10152818161034f0152818161059e0152818161062a01528181610780015281816108c2015281816109a101528181610b5e01528181610c00015281816110d4015281816111600152818161141201526114b401526000818161026001528181610865015281816109170152611c370152600061190601526124336000f3fe6080604052600436106100e15760003560e01c806374a1b0b01161007f5780639bf1401c116100595780639bf1401c14610309578063ad5c46481461033d578063c535a29914610371578063f2fde38b1461038457600080fd5b806374a1b0b014610297578063839006f2146102cb5780638da5cb5b146102eb57600080fd5b80635c975abb116100bb5780635c975abb146101f05780635ee50f881461021a5780636d13582c1461024e578063715018a61461028257600080fd5b806302329a291461016a57806336fa8b651461018a57806353fe4a8e146101dd57600080fd5b3661016557336001600160a01b037f000000000000000000000000000000000000000000000000000000000000000016146101635760405162461bcd60e51b815260206004820152600960248201527f4f6e6c792057455448000000000000000000000000000000000000000000000060448201526064015b60405180910390fd5b005b600080fd5b34801561017657600080fd5b506101636101853660046121cc565b6103a4565b34801561019657600080fd5b506101c06101a5366004612204565b6003602052600090815260409020546001600160a01b031681565b6040516001600160a01b0390911681526020015b60405180910390f35b6101636101eb36600461227e565b610411565b3480156101fc57600080fd5b5060025461020a9060ff1681565b60405190151581526020016101d4565b34801561022657600080fd5b506101c07f000000000000000000000000000000000000000000000000000000000000000081565b34801561025a57600080fd5b506101c07f000000000000000000000000000000000000000000000000000000000000000081565b34801561028e57600080fd5b50610163610d13565b3480156102a357600080fd5b506101c07f000000000000000000000000000000000000000000000000000000000000000081565b3480156102d757600080fd5b506101636102e6366004612194565b610dc4565b3480156102f757600080fd5b506000546001600160a01b03166101c0565b34801561031557600080fd5b506101c07f000000000000000000000000000000000000000000000000000000000000000081565b34801561034957600080fd5b506101c07f000000000000000000000000000000000000000000000000000000000000000081565b61016361037f366004612234565b610f59565b34801561039057600080fd5b5061016361039f366004612194565b6115bf565b6000546001600160a01b031633146103fe5760405162461bcd60e51b815260206004820181905260248201527f4f776e61626c653a2063616c6c6572206973206e6f7420746865206f776e6572604482015260640161015a565b6002805460ff1916911515919091179055565b600260015414156104645760405162461bcd60e51b815260206004820152601f60248201527f5265656e7472616e637947756172643a207265656e7472616e742063616c6c00604482015260640161015a565b600260018190555460ff16158061048557506000546001600160a01b031633145b6104c15760405162461bcd60e51b815260206004820152600d60248201526c16985c081a5cc81c185d5cd959609a1b604482015260640161015a565b600034116105115760405162461bcd60e51b815260206004820152601660248201527f496e76616c69642076616c75652070726f766964656400000000000000000000604482015260640161015a565b8034116105865760405162461bcd60e51b815260206004820152602360248201527f496e73756666696369656e74207661756c742073656e7420666f72207061697260448201527f696e670000000000000000000000000000000000000000000000000000000000606482015260840161015a565b6040516370a0823160e01b81523060048201526000907f00000000000000000000000000000000000000000000000000000000000000006001600160a01b0316906370a082319060240160206040518083038186803b1580156105e857600080fd5b505afa1580156105fc573d6000803e3d6000fd5b505050506040513d601f19601f82011682018060405250810190610620919061221c565b9050341561069d577f00000000000000000000000000000000000000000000000000000000000000006001600160a01b031663d0e30db0346040518263ffffffff1660e01b81526004016000604051808303818588803b15801561068357600080fd5b505af1158015610697573d6000803e3d6000fd5b50505050505b60006106a8886116fd565b90506001600160a01b0381166107005760405162461bcd60e51b815260206004820152601660248201527f496e76616c6964207661756c742070726f766964656400000000000000000000604482015260640161015a565b600061070d828989611884565b905085811161075e5760405162461bcd60e51b815260206004820152601c60248201527f496e73756666696369656e7420746f6b656e7320616371756972656400000000604482015260640161015a565b6040516370a0823160e01b815230600482015260009084906001600160a01b037f000000000000000000000000000000000000000000000000000000000000000016906370a082319060240160206040518083038186803b1580156107c257600080fd5b505afa1580156107d6573d6000803e3d6000fd5b505050506040513d601f19601f820116820180604052508101906107fa919061221c565b610804919061236e565b9050848110156108565760405162461bcd60e51b815260206004820152601b60248201527f496e73756666696369656e7420574554482072656d61696e696e670000000000604482015260640161015a565b61088a6001600160a01b0384167f000000000000000000000000000000000000000000000000000000000000000084611a60565b6040517fe8e337000000000000000000000000000000000000000000000000000000000081526001600160a01b0384811660048301527f00000000000000000000000000000000000000000000000000000000000000008116602483015260448201849052606482018790526084820189905260a482018890523060c48301524260e483015260009182917f0000000000000000000000000000000000000000000000000000000000000000169063e8e337009061010401606060405180830381600087803b15801561095c57600080fd5b505af1158015610970573d6000803e3d6000fd5b505050506040513d601f19601f8201168201806040525081019061099491906122e2565b925050915060006109c5867f0000000000000000000000000000000000000000000000000000000000000000611c22565b90506109fb6001600160a01b0382167f000000000000000000000000000000000000000000000000000000000000000084611a60565b6040517f6c9b9588000000000000000000000000000000000000000000000000000000008152600481018e9052336024820152604481018390526202a30060648201526001600160a01b037f00000000000000000000000000000000000000000000000000000000000000001690636c9b958890608401600060405180830381600087803b158015610a8c57600080fd5b505af1158015610aa0573d6000803e3d6000fd5b5050505060008386610ab2919061236e565b90508015610b3c5760405163a9059cbb60e01b8152336004820152602481018290526001600160a01b0388169063a9059cbb90604401602060405180830381600087803b158015610b0257600080fd5b505af1158015610b16573d6000803e3d6000fd5b505050506040513d601f19601f82011682018060405250810190610b3a91906121e8565b505b6040516370a0823160e01b815230600482015260009089906001600160a01b037f000000000000000000000000000000000000000000000000000000000000000016906370a082319060240160206040518083038186803b158015610ba057600080fd5b505afa158015610bb4573d6000803e3d6000fd5b505050506040513d601f19601f82011682018060405250810190610bd8919061221c565b610be2919061236e565b90508015610cfe57604051632e1a7d4d60e01b8152600481018290527f00000000000000000000000000000000000000000000000000000000000000006001600160a01b031690632e1a7d4d90602401600060405180830381600087803b158015610c4c57600080fd5b505af1158015610c60573d6000803e3d6000fd5b50506040516000925033915083908381818185875af1925050503d8060008114610ca6576040519150601f19603f3d011682016040523d82523d6000602084013e610cab565b606091505b5050905080610cfc5760405162461bcd60e51b815260206004820152601d60248201527f556e61626c6520746f2073656e6420756e777261707065642057455448000000604482015260640161015a565b505b50506001805550505050505050505050505050565b6000546001600160a01b03163314610d6d5760405162461bcd60e51b815260206004820181905260248201527f4f776e61626c653a2063616c6c6572206973206e6f7420746865206f776e6572604482015260640161015a565b600080546040516001600160a01b03909116907f8be0079c531659141344cd1fd0a4f28419497f9722a3daafe3b4186f6b6457e0908390a36000805473ffffffffffffffffffffffffffffffffffffffff19169055565b6000546001600160a01b03163314610e1e5760405162461bcd60e51b815260206004820181905260248201527f4f776e61626c653a2063616c6c6572206973206e6f7420746865206f776e6572604482015260640161015a565b6001600160a01b038116610ec857604051600090339047908381818185875af1925050503d8060008114610e6e576040519150601f19603f3d011682016040523d82523d6000602084013e610e73565b606091505b5050905080610ec45760405162461bcd60e51b815260206004820152601d60248201527f416464726573733a20756e61626c6520746f2073656e642076616c7565000000604482015260640161015a565b5050565b6040516370a0823160e01b8152306004820152610f569033906001600160a01b038416906370a082319060240160206040518083038186803b158015610f0d57600080fd5b505afa158015610f21573d6000803e3d6000fd5b505050506040513d601f19601f82011682018060405250810190610f45919061221c565b6001600160a01b0384169190611da0565b50565b60026001541415610fac5760405162461bcd60e51b815260206004820152601f60248201527f5265656e7472616e637947756172643a207265656e7472616e742063616c6c00604482015260640161015a565b600260018190555460ff161580610fcd57506000546001600160a01b031633145b6110095760405162461bcd60e51b815260206004820152600d60248201526c16985c081a5cc81c185d5cd959609a1b604482015260640161015a565b600034116110595760405162461bcd60e51b815260206004820152601660248201527f496e76616c69642076616c75652070726f766964656400000000000000000000604482015260640161015a565b6000611064846116fd565b90506001600160a01b0381166110bc5760405162461bcd60e51b815260206004820152601660248201527f496e76616c6964207661756c742070726f766964656400000000000000000000604482015260640161015a565b6040516370a0823160e01b81523060048201526000907f00000000000000000000000000000000000000000000000000000000000000006001600160a01b0316906370a082319060240160206040518083038186803b15801561111e57600080fd5b505afa158015611132573d6000803e3d6000fd5b505050506040513d601f19601f82011682018060405250810190611156919061221c565b905034156111d3577f00000000000000000000000000000000000000000000000000000000000000006001600160a01b031663d0e30db0346040518263ffffffff1660e01b81526004016000604051808303818588803b1580156111b957600080fd5b505af11580156111cd573d6000803e3d6000fd5b50505050505b60006111e0838686611884565b9050826001600160a01b031663a9059cbb7f00000000000000000000000000000000000000000000000000000000000000006001600160a01b031663034fc83c896040518263ffffffff1660e01b815260040161123f91815260200190565b60206040518083038186803b15801561125757600080fd5b505afa15801561126b573d6000803e3d6000fd5b505050506040513d601f19601f8201168201806040525081019061128f91906121b0565b6040517fffffffff0000000000000000000000000000000000000000000000000000000060e084901b1681526001600160a01b03909116600482015260248101849052604401602060405180830381600087803b1580156112ef57600080fd5b505af1158015611303573d6000803e3d6000fd5b505050506040513d601f19601f8201168201806040525081019061132791906121e8565b506040517f2699f55a0000000000000000000000000000000000000000000000000000000081526004810187905260248101829052336044820152600260648201527f00000000000000000000000000000000000000000000000000000000000000006001600160a01b031690632699f55a90608401602060405180830381600087803b1580156113b757600080fd5b505af11580156113cb573d6000803e3d6000fd5b505050506040513d601f19601f820116820180604052508101906113ef919061221c565b506040516370a0823160e01b815230600482015260009083906001600160a01b037f000000000000000000000000000000000000000000000000000000000000000016906370a082319060240160206040518083038186803b15801561145457600080fd5b505afa158015611468573d6000803e3d6000fd5b505050506040513d601f19601f8201168201806040525081019061148c919061221c565b611496919061236e565b905080156115b257604051632e1a7d4d60e01b8152600481018290527f00000000000000000000000000000000000000000000000000000000000000006001600160a01b031690632e1a7d4d90602401600060405180830381600087803b15801561150057600080fd5b505af1158015611514573d6000803e3d6000fd5b50506040516000925033915083908381818185875af1925050503d806000811461155a576040519150601f19603f3d011682016040523d82523d6000602084013e61155f565b606091505b50509050806115b05760405162461bcd60e51b815260206004820152601d60248201527f556e61626c6520746f2073656e6420756e777261707065642057455448000000604482015260640161015a565b505b5050600180555050505050565b6000546001600160a01b031633146116195760405162461bcd60e51b815260206004820181905260248201527f4f776e61626c653a2063616c6c6572206973206e6f7420746865206f776e6572604482015260640161015a565b6001600160a01b0381166116955760405162461bcd60e51b815260206004820152602660248201527f4f776e61626c653a206e6577206f776e657220697320746865207a65726f206160448201527f6464726573730000000000000000000000000000000000000000000000000000606482015260840161015a565b600080546040516001600160a01b03808516939216917f8be0079c531659141344cd1fd0a4f28419497f9722a3daafe3b4186f6b6457e091a36000805473ffffffffffffffffffffffffffffffffffffffff19166001600160a01b0392909216919091179055565b6000818152600360205260408120546001600160a01b0316611804576040517f81a36fb6000000000000000000000000000000000000000000000000000000008152600481018390527f00000000000000000000000000000000000000000000000000000000000000006001600160a01b0316906381a36fb69060240160206040518083038186803b15801561179257600080fd5b505afa1580156117a6573d6000803e3d6000fd5b505050506040513d601f19601f820116820180604052508101906117ca91906121b0565b6000838152600360205260409020805473ffffffffffffffffffffffffffffffffffffffff19166001600160a01b03929092169190911790555b6000828152600360205260409020546001600160a01b03166118685760405162461bcd60e51b815260206004820152601460248201527f5661756c7420646f6573206e6f74206578697374000000000000000000000000604482015260640161015a565b506000908152600360205260409020546001600160a01b031690565b6040516370a0823160e01b815230600482015260009081906001600160a01b038616906370a082319060240160206040518083038186803b1580156118c857600080fd5b505afa1580156118dc573d6000803e3d6000fd5b505050506040513d601f19601f82011682018060405250810190611900919061221c565b905060007f00000000000000000000000000000000000000000000000000000000000000006001600160a01b0316858560405161193e92919061230f565b6000604051808303816000865af19150503d806000811461197b576040519150601f19603f3d011682016040523d82523d6000602084013e611980565b606091505b50509050806119d15760405162461bcd60e51b815260206004820152601060248201527f535741505f43414c4c5f4641494c454400000000000000000000000000000000604482015260640161015a565b6040516370a0823160e01b815230600482015282906001600160a01b038816906370a082319060240160206040518083038186803b158015611a1257600080fd5b505afa158015611a26573d6000803e3d6000fd5b505050506040513d601f19601f82011682018060405250810190611a4a919061221c565b611a54919061236e565b925050505b9392505050565b801580611b0257506040517fdd62ed3e0000000000000000000000000000000000000000000000000000000081523060048201526001600160a01b03838116602483015284169063dd62ed3e9060440160206040518083038186803b158015611ac857600080fd5b505afa158015611adc573d6000803e3d6000fd5b505050506040513d601f19601f82011682018060405250810190611b00919061221c565b155b611b745760405162461bcd60e51b815260206004820152603660248201527f5361666545524332303a20617070726f76652066726f6d206e6f6e2d7a65726f60448201527f20746f206e6f6e2d7a65726f20616c6c6f77616e636500000000000000000000606482015260840161015a565b6040516001600160a01b038316602482015260448101829052611c1d9084907f095ea7b300000000000000000000000000000000000000000000000000000000906064015b60408051601f198184030181529190526020810180517bffffffffffffffffffffffffffffffffffffffffffffffffffffffff167fffffffff0000000000000000000000000000000000000000000000000000000090931692909217909152611dd0565b505050565b6000806000611c318585611eb5565b915091507f00000000000000000000000000000000000000000000000000000000000000006001600160a01b031663c45a01556040518163ffffffff1660e01b815260040160206040518083038186803b158015611c8e57600080fd5b505afa158015611ca2573d6000803e3d6000fd5b505050506040513d601f19601f82011682018060405250810190611cc691906121b0565b6040516bffffffffffffffffffffffff19606085811b8216602084015284901b16603482015260480160405160208183030381529060405280519060200120604051602001611d7f9291907fff00000000000000000000000000000000000000000000000000000000000000815260609290921b6bffffffffffffffffffffffff1916600183015260158201527fe18a34eb0e04b04f7a0ac29a6e80748dca96319b42c54d679cb821dca90c6303603582015260550190565b60408051601f19818403018152919052805160209091012095945050505050565b6040516001600160a01b038316602482015260448101829052611c1d90849063a9059cbb60e01b90606401611bb9565b6000611e25826040518060400160405280602081526020017f5361666545524332303a206c6f772d6c6576656c2063616c6c206661696c6564815250856001600160a01b0316611fc59092919063ffffffff16565b805190915015611c1d5780806020019051810190611e4391906121e8565b611c1d5760405162461bcd60e51b815260206004820152602a60248201527f5361666545524332303a204552433230206f7065726174696f6e20646964206e60448201527f6f74207375636365656400000000000000000000000000000000000000000000606482015260840161015a565b600080826001600160a01b0316846001600160a01b03161415611f405760405162461bcd60e51b815260206004820152602560248201527f556e697377617056324c6962726172793a204944454e544943414c5f4144445260448201527f4553534553000000000000000000000000000000000000000000000000000000606482015260840161015a565b826001600160a01b0316846001600160a01b031610611f60578284611f63565b83835b90925090506001600160a01b038216611fbe5760405162461bcd60e51b815260206004820152601e60248201527f556e697377617056324c6962726172793a205a45524f5f414444524553530000604482015260640161015a565b9250929050565b6060611fd48484600085611fdc565b949350505050565b6060824710156120545760405162461bcd60e51b815260206004820152602660248201527f416464726573733a20696e73756666696369656e742062616c616e636520666f60448201527f722063616c6c0000000000000000000000000000000000000000000000000000606482015260840161015a565b843b6120a25760405162461bcd60e51b815260206004820152601d60248201527f416464726573733a2063616c6c20746f206e6f6e2d636f6e7472616374000000604482015260640161015a565b600080866001600160a01b031685876040516120be919061231f565b60006040518083038185875af1925050503d80600081146120fb576040519150601f19603f3d011682016040523d82523d6000602084013e612100565b606091505b509150915061211082828661211b565b979650505050505050565b6060831561212a575081611a59565b82511561213a5782518084602001fd5b8160405162461bcd60e51b815260040161015a919061233b565b60008083601f840112612165578182fd5b50813567ffffffffffffffff81111561217c578182fd5b602083019150836020828501011115611fbe57600080fd5b6000602082840312156121a5578081fd5b8135611a59816123da565b6000602082840312156121c1578081fd5b8151611a59816123da565b6000602082840312156121dd578081fd5b8135611a59816123ef565b6000602082840312156121f9578081fd5b8151611a59816123ef565b600060208284031215612215578081fd5b5035919050565b60006020828403121561222d578081fd5b5051919050565b600080600060408486031215612248578182fd5b83359250602084013567ffffffffffffffff811115612265578283fd5b61227186828701612154565b9497909650939450505050565b60008060008060008060a08789031215612296578182fd5b86359550602087013567ffffffffffffffff8111156122b3578283fd5b6122bf89828a01612154565b979a90995096976040810135976060820135975060809091013595509350505050565b6000806000606084860312156122f6578283fd5b8351925060208401519150604084015190509250925092565b8183823760009101908152919050565b600082516123318184602087016123aa565b9190910192915050565b602081526000825180602084015261235a8160408501602087016123aa565b601f01601f19169190910160400192915050565b6000828210156123a5577f4e487b710000000000000000000000000000000000000000000000000000000081526011600452602481fd5b500390565b60005b838110156123c55781810151838201526020016123ad565b838111156123d4576000848401525b50505050565b6001600160a01b0381168114610f5657600080fd5b8015158114610f5657600080fdfea2646970667358221220128ed3c0b7eb14afcfe89a194adacbcadfafcaa8bfe8e82079cd0cc11624a9ac64736f6c63430008040033",
  "devdoc": {
    "author": "Twade",
    "kind": "dev",
    "methods": {
      "buyAndStakeInventory(uint256,bytes)": {
        "params": {
          "swapCallData": "The `data` field from the 0x API response",
          "vaultId": "The ID of the NFTX vault"
        }
      },
      "buyAndStakeLiquidity(uint256,bytes,uint256,uint256,uint256)": {
        "params": {
          "minTokenIn": "The minimum amount of token to LP",
          "minWethIn": "The minimum amount of ETH (WETH) to LP",
          "swapCallData": "The `data` field from the 0x API response",
          "vaultId": "The ID of the NFTX vault",
          "wethIn": "The amount of ETH (WETH) supplied"
        }
      },
      "owner()": {
        "details": "Returns the address of the current owner."
      },
      "pause(bool)": {
        "params": {
          "_paused": "New pause state"
        }
      },
      "renounceOwnership()": {
        "details": "Leaves the contract without owner. It will not be possible to call `onlyOwner` functions anymore. Can only be called by the current owner. NOTE: Renouncing ownership will leave the contract without an owner, thereby removing any functionality that is only available to the owner."
      },
      "rescue(address)": {
        "params": {
          "token": "The address of the token to be rescued"
        }
      },
      "transferOwnership(address)": {
        "details": "Transfers ownership of the contract to a new account (`newOwner`). Can only be called by the current owner."
      }
    },
    "version": 1
  },
  "userdoc": {
    "kind": "user",
    "methods": {
      "WETH()": {
        "notice": "An interface for the WETH contract"
      },
      "buyAndStakeInventory(uint256,bytes)": {
        "notice": "Allows the user to buy and stake tokens against an Inventory. This will handle the purchase of the vault tokens against 0x and then generate the xToken against the vault and timelock them. "
      },
      "buyAndStakeLiquidity(uint256,bytes,uint256,uint256,uint256)": {
        "notice": "Allows the user to buy and stake tokens against a Liquidity pool. This will handle the purchase of the vault tokens against 0x, the liquidity pool supplying via sushi and then the timelocking against our LP token. "
      },
      "constructor": {
        "notice": "Initialises our zap and sets our internal addresses that will be referenced in our contract. This allows for varied addresses based on the network."
      },
      "inventoryStaking()": {
        "notice": "An interface for the NFTX Vault Factory contract"
      },
      "nftxFactory()": {
        "notice": "An interface for the NFTX Vault Factory contract"
      },
      "nftxVaultAddresses(uint256)": {
        "notice": "A mapping of NFTX Vault IDs to their address corresponding vault contract address"
      },
      "pause(bool)": {
        "notice": "Allows our zap to be paused to prevent any processing. "
      },
      "paused()": {
        "notice": "Allows zap to be paused"
      },
      "rescue(address)": {
        "notice": "Allows our owner to withdraw and tokens in the contract. "
      },
      "sushiRouter()": {
        "notice": "Holds the mapping of our sushi router"
      }
    },
    "notice": "Allows users to buy and stake tokens into either an inventory or liquidity pool, handling the steps between buying and staking across 0x and sushi. ",
    "version": 1
  },
  "storageLayout": {
    "storage": [
      {
        "astId": 4285,
        "contract": "contracts/solidity/NFTXYieldStakingZap.sol:NFTXYieldStakingZap",
        "label": "_owner",
        "offset": 0,
        "slot": "0",
        "type": "t_address"
      },
      {
        "astId": 4397,
        "contract": "contracts/solidity/NFTXYieldStakingZap.sol:NFTXYieldStakingZap",
        "label": "_status",
        "offset": 0,
        "slot": "1",
        "type": "t_uint256"
      },
      {
        "astId": 1452,
        "contract": "contracts/solidity/NFTXYieldStakingZap.sol:NFTXYieldStakingZap",
        "label": "paused",
        "offset": 0,
        "slot": "2",
        "type": "t_bool"
      },
      {
        "astId": 1479,
        "contract": "contracts/solidity/NFTXYieldStakingZap.sol:NFTXYieldStakingZap",
        "label": "nftxVaultAddresses",
        "offset": 0,
        "slot": "3",
        "type": "t_mapping(t_uint256,t_address)"
      }
    ],
    "types": {
      "t_address": {
        "encoding": "inplace",
        "label": "address",
        "numberOfBytes": "20"
      },
      "t_bool": {
        "encoding": "inplace",
        "label": "bool",
        "numberOfBytes": "1"
      },
      "t_mapping(t_uint256,t_address)": {
        "encoding": "mapping",
        "key": "t_uint256",
        "label": "mapping(uint256 => address)",
        "numberOfBytes": "32",
        "value": "t_address"
      },
      "t_uint256": {
        "encoding": "inplace",
        "label": "uint256",
        "numberOfBytes": "32"
      }
    }
  }
}