{
  "address": "0x4209c6260755E0B05283ff3F52d2992c482C0AA3",
  "abi": [
    {
      "inputs": [
        {
          "internalType": "address",
          "name": "_nftxFactory",
          "type": "address"
        },
        {
          "internalType": "address",
          "name": "_WETH",
          "type": "address"
        },
        {
          "internalType": "address payable",
          "name": "_swapTarget",
          "type": "address"
        }
      ],
      "stateMutability": "nonpayable",
      "type": "constructor"
    },
    {
      "anonymous": false,
      "inputs": [
        {
          "indexed": false,
          "internalType": "uint256",
          "name": "count",
          "type": "uint256"
        },
        {
          "indexed": false,
          "internalType": "uint256",
          "name": "ethSpent",
          "type": "uint256"
        },
        {
          "indexed": false,
          "internalType": "address",
          "name": "to",
          "type": "address"
        }
      ],
      "name": "Buy",
      "type": "event"
    },
    {
      "anonymous": false,
      "inputs": [
        {
          "indexed": false,
          "internalType": "uint256",
          "name": "ethAmount",
          "type": "uint256"
        },
        {
          "indexed": false,
          "internalType": "uint256",
          "name": "vTokenAmount",
          "type": "uint256"
        },
        {
          "indexed": false,
          "internalType": "address",
          "name": "to",
          "type": "address"
        }
      ],
      "name": "DustReturned",
      "type": "event"
    },
    {
      "anonymous": false,
      "inputs": [
        {
          "indexed": true,
          "internalType": "address",
          "name": "previousOwner",
          "type": "address"
        },
        {
          "indexed": true,
          "internalType": "address",
          "name": "newOwner",
          "type": "address"
        }
      ],
      "name": "OwnershipTransferred",
      "type": "event"
    },
    {
      "anonymous": false,
      "inputs": [
        {
          "indexed": false,
          "internalType": "uint256",
          "name": "count",
          "type": "uint256"
        },
        {
          "indexed": false,
          "internalType": "uint256",
          "name": "ethReceived",
          "type": "uint256"
        },
        {
          "indexed": false,
          "internalType": "address",
          "name": "to",
          "type": "address"
        }
      ],
      "name": "Sell",
      "type": "event"
    },
    {
      "anonymous": false,
      "inputs": [
        {
          "indexed": false,
          "internalType": "uint256",
          "name": "count",
          "type": "uint256"
        },
        {
          "indexed": false,
          "internalType": "uint256",
          "name": "ethSpent",
          "type": "uint256"
        },
        {
          "indexed": false,
          "internalType": "address",
          "name": "to",
          "type": "address"
        }
      ],
      "name": "Swap",
      "type": "event"
    },
    {
      "inputs": [],
      "name": "WETH",
      "outputs": [
        {
          "internalType": "contract IWETH",
          "name": "",
          "type": "address"
        }
      ],
      "stateMutability": "view",
      "type": "function"
    },
    {
      "inputs": [
        {
          "internalType": "uint256",
          "name": "vaultId",
          "type": "uint256"
        },
        {
          "internalType": "uint256",
          "name": "amount",
          "type": "uint256"
        },
        {
          "internalType": "uint256[]",
          "name": "specificIds",
          "type": "uint256[]"
        },
        {
          "internalType": "bytes",
          "name": "swapCallData",
          "type": "bytes"
        },
        {
          "internalType": "address payable",
          "name": "to",
          "type": "address"
        }
      ],
      "name": "buyAndRedeem",
      "outputs": [],
      "stateMutability": "payable",
      "type": "function"
    },
    {
      "inputs": [
        {
          "internalType": "uint256",
          "name": "vaultId",
          "type": "uint256"
        },
        {
          "internalType": "uint256[]",
          "name": "idsIn",
          "type": "uint256[]"
        },
        {
          "internalType": "uint256[]",
          "name": "amounts",
          "type": "uint256[]"
        },
        {
          "internalType": "uint256[]",
          "name": "specificIds",
          "type": "uint256[]"
        },
        {
          "internalType": "bytes",
          "name": "swapCallData",
          "type": "bytes"
        },
        {
          "internalType": "address payable",
          "name": "to",
          "type": "address"
        }
      ],
      "name": "buyAndSwap1155",
      "outputs": [],
      "stateMutability": "payable",
      "type": "function"
    },
    {
      "inputs": [
        {
          "internalType": "uint256",
          "name": "vaultId",
          "type": "uint256"
        },
        {
          "internalType": "uint256[]",
          "name": "idsIn",
          "type": "uint256[]"
        },
        {
          "internalType": "uint256[]",
          "name": "specificIds",
          "type": "uint256[]"
        },
        {
          "internalType": "bytes",
          "name": "swapCallData",
          "type": "bytes"
        },
        {
          "internalType": "address payable",
          "name": "to",
          "type": "address"
        }
      ],
      "name": "buyAndSwap721",
      "outputs": [],
      "stateMutability": "payable",
      "type": "function"
    },
    {
      "inputs": [
        {
          "internalType": "uint256",
          "name": "vaultId",
          "type": "uint256"
        },
        {
          "internalType": "uint256[]",
          "name": "ids",
          "type": "uint256[]"
        },
        {
          "internalType": "uint256[]",
          "name": "amounts",
          "type": "uint256[]"
        },
        {
          "internalType": "bytes",
          "name": "swapCallData",
          "type": "bytes"
        },
        {
          "internalType": "address payable",
          "name": "to",
          "type": "address"
        }
      ],
      "name": "mintAndSell1155",
      "outputs": [],
      "stateMutability": "nonpayable",
      "type": "function"
    },
    {
      "inputs": [
        {
          "internalType": "uint256",
          "name": "vaultId",
          "type": "uint256"
        },
        {
          "internalType": "uint256[]",
          "name": "ids",
          "type": "uint256[]"
        },
        {
          "internalType": "bytes",
          "name": "swapCallData",
          "type": "bytes"
        },
        {
          "internalType": "address payable",
          "name": "to",
          "type": "address"
        }
      ],
      "name": "mintAndSell721",
      "outputs": [],
      "stateMutability": "nonpayable",
      "type": "function"
    },
    {
      "inputs": [],
      "name": "nftxFactory",
      "outputs": [
        {
          "internalType": "contract INFTXVaultFactory",
          "name": "",
          "type": "address"
        }
      ],
      "stateMutability": "view",
      "type": "function"
    },
    {
      "inputs": [
        {
          "internalType": "uint256",
          "name": "",
          "type": "uint256"
        }
      ],
      "name": "nftxVaultAddresses",
      "outputs": [
        {
          "internalType": "address",
          "name": "",
          "type": "address"
        }
      ],
      "stateMutability": "view",
      "type": "function"
    },
    {
      "inputs": [
        {
          "internalType": "address",
          "name": "",
          "type": "address"
        },
        {
          "internalType": "address",
          "name": "",
          "type": "address"
        },
        {
          "internalType": "uint256[]",
          "name": "",
          "type": "uint256[]"
        },
        {
          "internalType": "uint256[]",
          "name": "",
          "type": "uint256[]"
        },
        {
          "internalType": "bytes",
          "name": "",
          "type": "bytes"
        }
      ],
      "name": "onERC1155BatchReceived",
      "outputs": [
        {
          "internalType": "bytes4",
          "name": "",
          "type": "bytes4"
        }
      ],
      "stateMutability": "nonpayable",
      "type": "function"
    },
    {
      "inputs": [
        {
          "internalType": "address",
          "name": "",
          "type": "address"
        },
        {
          "internalType": "address",
          "name": "",
          "type": "address"
        },
        {
          "internalType": "uint256",
          "name": "",
          "type": "uint256"
        },
        {
          "internalType": "uint256",
          "name": "",
          "type": "uint256"
        },
        {
          "internalType": "bytes",
          "name": "",
          "type": "bytes"
        }
      ],
      "name": "onERC1155Received",
      "outputs": [
        {
          "internalType": "bytes4",
          "name": "",
          "type": "bytes4"
        }
      ],
      "stateMutability": "nonpayable",
      "type": "function"
    },
    {
      "inputs": [
        {
          "internalType": "address",
          "name": "",
          "type": "address"
        },
        {
          "internalType": "address",
          "name": "",
          "type": "address"
        },
        {
          "internalType": "uint256",
          "name": "",
          "type": "uint256"
        },
        {
          "internalType": "bytes",
          "name": "",
          "type": "bytes"
        }
      ],
      "name": "onERC721Received",
      "outputs": [
        {
          "internalType": "bytes4",
          "name": "",
          "type": "bytes4"
        }
      ],
      "stateMutability": "nonpayable",
      "type": "function"
    },
    {
      "inputs": [],
      "name": "owner",
      "outputs": [
        {
          "internalType": "address",
          "name": "",
          "type": "address"
        }
      ],
      "stateMutability": "view",
      "type": "function"
    },
    {
      "inputs": [
        {
          "internalType": "bool",
          "name": "_paused",
          "type": "bool"
        }
      ],
      "name": "pause",
      "outputs": [],
      "stateMutability": "nonpayable",
      "type": "function"
    },
    {
      "inputs": [],
      "name": "paused",
      "outputs": [
        {
          "internalType": "bool",
          "name": "",
          "type": "bool"
        }
      ],
      "stateMutability": "view",
      "type": "function"
    },
    {
      "inputs": [],
      "name": "renounceOwnership",
      "outputs": [],
      "stateMutability": "nonpayable",
      "type": "function"
    },
    {
      "inputs": [
        {
          "internalType": "address",
          "name": "token",
          "type": "address"
        }
      ],
      "name": "rescue",
      "outputs": [],
      "stateMutability": "nonpayable",
      "type": "function"
    },
    {
      "inputs": [
        {
          "internalType": "bytes4",
          "name": "interfaceId",
          "type": "bytes4"
        }
      ],
      "name": "supportsInterface",
      "outputs": [
        {
          "internalType": "bool",
          "name": "",
          "type": "bool"
        }
      ],
      "stateMutability": "view",
      "type": "function"
    },
    {
      "inputs": [
        {
          "internalType": "address",
          "name": "newOwner",
          "type": "address"
        }
      ],
      "name": "transferOwnership",
      "outputs": [],
      "stateMutability": "nonpayable",
      "type": "function"
    },
    {
      "stateMutability": "payable",
      "type": "receive"
    }
  ],
  "transactionHash": "0xf34d079e8f499be7dae920bb375efd090af8d4964ddb5bbfa8f3b54881edfc7b",
  "args": [
    "0x1478bEB5D18B23d2bA90FcEe91d66460AC585e6b",
    "0xB4FBF271143F4FBf7B91A5ded31805e42b2208d6",
    "0xF91bB752490473B8342a3E964E855b9f9a2A668e"
  ],
  "solcInputHash": "20bf2baab5fa7d60bda2e2bae17aaab6",
  "bytecode": "0x60e06040526002805460ff191690553480156200001b57600080fd5b506040516200389b3803806200389b8339810160408190526200003e91620000ab565b600080546001600160a01b031916339081178255604051909182917f8be0079c531659141344cd1fd0a4f28419497f9722a3daafe3b4186f6b6457e0908290a350600180556001600160601b0319606093841b811660c05291831b821660a05290911b1660805262000117565b600080600060608486031215620000c0578283fd5b8351620000cd81620000fe565b6020850151909350620000e081620000fe565b6040850151909250620000f381620000fe565b809150509250925092565b6001600160a01b03811681146200011457600080fd5b50565b60805160601c60a05160601c60c05160601c6136f7620001a46000396000818161027a01526116c301526000818161032101528181610671015281816106f701528181610c0601528181610e340152818161117a01528181611200015281816114f40152818161157a0152818161207901526121320152600081816118ab015261198b01526136f76000f3fe60806040526004361061012d5760003560e01c80638be3a0fb116100a5578063bc197c8111610074578063f2fde38b11610059578063f2fde38b146103ed578063f733dd7e1461040d578063fa4573601461042057600080fd5b8063bc197c8114610363578063f23a6e61146103a857600080fd5b80638be3a0fb146102d15780638da5cb5b146102f1578063ad5c46481461030f578063bb23db721461034357600080fd5b80634d3f078a116100fc5780635ee50f88116100e15780635ee50f8814610268578063715018a61461029c578063839006f2146102b157600080fd5b80634d3f078a1461023b5780635c975abb1461024e57600080fd5b806301ffc9a71461013957806302329a291461016e578063150b7a021461019057806336fa8b65146101ed57600080fd5b3661013457005b600080fd5b34801561014557600080fd5b50610159610154366004613111565b610433565b60405190151581526020015b60405180910390f35b34801561017a57600080fd5b5061018e6101893660046130d9565b61049c565b005b34801561019c57600080fd5b506101d46101ab366004612f75565b7f150b7a0200000000000000000000000000000000000000000000000000000000949350505050565b6040516001600160e01b03199091168152602001610165565b3480156101f957600080fd5b50610223610208366004613139565b6003602052600090815260409020546001600160a01b031681565b6040516001600160a01b039091168152602001610165565b61018e61024936600461337e565b61050e565b34801561025a57600080fd5b506002546101599060ff1681565b34801561027457600080fd5b506102237f000000000000000000000000000000000000000000000000000000000000000081565b3480156102a857600080fd5b5061018e610824565b3480156102bd57600080fd5b5061018e6102cc366004612e93565b6108d5565b3480156102dd57600080fd5b5061018e6102ec366004613242565b610a6a565b3480156102fd57600080fd5b506000546001600160a01b0316610223565b34801561031b57600080fd5b506102237f000000000000000000000000000000000000000000000000000000000000000081565b34801561034f57600080fd5b5061018e61035e3660046132f5565b610c9d565b34801561036f57600080fd5b506101d461037e366004612ecb565b7fbc197c810000000000000000000000000000000000000000000000000000000095945050505050565b3480156103b457600080fd5b506101d46103c3366004612fdf565b7ff23a6e610000000000000000000000000000000000000000000000000000000095945050505050565b3480156103f957600080fd5b5061018e610408366004612e93565b610ec8565b61018e61041b366004613169565b611006565b61018e61042e366004613242565b611354565b60006001600160e01b031982167f4e2312e000000000000000000000000000000000000000000000000000000000148061049657507f01ffc9a7000000000000000000000000000000000000000000000000000000006001600160e01b03198316145b92915050565b6000546001600160a01b031633146104fb5760405162461bcd60e51b815260206004820181905260248201527f4f776e61626c653a2063616c6c6572206973206e6f7420746865206f776e657260448201526064015b60405180910390fd5b6002805460ff1916911515919091179055565b600260015414156105615760405162461bcd60e51b815260206004820152601f60248201527f5265656e7472616e637947756172643a207265656e7472616e742063616c6c0060448201526064016104f2565b600260018190555460ff16158061058257506000546001600160a01b031633145b6105be5760405162461bcd60e51b815260206004820152600d60248201526c16985c081a5cc81c185d5cd959609a1b60448201526064016104f2565b6001600160a01b038116158015906105df57506001600160a01b0381163014155b61061f5760405162461bcd60e51b8152602060048201526011602482015270125b9d985b1a59081c9958da5c1a595b9d607a1b60448201526064016104f2565b6000861161066f5760405162461bcd60e51b815260206004820152601060248201527f4d7573742073656e6420616d6f756e740000000000000000000000000000000060448201526064016104f2565b7f00000000000000000000000000000000000000000000000000000000000000006001600160a01b031663d0e30db0346040518263ffffffff1660e01b81526004016000604051808303818588803b1580156106ca57600080fd5b505af11580156106de573d6000803e3d6000fd5b505050505060006106ee88611678565b9050600061071e7f00000000000000000000000000000000000000000000000000000000000000008387876117ff565b905061073288670de0b6b3a764000061360c565b8110156107815760405162461bcd60e51b815260206004820152601960248201527f496e73756666696369656e74207661756c7420746f6b656e730000000000000060448201526064016104f2565b6107c18989898980806020026020016040519081016040528093929190818152602001838360200280828437600092019190915250899250611ae4915050565b60408051898152602081018390526001600160a01b0385168183015290517ff7735c8cb2a65788ca663fc8415b7c6a66cd6847d58346d8334e8d52a599d3df9181900360600190a161081533836001611b79565b50506001805550505050505050565b6000546001600160a01b0316331461087e5760405162461bcd60e51b815260206004820181905260248201527f4f776e61626c653a2063616c6c6572206973206e6f7420746865206f776e657260448201526064016104f2565b600080546040516001600160a01b03909116907f8be0079c531659141344cd1fd0a4f28419497f9722a3daafe3b4186f6b6457e0908390a36000805473ffffffffffffffffffffffffffffffffffffffff19169055565b6000546001600160a01b0316331461092f5760405162461bcd60e51b815260206004820181905260248201527f4f776e61626c653a2063616c6c6572206973206e6f7420746865206f776e657260448201526064016104f2565b6001600160a01b0381166109d957604051600090339047908381818185875af1925050503d806000811461097f576040519150601f19603f3d011682016040523d82523d6000602084013e610984565b606091505b50509050806109d55760405162461bcd60e51b815260206004820152601d60248201527f416464726573733a20756e61626c6520746f2073656e642076616c756500000060448201526064016104f2565b5050565b6040516370a0823160e01b8152306004820152610a679033906001600160a01b038416906370a082319060240160206040518083038186803b158015610a1e57600080fd5b505afa158015610a32573d6000803e3d6000fd5b505050506040513d601f19601f82011682018060405250810190610a569190613151565b6001600160a01b0384169190611ce2565b50565b60026001541415610abd5760405162461bcd60e51b815260206004820152601f60248201527f5265656e7472616e637947756172643a207265656e7472616e742063616c6c0060448201526064016104f2565b600260018190555460ff161580610ade57506000546001600160a01b031633145b610b1a5760405162461bcd60e51b815260206004820152600d60248201526c16985c081a5cc81c185d5cd959609a1b60448201526064016104f2565b6001600160a01b03811615801590610b3b57506001600160a01b0381163014155b610b7b5760405162461bcd60e51b8152602060048201526011602482015270125b9d985b1a59081c9958da5c1a595b9d607a1b60448201526064016104f2565b6000610b8988888888611d39565b9150506000610bfc8a8a8a8080602002602001604051908101604052809392919081815260200183836020028082843760009201919091525050604080516020808e0282810182019093528d82529093508d92508c918291850190849080828437600092019190915250611e8a92505050565b90506000610c2c827f000000000000000000000000000000000000000000000000000000000000000088886117ff565b9050610c3784612061565b5060408051848152602081018390526001600160a01b0386168183015290517f1cdb5ee3c47e1a706ac452b89698e5e3f2ff4f835ca72dde8936d0f4fcf37d819181900360600190a1610c8c33836000611b79565b505060018055505050505050505050565b60026001541415610cf05760405162461bcd60e51b815260206004820152601f60248201527f5265656e7472616e637947756172643a207265656e7472616e742063616c6c0060448201526064016104f2565b600260018190555460ff161580610d1157506000546001600160a01b031633145b610d4d5760405162461bcd60e51b815260206004820152600d60248201526c16985c081a5cc81c185d5cd959609a1b60448201526064016104f2565b6001600160a01b03811615801590610d6e57506001600160a01b0381163014155b610dae5760405162461bcd60e51b8152602060048201526011602482015270125b9d985b1a59081c9958da5c1a595b9d607a1b60448201526064016104f2565b83610deb5760405162461bcd60e51b815260206004820152600d60248201526c4d7573742073656e642049447360981b60448201526064016104f2565b6000610e2a8787878080602002602001604051908101604052809392919081815260200183836020028082843760009201919091525061224092505050565b90506000610e5a827f000000000000000000000000000000000000000000000000000000000000000087876117ff565b9050610e6583612061565b5060408051878152602081018390526001600160a01b0385168183015290517f1cdb5ee3c47e1a706ac452b89698e5e3f2ff4f835ca72dde8936d0f4fcf37d819181900360600190a1610eba33836000611b79565b505060018055505050505050565b6000546001600160a01b03163314610f225760405162461bcd60e51b815260206004820181905260248201527f4f776e61626c653a2063616c6c6572206973206e6f7420746865206f776e657260448201526064016104f2565b6001600160a01b038116610f9e5760405162461bcd60e51b815260206004820152602660248201527f4f776e61626c653a206e6577206f776e657220697320746865207a65726f206160448201527f646472657373000000000000000000000000000000000000000000000000000060648201526084016104f2565b600080546040516001600160a01b03808516939216917f8be0079c531659141344cd1fd0a4f28419497f9722a3daafe3b4186f6b6457e091a36000805473ffffffffffffffffffffffffffffffffffffffff19166001600160a01b0392909216919091179055565b600260015414156110595760405162461bcd60e51b815260206004820152601f60248201527f5265656e7472616e637947756172643a207265656e7472616e742063616c6c0060448201526064016104f2565b600260018190555460ff16158061107a57506000546001600160a01b031633145b6110b65760405162461bcd60e51b815260206004820152600d60248201526c16985c081a5cc81c185d5cd959609a1b60448201526064016104f2565b6001600160a01b038116158015906110d757506001600160a01b0381163014155b6111175760405162461bcd60e51b8152602060048201526011602482015270125b9d985b1a59081c9958da5c1a595b9d607a1b60448201526064016104f2565b600034116111675760405162461bcd60e51b815260206004820152600e60248201527f496e76616c696420616d6f756e7400000000000000000000000000000000000060448201526064016104f2565b60006111758a8a8a8a611d39565b9150507f00000000000000000000000000000000000000000000000000000000000000006001600160a01b031663d0e30db0346040518263ffffffff1660e01b81526004016000604051808303818588803b1580156111d357600080fd5b505af11580156111e7573d6000803e3d6000fd5b505050505060006111f78c611678565b905060006112277f00000000000000000000000000000000000000000000000000000000000000008388886117ff565b90506112ec8d8d8d80806020026020016040519081016040528093929190818152602001838360200280828437600081840152601f19601f820116905080830192505050505050508c8c80806020026020016040519081016040528093929190818152602001838360200280828437600081840152601f19601f820116905080830192505050505050508b8b808060200260200160405190810160405280939291908181526020018383602002808284376000920191909152508b92506123f2915050565b5060408051848152602081018390526001600160a01b0386168183015290517f7af2bc3f8ec800c569b6555feaf16589d96a9d04a49d1645fd456d75fa0b372b9181900360600190a161134133836001611b79565b5050600180555050505050505050505050565b600260015414156113a75760405162461bcd60e51b815260206004820152601f60248201527f5265656e7472616e637947756172643a207265656e7472616e742063616c6c0060448201526064016104f2565b600260018190555460ff1615806113c857506000546001600160a01b031633145b6114045760405162461bcd60e51b815260206004820152600d60248201526c16985c081a5cc81c185d5cd959609a1b60448201526064016104f2565b6001600160a01b0381161580159061142557506001600160a01b0381163014155b6114655760405162461bcd60e51b8152602060048201526011602482015270125b9d985b1a59081c9958da5c1a595b9d607a1b60448201526064016104f2565b856114a25760405162461bcd60e51b815260206004820152600d60248201526c4d7573742073656e642049447360981b60448201526064016104f2565b600034116114f25760405162461bcd60e51b815260206004820152600e60248201527f496e76616c696420616d6f756e7400000000000000000000000000000000000060448201526064016104f2565b7f00000000000000000000000000000000000000000000000000000000000000006001600160a01b031663d0e30db0346040518263ffffffff1660e01b81526004016000604051808303818588803b15801561154d57600080fd5b505af1158015611561573d6000803e3d6000fd5b5050505050600061157189611678565b905060006115a17f00000000000000000000000000000000000000000000000000000000000000008387876117ff565b90506116138a8a8a8080602002602001604051908101604052809392919081815260200183836020028082843760009201919091525050604080516020808e0282810182019093528d82529093508d92508c9182918501908490808284376000920191909152508992506125d1915050565b5060408051898152602081018390526001600160a01b0385168183015290517f7af2bc3f8ec800c569b6555feaf16589d96a9d04a49d1645fd456d75fa0b372b9181900360600190a161166833836001611b79565b5050600180555050505050505050565b6000818152600360205260408120546001600160a01b031661177f576040517f81a36fb6000000000000000000000000000000000000000000000000000000008152600481018390527f00000000000000000000000000000000000000000000000000000000000000006001600160a01b0316906381a36fb69060240160206040518083038186803b15801561170d57600080fd5b505afa158015611721573d6000803e3d6000fd5b505050506040513d601f19601f820116820180604052508101906117459190612eaf565b6000838152600360205260409020805473ffffffffffffffffffffffffffffffffffffffff19166001600160a01b03929092169190911790555b6000828152600360205260409020546001600160a01b03166117e35760405162461bcd60e51b815260206004820152601460248201527f5661756c7420646f6573206e6f7420657869737400000000000000000000000060448201526064016104f2565b506000908152600360205260409020546001600160a01b031690565b6040516370a0823160e01b815230600482015260009081906001600160a01b038616906370a082319060240160206040518083038186803b15801561184357600080fd5b505afa158015611857573d6000803e3d6000fd5b505050506040513d601f19601f8201168201806040525081019061187b9190613151565b6040517f095ea7b30000000000000000000000000000000000000000000000000000000081526001600160a01b037f00000000000000000000000000000000000000000000000000000000000000008116600483015260001960248301529192509087169063095ea7b390604401602060405180830381600087803b15801561190357600080fd5b505af1158015611917573d6000803e3d6000fd5b505050506040513d601f19601f8201168201806040525081019061193b91906130f5565b6119875760405162461bcd60e51b815260206004820152601a60248201527f556e61626c6520746f20617070726f766520636f6e747261637400000000000060448201526064016104f2565b60007f00000000000000000000000000000000000000000000000000000000000000006001600160a01b031685856040516119c392919061344c565b6000604051808303816000865af19150503d8060008114611a00576040519150601f19603f3d011682016040523d82523d6000602084013e611a05565b606091505b5050905080611a565760405162461bcd60e51b815260206004820152601060248201527f535741505f43414c4c5f4641494c45440000000000000000000000000000000060448201526064016104f2565b6040516370a0823160e01b815230600482015282906001600160a01b038816906370a082319060240160206040518083038186803b158015611a9757600080fd5b505afa158015611aab573d6000803e3d6000fd5b505050506040513d601f19601f82011682018060405250810190611acf9190613151565b611ad9919061362b565b979650505050505050565b611aed84611678565b6001600160a01b0316639d54def68484846040518463ffffffff1660e01b8152600401611b1c93929190613585565b600060405180830381600087803b158015611b3657600080fd5b505af1158015611b4a573d6000803e3d6000fd5b505050506040513d6000823e601f3d908101601f19168201604052611b729190810190613046565b5050505050565b60008115611b8d57611b8a84612061565b90505b6040516370a0823160e01b81523060048201526000906001600160a01b038516906370a082319060240160206040518083038186803b158015611bcf57600080fd5b505afa158015611be3573d6000803e3d6000fd5b505050506040513d601f19601f82011682018060405250810190611c079190613151565b90508015611c935760405163a9059cbb60e01b81526001600160a01b0386811660048301526024820183905285169063a9059cbb90604401602060405180830381600087803b158015611c5957600080fd5b505af1158015611c6d573d6000803e3d6000fd5b505050506040513d601f19601f82011682018060405250810190611c9191906130f5565b505b60408051838152602081018390526001600160a01b0387168183015290517fd9b066a634638844b3b4701f7bfb9d8791265979e46666f7d7bc04cf4c06c9709181900360600190a15050505050565b604080516001600160a01b038416602482015260448082018490528251808303909101815260649091019091526020810180516001600160e01b031663a9059cbb60e01b179052611d34908490612771565b505050565b82600081611d795760405162461bcd60e51b815260206004820152600d60248201526c4d7573742073656e642049447360981b60448201526064016104f2565b82821115611dc95760405162461bcd60e51b815260206004820152601f60248201527f4d75737420646566696e6520616d6f756e747320616761696e7374204944730060448201526064016104f2565b60005b82811015611e80576000858583818110611df657634e487b7160e01b600052603260045260246000fd5b9050602002013511611e4a5760405162461bcd60e51b815260206004820152601360248201527f496e76616c6964203131353520616d6f756e740000000000000000000000000060448201526064016104f2565b848482818110611e6a57634e487b7160e01b600052603260045260246000fd5b9050602002013582019150806001019050611dcc565b5094509492505050565b600080611e9685611678565b90506000816001600160a01b0316631ba46cfd6040518163ffffffff1660e01b815260040160206040518083038186803b158015611ed357600080fd5b505afa158015611ee7573d6000803e3d6000fd5b505050506040513d601f19601f82011682018060405250810190611f0b9190612eaf565b604051631759616b60e11b81529091506001600160a01b03821690632eb2c2d690611f4090339030908a908a90600401613478565b600060405180830381600087803b158015611f5a57600080fd5b505af1158015611f6e573d6000803e3d6000fd5b505060405163a22cb46560e01b81526001600160a01b038581166004830152600160248301528416925063a22cb4659150604401600060405180830381600087803b158015611fbc57600080fd5b505af1158015611fd0573d6000803e3d6000fd5b5050604051630f57464360e21b81526001600160a01b0385169250633d5d190c915061200290889088906004016134d0565b602060405180830381600087803b15801561201c57600080fd5b505af1158015612030573d6000803e3d6000fd5b505050506040513d601f19601f820116820180604052508101906120549190613151565b50909150505b9392505050565b6040516370a0823160e01b81523060048201526000907f00000000000000000000000000000000000000000000000000000000000000006001600160a01b0316906370a082319060240160206040518083038186803b1580156120c357600080fd5b505afa1580156120d7573d6000803e3d6000fd5b505050506040513d601f19601f820116820180604052508101906120fb9190613151565b9050801561223b576040517f2e1a7d4d000000000000000000000000000000000000000000000000000000008152600481018290527f00000000000000000000000000000000000000000000000000000000000000006001600160a01b031690632e1a7d4d90602401600060405180830381600087803b15801561217e57600080fd5b505af1158015612192573d6000803e3d6000fd5b505050506000826001600160a01b03168260405160006040518083038185875af1925050503d80600081146121e3576040519150601f19603f3d011682016040523d82523d6000602084013e6121e8565b606091505b50509050806122395760405162461bcd60e51b815260206004820152601d60248201527f556e61626c6520746f2073656e6420756e77726170706564205745544800000060448201526064016104f2565b505b919050565b60008061224c84611678565b90506000816001600160a01b0316631ba46cfd6040518163ffffffff1660e01b815260040160206040518083038186803b15801561228957600080fd5b505afa15801561229d573d6000803e3d6000fd5b505050506040513d601f19601f820116820180604052508101906122c19190612eaf565b845190915060005b8181101561236257612303838783815181106122f557634e487b7160e01b600052603260045260246000fd5b602002602001015186612856565b6001600160a01b03831673b47e3cd837ddf8e4c57f05d70ab865de6e193bbb141561235a5761235a8387838151811061234c57634e487b7160e01b600052603260045260246000fd5b602002602001015186612b01565b6001016122c9565b50604051630f57464360e21b81526060906001600160a01b03851690633d5d190c9061239490899085906004016134d0565b602060405180830381600087803b1580156123ae57600080fd5b505af11580156123c2573d6000803e3d6000fd5b505050506040513d601f19601f820116820180604052508101906123e69190613151565b50929695505050505050565b6000806123fe87611678565b90506000816001600160a01b0316631ba46cfd6040518163ffffffff1660e01b815260040160206040518083038186803b15801561243b57600080fd5b505afa15801561244f573d6000803e3d6000fd5b505050506040513d601f19601f820116820180604052508101906124739190612eaf565b604051631759616b60e11b81529091506001600160a01b03821690632eb2c2d6906124a890339030908c908c90600401613478565b600060405180830381600087803b1580156124c257600080fd5b505af11580156124d6573d6000803e3d6000fd5b505060405163a22cb46560e01b81526001600160a01b038581166004830152600160248301528416925063a22cb4659150604401600060405180830381600087803b15801561252457600080fd5b505af1158015612538573d6000803e3d6000fd5b5050604051632321420560e21b81526001600160a01b0385169250638c850814915061256e908a908a908a908a906004016134fe565b600060405180830381600087803b15801561258857600080fd5b505af115801561259c573d6000803e3d6000fd5b505050506040513d6000823e601f3d908101601f191682016040526125c49190810190613046565b5090979650505050505050565b6000806125dd86611678565b90506000816001600160a01b0316631ba46cfd6040518163ffffffff1660e01b815260040160206040518083038186803b15801561261a57600080fd5b505afa15801561262e573d6000803e3d6000fd5b505050506040513d601f19601f820116820180604052508101906126529190612eaf565b865190915060005b818110156126d757612686838983815181106122f557634e487b7160e01b600052603260045260246000fd5b6001600160a01b03831673b47e3cd837ddf8e4c57f05d70ab865de6e193bbb14156126cf576126cf8389838151811061234c57634e487b7160e01b600052603260045260246000fd5b60010161265a565b50604051632321420560e21b81526060906001600160a01b03851690638c8508149061270d908b9085908c908c906004016134fe565b600060405180830381600087803b15801561272757600080fd5b505af115801561273b573d6000803e3d6000fd5b505050506040513d6000823e601f3d908101601f191682016040526127639190810190613046565b509298975050505050505050565b60006127c6826040518060400160405280602081526020017f5361666545524332303a206c6f772d6c6576656c2063616c6c206661696c6564815250856001600160a01b0316612bb29092919063ffffffff16565b805190915015611d3457808060200190518101906127e491906130f5565b611d345760405162461bcd60e51b815260206004820152602a60248201527f5361666545524332303a204552433230206f7065726174696f6e20646964206e60448201527f6f7420737563636565640000000000000000000000000000000000000000000060648201526084016104f2565b60606001600160a01b03841673b47e3cd837ddf8e4c57f05d70ab865de6e193bbb1415612a0e5760008360405160240161289291815260200190565b60408051601f198184030181529181526020820180516001600160e01b03167f58178168000000000000000000000000000000000000000000000000000000001790525190915060009081906001600160a01b038816906128f490859061345c565b600060405180830381855afa9150503d806000811461292f576040519150601f19603f3d011682016040523d82523d6000602084013e612934565b606091505b509150915060008180602001905181019061294f9190612eaf565b905082801561296657506001600160a01b03811633145b6129b25760405162461bcd60e51b815260206004820152601160248201527f4e6f7420746865204e4654206f776e657200000000000000000000000000000060448201526064016104f2565b6040516024810188905260440160408051601f198184030181529190526020810180516001600160e01b03167f8264fe98000000000000000000000000000000000000000000000000000000001790529450612a769350505050565b6040513360248201526001600160a01b03831660448201526064810184905260840160408051601f198184030181529190526020810180516001600160e01b03167f42842e0e0000000000000000000000000000000000000000000000000000000017905290505b600080856001600160a01b031683604051612a91919061345c565b6000604051808303816000865af19150503d8060008114612ace576040519150601f19603f3d011682016040523d82523d6000602084013e612ad3565b606091505b5091509150818190612af85760405162461bcd60e51b81526004016104f29190613552565b50505050505050565b6001600160a01b03831673b47e3cd837ddf8e4c57f05d70ab865de6e193bbb14612b2a57505050565b604051602481018390526000604482018190526001600160a01b03831660648301529060840160408051601f198184030181529181526020820180516001600160e01b03167fbf31196f000000000000000000000000000000000000000000000000000000001790525190915060009081906001600160a01b03871690612a9190859061345c565b6060612bc18484600085612bc9565b949350505050565b606082471015612c415760405162461bcd60e51b815260206004820152602660248201527f416464726573733a20696e73756666696369656e742062616c616e636520666f60448201527f722063616c6c000000000000000000000000000000000000000000000000000060648201526084016104f2565b843b612c8f5760405162461bcd60e51b815260206004820152601d60248201527f416464726573733a2063616c6c20746f206e6f6e2d636f6e747261637400000060448201526064016104f2565b600080866001600160a01b03168587604051612cab919061345c565b60006040518083038185875af1925050503d8060008114612ce8576040519150601f19603f3d011682016040523d82523d6000602084013e612ced565b606091505b5091509150611ad982828660608315612d0757508161205a565b825115612d175782518084602001fd5b8160405162461bcd60e51b81526004016104f29190613552565b803561223b8161369e565b60008083601f840112612d4d578182fd5b50813567ffffffffffffffff811115612d64578182fd5b6020830191508360208260051b8501011115612d7f57600080fd5b9250929050565b600082601f830112612d96578081fd5b81356020612dab612da6836135e8565b6135b7565b80838252828201915082860187848660051b8901011115612dca578586fd5b855b858110156125c457813584529284019290840190600101612dcc565b60008083601f840112612df9578182fd5b50813567ffffffffffffffff811115612e10578182fd5b602083019150836020828501011115612d7f57600080fd5b600082601f830112612e38578081fd5b813567ffffffffffffffff811115612e5257612e52613688565b612e65601f8201601f19166020016135b7565b818152846020838601011115612e79578283fd5b816020850160208301379081016020019190915292915050565b600060208284031215612ea4578081fd5b813561205a8161369e565b600060208284031215612ec0578081fd5b815161205a8161369e565b600080600080600060a08688031215612ee2578081fd5b8535612eed8161369e565b94506020860135612efd8161369e565b9350604086013567ffffffffffffffff80821115612f19578283fd5b612f2589838a01612d86565b94506060880135915080821115612f3a578283fd5b612f4689838a01612d86565b93506080880135915080821115612f5b578283fd5b50612f6888828901612e28565b9150509295509295909350565b60008060008060808587031215612f8a578384fd5b8435612f958161369e565b93506020850135612fa58161369e565b925060408501359150606085013567ffffffffffffffff811115612fc7578182fd5b612fd387828801612e28565b91505092959194509250565b600080600080600060a08688031215612ff6578081fd5b85356130018161369e565b945060208601356130118161369e565b93506040860135925060608601359150608086013567ffffffffffffffff81111561303a578182fd5b612f6888828901612e28565b60006020808385031215613058578182fd5b825167ffffffffffffffff81111561306e578283fd5b8301601f8101851361307e578283fd5b805161308c612da6826135e8565b80828252848201915084840188868560051b87010111156130ab578687fd5b8694505b838510156130cd5780518352600194909401939185019185016130af565b50979650505050505050565b6000602082840312156130ea578081fd5b813561205a816136b3565b600060208284031215613106578081fd5b815161205a816136b3565b600060208284031215613122578081fd5b81356001600160e01b03198116811461205a578182fd5b60006020828403121561314a578081fd5b5035919050565b600060208284031215613162578081fd5b5051919050565b60008060008060008060008060008060c08b8d031215613187578788fd5b8a35995060208b013567ffffffffffffffff808211156131a557898afd5b6131b18e838f01612d3c565b909b50995060408d01359150808211156131c9578687fd5b6131d58e838f01612d3c565b909950975060608d01359150808211156131ed578687fd5b6131f98e838f01612d3c565b909750955060808d0135915080821115613211578485fd5b5061321e8d828e01612de8565b9094509250613231905060a08c01612d31565b90509295989b9194979a5092959850565b60008060008060008060008060a0898b03121561325d578182fd5b88359750602089013567ffffffffffffffff8082111561327b578384fd5b6132878c838d01612d3c565b909950975060408b013591508082111561329f578384fd5b6132ab8c838d01612d3c565b909750955060608b01359150808211156132c3578384fd5b506132d08b828c01612de8565b90945092505060808901356132e48161369e565b809150509295985092959890939650565b6000806000806000806080878903121561330d578384fd5b86359550602087013567ffffffffffffffff8082111561332b578586fd5b6133378a838b01612d3c565b9097509550604089013591508082111561334f578384fd5b5061335c89828a01612de8565b90945092505060608701356133708161369e565b809150509295509295509295565b600080600080600080600060a0888a031215613398578081fd5b8735965060208801359550604088013567ffffffffffffffff808211156133bd578283fd5b6133c98b838c01612d3c565b909750955060608a01359150808211156133e1578283fd5b506133ee8a828b01612de8565b90945092505060808801356134028161369e565b8091505092959891949750929550565b6000815180845260208085019450808401835b8381101561344157815187529582019590820190600101613425565b509495945050505050565b8183823760009101908152919050565b6000825161346e818460208701613642565b9190910192915050565b60006001600160a01b03808716835280861660208401525060a060408301526134a460a0830185613412565b82810360608401526134b68185613412565b838103608090940193909352508152602001949350505050565b6040815260006134e36040830185613412565b82810360208401526134f58185613412565b95945050505050565b6080815260006135116080830187613412565b82810360208401526135238187613412565b905082810360408401526135378186613412565b9150506001600160a01b038316606083015295945050505050565b6020815260008251806020840152613571816040850160208701613642565b601f01601f19169190910160400192915050565b83815260606020820152600061359e6060830185613412565b90506001600160a01b0383166040830152949350505050565b604051601f8201601f1916810167ffffffffffffffff811182821017156135e0576135e0613688565b604052919050565b600067ffffffffffffffff82111561360257613602613688565b5060051b60200190565b600081600019048311821515161561362657613626613672565b500290565b60008282101561363d5761363d613672565b500390565b60005b8381101561365d578181015183820152602001613645565b8381111561366c576000848401525b50505050565b634e487b7160e01b600052601160045260246000fd5b634e487b7160e01b600052604160045260246000fd5b6001600160a01b0381168114610a6757600080fd5b8015158114610a6757600080fdfea2646970667358221220f0b4761ca7ef8713658f1d0ef8284d96e23551c01a4200f7f068bfe4adcdb76b64736f6c63430008040033",
  "devdoc": {
    "author": "Twade",
    "events": {
      "Buy(uint256,uint256,address)": {
        "params": {
          "count": "The number of tokens affected by the event",
          "ethSpent": "The amount of ETH spent in the buy",
          "to": "The user affected by the event"
        }
      },
      "DustReturned(uint256,uint256,address)": {
        "params": {
          "ethAmount": "Amount of ETH returned to user",
          "to": "The user affected by the event",
          "vTokenAmount": "Amount of vToken returned to user"
        }
      },
      "Sell(uint256,uint256,address)": {
        "params": {
          "count": "The number of tokens affected by the event",
          "ethReceived": "The amount of ETH received in the sell",
          "to": "The user affected by the event"
        }
      },
      "Swap(uint256,uint256,address)": {
        "params": {
          "count": "The number of tokens affected by the event",
          "ethSpent": "The amount of ETH spent in the swap",
          "to": "The user affected by the event"
        }
      }
    },
    "kind": "dev",
    "methods": {
      "buyAndRedeem(uint256,uint256,uint256[],bytes,address)": {
        "params": {
          "amount": "The number of tokens to buy",
          "specificIds": "An array of any specific token IDs to be minted",
          "swapCallData": "The `data` field from the API response",
          "to": "The recipient of the token IDs from the tx",
          "vaultId": "The ID of the NFTX vault"
        }
      },
      "buyAndSwap1155(uint256,uint256[],uint256[],uint256[],bytes,address)": {
        "params": {
          "idsIn": "An array of random token IDs to be minted",
          "specificIds": "An array of any specific token IDs to be minted",
          "swapCallData": "The `data` field from the API response",
          "to": "The recipient of ETH from the tx",
          "vaultId": "The ID of the NFTX vault"
        }
      },
      "buyAndSwap721(uint256,uint256[],uint256[],bytes,address)": {
        "params": {
          "idsIn": "An array of random token IDs to be minted",
          "specificIds": "An array of any specific token IDs to be minted",
          "swapCallData": "The `data` field from the API response",
          "to": "The recipient of the token IDs from the tx",
          "vaultId": "The ID of the NFTX vault"
        }
      },
      "constructor": {
        "params": {
          "_WETH": "WETH contract address",
          "_nftxFactory": "NFTX Vault Factory contract address",
          "_swapTarget": "The swap target specified by the 0x protocol"
        }
      },
      "mintAndSell1155(uint256,uint256[],uint256[],bytes,address)": {
        "params": {
          "amounts": "The number of the corresponding ID to be minted",
          "ids": "An array of token IDs to be minted",
          "swapCallData": "The `data` field from the API response",
          "to": "The recipient of ETH from the tx",
          "vaultId": "The ID of the NFTX vault"
        }
      },
      "mintAndSell721(uint256,uint256[],bytes,address)": {
        "params": {
          "ids": "An array of token IDs to be minted",
          "swapCallData": "The `data` field from the API response",
          "to": "The recipient of ETH from the tx",
          "vaultId": "The ID of the NFTX vault"
        }
      },
      "onERC721Received(address,address,uint256,bytes)": {
        "details": "See {IERC721Receiver-onERC721Received}. Always returns `IERC721Receiver.onERC721Received.selector`."
      },
      "owner()": {
        "details": "Returns the address of the current owner."
      },
      "pause(bool)": {
        "params": {
          "_paused": "New pause state"
        }
      },
      "renounceOwnership()": {
        "details": "Leaves the contract without owner. It will not be possible to call `onlyOwner` functions anymore. Can only be called by the current owner. NOTE: Renouncing ownership will leave the contract without an owner, thereby removing any functionality that is only available to the owner."
      },
      "rescue(address)": {
        "params": {
          "token": "The address of the token to be rescued"
        }
      },
      "supportsInterface(bytes4)": {
        "details": "See {IERC165-supportsInterface}."
      },
      "transferOwnership(address)": {
        "details": "Transfers ownership of the contract to a new account (`newOwner`). Can only be called by the current owner."
      }
    },
    "version": 1
  },
  "userdoc": {
    "events": {
      "Buy(uint256,uint256,address)": {
        "notice": "Emitted by the `buyAndRedeem` function."
      },
      "DustReturned(uint256,uint256,address)": {
        "notice": "Emitted when dust is returned after a transaction."
      },
      "Sell(uint256,uint256,address)": {
        "notice": "Emitted by the `mintAndSell` functions."
      },
      "Swap(uint256,uint256,address)": {
        "notice": "Emitted by the `buyAndSwap` functions."
      }
    },
    "kind": "user",
    "methods": {
      "WETH()": {
        "notice": "An interface for the WETH contract"
      },
      "buyAndRedeem(uint256,uint256,uint256[],bytes,address)": {
        "notice": "Purchases vault tokens from 0x with WETH and then redeems the tokens for either random or specific token IDs from the vault. The specified recipient will receive the ERC721 tokens, as well as any WETH dust that is left over from the tx. "
      },
      "buyAndSwap1155(uint256,uint256[],uint256[],uint256[],bytes,address)": {
        "notice": "Purchases vault tokens from 0x with WETH and then swaps the tokens for either random or specific token IDs from the vault. The specified recipient will receive the ERC721 tokens, as well as any WETH dust that is left over from the tx. "
      },
      "buyAndSwap721(uint256,uint256[],uint256[],bytes,address)": {
        "notice": "Purchases vault tokens from 0x with WETH and then swaps the tokens for either random or specific token IDs from the vault. The specified recipient will receive the ERC721 tokens, as well as any WETH dust that is left over from the tx. "
      },
      "constructor": {
        "notice": "Initialises our zap by setting contract addresses onto their respective interfaces. "
      },
      "mintAndSell1155(uint256,uint256[],uint256[],bytes,address)": {
        "notice": "Mints tokens from our NFTX vault and sells them on 0x. "
      },
      "mintAndSell721(uint256,uint256[],bytes,address)": {
        "notice": "Mints tokens from our NFTX vault and sells them on 0x. "
      },
      "nftxFactory()": {
        "notice": "An interface for the NFTX Vault Factory contract"
      },
      "nftxVaultAddresses(uint256)": {
        "notice": "A mapping of NFTX Vault IDs to their address corresponding vault contract address"
      },
      "pause(bool)": {
        "notice": "Allows our zap to be paused to prevent any processing. "
      },
      "paused()": {
        "notice": "Allows zap to be paused"
      },
      "rescue(address)": {
        "notice": "Allows our owner to withdraw and tokens in the contract. "
      }
    },
    "notice": "Sets up a marketplace zap to interact with the 0x protocol. The 0x contract that is hit later on handles the token conversion based on parameters that are sent from the frontend. ",
    "version": 1
  },
  "storageLayout": {
    "storage": [
      {
        "astId": 21769,
        "contract": "contracts/solidity/NFTXMarketplace0xZap.sol:NFTXMarketplace0xZap",
        "label": "_owner",
        "offset": 0,
        "slot": "0",
        "type": "t_address"
      },
      {
        "astId": 22132,
        "contract": "contracts/solidity/NFTXMarketplace0xZap.sol:NFTXMarketplace0xZap",
        "label": "_status",
        "offset": 0,
        "slot": "1",
        "type": "t_uint256"
      },
      {
        "astId": 2784,
        "contract": "contracts/solidity/NFTXMarketplace0xZap.sol:NFTXMarketplace0xZap",
        "label": "paused",
        "offset": 0,
        "slot": "2",
        "type": "t_bool"
      },
      {
        "astId": 2800,
        "contract": "contracts/solidity/NFTXMarketplace0xZap.sol:NFTXMarketplace0xZap",
        "label": "nftxVaultAddresses",
        "offset": 0,
        "slot": "3",
        "type": "t_mapping(t_uint256,t_address)"
      }
    ],
    "types": {
      "t_address": {
        "encoding": "inplace",
        "label": "address",
        "numberOfBytes": "20"
      },
      "t_bool": {
        "encoding": "inplace",
        "label": "bool",
        "numberOfBytes": "1"
      },
      "t_mapping(t_uint256,t_address)": {
        "encoding": "mapping",
        "key": "t_uint256",
        "label": "mapping(uint256 => address)",
        "numberOfBytes": "32",
        "value": "t_address"
      },
      "t_uint256": {
        "encoding": "inplace",
        "label": "uint256",
        "numberOfBytes": "32"
      }
    }
  }
}