{
  "address": "0x8B9D81fF1845375379865c0997bcFf538513Eae1",
  "abi": [
    {
      "anonymous": false,
      "inputs": [
        {
          "indexed": false,
          "internalType": "uint256",
          "name": "vaultId",
          "type": "uint256"
        },
        {
          "indexed": false,
          "internalType": "uint256",
          "name": "xTokensUnstaked",
          "type": "uint256"
        },
        {
          "indexed": false,
          "internalType": "uint256",
          "name": "numNftsRedeemed",
          "type": "uint256"
        },
        {
          "indexed": false,
          "internalType": "address",
          "name": "unstaker",
          "type": "address"
        }
      ],
      "name": "InventoryUnstaked",
      "type": "event"
    },
    {
      "anonymous": false,
      "inputs": [
        {
          "indexed": true,
          "internalType": "address",
          "name": "previousOwner",
          "type": "address"
        },
        {
          "indexed": true,
          "internalType": "address",
          "name": "newOwner",
          "type": "address"
        }
      ],
      "name": "OwnershipTransferred",
      "type": "event"
    },
    {
      "inputs": [],
      "name": "inventoryStaking",
      "outputs": [
        {
          "internalType": "contract NFTXInventoryStaking",
          "name": "",
          "type": "address"
        }
      ],
      "stateMutability": "view",
      "type": "function"
    },
    {
      "inputs": [
        {
          "internalType": "uint256",
          "name": "vaultId",
          "type": "uint256"
        },
        {
          "internalType": "address",
          "name": "staker",
          "type": "address"
        },
        {
          "internalType": "address",
          "name": "slpToken",
          "type": "address"
        }
      ],
      "name": "maxNftsUsingXToken",
      "outputs": [
        {
          "internalType": "uint256",
          "name": "numNfts",
          "type": "uint256"
        },
        {
          "internalType": "bool",
          "name": "shortByTinyAmount",
          "type": "bool"
        }
      ],
      "stateMutability": "view",
      "type": "function"
    },
    {
      "inputs": [],
      "name": "owner",
      "outputs": [
        {
          "internalType": "address",
          "name": "",
          "type": "address"
        }
      ],
      "stateMutability": "view",
      "type": "function"
    },
    {
      "inputs": [],
      "name": "renounceOwnership",
      "outputs": [],
      "stateMutability": "nonpayable",
      "type": "function"
    },
    {
      "inputs": [
        {
          "internalType": "address",
          "name": "token",
          "type": "address"
        }
      ],
      "name": "rescue",
      "outputs": [],
      "stateMutability": "nonpayable",
      "type": "function"
    },
    {
      "inputs": [
        {
          "internalType": "address",
          "name": "addr",
          "type": "address"
        }
      ],
      "name": "setInventoryStaking",
      "outputs": [],
      "stateMutability": "nonpayable",
      "type": "function"
    },
    {
      "inputs": [
        {
          "internalType": "address",
          "name": "sushiRouterAddr",
          "type": "address"
        }
      ],
      "name": "setSushiRouterAndWeth",
      "outputs": [],
      "stateMutability": "nonpayable",
      "type": "function"
    },
    {
      "inputs": [
        {
          "internalType": "address",
          "name": "addr",
          "type": "address"
        }
      ],
      "name": "setVaultFactory",
      "outputs": [],
      "stateMutability": "nonpayable",
      "type": "function"
    },
    {
      "inputs": [],
      "name": "sushiRouter",
      "outputs": [
        {
          "internalType": "contract IUniswapV2Router01",
          "name": "",
          "type": "address"
        }
      ],
      "stateMutability": "view",
      "type": "function"
    },
    {
      "inputs": [
        {
          "internalType": "address",
          "name": "newOwner",
          "type": "address"
        }
      ],
      "name": "transferOwnership",
      "outputs": [],
      "stateMutability": "nonpayable",
      "type": "function"
    },
    {
      "inputs": [
        {
          "internalType": "uint256",
          "name": "vaultId",
          "type": "uint256"
        },
        {
          "internalType": "uint256",
          "name": "numNfts",
          "type": "uint256"
        },
        {
          "internalType": "uint256",
          "name": "remainingPortionToUnstake",
          "type": "uint256"
        }
      ],
      "name": "unstakeInventory",
      "outputs": [],
      "stateMutability": "payable",
      "type": "function"
    },
    {
      "inputs": [],
      "name": "vaultFactory",
      "outputs": [
        {
          "internalType": "contract INFTXVaultFactory",
          "name": "",
          "type": "address"
        }
      ],
      "stateMutability": "view",
      "type": "function"
    },
    {
      "inputs": [],
      "name": "weth",
      "outputs": [
        {
          "internalType": "contract IWETH",
          "name": "",
          "type": "address"
        }
      ],
      "stateMutability": "view",
      "type": "function"
    },
    {
      "stateMutability": "payable",
      "type": "receive"
    }
  ],
  "transactionHash": "0x39ce35cf875b171d9fd2bb17a90ef2837aa07420e8b659345e8a1520d982fddf",
  "args": [],
  "numDeployments": 1,
  "solcInputHash": "a24ae59cd553d494e1b38c3e6cff554e",
  "bytecode": "0x608060405234801561001057600080fd5b50600080546001600160a01b031916339081178255604051909182917f8be0079c531659141344cd1fd0a4f28419497f9722a3daafe3b4186f6b6457e0908290a3506001805561226f806100656000396000f3fe6080604052600436106100d65760003560e01c806378caec371161007f578063c0c65a4e11610059578063c0c65a4e14610229578063d8a06f7314610249578063f2fde38b14610269578063fa8afbd91461028957600080fd5b806378caec37146101cb578063839006f2146101eb5780638da5cb5b1461020b57600080fd5b80636d13582c116100b05780636d13582c14610176578063715018a61461019657806374a1b0b0146101ab57600080fd5b80630eb188ae146100e25780633ea7fbdb1461011c5780633fc8cef31461013e57600080fd5b366100dd57005b600080fd5b3480156100ee57600080fd5b506101026100fd366004611fdb565b61029c565b604080519283529015156020830152015b60405180910390f35b34801561012857600080fd5b5061013c610137366004611eab565b610842565b005b34801561014a57600080fd5b5060055461015e906001600160a01b031681565b6040516001600160a01b039091168152602001610113565b34801561018257600080fd5b5060045461015e906001600160a01b031681565b3480156101a257600080fd5b5061013c6108c3565b3480156101b757600080fd5b5060035461015e906001600160a01b031681565b3480156101d757600080fd5b5061013c6101e6366004611eab565b610967565b3480156101f757600080fd5b5061013c610206366004611eab565b610a86565b34801561021757600080fd5b506000546001600160a01b031661015e565b34801561023557600080fd5b5061013c610244366004611eab565b610c41565b34801561025557600080fd5b5060025461015e906001600160a01b031681565b34801561027557600080fd5b5061013c610284366004611eab565b610cbd565b61013c61029736600461201c565b610dee565b6003546040517fc23c6da0000000000000000000000000000000000000000000000000000000008152600481018590526001600160a01b038481166024830152600092839242929091169063c23c6da09060440160206040518083038186803b15801561030857600080fd5b505afa15801561031c573d6000803e3d6000fd5b505050506040513d601f19601f820116820180604052508101906103409190611fc3565b11156103515750600090508061083a565b6002546040516340d1b7db60e11b8152600481018790526000916001600160a01b0316906381a36fb69060240160206040518083038186803b15801561039657600080fd5b505afa1580156103aa573d6000803e3d6000fd5b505050506040513d601f19601f820116820180604052508101906103ce9190611ec7565b60035460405163cda13d6760e01b81526001600160a01b0380841660048301529293506000929091169063cda13d679060240160206040518083038186803b15801561041957600080fd5b505afa15801561042d573d6000803e3d6000fd5b505050506040513d601f19601f820116820180604052508101906104519190611ec7565b6040516370a0823160e01b81526001600160a01b038881166004830152919250839183918891600091908416906370a082319060240160206040518083038186803b15801561049f57600080fd5b505afa1580156104b3573d6000803e3d6000fd5b505050506040513d601f19601f820116820180604052508101906104d79190611fc3565b6003546040516321b1fe6960e11b8152600481018e90529192506000916001600160a01b0390911690634363fcd29060240160206040518083038186803b15801561052157600080fd5b505afa158015610535573d6000803e3d6000fd5b505050506040513d601f19601f820116820180604052508101906105599190611fc3565b90506000670de0b6b3a76400006105708385612196565b61057a9190612176565b90506000670de0b6b3a76400006105918486612196565b61059b9190612176565b6105a690606361215e565b905060006105bc670de0b6b3a764000084612176565b905060006105d2670de0b6b3a764000084612176565b905081811115610824576040516370a0823160e01b81523360048201526063906001600160a01b038b16906370a082319060240160206040518083038186803b15801561061e57600080fd5b505afa158015610632573d6000803e3d6000fd5b505050506040513d601f19601f820116820180604052508101906106569190611fc3565b101580156106e55750604051636eb1769f60e11b81523060048201526001600160a01b038c81166024830152606391908b169063dd62ed3e9060440160206040518083038186803b1580156106aa57600080fd5b505afa1580156106be573d6000803e3d6000fd5b505050506040513d601f19601f820116820180604052508101906106e29190611fc3565b10155b15610700579b5060019a5061083a9950505050505050505050565b612710876001600160a01b03166318160ddd6040518163ffffffff1660e01b815260040160206040518083038186803b15801561073c57600080fd5b505afa158015610750573d6000803e3d6000fd5b505050506040513d601f19601f820116820180604052508101906107749190611fc3565b1061078f579b5060019a5061083a9950505050505050505050565b6040516370a0823160e01b81523060048201526063906001600160a01b038b16906370a082319060240160206040518083038186803b1580156107d157600080fd5b505afa1580156107e5573d6000803e3d6000fd5b505050506040513d601f19601f820116820180604052508101906108099190611fc3565b10610824579b5060019a5061083a9950505050505050505050565b509a506000995061083a98505050505050505050565b935093915050565b6000546001600160a01b031633146108a15760405162461bcd60e51b815260206004820181905260248201527f4f776e61626c653a2063616c6c6572206973206e6f7420746865206f776e657260448201526064015b60405180910390fd5b600280546001600160a01b0319166001600160a01b0392909216919091179055565b6000546001600160a01b0316331461091d5760405162461bcd60e51b815260206004820181905260248201527f4f776e61626c653a2063616c6c6572206973206e6f7420746865206f776e65726044820152606401610898565b600080546040516001600160a01b03909116907f8be0079c531659141344cd1fd0a4f28419497f9722a3daafe3b4186f6b6457e0908390a3600080546001600160a01b0319169055565b6000546001600160a01b031633146109c15760405162461bcd60e51b815260206004820181905260248201527f4f776e61626c653a2063616c6c6572206973206e6f7420746865206f776e65726044820152606401610898565b600480546001600160a01b0319166001600160a01b0383169081178255604080517fad5c46480000000000000000000000000000000000000000000000000000000081529051919263ad5c4648928282019260209290829003018186803b158015610a2b57600080fd5b505afa158015610a3f573d6000803e3d6000fd5b505050506040513d601f19601f82011682018060405250810190610a639190611ec7565b600580546001600160a01b0319166001600160a01b039290921691909117905550565b6000546001600160a01b03163314610ae05760405162461bcd60e51b815260206004820181905260248201527f4f776e61626c653a2063616c6c6572206973206e6f7420746865206f776e65726044820152606401610898565b6001600160a01b038116610bb057604051600090339047908381818185875af1925050503d8060008114610b30576040519150601f19603f3d011682016040523d82523d6000602084013e610b35565b606091505b5050905080610bac5760405162461bcd60e51b815260206004820152603a60248201527f416464726573733a20756e61626c6520746f2073656e642076616c75652c207260448201527f6563697069656e74206d617920686176652072657665727465640000000000006064820152608401610898565b5050565b6040516370a0823160e01b8152306004820152610c3e9033906001600160a01b038416906370a082319060240160206040518083038186803b158015610bf557600080fd5b505afa158015610c09573d6000803e3d6000fd5b505050506040513d601f19601f82011682018060405250810190610c2d9190611fc3565b6001600160a01b0384169190611b30565b50565b6000546001600160a01b03163314610c9b5760405162461bcd60e51b815260206004820181905260248201527f4f776e61626c653a2063616c6c6572206973206e6f7420746865206f776e65726044820152606401610898565b600380546001600160a01b0319166001600160a01b0392909216919091179055565b6000546001600160a01b03163314610d175760405162461bcd60e51b815260206004820181905260248201527f4f776e61626c653a2063616c6c6572206973206e6f7420746865206f776e65726044820152606401610898565b6001600160a01b038116610d935760405162461bcd60e51b815260206004820152602660248201527f4f776e61626c653a206e6577206f776e657220697320746865207a65726f206160448201527f64647265737300000000000000000000000000000000000000000000000000006064820152608401610898565b600080546040516001600160a01b03808516939216917f8be0079c531659141344cd1fd0a4f28419497f9722a3daafe3b4186f6b6457e091a3600080546001600160a01b0319166001600160a01b0392909216919091179055565b670de0b6b3a7640000811115610e0357600080fd5b6002546040516340d1b7db60e11b8152600481018590526000916001600160a01b0316906381a36fb69060240160206040518083038186803b158015610e4857600080fd5b505afa158015610e5c573d6000803e3d6000fd5b505050506040513d601f19601f82011682018060405250810190610e809190611ec7565b60035460405163cda13d6760e01b81526001600160a01b0380841660048301529293506000929091169063cda13d679060240160206040518083038186803b158015610ecb57600080fd5b505afa158015610edf573d6000803e3d6000fd5b505050506040513d601f19601f82011682018060405250810190610f039190611ec7565b905081816000670de0b6b3a7640000861415610f97576040516370a0823160e01b81523360048201526001600160a01b038316906370a082319060240160206040518083038186803b158015610f5857600080fd5b505afa158015610f6c573d6000803e3d6000fd5b505050506040513d601f19601f82011682018060405250810190610f909190611fc3565b905061124c565b6003546040516321b1fe6960e11b8152600481018a90526000916001600160a01b031690634363fcd29060240160206040518083038186803b158015610fdc57600080fd5b505afa158015610ff0573d6000803e3d6000fd5b505050506040513d601f19601f820116820180604052508101906110149190611fc3565b905060008161102b8a670de0b6b3a7640000612196565b61103d90670de0b6b3a7640000612196565b6110479190612176565b905061105b89670de0b6b3a7640000612196565b670de0b6b3a764000061106e8484612196565b6110789190612176565b101561108c5761108960018261215e565b90505b6040516370a0823160e01b815233600482015281906001600160a01b038616906370a082319060240160206040518083038186803b1580156110cd57600080fd5b505afa1580156110e1573d6000803e3d6000fd5b505050506040513d601f19601f820116820180604052508101906111059190611fc3565b1015611189576040516370a0823160e01b81523360048201526001600160a01b038516906370a082319060240160206040518083038186803b15801561114a57600080fd5b505afa15801561115e573d6000803e3d6000fd5b505050506040513d601f19601f820116820180604052508101906111829190611fc3565b9250611249565b8761119657809250611249565b6040516370a0823160e01b815233600482015260009082906001600160a01b038716906370a082319060240160206040518083038186803b1580156111da57600080fd5b505afa1580156111ee573d6000803e3d6000fd5b505050506040513d601f19601f820116820180604052508101906112129190611fc3565b61121c91906121b5565b9050670de0b6b3a76400006112318a83612196565b61123b9190612176565b611245908361215e565b9350505b50505b6112616001600160a01b038316333084611bde565b600354604051636eb1769f60e11b81523060048201526001600160a01b039182166024820152829184169063dd62ed3e9060440160206040518083038186803b1580156112ad57600080fd5b505afa1580156112c1573d6000803e3d6000fd5b505050506040513d601f19601f820116820180604052508101906112e59190611fc3565b10156113745760035460405163095ea7b360e01b81526001600160a01b03918216600482015260001960248201529083169063095ea7b390604401602060405180830381600087803b15801561133a57600080fd5b505af115801561134e573d6000803e3d6000fd5b505050506040513d601f19601f820116820180604052508101906113729190611fa3565b505b6040516370a0823160e01b81523060048201526000906001600160a01b038516906370a082319060240160206040518083038186803b1580156113b657600080fd5b505afa1580156113ca573d6000803e3d6000fd5b505050506040513d601f19601f820116820180604052508101906113ee9190611fc3565b6003546040517f441a3e70000000000000000000000000000000000000000000000000000000008152600481018c9052602481018590529192506001600160a01b03169063441a3e7090604401600060405180830381600087803b15801561145557600080fd5b505af1158015611469573d6000803e3d6000fd5b50505050600088670de0b6b3a76400006114839190612196565b6040516370a0823160e01b815230600482015283906001600160a01b038816906370a082319060240160206040518083038186803b1580156114c457600080fd5b505afa1580156114d8573d6000803e3d6000fd5b505050506040513d601f19601f820116820180604052508101906114fc9190611fc3565b61150691906121b5565b10156115ae576040516370a0823160e01b815230600482015282906001600160a01b038716906370a082319060240160206040518083038186803b15801561154d57600080fd5b505afa158015611561573d6000803e3d6000fd5b505050506040513d601f19601f820116820180604052508101906115859190611fc3565b61158f91906121b5565b6115a18a670de0b6b3a7640000612196565b6115ab91906121b5565b90505b606481106115fe5760405162461bcd60e51b815260206004820152601260248201527f6e6f7420656e6f7567682076546f6b656e7300000000000000000000000000006044820152606401610898565b81811115611868576040516370a0823160e01b815233600482015281906001600160a01b038716906370a082319060240160206040518083038186803b15801561164757600080fd5b505afa15801561165b573d6000803e3d6000fd5b505050506040513d601f19601f8201168201806040525081019061167f9190611fc3565b1015801561170d5750604051636eb1769f60e11b81523060048201526001600160a01b03888116602483015282919087169063dd62ed3e9060440160206040518083038186803b1580156116d257600080fd5b505afa1580156116e6573d6000803e3d6000fd5b505050506040513d601f19601f8201168201806040525081019061170a9190611fc3565b10155b1561172c576117276001600160a01b038616333084611bde565b611868565b604080516002808252606082018352600092602083019080368337505060055482519293506001600160a01b03169183915060009061177b57634e487b7160e01b600052603260045260246000fd5b60200260200101906001600160a01b031690816001600160a01b03168152505087816001815181106117bd57634e487b7160e01b600052603260045260246000fd5b6001600160a01b0392831660209182029290920101526004541663fb3bdb41633b9aca008484306117f04261271061215e565b6040518663ffffffff1660e01b815260040161180f9493929190612096565b6000604051808303818588803b15801561182857600080fd5b505af115801561183c573d6000803e3d6000fd5b50505050506040513d6000823e601f3d908101601f191682016040526118659190810190611ee3565b50505b8815611a375761188089670de0b6b3a7640000612196565b604051636eb1769f60e11b81523060048201526001600160a01b03898116602483015287169063dd62ed3e9060440160206040518083038186803b1580156118c757600080fd5b505afa1580156118db573d6000803e3d6000fd5b505050506040513d601f19601f820116820180604052508101906118ff9190611fc3565b101561198a5760405163095ea7b360e01b81526001600160a01b038881166004830152600019602483015286169063095ea7b390604401602060405180830381600087803b15801561195057600080fd5b505af1158015611964573d6000803e3d6000fd5b505050506040513d601f19601f820116820180604052508101906119889190611fa3565b505b604080516000815260208101918290527f9d54def6000000000000000000000000000000000000000000000000000000009091526001600160a01b03881690639d54def6906119df908c9033602482016120ff565b600060405180830381600087803b1580156119f957600080fd5b505af1158015611a0d573d6000803e3d6000fd5b505050506040513d6000823e601f3d908101601f19168201604052611a359190810190611ee3565b505b6040516370a0823160e01b815230600482015260009083906001600160a01b038816906370a082319060240160206040518083038186803b158015611a7b57600080fd5b505afa158015611a8f573d6000803e3d6000fd5b505050506040513d601f19601f82011682018060405250810190611ab39190611fc3565b611abd91906121b5565b90506064811115611adc57611adc6001600160a01b0387163383611b30565b604080518c8152602081018690529081018b90523360608201527f2d80d681127a38ca715ea60cfd400ccbe674c857d140e3437d0da5dde6152fa39060800160405180910390a15050505050505050505050565b6040516001600160a01b038316602482015260448101829052611bd99084907fa9059cbb00000000000000000000000000000000000000000000000000000000906064015b60408051601f198184030181529190526020810180517bffffffffffffffffffffffffffffffffffffffffffffffffffffffff167fffffffff0000000000000000000000000000000000000000000000000000000090931692909217909152611c35565b505050565b6040516001600160a01b0380851660248301528316604482015260648101829052611c2f9085907f23b872dd0000000000000000000000000000000000000000000000000000000090608401611b75565b50505050565b6000611c8a826040518060400160405280602081526020017f5361666545524332303a206c6f772d6c6576656c2063616c6c206661696c6564815250856001600160a01b0316611d1a9092919063ffffffff16565b805190915015611bd95780806020019051810190611ca89190611fa3565b611bd95760405162461bcd60e51b815260206004820152602a60248201527f5361666545524332303a204552433230206f7065726174696f6e20646964206e60448201527f6f742073756363656564000000000000000000000000000000000000000000006064820152608401610898565b6060611d298484600085611d33565b90505b9392505050565b606082471015611dab5760405162461bcd60e51b815260206004820152602660248201527f416464726573733a20696e73756666696369656e742062616c616e636520666f60448201527f722063616c6c00000000000000000000000000000000000000000000000000006064820152608401610898565b843b611df95760405162461bcd60e51b815260206004820152601d60248201527f416464726573733a2063616c6c20746f206e6f6e2d636f6e74726163740000006044820152606401610898565b600080866001600160a01b03168587604051611e159190612047565b60006040518083038185875af1925050503d8060008114611e52576040519150601f19603f3d011682016040523d82523d6000602084013e611e57565b606091505b5091509150611e67828286611e72565b979650505050505050565b60608315611e81575081611d2c565b825115611e915782518084602001fd5b8160405162461bcd60e51b81526004016108989190612063565b600060208284031215611ebc578081fd5b8135611d2c81612224565b600060208284031215611ed8578081fd5b8151611d2c81612224565b60006020808385031215611ef5578182fd5b825167ffffffffffffffff80821115611f0c578384fd5b818501915085601f830112611f1f578384fd5b815181811115611f3157611f3161220e565b8060051b604051601f19603f83011681018181108582111715611f5657611f5661220e565b604052828152858101935084860182860187018a1015611f74578788fd5b8795505b83861015611f96578051855260019590950194938601938601611f78565b5098975050505050505050565b600060208284031215611fb4578081fd5b81518015158114611d2c578182fd5b600060208284031215611fd4578081fd5b5051919050565b600080600060608486031215611fef578182fd5b83359250602084013561200181612224565b9150604084013561201181612224565b809150509250925092565b600080600060608486031215612030578283fd5b505081359360208301359350604090920135919050565b600082516120598184602087016121cc565b9190910192915050565b60208152600082518060208401526120828160408501602087016121cc565b601f01601f19169190910160400192915050565b600060808201868352602060808185015281875180845260a0860191508289019350845b818110156120df5784516001600160a01b0316835293830193918301916001016120ba565b50506001600160a01b039690961660408501525050506060015292915050565b60006060820185835260206060818501528186518084526080860191508288019350845b8181101561213f57845183529383019391830191600101612123565b50508093505050506001600160a01b0383166040830152949350505050565b60008219821115612171576121716121f8565b500190565b60008261219157634e487b7160e01b81526012600452602481fd5b500490565b60008160001904831182151516156121b0576121b06121f8565b500290565b6000828210156121c7576121c76121f8565b500390565b60005b838110156121e75781810151838201526020016121cf565b83811115611c2f5750506000910152565b634e487b7160e01b600052601160045260246000fd5b634e487b7160e01b600052604160045260246000fd5b6001600160a01b0381168114610c3e57600080fdfea2646970667358221220642cb508840ab4fa0dd12c5844a4b3e4caef3991f661352b5fc271048fae3e2b64736f6c63430008040033",
  "devdoc": {
    "kind": "dev",
    "methods": {
      "owner()": {
        "details": "Returns the address of the current owner."
      },
      "renounceOwnership()": {
        "details": "Leaves the contract without owner. It will not be possible to call `onlyOwner` functions anymore. Can only be called by the current owner. NOTE: Renouncing ownership will leave the contract without an owner, thereby removing any functionality that is only available to the owner."
      },
      "transferOwnership(address)": {
        "details": "Transfers ownership of the contract to a new account (`newOwner`). Can only be called by the current owner."
      }
    },
    "version": 1
  },
  "userdoc": {
    "kind": "user",
    "methods": {},
    "version": 1
  },
  "storageLayout": {
    "storage": [
      {
        "astId": 4467,
        "contract": "contracts/solidity/NFTXUnstakingInventoryZap.sol:NFTXUnstakingInventoryZap",
        "label": "_owner",
        "offset": 0,
        "slot": "0",
        "type": "t_address"
      },
      {
        "astId": 4830,
        "contract": "contracts/solidity/NFTXUnstakingInventoryZap.sol:NFTXUnstakingInventoryZap",
        "label": "_status",
        "offset": 0,
        "slot": "1",
        "type": "t_uint256"
      },
      {
        "astId": 797,
        "contract": "contracts/solidity/NFTXUnstakingInventoryZap.sol:NFTXUnstakingInventoryZap",
        "label": "vaultFactory",
        "offset": 0,
        "slot": "2",
        "type": "t_contract(INFTXVaultFactory)2258"
      },
      {
        "astId": 800,
        "contract": "contracts/solidity/NFTXUnstakingInventoryZap.sol:NFTXUnstakingInventoryZap",
        "label": "inventoryStaking",
        "offset": 0,
        "slot": "3",
        "type": "t_contract(NFTXInventoryStaking)776"
      },
      {
        "astId": 803,
        "contract": "contracts/solidity/NFTXUnstakingInventoryZap.sol:NFTXUnstakingInventoryZap",
        "label": "sushiRouter",
        "offset": 0,
        "slot": "4",
        "type": "t_contract(IUniswapV2Router01)2578"
      },
      {
        "astId": 806,
        "contract": "contracts/solidity/NFTXUnstakingInventoryZap.sol:NFTXUnstakingInventoryZap",
        "label": "weth",
        "offset": 0,
        "slot": "5",
        "type": "t_contract(IWETH)3712"
      }
    ],
    "types": {
      "t_address": {
        "encoding": "inplace",
        "label": "address",
        "numberOfBytes": "20"
      },
      "t_contract(INFTXVaultFactory)2258": {
        "encoding": "inplace",
        "label": "contract INFTXVaultFactory",
        "numberOfBytes": "20"
      },
      "t_contract(IUniswapV2Router01)2578": {
        "encoding": "inplace",
        "label": "contract IUniswapV2Router01",
        "numberOfBytes": "20"
      },
      "t_contract(IWETH)3712": {
        "encoding": "inplace",
        "label": "contract IWETH",
        "numberOfBytes": "20"
      },
      "t_contract(NFTXInventoryStaking)776": {
        "encoding": "inplace",
        "label": "contract NFTXInventoryStaking",
        "numberOfBytes": "20"
      },
      "t_uint256": {
        "encoding": "inplace",
        "label": "uint256",
        "numberOfBytes": "32"
      }
    }
  }
}