{
  "address": "0x21b82F7F904DeaB3765eE4be5d90b2991E6FA667",
  "abi": [
    {
      "anonymous": false,
      "inputs": [
        {
          "indexed": false,
          "internalType": "bytes32",
          "name": "merkleRoot",
          "type": "bytes32"
        },
        {
          "indexed": false,
          "internalType": "string",
          "name": "_merkleReference",
          "type": "string"
        },
        {
          "indexed": false,
          "internalType": "string",
          "name": "_merkleLeavesURI",
          "type": "string"
        }
      ],
      "name": "NFTXEligibilityInit",
      "type": "event"
    },
    {
      "anonymous": false,
      "inputs": [
        {
          "indexed": false,
          "internalType": "uint256",
          "name": "tokenId",
          "type": "uint256"
        },
        {
          "indexed": false,
          "internalType": "bytes32",
          "name": "requestId",
          "type": "bytes32"
        },
        {
          "indexed": false,
          "internalType": "bool",
          "name": "isValid",
          "type": "bool"
        }
      ],
      "name": "PrecursoryCheckComplete",
      "type": "event"
    },
    {
      "anonymous": false,
      "inputs": [
        {
          "indexed": false,
          "internalType": "uint256",
          "name": "tokenId",
          "type": "uint256"
        },
        {
          "indexed": false,
          "internalType": "bytes32",
          "name": "requestId",
          "type": "bytes32"
        }
      ],
      "name": "PrecursoryCheckStarted",
      "type": "event"
    },
    {
      "inputs": [
        {
          "internalType": "bytes32",
          "name": "_merkleRoot",
          "type": "bytes32"
        },
        {
          "internalType": "string",
          "name": "_merkleReference",
          "type": "string"
        },
        {
          "internalType": "string",
          "name": "_merkleLeavesURI",
          "type": "string"
        },
        {
          "internalType": "uint256",
          "name": "_minExpirationTime",
          "type": "uint256"
        }
      ],
      "name": "__NFTXEligibility_init",
      "outputs": [],
      "stateMutability": "nonpayable",
      "type": "function"
    },
    {
      "inputs": [
        {
          "internalType": "bytes32",
          "name": "_merkleRoot",
          "type": "bytes32"
        },
        {
          "internalType": "string",
          "name": "_merkleReference",
          "type": "string"
        },
        {
          "internalType": "string",
          "name": "_merkleLeavesURI",
          "type": "string"
        }
      ],
      "name": "__NFTXEligibility_init",
      "outputs": [],
      "stateMutability": "nonpayable",
      "type": "function"
    },
    {
      "inputs": [
        {
          "internalType": "bytes",
          "name": "configData",
          "type": "bytes"
        }
      ],
      "name": "__NFTXEligibility_init_bytes",
      "outputs": [],
      "stateMutability": "nonpayable",
      "type": "function"
    },
    {
      "inputs": [
        {
          "internalType": "uint256[]",
          "name": "tokenIds",
          "type": "uint256[]"
        }
      ],
      "name": "afterMintHook",
      "outputs": [],
      "stateMutability": "nonpayable",
      "type": "function"
    },
    {
      "inputs": [
        {
          "internalType": "uint256[]",
          "name": "tokenIds",
          "type": "uint256[]"
        }
      ],
      "name": "afterRedeemHook",
      "outputs": [],
      "stateMutability": "nonpayable",
      "type": "function"
    },
    {
      "inputs": [
        {
          "internalType": "uint256[]",
          "name": "tokenIds",
          "type": "uint256[]"
        }
      ],
      "name": "beforeMintHook",
      "outputs": [],
      "stateMutability": "nonpayable",
      "type": "function"
    },
    {
      "inputs": [
        {
          "internalType": "uint256[]",
          "name": "tokenIds",
          "type": "uint256[]"
        }
      ],
      "name": "beforeRedeemHook",
      "outputs": [],
      "stateMutability": "nonpayable",
      "type": "function"
    },
    {
      "inputs": [
        {
          "internalType": "uint256[]",
          "name": "tokenIds",
          "type": "uint256[]"
        }
      ],
      "name": "checkAllEligible",
      "outputs": [
        {
          "internalType": "bool",
          "name": "",
          "type": "bool"
        }
      ],
      "stateMutability": "view",
      "type": "function"
    },
    {
      "inputs": [
        {
          "internalType": "uint256[]",
          "name": "tokenIds",
          "type": "uint256[]"
        }
      ],
      "name": "checkAllIneligible",
      "outputs": [
        {
          "internalType": "bool",
          "name": "",
          "type": "bool"
        }
      ],
      "stateMutability": "view",
      "type": "function"
    },
    {
      "inputs": [
        {
          "internalType": "uint256[]",
          "name": "tokenIds",
          "type": "uint256[]"
        }
      ],
      "name": "checkEligible",
      "outputs": [
        {
          "internalType": "bool[]",
          "name": "",
          "type": "bool[]"
        }
      ],
      "stateMutability": "view",
      "type": "function"
    },
    {
      "inputs": [
        {
          "internalType": "uint256",
          "name": "tokenId",
          "type": "uint256"
        }
      ],
      "name": "checkIsEligible",
      "outputs": [
        {
          "internalType": "bool",
          "name": "",
          "type": "bool"
        }
      ],
      "stateMutability": "view",
      "type": "function"
    },
    {
      "inputs": [],
      "name": "finalized",
      "outputs": [
        {
          "internalType": "bool",
          "name": "",
          "type": "bool"
        }
      ],
      "stateMutability": "view",
      "type": "function"
    },
    {
      "inputs": [],
      "name": "merkleLeavesURI",
      "outputs": [
        {
          "internalType": "string",
          "name": "",
          "type": "string"
        }
      ],
      "stateMutability": "view",
      "type": "function"
    },
    {
      "inputs": [],
      "name": "merkleReference",
      "outputs": [
        {
          "internalType": "string",
          "name": "",
          "type": "string"
        }
      ],
      "stateMutability": "view",
      "type": "function"
    },
    {
      "inputs": [],
      "name": "merkleRoot",
      "outputs": [
        {
          "internalType": "bytes32",
          "name": "",
          "type": "bytes32"
        }
      ],
      "stateMutability": "view",
      "type": "function"
    },
    {
      "inputs": [],
      "name": "minExpirationTime",
      "outputs": [
        {
          "internalType": "uint256",
          "name": "",
          "type": "uint256"
        }
      ],
      "stateMutability": "view",
      "type": "function"
    },
    {
      "inputs": [],
      "name": "name",
      "outputs": [
        {
          "internalType": "string",
          "name": "",
          "type": "string"
        }
      ],
      "stateMutability": "pure",
      "type": "function"
    },
    {
      "inputs": [
        {
          "internalType": "uint256",
          "name": "tokenId",
          "type": "uint256"
        },
        {
          "internalType": "bytes32[]",
          "name": "merkleProof",
          "type": "bytes32[]"
        }
      ],
      "name": "processToken",
      "outputs": [
        {
          "internalType": "bool",
          "name": "isValid",
          "type": "bool"
        }
      ],
      "stateMutability": "nonpayable",
      "type": "function"
    },
    {
      "inputs": [
        {
          "internalType": "uint256[]",
          "name": "tokenIds",
          "type": "uint256[]"
        },
        {
          "internalType": "bytes32[][]",
          "name": "merkleProofs",
          "type": "bytes32[][]"
        }
      ],
      "name": "processTokens",
      "outputs": [
        {
          "internalType": "bool[]",
          "name": "",
          "type": "bool[]"
        }
      ],
      "stateMutability": "nonpayable",
      "type": "function"
    },
    {
      "inputs": [
        {
          "internalType": "uint256",
          "name": "tokenId",
          "type": "uint256"
        },
        {
          "internalType": "bytes32[]",
          "name": "merkleProof",
          "type": "bytes32[]"
        }
      ],
      "name": "requiresProcessing",
      "outputs": [
        {
          "internalType": "bool",
          "name": "",
          "type": "bool"
        }
      ],
      "stateMutability": "view",
      "type": "function"
    },
    {
      "inputs": [],
      "name": "targetAsset",
      "outputs": [
        {
          "internalType": "address",
          "name": "",
          "type": "address"
        }
      ],
      "stateMutability": "pure",
      "type": "function"
    },
    {
      "inputs": [
        {
          "internalType": "bytes32",
          "name": "",
          "type": "bytes32"
        }
      ],
      "name": "validTokenHashes",
      "outputs": [
        {
          "internalType": "bool",
          "name": "",
          "type": "bool"
        }
      ],
      "stateMutability": "view",
      "type": "function"
    }
  ],
  "transactionHash": "0xf27b845f001b4ffe0b6255a9f0aad26e6f8fcf592482e70fbfe03dd23087ab80",
  "args": [],
  "numDeployments": 1,
  "solcInputHash": "a20dbdff6dc45f8d8bc4c474ea40c4ee",
  "bytecode": "0x608060405234801561001057600080fd5b506114e3806100206000396000f3fe608060405234801561001057600080fd5b50600436106101825760003560e01c806383033818116100d8578063b3f05b971161008c578063ca373f2811610066578063ca373f2814610304578063d2a096e814610317578063f3c6ce7a1461032a57600080fd5b8063b3f05b97146102ea578063bd8affde146101f2578063c5fa1375146102f157600080fd5b806390541ed5116100bd57806390541ed5146102a1578063a25a38ed146102b4578063afeaaf4b146102d757600080fd5b8063830338181461026b57806384ca9f851461028e57600080fd5b80633eea06d41161013a5780635e2f9b52116101145780635e2f9b52146101f25780636c47d595146101f25780636cd912601461024b57600080fd5b80633eea06d4146102285780634998b7f3146102305780635b88331e1461024357600080fd5b806331b412d71161016b57806331b412d7146101e957806336eb0862146101f25780633d4403ac1461020657600080fd5b806306fdde03146101875780632eb4a7ab146101d2575b600080fd5b60408051808201909152601481527f454e534d65726b6c65456c69676962696c69747900000000000000000000000060208201525b6040516101c991906112de565b60405180910390f35b6101db60035481565b6040519081526020016101c9565b6101db60065481565b610204610200366004610f4a565b5050565b005b6040517357f1887a8bf19b14fc0df6fd9b2acc9af147ea8581526020016101c9565b6101bc61033d565b61020461023e366004611159565b6103cb565b6101bc6104b5565b61025e610259366004610f4a565b6104c2565b6040516101c99190611263565b61027e6102793660046111b7565b6105a1565b60405190151581526020016101c9565b61027e61029c366004610f4a565b61061b565b6102046102af366004611075565b610677565b61027e6102c2366004610ff3565b60016020526000908152604090205460ff1681565b61025e6102e5366004610f8a565b61073e565b600161027e565b61027e6102ff3660046111b7565b610840565b61027e610312366004610f4a565b61094c565b61027e610325366004610ff3565b61099e565b61020461033836600461100b565b6109a9565b6004805461034a90611401565b80601f016020809104026020016040519081016040528092919081815260200182805461037690611401565b80156103c35780601f10610398576101008083540402835291602001916103c3565b820191906000526020600020905b8154815290600101906020018083116103a657829003601f168201915b505050505081565b600054610100900460ff16806103e4575060005460ff16155b61044c5760405162461bcd60e51b815260206004820152602e60248201527f496e697469616c697a61626c653a20636f6e747261637420697320616c72656160448201526d191e481a5b9a5d1a585b1a5e995960921b60648201526084015b60405180910390fd5b600054610100900460ff1615801561046e576000805461ffff19166101011790555b6000806000808580602001905181019061048891906110e7565b935093509350935061049c84848484610677565b505050508015610200576000805461ff00191690555050565b6005805461034a90611401565b60608160008167ffffffffffffffff8111156104ee57634e487b7160e01b600052604160045260246000fd5b604051908082528060200260200182016040528015610517578160200160208202803683370190505b50905060005b828110156105965761055486868381811061054857634e487b7160e01b600052603260045260246000fd5b90506020020135610ac7565b82828151811061057457634e487b7160e01b600052603260045260246000fd5b911515602092830291909101909101528061058e8161143c565b91505061051d565b509150505b92915050565b6000600260006105b086610b8a565b815260200190815260200160002060006105fc858580806020026020016040519081016040528093929190818152602001838360200280828437600092019190915250610ba392505050565b815260208101919091526040016000205460ff161590505b9392505050565b600081815b8181101561066c5761064b85858381811061054857634e487b7160e01b600052603260045260246000fd5b61065a5760009250505061059b565b806106648161143c565b915050610620565b506001949350505050565b600054610100900460ff1680610690575060005460ff16155b6106f35760405162461bcd60e51b815260206004820152602e60248201527f496e697469616c697a61626c653a20636f6e747261637420697320616c72656160448201526d191e481a5b9a5d1a585b1a5e995960921b6064820152608401610443565b600054610100900460ff16158015610715576000805461ffff19166101011790555b6107208585856109a9565b60068290558015610737576000805461ff00191690555b5050505050565b60608360008167ffffffffffffffff81111561076a57634e487b7160e01b600052604160045260246000fd5b604051908082528060200260200182016040528015610793578160200160208202803683370190505b50905060005b82811015610835576107fd8888838181106107c457634e487b7160e01b600052603260045260246000fd5b905060200201358787848181106107eb57634e487b7160e01b600052603260045260246000fd5b90506020028101906102ff91906112f1565b82828151811061081d57634e487b7160e01b600052603260045260246000fd5b91151560209283029190910190910152600101610799565b509695505050505050565b600061084d8484846105a1565b6108615761085a84610ac7565b9050610614565b600061086c85610b8a565b90506108af848480806020026020016040519081016040528093929190818152602001838360200280828437600092019190915250506003549150849050610bd3565b915081156108d2576000818152600160205260409020805460ff19168315151790555b6001600260008381526020019081526020016000206000610925878780806020026020016040519081016040528093929190818152602001838360200280828437600092019190915250610ba392505050565b81526020810191909152604001600020805460ff1916911515919091179055509392505050565b600081815b8181101561066c5761097c85858381811061054857634e487b7160e01b600052603260045260246000fd5b1561098c5760009250505061059b565b806109968161143c565b915050610951565b600061059b82610ac7565b600054610100900460ff16806109c2575060005460ff16155b610a255760405162461bcd60e51b815260206004820152602e60248201527f496e697469616c697a61626c653a20636f6e747261637420697320616c72656160448201526d191e481a5b9a5d1a585b1a5e995960921b6064820152608401610443565b600054610100900460ff16158015610a47576000805461ffff19166101011790555b60038490558251610a5f906004906020860190610dc7565b508151610a73906005906020850190610dc7565b507feaccdf52e14d5053012b2bacdc83bfc609cca17cd4b8843968b9ab7f41eb6841848484604051610aa7939291906112a9565b60405180910390a18015610ac1576000805461ff00191690555b50505050565b6040517fd6e4fa86000000000000000000000000000000000000000000000000000000008152600481018290526000907357f1887a8bf19b14fc0df6fd9b2acc9af147ea859063d6e4fa869060240160206040518083038186803b158015610b2e57600080fd5b505afa158015610b42573d6000803e3d6000fd5b505050506040513d601f19601f82011682018060405250810190610b66919061119f565b600654610b739042611392565b1115610b8157506000919050565b61059b82610c27565b6000610b9582610c50565b805190602001209050919050565b600081604051602001610bb6919061122d565b604051602081830303815290604052805190602001209050919050565b600081815b8551811015610c1c57610c1282878381518110610c0557634e487b7160e01b600052603260045260246000fd5b6020026020010151610d9b565b9150600101610bd8565b509092149392505050565b600060016000610c3684610b8a565b815260208101919091526040016000205460ff1692915050565b606081610c9057505060408051808201909152600181527f3000000000000000000000000000000000000000000000000000000000000000602082015290565b8160005b8115610caf57600101610ca8600a836113aa565b9150610c94565b60008167ffffffffffffffff811115610cd857634e487b7160e01b600052604160045260246000fd5b6040519080825280601f01601f191660200182016040528015610d02576020820181803683370190505b5090505b8415610d9357610d176001836113be565b9150610d24600a86611457565b610d2f906030611392565b60f81b818381518110610d5257634e487b7160e01b600052603260045260246000fd5b60200101907effffffffffffffffffffffffffffffffffffffffffffffffffffffffffffff1916908160001a905350610d8c600a866113aa565b9450610d06565b949350505050565b6000818310610db7576000828152602084905260409020610614565b5060009182526020526040902090565b828054610dd390611401565b90600052602060002090601f016020900481019282610df55760008555610e3b565b82601f10610e0e57805160ff1916838001178555610e3b565b82800160010185558215610e3b579182015b82811115610e3b578251825591602001919060010190610e20565b50610e47929150610e4b565b5090565b5b80821115610e475760008155600101610e4c565b6000610e73610e6e8461136a565b611339565b9050828152838383011115610e8757600080fd5b828260208301376000602084830101529392505050565b60008083601f840112610eaf578182fd5b50813567ffffffffffffffff811115610ec6578182fd5b6020830191508360208260051b8501011115610ee157600080fd5b9250929050565b600082601f830112610ef8578081fd5b61061483833560208501610e60565b600082601f830112610f17578081fd5b8151610f25610e6e8261136a565b818152846020838601011115610f39578283fd5b610d938260208301602087016113d5565b60008060208385031215610f5c578182fd5b823567ffffffffffffffff811115610f72578283fd5b610f7e85828601610e9e565b90969095509350505050565b60008060008060408587031215610f9f578182fd5b843567ffffffffffffffff80821115610fb6578384fd5b610fc288838901610e9e565b90965094506020870135915080821115610fda578384fd5b50610fe787828801610e9e565b95989497509550505050565b600060208284031215611004578081fd5b5035919050565b60008060006060848603121561101f578283fd5b83359250602084013567ffffffffffffffff8082111561103d578384fd5b61104987838801610ee8565b9350604086013591508082111561105e578283fd5b5061106b86828701610ee8565b9150509250925092565b6000806000806080858703121561108a578384fd5b84359350602085013567ffffffffffffffff808211156110a8578485fd5b6110b488838901610ee8565b945060408701359150808211156110c9578384fd5b506110d687828801610ee8565b949793965093946060013593505050565b600080600080608085870312156110fc578384fd5b84519350602085015167ffffffffffffffff8082111561111a578485fd5b61112688838901610f07565b9450604087015191508082111561113b578384fd5b5061114887828801610f07565b606096909601519497939650505050565b60006020828403121561116a578081fd5b813567ffffffffffffffff811115611180578182fd5b8201601f81018413611190578182fd5b610d9384823560208401610e60565b6000602082840312156111b0578081fd5b5051919050565b6000806000604084860312156111cb578283fd5b83359250602084013567ffffffffffffffff8111156111e8578283fd5b6111f486828701610e9e565b9497909650939450505050565b600081518084526112198160208601602086016113d5565b601f01601f19169290920160200192915050565b815160009082906020808601845b838110156112575781518552938201939082019060010161123b565b50929695505050505050565b6020808252825182820181905260009190848201906040850190845b8181101561129d57835115158352928401929184019160010161127f565b50909695505050505050565b8381526060602082015260006112c26060830185611201565b82810360408401526112d48185611201565b9695505050505050565b6020815260006106146020830184611201565b6000808335601e19843603018112611307578283fd5b83018035915067ffffffffffffffff821115611321578283fd5b6020019150600581901b3603821315610ee157600080fd5b604051601f8201601f1916810167ffffffffffffffff8111828210171561136257611362611497565b604052919050565b600067ffffffffffffffff82111561138457611384611497565b50601f01601f191660200190565b600082198211156113a5576113a561146b565b500190565b6000826113b9576113b9611481565b500490565b6000828210156113d0576113d061146b565b500390565b60005b838110156113f05781810151838201526020016113d8565b83811115610ac15750506000910152565b600181811c9082168061141557607f821691505b6020821081141561143657634e487b7160e01b600052602260045260246000fd5b50919050565b60006000198214156114505761145061146b565b5060010190565b60008261146657611466611481565b500690565b634e487b7160e01b600052601160045260246000fd5b634e487b7160e01b600052601260045260246000fd5b634e487b7160e01b600052604160045260246000fdfea26469706673582212209c62d6952f5684ac8226f1300596147162cb660f7cdf349b308e8073cc7a227a64736f6c63430008040033",
  "devdoc": {
    "author": "Twade ",
    "kind": "dev",
    "methods": {
      "__NFTXEligibility_init(bytes32,string,string)": {
        "params": {
          "_merkleRoot": "The root of our merkle tree"
        }
      },
      "__NFTXEligibility_init(bytes32,string,string,uint256)": {
        "params": {
          "_merkleLeavesURI": "API endpoint providing unencoded JSON array",
          "_merkleReference": "Public name of the merkle eligibility implementation",
          "_merkleRoot": "The root of our merkle tree",
          "_minExpirationTime": "Minimum number of seconds until ENS expiration"
        }
      },
      "__NFTXEligibility_init_bytes(bytes)": {
        "params": {
          "configData": "Encoded config data"
        }
      },
      "finalized()": {
        "returns": {
          "_0": "bool"
        }
      },
      "name()": {
        "returns": {
          "_0": "string"
        }
      },
      "processToken(uint256,bytes32[])": {
        "params": {
          "merkleProof": "Merkle proof to validate against the tokenId",
          "tokenId": "The ENS token ID being validated"
        },
        "returns": {
          "isValid": "If the token is valid"
        }
      },
      "processTokens(uint256[],bytes32[][])": {
        "params": {
          "merkleProofs": "Merkle proofs to validate against the corresponding tokenId",
          "tokenIds": "The ENS token IDs being validated"
        },
        "returns": {
          "_0": "bool[] If the token at the corresponding index is valid"
        }
      },
      "requiresProcessing(uint256,bytes32[])": {
        "details": "If this returns `true`, `processToken` should subsequently be run before checking the eligibility of the token. ",
        "params": {
          "tokenId": "The ENS domain token ID"
        },
        "returns": {
          "_0": "bool If the tokenId requires precursory validation"
        }
      },
      "targetAsset()": {
        "returns": {
          "_0": "address "
        }
      }
    },
    "title": "NFTX ENS Merkle Eligibility",
    "version": 1
  },
  "userdoc": {
    "events": {
      "NFTXEligibilityInit(bytes32,string,string)": {
        "notice": "Emitted when our NFTX Eligibility is deployed"
      },
      "PrecursoryCheckComplete(uint256,bytes32,bool)": {
        "notice": "Emitted when a project validity check has been completed"
      },
      "PrecursoryCheckStarted(uint256,bytes32)": {
        "notice": "Emitted when a project validity check is started"
      }
    },
    "kind": "user",
    "methods": {
      "__NFTXEligibility_init(bytes32,string,string)": {
        "notice": "Parameters here should mirror the config struct. "
      },
      "__NFTXEligibility_init(bytes32,string,string,uint256)": {
        "notice": "Parameters here should mirror the config struct. "
      },
      "__NFTXEligibility_init_bytes(bytes)": {
        "notice": "Allow our eligibility module to be initialised with optional config data. "
      },
      "finalized()": {
        "notice": "Confirms that our module has been finalised and won't change."
      },
      "merkleLeavesURI()": {
        "notice": "URI to JSON list of unencoded token IDs"
      },
      "merkleReference()": {
        "notice": "Merkle reference for any required frontend differentiation"
      },
      "merkleRoot()": {
        "notice": "Merkle proof to validate all eligible domains against"
      },
      "minExpirationTime()": {
        "notice": "Minimum expiration time for ENS domains in seconds"
      },
      "name()": {
        "notice": "The name of our Eligibility Module."
      },
      "processToken(uint256,bytes32[])": {
        "notice": "This will run a precursory check by encoding the token ID, creating the token hash, and then checking this against our merkle tree."
      },
      "processTokens(uint256[],bytes32[][])": {
        "notice": "This will run a number of precursory checks by encoding the token ID, creating the token hash, and then checking this against our merkle tree."
      },
      "requiresProcessing(uint256,bytes32[])": {
        "notice": "Checks if the token requires a precursory validation before it can have it's eligibility determined. "
      },
      "targetAsset()": {
        "notice": "The address of our token asset contract."
      },
      "validTokenHashes(bytes32)": {
        "notice": "Internal storage of valid and processed tokens"
      }
    },
    "notice": "Allows vaults to be allow eligibility based ENS domains, allowing for minimum expiration times to be set.",
    "version": 1
  },
  "storageLayout": {
    "storage": [
      {
        "astId": 17223,
        "contract": "contracts/solidity/eligibility/NFTXENSMerkleEligibility.sol:NFTXENSMerkleEligibility",
        "label": "_initialized",
        "offset": 0,
        "slot": "0",
        "type": "t_bool"
      },
      {
        "astId": 17226,
        "contract": "contracts/solidity/eligibility/NFTXENSMerkleEligibility.sol:NFTXENSMerkleEligibility",
        "label": "_initializing",
        "offset": 1,
        "slot": "0",
        "type": "t_bool"
      },
      {
        "astId": 14139,
        "contract": "contracts/solidity/eligibility/NFTXENSMerkleEligibility.sol:NFTXENSMerkleEligibility",
        "label": "validTokenHashes",
        "offset": 0,
        "slot": "1",
        "type": "t_mapping(t_bytes32,t_bool)"
      },
      {
        "astId": 14145,
        "contract": "contracts/solidity/eligibility/NFTXENSMerkleEligibility.sol:NFTXENSMerkleEligibility",
        "label": "_processedTokenHashes",
        "offset": 0,
        "slot": "2",
        "type": "t_mapping(t_bytes32,t_mapping(t_bytes32,t_bool))"
      },
      {
        "astId": 14148,
        "contract": "contracts/solidity/eligibility/NFTXENSMerkleEligibility.sol:NFTXENSMerkleEligibility",
        "label": "merkleRoot",
        "offset": 0,
        "slot": "3",
        "type": "t_bytes32"
      },
      {
        "astId": 14151,
        "contract": "contracts/solidity/eligibility/NFTXENSMerkleEligibility.sol:NFTXENSMerkleEligibility",
        "label": "merkleReference",
        "offset": 0,
        "slot": "4",
        "type": "t_string_storage"
      },
      {
        "astId": 14154,
        "contract": "contracts/solidity/eligibility/NFTXENSMerkleEligibility.sol:NFTXENSMerkleEligibility",
        "label": "merkleLeavesURI",
        "offset": 0,
        "slot": "5",
        "type": "t_string_storage"
      },
      {
        "astId": 13476,
        "contract": "contracts/solidity/eligibility/NFTXENSMerkleEligibility.sol:NFTXENSMerkleEligibility",
        "label": "minExpirationTime",
        "offset": 0,
        "slot": "6",
        "type": "t_uint256"
      }
    ],
    "types": {
      "t_bool": {
        "encoding": "inplace",
        "label": "bool",
        "numberOfBytes": "1"
      },
      "t_bytes32": {
        "encoding": "inplace",
        "label": "bytes32",
        "numberOfBytes": "32"
      },
      "t_mapping(t_bytes32,t_bool)": {
        "encoding": "mapping",
        "key": "t_bytes32",
        "label": "mapping(bytes32 => bool)",
        "numberOfBytes": "32",
        "value": "t_bool"
      },
      "t_mapping(t_bytes32,t_mapping(t_bytes32,t_bool))": {
        "encoding": "mapping",
        "key": "t_bytes32",
        "label": "mapping(bytes32 => mapping(bytes32 => bool))",
        "numberOfBytes": "32",
        "value": "t_mapping(t_bytes32,t_bool)"
      },
      "t_string_storage": {
        "encoding": "bytes",
        "label": "string",
        "numberOfBytes": "32"
      },
      "t_uint256": {
        "encoding": "inplace",
        "label": "uint256",
        "numberOfBytes": "32"
      }
    }
  }
}