{
  "address": "0xD2066db5F318996D09a7cF3E7e5Cac5A4503cd4D",
  "abi": [
    {
      "inputs": [
        {
          "internalType": "address",
          "name": "_vaultFactory",
          "type": "address"
        },
        {
          "internalType": "address",
          "name": "_inventoryStaking",
          "type": "address"
        },
        {
          "internalType": "address",
          "name": "_lpStaking",
          "type": "address"
        },
        {
          "internalType": "address",
          "name": "_sushiRouter",
          "type": "address"
        },
        {
          "internalType": "address",
          "name": "_sushiHelper",
          "type": "address"
        },
        {
          "internalType": "address",
          "name": "_weth",
          "type": "address"
        }
      ],
      "stateMutability": "nonpayable",
      "type": "constructor"
    },
    {
      "anonymous": false,
      "inputs": [
        {
          "indexed": true,
          "internalType": "address",
          "name": "previousOwner",
          "type": "address"
        },
        {
          "indexed": true,
          "internalType": "address",
          "name": "newOwner",
          "type": "address"
        }
      ],
      "name": "OwnershipTransferred",
      "type": "event"
    },
    {
      "inputs": [],
      "name": "WETH",
      "outputs": [
        {
          "internalType": "contract IWETH",
          "name": "",
          "type": "address"
        }
      ],
      "stateMutability": "view",
      "type": "function"
    },
    {
      "inputs": [
        {
          "components": [
            {
              "internalType": "address",
              "name": "assetAddress",
              "type": "address"
            },
            {
              "internalType": "bool",
              "name": "is1155",
              "type": "bool"
            },
            {
              "internalType": "bool",
              "name": "allowAllItems",
              "type": "bool"
            },
            {
              "internalType": "string",
              "name": "name",
              "type": "string"
            },
            {
              "internalType": "string",
              "name": "symbol",
              "type": "string"
            }
          ],
          "internalType": "struct NFTXVaultCreationZap.vaultInfo",
          "name": "vaultData",
          "type": "tuple"
        },
        {
          "internalType": "uint256",
          "name": "vaultFeatures",
          "type": "uint256"
        },
        {
          "components": [
            {
              "internalType": "uint32",
              "name": "mintFee",
              "type": "uint32"
            },
            {
              "internalType": "uint32",
              "name": "randomRedeemFee",
              "type": "uint32"
            },
            {
              "internalType": "uint32",
              "name": "targetRedeemFee",
              "type": "uint32"
            },
            {
              "internalType": "uint32",
              "name": "randomSwapFee",
              "type": "uint32"
            },
            {
              "internalType": "uint32",
              "name": "targetSwapFee",
              "type": "uint32"
            }
          ],
          "internalType": "struct NFTXVaultCreationZap.vaultFeesConfig",
          "name": "vaultFees",
          "type": "tuple"
        },
        {
          "components": [
            {
              "internalType": "int256",
              "name": "moduleIndex",
              "type": "int256"
            },
            {
              "internalType": "bytes",
              "name": "initData",
              "type": "bytes"
            }
          ],
          "internalType": "struct NFTXVaultCreationZap.vaultEligibilityStorage",
          "name": "eligibilityStorage",
          "type": "tuple"
        },
        {
          "components": [
            {
              "internalType": "uint256[]",
              "name": "assetTokenIds",
              "type": "uint256[]"
            },
            {
              "internalType": "uint256[]",
              "name": "assetTokenAmounts",
              "type": "uint256[]"
            },
            {
              "internalType": "uint256",
              "name": "minTokenIn",
              "type": "uint256"
            },
            {
              "internalType": "uint256",
              "name": "minWethIn",
              "type": "uint256"
            },
            {
              "internalType": "uint256",
              "name": "wethIn",
              "type": "uint256"
            }
          ],
          "internalType": "struct NFTXVaultCreationZap.vaultTokens",
          "name": "assetTokens",
          "type": "tuple"
        }
      ],
      "name": "createVault",
      "outputs": [
        {
          "internalType": "uint256",
          "name": "vaultId_",
          "type": "uint256"
        }
      ],
      "stateMutability": "payable",
      "type": "function"
    },
    {
      "inputs": [],
      "name": "inventoryStaking",
      "outputs": [
        {
          "internalType": "contract INFTXInventoryStaking",
          "name": "",
          "type": "address"
        }
      ],
      "stateMutability": "view",
      "type": "function"
    },
    {
      "inputs": [],
      "name": "lpStaking",
      "outputs": [
        {
          "internalType": "contract INFTXLPStaking",
          "name": "",
          "type": "address"
        }
      ],
      "stateMutability": "view",
      "type": "function"
    },
    {
      "inputs": [
        {
          "internalType": "address",
          "name": "",
          "type": "address"
        },
        {
          "internalType": "address",
          "name": "",
          "type": "address"
        },
        {
          "internalType": "uint256[]",
          "name": "",
          "type": "uint256[]"
        },
        {
          "internalType": "uint256[]",
          "name": "",
          "type": "uint256[]"
        },
        {
          "internalType": "bytes",
          "name": "",
          "type": "bytes"
        }
      ],
      "name": "onERC1155BatchReceived",
      "outputs": [
        {
          "internalType": "bytes4",
          "name": "",
          "type": "bytes4"
        }
      ],
      "stateMutability": "nonpayable",
      "type": "function"
    },
    {
      "inputs": [
        {
          "internalType": "address",
          "name": "",
          "type": "address"
        },
        {
          "internalType": "address",
          "name": "",
          "type": "address"
        },
        {
          "internalType": "uint256",
          "name": "",
          "type": "uint256"
        },
        {
          "internalType": "uint256",
          "name": "",
          "type": "uint256"
        },
        {
          "internalType": "bytes",
          "name": "",
          "type": "bytes"
        }
      ],
      "name": "onERC1155Received",
      "outputs": [
        {
          "internalType": "bytes4",
          "name": "",
          "type": "bytes4"
        }
      ],
      "stateMutability": "nonpayable",
      "type": "function"
    },
    {
      "inputs": [],
      "name": "owner",
      "outputs": [
        {
          "internalType": "address",
          "name": "",
          "type": "address"
        }
      ],
      "stateMutability": "view",
      "type": "function"
    },
    {
      "inputs": [
        {
          "internalType": "bool",
          "name": "_paused",
          "type": "bool"
        }
      ],
      "name": "pause",
      "outputs": [],
      "stateMutability": "nonpayable",
      "type": "function"
    },
    {
      "inputs": [],
      "name": "paused",
      "outputs": [
        {
          "internalType": "bool",
          "name": "",
          "type": "bool"
        }
      ],
      "stateMutability": "view",
      "type": "function"
    },
    {
      "inputs": [],
      "name": "renounceOwnership",
      "outputs": [],
      "stateMutability": "nonpayable",
      "type": "function"
    },
    {
      "inputs": [
        {
          "internalType": "bytes4",
          "name": "interfaceId",
          "type": "bytes4"
        }
      ],
      "name": "supportsInterface",
      "outputs": [
        {
          "internalType": "bool",
          "name": "",
          "type": "bool"
        }
      ],
      "stateMutability": "view",
      "type": "function"
    },
    {
      "inputs": [],
      "name": "sushiRouter",
      "outputs": [
        {
          "internalType": "contract IUniswapV2Router01",
          "name": "",
          "type": "address"
        }
      ],
      "stateMutability": "view",
      "type": "function"
    },
    {
      "inputs": [
        {
          "internalType": "address",
          "name": "newOwner",
          "type": "address"
        }
      ],
      "name": "transferOwnership",
      "outputs": [],
      "stateMutability": "nonpayable",
      "type": "function"
    },
    {
      "inputs": [],
      "name": "vaultFactory",
      "outputs": [
        {
          "internalType": "contract INFTXVaultFactory",
          "name": "",
          "type": "address"
        }
      ],
      "stateMutability": "view",
      "type": "function"
    },
    {
      "stateMutability": "payable",
      "type": "receive"
    }
  ],
  "transactionHash": "0xb27672fcf3f159f20c2be86a58348417f5c2d9f143befbac69a59119f51d5543",
  "args": [
    "0x1478bEB5D18B23d2bA90FcEe91d66460AC585e6b",
    "0x6e91A3f27cE6753f47C66B76B03E6A7bFdDB605B",
    "0xAfC303423580239653aFB6fb06d37D666ea0f5cA",
    "0x1b02dA8Cb0d097eB8D57A175b88c7D8b47997506",
    "0xdA190E1c7b35B0A4d12420A6789e3B212f896eF1",
    "0xB4FBF271143F4FBf7B91A5ded31805e42b2208d6"
  ],
  "numDeployments": 1,
  "solcInputHash": "fd5de7ae3c04dbfc1278b9b56b87daf9",
  "bytecode": "0x6101406040526002805460ff191690553480156200001c57600080fd5b5060405162002bca38038062002bca8339810160408190526200003f9162000171565b600080546001600160a01b031916339081178255604051909182917f8be0079c531659141344cd1fd0a4f28419497f9722a3daafe3b4186f6b6457e0908290a350600180556001600160601b0319606086811b82166101005285811b82166101205287811b821660805284811b821660a05283811b821660c05282901b1660e05260405163095ea7b360e01b81526001600160a01b038085166004830152600019602483015282169063095ea7b390604401602060405180830381600087803b1580156200010c57600080fd5b505af115801562000121573d6000803e3d6000fd5b505050506040513d601f19601f82011682018060405250810190620001479190620001f1565b505050505050506200021a565b80516001600160a01b03811681146200016c57600080fd5b919050565b60008060008060008060c087890312156200018a578182fd5b620001958762000154565b9550620001a56020880162000154565b9450620001b56040880162000154565b9350620001c56060880162000154565b9250620001d56080880162000154565b9150620001e560a0880162000154565b90509295509295509295565b60006020828403121562000203578081fd5b8151801515811462000213578182fd5b9392505050565b60805160601c60a05160601c60c05160601c60e05160601c6101005160601c6101205160601c6128d1620002f96000396000818161029e0152818161136c01526113d601526000818161024c0152818161093c01528181611500015261163e01526000818160f1015281816102d20152818161079601528181610f0b015281816110df015281816112e10152818161192b01526119e6015260006111f50152600081816101eb0152818161107d0152818161113a015281816111cb01526112240152600081816103640152818161082401526109d101526128d16000f3fe6080604052600436106100e15760003560e01c80639bf1401c1161007f578063d8a06f7311610059578063d8a06f7314610352578063f23a6e6114610386578063f2fde38b146103cb578063f3e301cf146103eb57600080fd5b80639bf1401c1461028c578063ad5c4648146102c0578063bc197c81146102f457600080fd5b80636d13582c116100bb5780636d13582c146101d9578063715018a61461022557806374a1b0b01461023a5780638da5cb5b1461026e57600080fd5b806301ffc9a71461016a57806302329a291461019f5780635c975abb146101bf57600080fd5b3661016557336001600160a01b037f000000000000000000000000000000000000000000000000000000000000000016146101635760405162461bcd60e51b815260206004820152600960248201527f4f6e6c792057455448000000000000000000000000000000000000000000000060448201526064015b60405180910390fd5b005b600080fd5b34801561017657600080fd5b5061018a610185366004612418565b61040c565b60405190151581526020015b60405180910390f35b3480156101ab57600080fd5b506101636101ba3660046123e0565b610475565b3480156101cb57600080fd5b5060025461018a9060ff1681565b3480156101e557600080fd5b5061020d7f000000000000000000000000000000000000000000000000000000000000000081565b6040516001600160a01b039091168152602001610196565b34801561023157600080fd5b506101636104e2565b34801561024657600080fd5b5061020d7f000000000000000000000000000000000000000000000000000000000000000081565b34801561027a57600080fd5b506000546001600160a01b031661020d565b34801561029857600080fd5b5061020d7f000000000000000000000000000000000000000000000000000000000000000081565b3480156102cc57600080fd5b5061020d7f000000000000000000000000000000000000000000000000000000000000000081565b34801561030057600080fd5b5061033961030f3660046122cf565b7fbc197c810000000000000000000000000000000000000000000000000000000095945050505050565b6040516001600160e01b03199091168152602001610196565b34801561035e57600080fd5b5061020d7f000000000000000000000000000000000000000000000000000000000000000081565b34801561039257600080fd5b506103396103a1366004612379565b7ff23a6e610000000000000000000000000000000000000000000000000000000095945050505050565b3480156103d757600080fd5b506101636103e6366004612297565b610593565b6103fe6103f9366004612440565b6106d1565b604051908152602001610196565b60006001600160e01b031982167f4e2312e000000000000000000000000000000000000000000000000000000000148061046f57507f01ffc9a7000000000000000000000000000000000000000000000000000000006001600160e01b03198316145b92915050565b6000546001600160a01b031633146104cf5760405162461bcd60e51b815260206004820181905260248201527f4f776e61626c653a2063616c6c6572206973206e6f7420746865206f776e6572604482015260640161015a565b6002805460ff1916911515919091179055565b6000546001600160a01b0316331461053c5760405162461bcd60e51b815260206004820181905260248201527f4f776e61626c653a2063616c6c6572206973206e6f7420746865206f776e6572604482015260640161015a565b600080546040516001600160a01b03909116907f8be0079c531659141344cd1fd0a4f28419497f9722a3daafe3b4186f6b6457e0908390a36000805473ffffffffffffffffffffffffffffffffffffffff19169055565b6000546001600160a01b031633146105ed5760405162461bcd60e51b815260206004820181905260248201527f4f776e61626c653a2063616c6c6572206973206e6f7420746865206f776e6572604482015260640161015a565b6001600160a01b0381166106695760405162461bcd60e51b815260206004820152602660248201527f4f776e61626c653a206e6577206f776e657220697320746865207a65726f206160448201527f6464726573730000000000000000000000000000000000000000000000000000606482015260840161015a565b600080546040516001600160a01b03808516939216917f8be0079c531659141344cd1fd0a4f28419497f9722a3daafe3b4186f6b6457e091a36000805473ffffffffffffffffffffffffffffffffffffffff19166001600160a01b0392909216919091179055565b6000600260015414156107265760405162461bcd60e51b815260206004820152601f60248201527f5265656e7472616e637947756172643a207265656e7472616e742063616c6c00604482015260640161015a565b600260018190555460ff161561077e5760405162461bcd60e51b815260206004820152600d60248201527f5a61702069732070617573656400000000000000000000000000000000000000604482015260640161015a565b6040516370a0823160e01b81523060048201526000907f00000000000000000000000000000000000000000000000000000000000000006001600160a01b0316906370a082319060240160206040518083038186803b1580156107e057600080fd5b505afa1580156107f4573d6000803e3d6000fd5b505050506040513d601f19601f8201168201806040525081019061081891906124dc565b90506001600160a01b037f00000000000000000000000000000000000000000000000000000000000000001663ef8658db61085660608a018a61276d565b61086360808c018c61276d565b61087060208e018e612297565b8d602001602081019061088391906123e0565b8e604001602081019061089691906123e0565b6040518863ffffffff1660e01b81526004016108b89796959493929190612676565b602060405180830381600087803b1580156108d257600080fd5b505af11580156108e6573d6000803e3d6000fd5b505050506040513d601f19601f8201168201806040525081019061090a91906124dc565b6040517ff0f2a4d7000000000000000000000000000000000000000000000000000000008152600481018290529092507f00000000000000000000000000000000000000000000000000000000000000006001600160a01b03169063f0f2a4d790602401600060405180830381600087803b15801561098857600080fd5b505af115801561099c573d6000803e3d6000fd5b50506040517f81a36fb600000000000000000000000000000000000000000000000000000000815260048101859052600092507f00000000000000000000000000000000000000000000000000000000000000006001600160a01b031691506381a36fb69060240160206040518083038186803b158015610a1c57600080fd5b505afa158015610a30573d6000803e3d6000fd5b505050506040513d601f19601f82011682018060405250810190610a5491906122b3565b90506000853512610aef576001600160a01b038116635877aee68635610a7d602089018961276d565b6040518463ffffffff1660e01b8152600401610a9b939291906126fb565b602060405180830381600087803b158015610ab557600080fd5b505af1158015610ac9573d6000803e3d6000fd5b505050506040513d601f19601f82011682018060405250810190610aed91906122b3565b505b6000610afb858061271e565b91505080156116c757610b1460408a0160208b016123e0565b610cd85760005b81811015610cd257610b68610b3360208c018c612297565b610b3d888061271e565b84818110610b5b57634e487b7160e01b600052603260045260246000fd5b9050602002013585611acb565b73b47e3cd837ddf8e4c57f05d70ab865de6e193bbb610b8a60208c018c612297565b6001600160a01b03161415610cca576000610ba5878061271e565b83818110610bc357634e487b7160e01b600052603260045260246000fd5b60405160209091029290920135602483015250600060448201526001600160a01b038516606482015260840160408051601f19818403018152919052602080820180516001600160e01b03167fbf31196f000000000000000000000000000000000000000000000000000000001790529091506000908190610c47908e018e612297565b6001600160a01b031683604051610c5e91906125bb565b6000604051808303816000865af19150503d8060008114610c9b576040519150601f19603f3d011682016040523d82523d6000602084013e610ca0565b606091505b5091509150818190610cc55760405162461bcd60e51b815260040161015a91906126c8565b505050505b600101610b1b565b50610deb565b610ce560208a018a612297565b6001600160a01b0316632eb2c2d63330610cff898061271e565b610d0c60208c018c61271e565b6040518763ffffffff1660e01b8152600401610d2d969594939291906125d7565b600060405180830381600087803b158015610d4757600080fd5b505af1158015610d5b573d6000803e3d6000fd5b50610d6d9250505060208a018a612297565b6040517fa22cb4650000000000000000000000000000000000000000000000000000000081526001600160a01b03848116600483015260016024830152919091169063a22cb46590604401600060405180830381600087803b158015610dd257600080fd5b505af1158015610de6573d6000803e3d6000fd5b505050505b6001600160a01b03821663b10402ea610e04878061271e565b610e1160208a018a61271e565b306040518663ffffffff1660e01b8152600401610e32959493929190612633565b602060405180830381600087803b158015610e4c57600080fd5b505af1158015610e60573d6000803e3d6000fd5b505050506040513d601f19601f82011682018060405250810190610e8491906124dc565b508160408601351561143d5785608001353411610f095760405162461bcd60e51b815260206004820152602560248201527f496e73756666696369656e74207661756c742073656e7420666f72206c69717560448201527f6964697479000000000000000000000000000000000000000000000000000000606482015260840161015a565b7f00000000000000000000000000000000000000000000000000000000000000006001600160a01b031663d0e30db0346040518263ffffffff1660e01b81526004016000604051808303818588803b158015610f6457600080fd5b505af1158015610f78573d6000803e3d6000fd5b5050604080516370a0823160e01b8152306004820152908a013593506001600160a01b03851692506370a08231915060240160206040518083038186803b158015610fc257600080fd5b505afa158015610fd6573d6000803e3d6000fd5b505050506040513d601f19601f82011682018060405250810190610ffa91906124dc565b101561106e5760405162461bcd60e51b815260206004820152602a60248201527f496e73756666696369656e7420746f6b656e7320616371756972656420666f7260448201527f206c697175696469747900000000000000000000000000000000000000000000606482015260840161015a565b6110a66001600160a01b0382167f00000000000000000000000000000000000000000000000000000000000000006040890135611d76565b604080517fe8e337000000000000000000000000000000000000000000000000000000000081526001600160a01b0383811660048301527f0000000000000000000000000000000000000000000000000000000000000000811660248301529188013560448201819052608089013560648301526084820152606088013560a48201523060c48201524260e48201526000917f0000000000000000000000000000000000000000000000000000000000000000169063e8e337009061010401606060405180830381600087803b15801561117f57600080fd5b505af1158015611193573d6000803e3d6000fd5b505050506040513d601f19601f820116820180604052508101906111b791906124f4565b92506111f19150506001600160a01b0383167f00000000000000000000000000000000000000000000000000000000000000006000611d76565b60007f00000000000000000000000000000000000000000000000000000000000000006001600160a01b0316636d91c0e27f00000000000000000000000000000000000000000000000000000000000000006001600160a01b031663c45a01556040518163ffffffff1660e01b815260040160206040518083038186803b15801561127b57600080fd5b505afa15801561128f573d6000803e3d6000fd5b505050506040513d601f19601f820116820180604052508101906112b391906122b3565b60405160e083901b6001600160e01b03191681526001600160a01b03918216600482015286821660248201527f0000000000000000000000000000000000000000000000000000000000000000909116604482015260640160206040518083038186803b15801561132357600080fd5b505afa158015611337573d6000803e3d6000fd5b505050506040513d601f19601f8201168201806040525081019061135b91906122b3565b90506113916001600160a01b0382167f000000000000000000000000000000000000000000000000000000000000000084611d76565b6040517f6c9b958800000000000000000000000000000000000000000000000000000000815260048101889052336024820152604481018390526202a30060648201527f00000000000000000000000000000000000000000000000000000000000000006001600160a01b031690636c9b958890608401600060405180830381600087803b15801561142257600080fd5b505af1158015611436573d6000803e3d6000fd5b5050505050505b6040516370a0823160e01b81523060048201526000906001600160a01b038316906370a082319060240160206040518083038186803b15801561147f57600080fd5b505afa158015611493573d6000803e3d6000fd5b505050506040513d601f19601f820116820180604052508101906114b791906124dc565b905080156116c4576040517f034fc83c000000000000000000000000000000000000000000000000000000008152600481018790526001600160a01b038084169163a9059cbb917f0000000000000000000000000000000000000000000000000000000000000000169063034fc83c9060240160206040518083038186803b15801561154257600080fd5b505afa158015611556573d6000803e3d6000fd5b505050506040513d601f19601f8201168201806040525081019061157a91906122b3565b6040516001600160e01b031960e084901b1681526001600160a01b03909116600482015260248101849052604401602060405180830381600087803b1580156115c257600080fd5b505af11580156115d6573d6000803e3d6000fd5b505050506040513d601f19601f820116820180604052508101906115fa91906123fc565b506040517f2699f55a0000000000000000000000000000000000000000000000000000000081526004810187905260248101829052336044820152600260648201527f00000000000000000000000000000000000000000000000000000000000000006001600160a01b031690632699f55a90608401602060405180830381600087803b15801561168a57600080fd5b505af115801561169e573d6000803e3d6000fd5b505050506040513d601f19601f820116820180604052508101906116c291906124dc565b505b50505b601f88101561178657816001600160a01b0316630d636a096116ea8a6004611efa565b6116f58b6003611efa565b6117008c6002611efa565b61170b8d6001611efa565b6117168e6000611efa565b6040516001600160e01b031960e088901b168152941515600486015292151560248501529015156044840152151560648301521515608482015260a401600060405180830381600087803b15801561176d57600080fd5b505af1158015611781573d6000803e3d6000fd5b505050505b6001600160a01b0382166304a66b486117a260208a018a612521565b6117b79063ffffffff166402540be4006127e3565b6117c760408b0160208c01612521565b6117dc9063ffffffff166402540be4006127e3565b6117ec60608c0160408d01612521565b6118019063ffffffff166402540be4006127e3565b61181160808d0160608e01612521565b6118269063ffffffff166402540be4006127e3565b61183660a08e0160808f01612521565b61184b9063ffffffff166402540be4006127e3565b6040516001600160e01b031960e088901b1681526004810195909552602485019390935260448401919091526064830152608482015260a401600060405180830381600087803b15801561189e57600080fd5b505af11580156118b2573d6000803e3d6000fd5b50505050816001600160a01b031663c3cb8c146040518163ffffffff1660e01b8152600401600060405180830381600087803b1580156118f157600080fd5b505af1158015611905573d6000803e3d6000fd5b50506040516370a0823160e01b8152306004820152600092508591506001600160a01b037f000000000000000000000000000000000000000000000000000000000000000016906370a082319060240160206040518083038186803b15801561196d57600080fd5b505afa158015611981573d6000803e3d6000fd5b505050506040513d601f19601f820116820180604052508101906119a591906124dc565b6119af9190612802565b90508015611ab9576040517f2e1a7d4d000000000000000000000000000000000000000000000000000000008152600481018290527f00000000000000000000000000000000000000000000000000000000000000006001600160a01b031690632e1a7d4d90602401600060405180830381600087803b158015611a3257600080fd5b505af1158015611a46573d6000803e3d6000fd5b50506040516000925033915083156108fc0290849084818181858888f19350505050905080611ab75760405162461bcd60e51b815260206004820152601460248201527f4661696c656420746f2073656e64204574686572000000000000000000000000604482015260640161015a565b505b50506001805550909695505050505050565b60606001600160a01b03841673b47e3cd837ddf8e4c57f05d70ab865de6e193bbb1415611c8357600083604051602401611b0791815260200190565b60408051601f198184030181529181526020820180516001600160e01b03167f58178168000000000000000000000000000000000000000000000000000000001790525190915060009081906001600160a01b03881690611b699085906125bb565b600060405180830381855afa9150503d8060008114611ba4576040519150601f19603f3d011682016040523d82523d6000602084013e611ba9565b606091505b5091509150600081806020019051810190611bc491906122b3565b9050828015611bdb57506001600160a01b03811633145b611c275760405162461bcd60e51b815260206004820152601160248201527f4e6f7420746865204e4654206f776e6572000000000000000000000000000000604482015260640161015a565b6040516024810188905260440160408051601f198184030181529190526020810180516001600160e01b03167f8264fe98000000000000000000000000000000000000000000000000000000001790529450611ceb9350505050565b6040513360248201526001600160a01b03831660448201526064810184905260840160408051601f198184030181529190526020810180516001600160e01b03167f42842e0e0000000000000000000000000000000000000000000000000000000017905290505b600080856001600160a01b031683604051611d0691906125bb565b6000604051808303816000865af19150503d8060008114611d43576040519150601f19603f3d011682016040523d82523d6000602084013e611d48565b606091505b5091509150818190611d6d5760405162461bcd60e51b815260040161015a91906126c8565b50505050505050565b801580611e1857506040517fdd62ed3e0000000000000000000000000000000000000000000000000000000081523060048201526001600160a01b03838116602483015284169063dd62ed3e9060440160206040518083038186803b158015611dde57600080fd5b505afa158015611df2573d6000803e3d6000fd5b505050506040513d601f19601f82011682018060405250810190611e1691906124dc565b155b611e8a5760405162461bcd60e51b815260206004820152603660248201527f5361666545524332303a20617070726f76652066726f6d206e6f6e2d7a65726f60448201527f20746f206e6f6e2d7a65726f20616c6c6f77616e636500000000000000000000606482015260840161015a565b604080516001600160a01b038416602482015260448082018490528251808303909101815260649091019091526020810180516001600160e01b03167f095ea7b300000000000000000000000000000000000000000000000000000000179052611ef5908490611f1c565b505050565b6000600183831c8116908114611f11576000611f14565b60015b949350505050565b6000611f71826040518060400160405280602081526020017f5361666545524332303a206c6f772d6c6576656c2063616c6c206661696c6564815250856001600160a01b03166120019092919063ffffffff16565b805190915015611ef55780806020019051810190611f8f91906123fc565b611ef55760405162461bcd60e51b815260206004820152602a60248201527f5361666545524332303a204552433230206f7065726174696f6e20646964206e60448201527f6f74207375636365656400000000000000000000000000000000000000000000606482015260840161015a565b6060612010848460008561201a565b90505b9392505050565b6060824710156120925760405162461bcd60e51b815260206004820152602660248201527f416464726573733a20696e73756666696369656e742062616c616e636520666f60448201527f722063616c6c0000000000000000000000000000000000000000000000000000606482015260840161015a565b843b6120e05760405162461bcd60e51b815260206004820152601d60248201527f416464726573733a2063616c6c20746f206e6f6e2d636f6e7472616374000000604482015260640161015a565b600080866001600160a01b031685876040516120fc91906125bb565b60006040518083038185875af1925050503d8060008114612139576040519150601f19603f3d011682016040523d82523d6000602084013e61213e565b606091505b509150915061214e828286612159565b979650505050505050565b60608315612168575081612013565b8251156121785782518084602001fd5b8160405162461bcd60e51b815260040161015a91906126c8565b600082601f8301126121a2578081fd5b8135602067ffffffffffffffff8211156121be576121be61285f565b8160051b6121cd8282016127b2565b8381528281019086840183880185018910156121e7578687fd5b8693505b858410156122095780358352600193909301929184019184016121eb565b50979650505050505050565b600082601f830112612225578081fd5b813567ffffffffffffffff81111561223f5761223f61285f565b612252601f8201601f19166020016127b2565b818152846020838601011115612266578283fd5b816020850160208301379081016020019190915292915050565b600060a08284031215612291578081fd5b50919050565b6000602082840312156122a8578081fd5b813561201381612875565b6000602082840312156122c4578081fd5b815161201381612875565b600080600080600060a086880312156122e6578081fd5b85356122f181612875565b9450602086013561230181612875565b9350604086013567ffffffffffffffff8082111561231d578283fd5b61232989838a01612192565b9450606088013591508082111561233e578283fd5b61234a89838a01612192565b9350608088013591508082111561235f578283fd5b5061236c88828901612215565b9150509295509295909350565b600080600080600060a08688031215612390578081fd5b853561239b81612875565b945060208601356123ab81612875565b93506040860135925060608601359150608086013567ffffffffffffffff8111156123d4578182fd5b61236c88828901612215565b6000602082840312156123f1578081fd5b81356120138161288d565b60006020828403121561240d578081fd5b81516120138161288d565b600060208284031215612429578081fd5b81356001600160e01b031981168114612013578182fd5b60008060008060006101208688031215612458578081fd5b853567ffffffffffffffff8082111561246f578283fd5b61247b89838a01612280565b9650602088013595506124918960408a01612280565b945060e08801359150808211156124a6578283fd5b908701906040828a0312156124b9578283fd5b90925061010087013590808211156124cf578283fd5b5061236c88828901612280565b6000602082840312156124ed578081fd5b5051919050565b600080600060608486031215612508578081fd5b8351925060208401519150604084015190509250925092565b600060208284031215612532578081fd5b813563ffffffff81168114612013578182fd5b81835260007f07ffffffffffffffffffffffffffffffffffffffffffffffffffffffffffffff831115612576578081fd5b8260051b80836020870137939093016020019283525090919050565b81835281816020850137506000828201602090810191909152601f909101601f19169091010190565b600082516125cd818460208701612819565b9190910192915050565b60006001600160a01b03808916835280881660208401525060a0604083015261260460a083018688612545565b8281036060840152612617818587612545565b8381036080909401939093525081526020019695505050505050565b606081526000612647606083018789612545565b828103602084015261265a818688612545565b9150506001600160a01b03831660408301529695505050505050565b60a08152600061268a60a08301898b612592565b828103602084015261269d81888a612592565b6001600160a01b03969096166040840152505091151560608301521515608090910152949350505050565b60208152600082518060208401526126e7816040850160208701612819565b601f01601f19169190910160400192915050565b838152604060208201526000612715604083018486612592565b95945050505050565b6000808335601e19843603018112612734578283fd5b83018035915067ffffffffffffffff82111561274e578283fd5b6020019150600581901b360382131561276657600080fd5b9250929050565b6000808335601e19843603018112612783578283fd5b83018035915067ffffffffffffffff82111561279d578283fd5b60200191503681900382131561276657600080fd5b604051601f8201601f1916810167ffffffffffffffff811182821017156127db576127db61285f565b604052919050565b60008160001904831182151516156127fd576127fd612849565b500290565b60008282101561281457612814612849565b500390565b60005b8381101561283457818101518382015260200161281c565b83811115612843576000848401525b50505050565b634e487b7160e01b600052601160045260246000fd5b634e487b7160e01b600052604160045260246000fd5b6001600160a01b038116811461288a57600080fd5b50565b801515811461288a57600080fdfea26469706673582212207c3c33e25b4ca2b8a242a7b3030a40488ba04a38cf081996ee2d76fec9d1c68a64736f6c63430008040033",
  "devdoc": {
    "author": "Twade",
    "kind": "dev",
    "methods": {
      "createVault((address,bool,bool,string,string),uint256,(uint32,uint32,uint32,uint32,uint32),(int256,bytes),(uint256[],uint256[],uint256,uint256,uint256))": {
        "details": "Tokens are deposited into the vault prior to fees being sent. ",
        "params": {
          "assetTokens": "Tokens to be transferred to the vault in exchange for vault tokens ",
          "eligibilityStorage": "Eligibility implementation, stored in a `vaultEligibilityStorage` struct",
          "vaultData": "Basic information about the vault stored in `vaultInfo` struct",
          "vaultFeatures": "A numeric representation of boolean values for features on the vault",
          "vaultFees": "Fee definitions stored in a `vaultFeesConfig` struct"
        },
        "returns": {
          "vaultId_": "The numeric ID of the NFTX vault"
        }
      },
      "owner()": {
        "details": "Returns the address of the current owner."
      },
      "pause(bool)": {
        "params": {
          "_paused": "New pause state"
        }
      },
      "renounceOwnership()": {
        "details": "Leaves the contract without owner. It will not be possible to call `onlyOwner` functions anymore. Can only be called by the current owner. NOTE: Renouncing ownership will leave the contract without an owner, thereby removing any functionality that is only available to the owner."
      },
      "supportsInterface(bytes4)": {
        "details": "See {IERC165-supportsInterface}."
      },
      "transferOwnership(address)": {
        "details": "Transfers ownership of the contract to a new account (`newOwner`). Can only be called by the current owner."
      }
    },
    "version": 1
  },
  "userdoc": {
    "kind": "user",
    "methods": {
      "WETH()": {
        "notice": "An interface for the WETH contract"
      },
      "constructor": {
        "notice": "Initialises our zap by setting contract addresses onto their respective interfaces."
      },
      "createVault((address,bool,bool,string,string),uint256,(uint32,uint32,uint32,uint32,uint32),(int256,bytes),(uint256[],uint256[],uint256,uint256,uint256))": {
        "notice": "Creates an NFTX vault, handling any desired settings and tokens. "
      },
      "inventoryStaking()": {
        "notice": "An interface for the NFTX Vault Factory contract"
      },
      "pause(bool)": {
        "notice": "Allows our zap to be paused to prevent any processing. "
      },
      "paused()": {
        "notice": "Allows zap to be paused"
      },
      "sushiRouter()": {
        "notice": "Holds the mapping of our sushi router"
      },
      "vaultFactory()": {
        "notice": "An interface for the NFTX Vault Factory contract"
      }
    },
    "notice": "An amalgomation of vault creation steps, merged and optimised in a single contract call in an attempt reduce gas costs to the end-user. ",
    "version": 1
  },
  "storageLayout": {
    "storage": [
      {
        "astId": 4285,
        "contract": "contracts/solidity/zaps/VaultCreationZap.sol:NFTXVaultCreationZap",
        "label": "_owner",
        "offset": 0,
        "slot": "0",
        "type": "t_address"
      },
      {
        "astId": 4397,
        "contract": "contracts/solidity/zaps/VaultCreationZap.sol:NFTXVaultCreationZap",
        "label": "_status",
        "offset": 0,
        "slot": "1",
        "type": "t_uint256"
      },
      {
        "astId": 4867,
        "contract": "contracts/solidity/zaps/VaultCreationZap.sol:NFTXVaultCreationZap",
        "label": "paused",
        "offset": 0,
        "slot": "2",
        "type": "t_bool"
      }
    ],
    "types": {
      "t_address": {
        "encoding": "inplace",
        "label": "address",
        "numberOfBytes": "20"
      },
      "t_bool": {
        "encoding": "inplace",
        "label": "bool",
        "numberOfBytes": "1"
      },
      "t_uint256": {
        "encoding": "inplace",
        "label": "uint256",
        "numberOfBytes": "32"
      }
    }
  }
}